:020000040800F2
:1000000000400020F5090008F5040008F704000886
:1000100000000000000000000000000000000000E0
:10002000000000000000000000000000F9040008CB
:100030000000000000000000450A0008FB04000862
:10004000450A0008450A0008450A0008450A000854
:10005000450A0008450A0008450A0008450A000844
:10006000450A0008450A0008450A0008450A000834
:10007000450A0008450A0008450A0008450A000824
:10008000450A0008450A0008450A0008450A000814
:10009000450A0008450A0008450A0008450A000804
:1000A000450A0008450A0008450A0008450A0008F4
:1000B000450A0008450A0008450A0008450A0008E4
:1000C000450A0008450A0008450A0008450A0008D4
:1000D00081030008450A0008450A0008450A00088F
:1000E000450A0008450A0008450A0008450A0008B4
:1000F000450A0008450A0008450A0008450A0008A4
:10010000450A0008450A0008450A0008450A000893
:04011000450A000894
:100114000348044B834202D0034B03B11847704792
:100124000800002008000020000000000548064BDD
:100134001B1AD90F01EBA301491002D0034B03B1E1
:100144001847704708000020080000200000000045
:1001540010B5064C237843B9FFF7DAFF044B13B10B
:100164000448AFF300800123237010BD0800002071
:1001740000000000680B000808B5054B1BB10549D9
:100184000548AFF30080BDE80840FFF7CFBF00BFCC
:10019400000000000C000020680B000800B589B0C6
:1001A400019002A800F016FB029B4FF47A72B3FB95
:1001B400F2F34FF0E022013B53610E4BF02183F840
:1001C40023100521002393611161116921F00201BB
:1001D40011610199994208D84FF0E022136923F084
:1001E4000103136109B05DF804FB1169C903FCD56F
:1001F4000133EEE700ED00E030B5044687B0104669
:100204000D4600F03FFB684600F0CBFA0123019352
:100214006946022320460095049300F0A1FA07B032
:1002240030BD00F0D3BA00F0CDBA00F0CDBA000072
:1002340070B580208CB000F025FB4FF4804000F0B6
:1002440029FB00244FF4007202230126052506A988
:100254001B48CDE90623CDE90844CDE90A6500F041
:100264007FFA4FF4806306A91548CDE90634CDE939
:100274000844CDE90A6500F073FA4FF4E133CDE99F
:10028400023402A94FF440230E480493ADF81440FD
:1002940000F036FB40F225510A4800F061FB0A4B9E
:1002A400019301A800F0DEF9064800F053FB074B68
:1002B4001C80074B1C80074B1C800CB070BD00BF1A
:1002C40000340240003801402400000128000020CE
:1002D400260000202400002010B504460548802193
:1002E40000F059FB0028F9D021460248BDE810402F
:1002F40000F049BB0038014010B5441E14F8010F4A
:1003040000B910BDFFF7E8FFF8E738B50446451813
:10031400AC4200D138BD14F8010BFFF7DDFFF7E75D
:100324002DE9F041DFF84CC0DFF84CE0BCF8008068
:10033400BEF800300E4D0026074634460139B0B2EF
:10034400A8EB0002B04592B208D11CB1AEF800305F
:10035400ACF8002000233B70BDE8F081B142F4DD2D
:10036400EA5C07F8012B0133DBB201360124E6E72E
:100374002A000020240000202600002010B5104888
:1003840040F2255100F00EFBA8B10E4C0C4840F28F
:10039400255100F025FB23880948FF2B0CD800F0D9
:1003A400F6FA094A09491388C8540133DBB21380A9
:1003B40023880133238010BDBDE8104000F0E7BA64
:1003C4000038014024000020280000202A000020DA
:1003D40070B5A0B0FFF72CFF3748FFF78DFF374803
:1003E400FFF78AFF3648FFF787FF3648802202214D
:1003F400FFF702FF802233480C21FFF7FDFE31484E
:100404000E21FFF712FF2F480C21FFF70CFF4FF4CA
:100414007A70FFF7C3FE0A2580216846FFF780FF44
:10042400044620B32848FFF767FF21466846FFF7D4
:100434006CFF2648FFF760FF2548FFF75DFF214862
:10044400022100F0B9F988B32248FFF755FF1D488F
:10045400042100F0B1F958B31F48FFF74DFF1948C4
:10046400082100F0A9F928B31C48FFF745FF154BF4
:10047400022418469C6104211E46FFF7D2FE4FF465
:100484007A70FFF78BFE08213046FFF7CAFE4FF45F
:100494007A70FFF783FEB4624FF47A70FFF77EFE42
:1004A400013DB9D10E48FFF727FFB4E70D48CCE76B
:1004B4000D48D2E70D48D8E7800B00089F0B0008D1
:1004C400B20B000800340240D70B00089C0B000854
:1004D400E20B0008EF0B0008020C0008150C0008E2
:1004E4002A0C0008F80B00080B0C00081F0C00086D
:1004F4007047FEE770477047534AD2F8883043F498
:10050400700384B0C2F88830504B1A6842F001027C
:100514001A6059684E4A0A405A601A684D4922F0D6
:10052400847222F480321A601A6822F480221A60DB
:100534005A6822F0036222F470225A604FF4605227
:10054400DA6200221A631A649960D96941F0805111
:10055400D961D96921F08051D9613F49086840F0D7
:1005640080000860086820F01000086002928DF88E
:10057400032003921A6842F480321A601A68C2F3A4
:1005840040428DF80320039A013203929DF8032020
:100594001AB9039AB2F5005FF0D11A68C2F3404267
:1005A4008DF803209DF8032042B92C4B2C4A1A6085
:1005B400254B4FF000629A6004B07047264A1168D8
:1005C40021F007011160116841F0020111605A68BD
:1005D4005A605A6842F400525A605A6842F4A0625F
:1005E4005A605A6822F0036222F470225A601A6C2C
:1005F40022F001021A645A680192019A42F480328C
:100604000192019A42F400320192019A42F003628B
:1006140042F440220192019A5A60029A1A641A68BA
:1006240042F080721A601A689201FCD55A6822F06E
:1006340003025A605A6842F002025A605A6802F091
:100644000C02082AFAD1B3E700ED00E000100240E2
:100654000CC07FF80000BF0400200240000000200E
:1006640000127A0070B50178012501F01F039D4046
:10067400C3784C09BBB10E4B4678DA68D243C2F357
:100684000222C2F104039E4083780F2020FA02F272
:100694001340084A33431B011144DBB281F8003391
:1006A40042F8245070BD034B203443F82450F9E73A
:1006B40000ED00E000E100E010B502F00704A40042
:1006C40012074FF00F034CBF426A026A03FA04F3A5
:1006D4006FEA030301FA04F14BBF134013400B43C9
:1006E4000B434CBF4362036210BD30B5032304685F
:1006F4005500AB4024EA030401F00303AB40234359
:10070400036021F01003013B012B08D84368012446
:100714009440090923EA040391401943416030BD20
:1007240010B5C36852000324944023EA04039140A3
:100734001943C16010BD10B583680124944023EAB5
:10074400040391401943816010BD10B5C36A52007F
:100754000324944023EA040391401943C16210BD69
:1007640070B50C4600250126236833FA05F200D142
:1007740070BD06FA05F21A4211D061692A46FFF7E4
:100784009BFF2A466168FFF7B0FFA168FFF7C8FF27
:10079400E1682A46FFF7CFFF2169FFF7D6FF01354D
:1007A400E2E74FF6FF7303600F220023C360436048
:1007B400426183600361704740690840003818BF94
:1007C40001207047816170478162704743695940D5
:1007D40041617047254930B54C684A68250140F2AB
:1007E4000F2303EA944302F480324ABF6FF4F77490
:1007F40002331B19002A35D10A6C12F0010F14BF01
:100804001B4A1C4A4C681C4D53431A4A04F00C04FE
:10081400082C08BF1A4602604C68C4F303142C5D0C
:10082400E24042604C68C4F302242C5D22FA04F4D2
:1008340084604C68C4F3C2242C5D104D22FA04F485
:10084400C460CC6A04F00F042C5DB2FBF4F2426184
:10085400CA6A0B49C2F3031231F81220B3FBF2F354
:10086400036130BD4A6812F4003FC8E7001002403B
:1008740000093D0000127A007E0C00086E0C00088E
:100884004E0C0008024A536903435361704700BF8A
:1008940000100240024A936903439361704700BF0A
:1008A4000010024030B587B0044668460D46FFF795
:1008B40091FF124B9C4207D003F5C0539C4203D0D6
:1008C40003F580639C4216D1039B1922534364228F
:1008D400AD00B3FBF5F3B3FBF2F102FB11331B01E3
:1008E4003233B3FBF2F303F00F0343EA01139BB279
:1008F400238107B030BD029BE7E700BF0038014009
:1009040038B504460D460968FFF7CCFFA389AA88C9
:100914009BB223F480531343A381238AEA889BB2B6
:1009240023F4405313432382A3892A899BB223F4DB
:10093400C0631343A381A3896A899BB223F00C0388
:100944001343A381A38AAA899BB223F4407313435C
:10095400A38238BD83899BB243F4005383817047DB
:10096400C1F34213012201F01F01012B02FA01F22B
:1009740004D10C300368134303607047022B0CBF8F
:1009840010301430F6E7C1F3080181807047808885
:10099400C0F308007047038801EA0300003818BF59
:1009A40001207047C1F3421210B5034601F01F0441
:1009B4000120012A00FA04F00DD19A891B8892B211
:1009C40010409BB230B1090A01228A401340181E1C
:1009D40018BF012010BD022A0CBF1A8A9A8AEDE7BB
:1009E400090A01238B40DB439BB20380704700005C
:1009F4000D4885460D480E490E4A002302E0D4589E
:100A0400C4500433C4188C42F9D30B4A0B4C002352
:100A140001E013600432A242FBD3FFF76DFD00F046
:100A240011F8FFF7D5FCFEE700400020000000208D
:100A3400080000209C0C000808000020C4020020CC
:100A4400FEE7000070B50F4B0F4DAB42A3EB05065C
:100A540007D0B610002455F8043B01349847A64249
:100A6400F9D800F07FF8094D094B5E1BAB424FEA01
:100A7400A60606D0002455F8043B01349847A64244
:100A8400F9D870BD900C0008900C0008900C000878
:100A9400980C0008704700BF704700BF024B13B1A9
:100AA400024800F005B8704700000000C10A0008C1
:100AB400002301461A46184600F014B838B5074D0D
:100AC400074C2C1BA41005D0013C55F8043D984755
:100AD400002CF9D1BDE8384000F04AB89C0C00085D
:100AE400980C00082DE9F8431B4D064628689846E3
:100AF4000F469146FFF7CEFF184B1C681CB32868BD
:100B040065681F2D22DC4EB96B1C0235636044F806
:100B14002570FFF7C1FF0020BDE8F88304EB8501D1
:100B24000123C1F88890D4F88821AB401A43022EDF
:100B3400C4F88821C1F80881E6D1D4F88C211A437D
:100B4400C4F88C21E0E7064C1C60D8E7FFF7A4FF4B
:100B54004FF0FF30E0E700BF040000203001002028
:100B640034010020F8B500BFF8BC08BC9E467047AD
:0C0B7400F8B500BFF8BC08BC9E467047F6
:100B80004E33324734333020555341525431205480
:100B90006573742053746172746564210D0A004298
:100BA000617564726174653A203131353230300DCF
:100BB0000A0053656E6420616E792063686172611A
:100BC0006374657220746F206563686F206261636F
:100BD0006B2E2E2E0D0A0052656365697665643AA8
:100BE00020004C4544205374617475733A20004CC6
:100BF0004544313D4F4E20004C4544313D4F464623
:100C000020004C4544323D4F4E20004C4544323D7F
:100C10004F464620004C4544333D4F4E0D0A004C94
:100C20004544333D4F46460D0A0053797374656D54
:100C30002072756E6E696E672E2E2E204C454420F4
:100C4000626C696E6B696E672E2E2E0D0A000100B4
:100C500002000400060008000A000C00100020003A
:100C600040008000000100010001000100010102BC
:100C70000406080A0C10202020202020202000003C
:100C80000000010203040102030406070809000032
:080C9000A10A00087D01000823
:040C980055010008FA
:080C9C000020A1072C0100203B
:04000005080009F5F1
:00000001FF
