:020000040800F2
:100000000040002099120008090400080B040008B1
:1000100000000000000000000000000000000000E0
:100020000000000000000000000000000D040008B7
:100030000000000000000000E91200080F040008A2
:10004000E9120008E9120008E9120008E9120008A4
:10005000E9120008E9120008E9120008E912000894
:10006000E9120008E9120008E9120008E912000884
:10007000E9120008E9120008E9120008E912000874
:10008000E9120008E9120008E9120008E912000864
:10009000E9120008E9120008E9120008E912000854
:1000A000E9120008E9120008E9120008E912000844
:1000B000E9120008E9120008E9120008E912000834
:1000C000E9120008E9120008E9120008E912000824
:1000D000B5030008E9120008E9120008E912000857
:1000E000E9120008E9120008E9120008E912000804
:1000F000E9120008E9120008E9120008E9120008F4
:10010000E9120008E9120008E9120008E9120008E3
:04011000E9120008E8
:10011400844641EA000313F003036DD1403A41D30E
:1001240051F8043B40F8043B51F8043B40F8043BCD
:1001340051F8043B40F8043B51F8043B40F8043BBD
:1001440051F8043B40F8043B51F8043B40F8043BAD
:1001540051F8043B40F8043B51F8043B40F8043B9D
:1001640051F8043B40F8043B51F8043B40F8043B8D
:1001740051F8043B40F8043B51F8043B40F8043B7D
:1001840051F8043B40F8043B51F8043B40F8043B6D
:1001940051F8043B40F8043B51F8043B40F8043B5D
:1001A400403ABDD2303211D351F8043B40F8043BFD
:1001B40051F8043B40F8043B51F8043B40F8043B3D
:1001C40051F8043B40F8043B103AEDD20C3205D30D
:1001D40051F8043B40F8043B043AF9D2043208D005
:1001E400D2071CBF11F8013B00F8013B01D30B8877
:1001F40003806046704700BF082A13D38B078DD055
:1002040010F003038AD0C3F10403D21ADB071CBF26
:1002140011F8013B00F8013B80D331F8023B20F890
:10022400023B7BE7043AD9D3013A11F8013B00F8C9
:10023400013BF9D20B7803704B7843708B78837051
:10024400604670470348044B834202D0034B03B11A
:100254001847704788000020880000200000000034
:100264000548064B1B1AD90F01EBA301491002D014
:10027400034B03B118477047880000208800002012
:100284000000000010B5064C237843B9FFF7DAFFED
:10029400044B13B10448AFF300800123237010BD55
:1002A4008800002000000000A814000808B5054BD1
:1002B4001BB105490548AFF30080BDE80840FFF7CE
:1002C400CFBF00BF000000008C000020A81400086D
:1002D40030B5044687B010460D4600F037FD684639
:1002E40000F0C3FC012301936946022320460095D4
:1002F400049300F099FC07B030BD00F0CBBC00F0D3
:10030400C5BC00F0C5BC000070B580208CB000F006
:100314001DFD4FF4804000F021FD00244FF40072D5
:1003240002230126052506A91B48CDE90623CDE9AC
:100334000844CDE90A6500F077FC4FF4806306A910
:100344001548CDE90634CDE90844CDE90A6500F045
:100354006BFC4FF4E133CDE9023402A94FF440239E
:100364000E480493ADF8144000F02EFD40F22551E0
:100374000A4800F059FD0A4B019301A800F0D6FB8E
:10038400064800F04BFD074B1C80074B1C80074BB5
:100394001C800CB070BD00BF003402400038014026
:1003A40024000001A8000020A6000020A4000020D2
:1003B40010B5104840F2255100F04DFDA8B10E4C87
:1003C4000C4840F2255100F064FD23880948FF2BB6
:1003D4000CD800F03CFD094A09491388C85401337C
:1003E400DBB2138023880133238010BDBDE81040A5
:1003F40000F02DBD00380140A4000020A80000201A
:10040400AA0000207047FEE7704770470369C2687E
:1004140093429CBF81685B18013B981A70472DE991
:10042400F041D0E902840546A8EB040640689642F0
:1004340020440F46144406D9FFF76AFEBFF35F8FCA
:10044400EC60BDE8F0813246A4EB0804FFF760FEDF
:1004540068682246B919EFE72DE9F843C5680646EE
:10046400894617464FF000083369B46870689D42A6
:1004740028BF1B19641BBC4203F1FF3328BF3C4651
:100484005B1B9C4228BF1C46494622462844FFF772
:100494003FFEB3682544A044A1443F1BAB4208BFC0
:1004A4000025BFF35F8FF560002FDDD14046BDE826
:1004B400F883000008B5144BA8220021184600F068
:1004C40013FF0322026111494261114A8161C26131
:1004D4004FF480620262002282624262C26201665A
:1004E4000C4941661021816603460267C266426771
:1004F400BFF35F8F084911F8010D98540132102A97
:10050400F9D1BFF35F8F08BDBC050020C0140008FB
:10051400BA010020AA010020D7150008F8B5144B31
:10052400182700FB07751D4407FB00330E46DB6AE2
:10053400012B14460AD0022B14D023B92846FFF706
:1005440065FF844208D900242046F8BD2846FFF7F9
:100554005DFF844228BF0446224631462846FFF701
:100564005EFFF1E72846BDE8F840FFF775BF00BF1E
:10057400BC050020F8B50B4B1B78532B04460D46E5
:10058400164601D0FFF796FFEFF311874FF02001D5
:1005940081F31188324629462046FFF7BFFF87F3CF
:1005A4001188F8BDBC050020FFF784BF826810B530
:1005B40004464068531C834206D820688154E2688C
:1005C400A3600132E2601A46636893420BD121684A
:1005D4002069FFF7CFFFA368984215BF4FF0FF33A0
:1005E4000023E360A36010BD2DE9F84F9946DDE9CF
:1005F4000A431746064688460A464FF0010ABA429D
:1006040012D2CA4538BFCA4613F0010B01D184B9CE
:100614000024F368002B3EDB0125B9F1010F20D93A
:1006240009F1FF397D43F8E70AF1010AB2FBF7F259
:10063400E5E79B0712D5B9F1000F0CBF3025202543
:10064400A245E6D229463046FFF7B0FFF368002BF7
:1006540004F1FF34DDDB002CF2D1D9E72025EFE7EC
:100664007D43B8FBF5F39F42FAD9DFF84C90B8FB11
:10067400F5F3304619F8031005FB1388FFF796FFCE
:10068400F368002B03DBB5FBF7F3BD4205D2BBF1E6
:10069400000F00D064B9BDE8F88F1D46E7E72021BC
:1006A4003046FFF783FFF368002B04F1FF34F2DBDD
:1006B4005445F4D8EFE700BFD81500082DE9F04FF2
:1006C4009BB00AAB05930024402303908846174649
:1006D40006930990254618F8011B002900F056815D
:1006E400252940F04B8143464FF0000A184610F884
:1006F400011B2D2917D011D823291BD02B2916D043
:100704000026984613F8011BA1F13000092814D8DB
:100714000A2202FB0611A1F13006F2E73029EFD1DB
:100724004AF0020A01E04AF0010A0346DEE74AF011
:10073400040AFAE74AF0080AF7E72E292BD198F8B9
:1007440001302A2B15D04FF0000B08F10100D946D7
:100754004FF00A0C804610F8011BA1F1300EBEF1D7
:10076400090F0FD80CFB0B11A1F1300B4FF001094D
:10077400F0E73B68191DD3F800B0396008F10208AE
:100784004FF0010998F8001001F0FB00682806D129
:1007940018F8011FF8E74FF0000BD946F2E7782963
:1007A40002D908F1010896E76F2912D8632972D09B
:1007B40028D8252900F0DF805829F2D13968081D8E
:1007C40038600968CDE90754CDE9006A5B46102218
:1007D400A0E070390829E4D801A050F821F000BF46
:1007E40065090008A7070008A707000821090008F1
:1007F400A707000805090008A7070008A7070008BD
:10080400C10700086429CCD139680B680293081D1C
:1008140083EAE3713860A1EBE3714FF001090A2028
:10082400092944DCD94538BFD94636B1029B002B8F
:1008340002DB1AF0040F00D0013E1AF0020F02D0BE
:10084400BBF1000F05D01AF0010F02D10EB1B14572
:1008540032D3029B002B3FDA029BCDE907545B4263
:1008640002932D2105A8FFF7A1FEDDE90754002C12
:100874002EDB0AF00301022905D1BBF1000F02D1DE
:100884000EB1B1452FD3CDE90754CDE9006A0299E1
:100894005B460A223EE03B68CDE907541A1D1978ED
:1008A4003A6005A8FFF782FEDDE9075452E009F13A
:1008B4000109B1FBF0F1B3E7202105A8CDE9075404
:1008C400FFF774FEDDE90754002C06F1FF36BDDAAC
:1008D40020461BB0BDE8F08F1AF0040FC9D0CDE953
:1008E40007542B21BEE7302105A8CDE90754FFF7B3
:1008F4005DFEDDE90754002C06F1FF36C0DAE7E7B8
:100904003968081D38600968CDE90754CDE9006AE3
:100914005B460A2205A8FFF767FEC5E73A68111D82
:100924003960166816B91E4E4FF0000916F8011BFF
:1009340081B1B9F1000F02D0BBF1000F0AD005A8B4
:10094400CDE90754FFF732FEDDE90754002C0BF123
:10095400FF3BEBDA08F10108002CBFF6BCAEB7E7A9
:100964003B681A1D19683A6008230022CDE9075430
:10097400CDE900322BE7CDE9075492E705A8CDE98C
:100984000754FFF713FEDDE90754E5E7002C9FD079
:1009940025B103982A460AA9FFF7ECFD2C4497E7F2
:1009A400C91400080EB403B503AB01AA53F8041B21
:1009B4000193FFF783FE02B05DF804EB03B07047C8
:1009C400534AD2F8883043F4700384B0C2F88830B4
:1009D400504B1A6842F001021A6059684E4A0A40A4
:1009E4005A601A684D4922F0847222F480321A60E7
:1009F4001A6822F480221A605A6822F0036222F4F0
:100A040070225A604FF46052DA6200221A631A6448
:100A14009960D96941F08051D961D96921F0805137
:100A2400D9613F49086840F080000860086820F0F8
:100A34001000086002928DF8032003921A6842F4B1
:100A440080321A601A68C2F340428DF80320039A78
:100A5400013203929DF803201AB9039AB2F5005F9C
:100A6400F0D11A68C2F340428DF803209DF80320A8
:100A740042B92C4B2C4A1A60254B4FF000629A6005
:100A840004B07047264A116821F00701116011680B
:100A940041F0020111605A685A605A6842F40052E7
:100AA4005A605A6842F4A0625A605A6822F003629B
:100AB40022F470225A601A6C22F001021A645A68F5
:100AC4000192019A42F480320192019A42F4003276
:100AD4000192019A42F0036242F440220192019A87
:100AE4005A60029A1A641A6842F080721A601A688C
:100AF4009201FCD55A6822F003025A605A6842F007
:100B040002025A605A6802F00C02082AFAD1B3E7CA
:100B140000ED00E0001002400CC07FF80000BF04AC
:100B2400002002400000002000127A0070B5017815
:100B3400012501F01F039D40C3784C09BBB10E4B46
:100B44004678DA68D243C2F30222C2F104039E401B
:100B540083780F2020FA02F21340084A33431B0122
:100B64001144DBB281F8003342F8245070BD034BCA
:100B7400203443F82450F9E700ED00E000E100E000
:100B840010B502F00704A40012074FF00F034CBF86
:100B9400426A026A03FA04F36FEA030301FA04F1F6
:100BA4004BBF134013400B430B434CBF43620362E0
:100BB40010BD30B5032304685500AB4024EA030498
:100BC40001F00303AB402343036021F01003013B16
:100BD400012B08D8436801249440090923EA04033B
:100BE40091401943416030BD10B5C36852000324DD
:100BF400944023EA040391401943C16010BD10B529
:100C040083680124944023EA0403914019438160DA
:100C140010BD10B5C36A52000324944023EA0403B0
:100C240091401943C16210BD70B50C4600250126E0
:100C3400236833FA05F200D170BD06FA05F21A42B0
:100C440011D061692A46FFF79BFF2A466168FFF7C6
:100C5400B0FFA168FFF7C8FFE1682A46FFF7CFFF9E
:100C64002169FFF7D6FF0135E2E74FF6FF73036012
:100C74000F220023C36043604261836003617047B5
:100C840040690840003818BF0120704781617047EF
:100C9400816270474369594041617047254930B5C5
:100CA4004C684A68250140F20F2303EA944302F496
:100CB40080324ABF6FF4F77402331B19002A35D10E
:100CC4000A6C12F0010F14BF1B4A1C4A4C681C4DDD
:100CD40053431A4A04F00C04082C08BF1A46026055
:100CE4004C68C4F303142C5DE24042604C68C4F3C6
:100CF40002242C5D22FA04F484604C68C4F3C224F8
:100D04002C5D104D22FA04F4C460CC6A04F00F0484
:100D14002C5DB2FBF4F24261CA6A0B49C2F30312BE
:100D240031F81220B3FBF2F3036130BD4A6812F4C8
:100D3400003FC8E70010024000093D0000127A009D
:100D44001816000808160008E8150008024A536936
:100D540003435361704700BF00100240024A936985
:100D640003439361704700BF0010024030B587B061
:100D7400044668460D46FFF791FF124B9C4207D08C
:100D840003F5C0539C4203D003F580639C4216D103
:100D9400039B192253436422AD00B3FBF5F3B3FB69
:100DA400F2F102FB11331B013233B3FBF2F303F014
:100DB4000F0343EA01139BB2238107B030BD029BAA
:100DC400E7E700BF0038014038B504460D4609681E
:100DD400FFF7CCFFA389AA889BB223F48053134363
:100DE400A381238AEA889BB223F4405313432382CA
:100DF400A3892A899BB223F4C0631343A381A389E3
:100E04006A899BB223F00C031343A381A38AAA89A2
:100E14009BB223F440731343A38238BD83899BB2EE
:100E240043F4005383817047C1F34213012201F05C
:100E34001F01012B02FA01F204D10C3003681343A1
:100E440003607047022B0CBF10301430F6E7808823
:100E5400C0F308007047C1F3421210B5034601F015
:100E64001F040120012A00FA04F00DD19A891B887D
:100E740092B210409BB230B1090A01228A40134059
:100E8400181E18BF012010BD022A0CBF1A8A9A8AA4
:100E9400EDE7090A01238B40DB439BB203807047D3
:100EA400F7B5FFF781FB48490020FFF77BFD474971
:100EB4000020FFF777FD46490020FFF773FDFFF799
:100EC40023FA00F0CBF90446002837D14149FFF753
:100ED40069FD4FF47A71204600F022F96421012063
:100EE40000F01EF94FF4FA71022000F019F92046BF
:100EF40000F0EEF80024384E2546274601340A2334
:100F0400B4FBF3F003FB104050B9214600F0EAF8BB
:100F14002146012000F0E6F82146022000F0E2F824
:100F2400B5F5FA6F22D12D490020FFF73BFD337848
:100F3400032B15D8DFE803F007222D3828490020B9
:100F4400FFF730FDD6E7002000F0C2F8012000F0E2
:100F5400C2F8022000F0BFF822490020FFF722FD6A
:100F64003378013303F0030333700025019742F211
:100F74000F72019B934222D90135BFE7002000F094
:100F8400AAF8012000F0A4F8022000F0A4F8164901
:100F9400E3E7002000F09FF8012000F09CF8022015
:100FA40000F096F81149D8E7002000F097F80120E6
:100FB40000F094F8022000F091F80D49CDE7019B70
:100FC40001330193D5E700BFD0140008F7140008DB
:100FD4000A1500082C15000864060020771500087F
:100FE4005315000897150008A1150008AB15000853
:100FF400B515000808B588B103687BB143686BB1C7
:1010040083685BB1074BC02218600021064800F0DA
:101014006BF9064B01221A70002008BD4FF0FF3017
:10102400FBE700BF680600206C0600206506002070
:101034000B461349097870B50246D9B111490D68B8
:10104400C5B1072819D8C3B118210F485143441812
:10105400455093E80300261D86E803000021217310
:10106400216121752D6819461046A84708B9012346
:10107400237570BD6FF00200FBE76FF00100F8E725
:1010840065060020680600206C060020072870B55D
:1010940003460D4613D818240C4A6343D418267DFE
:1010A40086B1D3585B68984710B9022D01D02573D7
:1010B40070BD237B013B18BF01232373F8E76FF056
:1010C4000100F5E76FF00200F2E700BF6C060020B4
:1010D4000121FFF7DBBF0021FFF7D8BF0221FFF793
:1010E400D5BF0000072838B50D4611D80B4C18227F
:1010F40002FB0044237D73B1A2681AB12369CB1AA1
:101104009A4201D9002038BDFFF7E8FF2561F9E7CD
:101114006FF00100F7E76FF00200F4E76C060020BF
:10112400072808D8074B182202FB0030037D2BB197
:101134008160002070476FF0010070476FF002007B
:10114400704700BF6C060020072806D8044B000136
:101154001858003818BF012070470020704700BF9E
:101164000400002010B50446FFF7EEFF70B1094BF0
:10117400220103EB0414217B09B9002010BD985807
:10118400A188FFF7BEF800232373F6E76FF0010090
:10119400F4E700BF0400002010B50246FFF7D4FFB7
:1011A40060B1074B140103EB0212107B30B191883C
:1011B4001859FFF765FD003818BF012010BD00BFA6
:1011C4000400002010B50246FFF7BEFFE8B1124B41
:1011D40003EB02101401027BD2B1012905D00229CC
:1011E4000ED041B14FF0FF3010BD81881859FFF780
:1011F40086F80020F8E781881859FFF782F8F8E7A5
:1012040081881859FFF779F8F3E76FF00100EBE7ED
:101214006FF00200E8E700BF0400002010B50446A8
:10122400FFF792FF70B169B1084B220103EB04147C
:10123400985838B1A268A188FFF74AF801232373AC
:10124400002010BD6FF00100FBE700BF0400002088
:101254000148FFF7CFBE00BF28160008F7B5FFF717
:10126400F7FF044680B90A4F05466E462B01FB582A
:101274003BB1E8B23146C6E900448DF80000FFF7FF
:10128400D7FE0135082DF1D1204603B0F0BD00BFD3
:10129400040000200D4885460D480E490E4A0023DF
:1012A40002E0D458C4500433C4188C42F9D30B4A16
:1012B4000B4C002301E013600432A242FBD3FFF77E
:1012C4007FFB00F05FF8FFF7EBFDFEE70040002036
:1012D40000000020880000204C1600088800002030
:1012E400C4080020FEE70000830730B546D0841808
:1012F400844604E003F8011B9D0704D09C46A445E2
:101304006346F7D130BD013A0244A2EB0C02032A32
:1013140029D9CCB204EB04240F2A04EB04442FD9BA
:10132400A2F1100C2CF00F0C03F11005AC44C3E92E
:101334000044C3E9024410336345F8D112F00C0FA2
:1013440002F00F0E18D02EF0030C9C44AEF10405ED
:101354001A4642F8044B6245FBD125F003040433DA
:101364000EF003022344002ACCD0C9B21A4403F875
:10137400011B9342FBD130BD7246F4E70346C6E736
:101384009646E0E770B50F4B0F4DAB42A3EB050655
:1013940007D0B610002455F8043B01349847A64200
:1013A400F9D800F07FF8094D094B5E1BAB424FEAB8
:1013B400A60606D0002455F8043B01349847A642FB
:1013C400F9D870BD40160008401600084016000801
:1013D40048160008704700BF704700BF024B13B1A6
:1013E400024800F005B8704700000000011400082E
:1013F400002301461A46184600F014B838B5074DC4
:10140400074C2C1BA41005D0013C55F8043D98470B
:10141400002CF9D1BDE8384000F04AB84C16000859
:10142400481600082DE9F8431B4D064628689846DF
:101434000F469146FFF7CEFF184B1C681CB3286873
:1014440065681F2D22DC4EB96B1C0235636044F8BD
:101454002570FFF7C1FF0020BDE8F88304EB850188
:101464000123C1F88890D4F88821AB401A43022E96
:10147400C4F88821C1F80881E6D1D4F88C211A4334
:10148400C4F88C21E0E7064C1C60D8E7FFF7A4FF02
:101494004FF0FF30E0E700BF840000203007002059
:1014A40034070020F8B500BFF8BC08BC9E4670475E
:0C14B400F8B500BFF8BC08BC9E467047AD
:1014C0005465726D696E616C00284E554C4C290054
:1014D0004E33324734333020432B2B204C454420AD
:1014E00053797374656D20546573742053746172FD
:1014F000746564210D0A0042617564726174653A15
:10150000203131353230300D0A004C454420436CD7
:101510006173732053797374656D20496E697469C2
:10152000616C697A65642E2E2E0D0A004C454420AC
:1015300053797374656D20696E697469616C697A39
:101540006564207375636365737366756C6C79216C
:101550000D0A004C45442053797374656D20696E03
:10156000697469616C697A6174696F6E206661691A
:101570006C6564210D0A0053797374656D20727572
:101580006E6E696E672E2E2E204C45442064656D6C
:101590006F2E2E2E0D0A004C454431204F4E0D0A61
:1015A000004C454432204F4E0D0A004C4544332038
:1015B0004F4E0D0A00416C6C204C45447320544F33
:1015C00047474C450D0A00000000000000545452EB
:1015D0002052454747455300303132333435363792
:1015E00038394142434445460100020004000600E8
:1015F00008000A000C0010002000400080000001DC
:10160000000100010001000101020406080A0C109B
:1016100020202020202020200000000001020304C0
:10162000010203040607080921120008C911000875
:081630009D110008691100087A
:08163800DCEAFF7F0100000065
:08164000E1130008B1020008EB
:04164800890200080B
:10164C000020A107003402400200000080000000CE
:10165C000000000000340240040000008000000084
:10166C000000000000340240080000008000000070
:10167C00000000000000000000000000000000005E
:10168C00000000000000000000000000000000004E
:10169C00000000000000000000000000000000003E
:1016AC00000000000000000000000000000000002E
:1016BC00000000000000000000000000000000001E
:0816CC00000000002C070020C3
:040000050800129944
:00000001FF
