:020000040800F2
:1000000000400020D93C00081D1200081F12000803
:1000100000000000000000000000000000000000E0
:100020000000000000000000000000002112000895
:100030000000000000000000293D00082312000815
:10004000293D0008293D0008293D0008293D0008F8
:10005000293D0008293D0008293D0008293D0008E8
:10006000293D0008293D0008293D00082912000803
:10007000293D0008293D0008293D0008293D0008C8
:10008000293D0008293D0008293D0008293D0008B8
:10009000293D0008293D0008293D0008293D0008A8
:1000A000293D0008293D0008293D0008293D000898
:1000B000293D000835120008293D0008293D0008A7
:1000C000293D0008293D0008293D0008293D000878
:1000D000690E0008293D0008293D0008411200086A
:1000E000293D0008293D0008293D0008293D000858
:1000F000293D0008293D0008293D0008293D000848
:10010000293D0008293D0008293D0008293D000837
:04011000293D00087D
:10014000844641EA000313F003036DD1403A41D3E2
:1001500051F8043B40F8043B51F8043B40F8043BA1
:1001600051F8043B40F8043B51F8043B40F8043B91
:1001700051F8043B40F8043B51F8043B40F8043B81
:1001800051F8043B40F8043B51F8043B40F8043B71
:1001900051F8043B40F8043B51F8043B40F8043B61
:1001A00051F8043B40F8043B51F8043B40F8043B51
:1001B00051F8043B40F8043B51F8043B40F8043B41
:1001C00051F8043B40F8043B51F8043B40F8043B31
:1001D000403ABDD2303211D351F8043B40F8043BD1
:1001E00051F8043B40F8043B51F8043B40F8043B11
:1001F00051F8043B40F8043B103AEDD20C3205D3E1
:1002000051F8043B40F8043B043AF9D2043208D0D8
:10021000D2071CBF11F8013B00F8013B01D30B884A
:1002200003806046704700BF082A13D38B078DD028
:1002300010F003038AD0C3F10403D21ADB071CBFFA
:1002400011F8013B00F8013B80D331F8023B20F864
:10025000023B7BE7043AD9D3013A11F8013B00F89D
:10026000013BF9D20B7803704B7843708B78837025
:100270006046704700000000000000000000000021
:1002800030B490F800F020F007016FF0000C10F08F
:10029000070491F820F040F048804FF000046FF020
:1002A0000700D1E9002391F840F000F1080082FA3C
:1002B0004CF2A4FA8CF283FA4CF3A2FA8CF34BBB07
:1002C000D1E9022382FA4CF200F10800A4FA8CF280
:1002D00083FA4CF3A2FA8CF3E3B9D1E9042382FA4E
:1002E0004CF200F10800A4FA8CF283FA4CF3A2FA63
:1002F0008CF37BB9D1E9062301F1200182FA4CF29B
:1003000000F10800A4FA8CF283FA4CF3A2FA8CF301
:10031000002BC6D0002A04BF04301A4612BAB2FA23
:1003200082F200EBD20030BC7047D1E9002304F028
:100330000305C4F100004FEAC50514F0040F91F85D
:1003400040F00CFA05F562EA05021CBF63EA0503FA
:1003500062464FF00004AAE7000000000000000021
:1003600001F0FF01102A2BDB10F0070F08D010F866
:10037000013B013A8B422DD010F0070F42B3F6D16A
:10038000F0B441EA012141EA014122F007047FF083
:1003900000070023F0E80256083C85EA010586EADA
:1003A000010685FA47F5A3FA87F586FA47F6A5FA16
:1003B00087F68EB9EED1F0BC01F0FF0102F0070222
:1003C00032B110F8013B013A83EA010313B1F8D1CD
:1003D0000020704701387047002D06BF35460338AE
:1003E000073815F0010F07D1013015F4807F02BFE7
:1003F000013015F4C03F0130F0BC0138704700BF38
:1004000081F0004102E000BF83F0004330B54FEAC5
:1004100041044FEA430594EA050F08BF90EA020F32
:100420001FBF54EA000C55EA020C7FEA645C7FEAC5
:10043000655C00F0E2804FEA5454D4EB5555B8BFE8
:100440006D420CDD2C4480EA020281EA030382EA59
:10045000000083EA010180EA020281EA0303362DEB
:1004600088BF30BD11F0004F4FEA01314FF4801CBE
:100470004CEA113102D0404261EB410113F0004FD0
:100480004FEA03334CEA133302D0524263EB430387
:1004900094EA050F00F0A780A4F10104D5F1200E25
:1004A0000DDB02FA0EFC22FA05F2801841F1000180
:1004B00003FA0EF2801843FA05F359410EE0A5F154
:1004C00020050EF1200E012A03FA0EFC28BF4CF085
:1004D000020C43FA05F3C01851EBE37101F000453B
:1004E00007D54FF0000EDCF1000C7EEB00006EEB48
:1004F0000101B1F5801F1BD3B1F5001F0CD34908D2
:100500005FEA30004FEA3C0C04F101044FEA445228
:1005100012F5800F80F09A80BCF1004F08BF5FEAAF
:10052000500C50F1000041EB045141EA050130BD8F
:100530005FEA4C0C404141EB0101013C28BFB1F5A1
:10054000801FE9D291F0000F04BF01460020B1FAEC
:1005500081F308BF2033A3F10B03B3F120020CDABF
:100560000C3208DD02F1140CC2F10C0201FA0CF09D
:1005700021FA02F10CE002F11402D8BFC2F1200C02
:1005800001FA02F120FA0CFCDCBF41EA0C019040B8
:10059000E41AA2BF01EB0451294330BD6FEA040401
:1005A0001F3C1CDA0C340EDC04F11404C4F12002EC
:1005B00020FA04F001FA02F340EA030021FA04F3FE
:1005C00045EA030130BDC4F10C04C4F1200220FA55
:1005D00002F001FA04F340EA0300294630BD21FA93
:1005E00004F0294630BD94F0000F83F4801306BF59
:1005F00081F480110134013D4EE77FEA645C18BF4D
:100600007FEA655C29D094EA050F08BF90EA020FE3
:1006100005D054EA000C04BF1946104630BD91EADB
:10062000030F1EBF0021002030BD5FEA545C05D1DE
:100630004000494128BF41F0004130BD14F580041D
:100640003CBF01F5801130BD01F0004545F0FE4191
:1006500041F470014FF0000030BD7FEA645C1ABFC6
:10066000194610467FEA655C1CBF0B46024650EAFD
:10067000013406BF52EA033591EA030F41F4002129
:1006800030BD00BF90F0000F04BF0021704730B5AF
:100690004FF4806404F132044FF000054FF0000184
:1006A00050E700BF90F0000F04BF0021704730B545
:1006B0004FF4806404F1320410F0004548BF40421A
:1006C0004FF000013EE700BF42004FEAE2014FEA6F
:1006D00031014FEA02701FBF12F07F4393F07F4F4A
:1006E00081F06051704732F07F4208BF704793F04D
:1006F0007F4F04BF41F40021704730B54FF4607460
:1007000001F0004521F000411CE700BF50EA010262
:1007100008BF704730B54FF000050AE050EA01020B
:1007200008BF704730B511F0004502D5404261EB7B
:1007300041014FF4806404F132045FEA915C3FF4BC
:10074000D8AE4FF003025FEADC0C18BF03325FEA59
:10075000DC0C18BF033202EBDC02C2F1200300FA0A
:1007600003FC20FA02F001FA03FE40EA0E0021FA2F
:1007700002F11444BDE600BF70B54FF0FF0C4CF41D
:10078000E06C1CEA11541DBF1CEA135594EA0C0FCF
:1007900095EA0C0F00F0DEF82C4481EA030621EA0A
:1007A0004C5123EA4C5350EA013518BF52EA033545
:1007B00041F4801143F4801338D0A0FB02CE4FF0F7
:1007C0000005E1FB02E506F00042E0FB03E54FF027
:1007D0000006E1FB03569CF0000F18BF4EF0010E1F
:1007E000A4F1FF04B6F5007F64F5407404D25FEA1B
:1007F0004E0E6D4146EB060642EAC62141EA5551CE
:100800004FEAC52040EA5E504FEACE2EB4F1FD0C0F
:1008100088BFBCF5E06F1ED8BEF1004F08BF5FEA8D
:10082000500E50F1000041EB045170BD06F000463F
:1008300046EA010140EA020081EA0301B4EB5C04EC
:10084000C2BFD4EB0C0541EA045170BD41F48011E4
:100850004FF0000E013C00F3AB8014F1360FDEBF09
:10086000002001F0004170BDC4F10004203C35DAE5
:100870000C341BDC04F11404C4F1200500FA05F368
:1008800020FA04F001FA05F240EA020001F0004209
:1008900021F0004110EBD37021FA04F642EB06017F
:1008A0005EEA430E08BF20EAD37070BDC4F10C04A9
:1008B000C4F1200500FA04F320FA05F001FA04F26D
:1008C00040EA020001F0004110EBD37041F1000159
:1008D0005EEA430E08BF20EAD37070BDC4F1200564
:1008E00000FA05F24EEA020E20FA04F301FA05F2CC
:1008F00043EA020321FA04F001F0004121FA04F274
:1009000020EA020000EBD3705EEA430E08BF20EA43
:10091000D37070BD94F0000F0FD101F0004640007D
:1009200041EB010111F4801F08BF013CF7D041EAFF
:10093000060195F0000F18BF704703F00046520003
:1009400043EB030313F4801F08BF013DF7D043EAD4
:100950000603704794EA0C0F0CEA135518BF95EA8A
:100960000C0F0CD050EA410618BF52EA4306D1D111
:1009700081EA030101F000414FF0000070BD50EA30
:10098000410606BF1046194652EA430619D094EABA
:100990000C0F02D150EA013613D195EA0C0F05D1A4
:1009A00052EA03361CBF104619460AD181EA0301F8
:1009B00001F0004141F0FE4141F470014FF00000B0
:1009C00070BD41F0FE4141F4780170BD70B54FF04B
:1009D000FF0C4CF4E06C1CEA11541DBF1CEA1355CB
:1009E00094EA0C0F95EA0C0F00F0A7F8A4EB0504AD
:1009F00081EA030E52EA03354FEA013100F08880A4
:100A00004FEA03334FF0805545EA131343EA12636C
:100A10004FEA022245EA111545EA10654FEA002621
:100A20000EF000419D4208BF964244F1FD0404F5DA
:100A3000407402D25B084FEA3202B61A65EB030536
:100A40005B084FEA32024FF480104FF4002CB6EBF3
:100A5000020E75EB030E22BFB61A754640EA0C0073
:100A60005B084FEA3202B6EB020E75EB030E22BFB3
:100A7000B61A754640EA5C005B084FEA3202B6EBF4
:100A8000020E75EB030E22BFB61A754640EA9C00B3
:100A90005B084FEA3202B6EB020E75EB030E22BF83
:100AA000B61A754640EADC0055EA060E18D04FEA41
:100AB000051545EA16754FEA06164FEAC30343EAE1
:100AC00052734FEAC2025FEA1C1CC0D111F4801FAE
:100AD0000BD141EA00014FF000004FF0004CB6E7A7
:100AE00011F4801F04BF01430020B4F1FD0C88BF46
:100AF000BCF5E06F3FF6AFAEB5EB030C04BFB6EB51
:100B0000020C5FEA500C50F1000041EB045170BD43
:100B10000EF0004E4EEA113114EB5C04C2BFD4EB70
:100B20000C0541EA045170BD41F480114FF0000EF4
:100B3000013C90E645EA060E8DE60CEA135594EA70
:100B40000C0F08BF95EA0C0F3FF43BAF94EA0C0F73
:100B50000AD150EA01347FF434AF95EA0C0F7FF4E8
:100B600025AF104619462CE795EA0C0F06D152EA3C
:100B700003353FF4FDAE1046194622E750EA410620
:100B800018BF52EA43067FF4C5AE50EA41047FF431
:100B90000DAF52EA43057FF4EBAE12E74FF0FF3C96
:100BA00006E000BF4FF0010C02E000BF4FF0010C67
:100BB0004DF804CD4FEA410C7FEA6C5C4FEA430CE0
:100BC00018BF7FEA6C5C1BD001B050EA410C0CBF2F
:100BD00052EA430C91EA030F02BF90EA020F002091
:100BE000704710F1000F91EA030F58BF994208BFF8
:100BF00090422CBFD8176FEAE37040F001007047B5
:100C00004FEA410C7FEA6C5C02D150EA013C07D10B
:100C10004FEA430C7FEA6C5CD6D152EA033CD3D056
:100C20005DF8040B704700BF8446104662468C4650
:100C30001946634600E000BF01B5FFF7B7FF002883
:100C400048BF10F1000F01BD4DF808EDFFF7F4FFAC
:100C50000CBF012000205DF808FB00BF4DF808ED37
:100C6000FFF7EAFF34BF012000205DF808FB00BF5A
:100C70004DF808EDFFF7E0FF94BF012000205DF87C
:100C800008FB00BF4DF808EDFFF7CEFF94BF012031
:100C900000205DF808FB00BF4DF808EDFFF7C4FF2A
:100CA00034BF012000205DF808FB00BF4FEA410C73
:100CB0007FEA6C5C02D150EA013C0AD14FEA430C56
:100CC0007FEA6C5C02D152EA033C02D14FF0000093
:100CD00070474FF0010070474FEA410212F50012D1
:100CE00015D211D56FF47873B3EB625212D94FEA73
:100CF000C12343F0004343EA505311F0004F23FA5D
:100D000002F018BF404270474FF00000704750EAB1
:100D1000013005D111F0004008BF6FF0004070476E
:100D20004FF00000704700BF0348044B834202D0DD
:100D3000034B03B1184770474407002044070020C5
:100D4000000000000548064B1B1AD90F01EBA30158
:100D5000491002D0034B03B11847704744070020E5
:100D6000440700200000000010B5064C237843B96A
:100D7000FFF7DAFF044B13B10448AFF300800123FF
:100D8000237010BD4407002000000000C0AB000825
:100D900008B5054B1BB105490548AFF30080BDE818
:100DA0000840FFF7CFBF00BF000000004807002049
:100DB000C0AB000870B54FF480708AB002F09EFEA0
:100DC000012002F0A3FE04A802F037FD0124002355
:100DD0004FF4806604A915480694CDE904634FF4E6
:100DE000006502F009FD04A91048049502F004FD15
:100DF00020460A2102F036FD0B21204602F032FD8A
:100E00004FF4805302A8ADF80C3002968DF80E40D6
:100E100002F078FC02A8029502F074FC044B0193E6
:100E200001A802F097FB0AB070BD00BF0038024075
:100E30002702000130B5044687B010460D4602F087
:100E40005DFE684602F0F9FC012301936946022326
:100E500020460095049302F0CFFC07B030BD02F0AD
:100E6000FDBC02F0FDBC000010B5104840F2255159
:100E700002F00CFFA8B10E4C0C4840F2255102F0D4
:100E800023FF23880948FF2B0CD802F0FBFE094AF8
:100E900009491388C8540133DBB213802388013316
:100EA000238010BDBDE8104002F0ECBE00380140C8
:100EB00060070020620700206407002013B5144C6F
:100EC000012002F01BFE204602F06EFB0D212046A1
:100ED00002F0DCFB204602F0C3FB20460E2102F0AC
:100EE000C8FB0C4B0D229A6040F201129A800A2135
:100EF00000222046C3E903225A611C6002F0B5FBC0
:100F0000054B019301A802F025FB02B010BD00BF04
:100F100008000240640800200B01000170B543790D
:100F2000082B044627D8144A52F82360134A52F873
:100F3000235076B11248314602F0A0FB48B1104868
:100F4000314602F0A1FB0123237123690BB1204636
:100F5000984785B10A48294602F090FB58B10848E5
:100F6000294602F091FB0323237163691BB12046DC
:100F7000BDE87040184770BDFCAB0008D8AB000856
:100F8000000002400C4B4FF47A721B68B3FBF2F383
:100F9000013BB3F1807F0AD24FF0E022F021536190
:100FA000064B83F823100023936107231361034B3F
:100FB000002283F8232070470000002000ED00E0AD
:100FC000024A136801331360704700BF7C08002099
:100FD000014B1868704700BF7C080020044A116864
:100FE00013685B1A834200D3704700BFF8E700BF65
:100FF0007C0800202DE9F04105460E46144698462F
:10100000FFF7E6FF07462868314602F005FDA042DB
:1010100002D10020BDE8F081FFF7DAFFC01B404598
:10102000F1D30320F6E7000030B54FF480708BB0A9
:1010300002F064FD012002F069FD4FF4001002F09F
:101040006DFD04A802F0F9FB4FF440721223CDE9C4
:10105000042301250023154C1548CDE90653022130
:101060000523CDE9081304A902F0C6FB204602F0CF
:101070000FFC684602F0A6FC0E4B00934FF4806311
:10108000ADF80A3069464FF480432046ADF80C3085
:1010900002F074FC204602F0A3FC074B074A1C60D8
:1010A0001D719A60D3600BB030BD00BF005400408A
:1010B0000038024040420F008008002064080020F1
:1010C0002DE9F7430A9F884615461E460446002828
:1010D0005AD0002A58D0002B56D090F80490B9F17D
:1010E000010F53D11223037141823B4600224FF47A
:1010F0000031FFF77FFF002840D1206802F076FC26
:101100004A4623493B462046FFF774FF0246002823
:1011100034D120685FFA88F102F076FC1D493B4625
:101120004A462046FFF766FF40BB2268938A9BB27F
:101130000193138B9BB20193019B2E443B461649AE
:1011400001222046FFF756FF2368B8B915F8011BA6
:10115000184602F057FCB542F0D110493B46012237
:101160002046FFF747FF054640B9206802F044FCDF
:1011700001232371284603B0BDE8F08320680325CE
:1011800002F03AFC2571F5E70125F3E70225F1E7C6
:101190000100001002000010800000100400001088
:1011A00008B5FFF7EFFE1B4880220221FFF742FE41
:1011B000802218480C21FFF73DFE16480E21FFF74C
:1011C00050FEFFF77BFEFFF72FFF00F0DFF8FFF781
:1011D000F1FD10480221FFF742FE78210E4800F091
:1011E00061FA40F6B830FFF7F9FE0A480221FFF72E
:1011F00038FE08480421FFF732FE00F011F90548D7
:101200000421FFF72EFE00F059F90A20FFF7E6FE51
:10121000F9E700BF00340240800800207047FEE775
:101220007047FFF7CDBE00000148FFF777BE00BF53
:1012300064080020014800F0E3B800BFA8080020BF
:1012400070B5FFF7C5FE04464FF4806002F06CFAFB
:10125000B8B131484FF4806102F0FAFA00282FD17A
:101260002E4A1368E31A322B07D92D4B14601C60E9
:101270002C4B01221A702C4B18704FF4806002F036
:1012800061FA4FF4006002F04FFA002842D0224881
:101290004FF4006102F0DCFA38BB204A5368E31ACD
:1012A000322B07D91E4B54605C601E4B01225A70D2
:1012B0001D4B5870BDE870404FF4006002F042BA18
:1012C000184E3378002BD8D0154B174D1B682A7851
:1012D0003AB9E31AB3F57A7F03D24FF4806000F095
:1012E000D5F8002333702B70C7E70E4E7378002BB0
:1012F000E0D00B4B0C4D5B686A783AB9E41AB4F550
:101300007A7F03D24FF4006000F0C0F800237370BE
:101310006B70CFE770BD00BF00380240A00800200E
:1013200098080020960800209408002038B5144D35
:10133000FFF74EFE2B78044673B1124A13785BB95F
:10134000114B1B68C31AB3F57A7F05D301234FF401
:101350000440137000F09AF86B7883B1094B5A7807
:101360006AB9094A5268A41AB4F57A7F07D30122F0
:101370005A70BDE838404FF4084000F087B838BDD7
:1013800096080020940800209808002070B5174B9C
:10139000174D1C68174BB4FBF3F486B0042002F021
:1013A000BDFB02A802F0FBFB013C40F2E733002644
:1013B00002A928460393ADF80840ADF80A6002F090
:1013C00005FC3146284602F0F6FB0121284602F0D2
:1013D00056FC094B019301A802F0BCF8074BBDF87D
:1013E0000C209A60C3E9005406B070BD00000020D4
:1013F0000008004040420F001D010101A808002024
:1014000010B501210446006802F02EFC01280146B7
:1014100005D1206802F033FC204600F03BFE10BDF1
:1014200010B592B01648694600F0C4F828BB9DF884
:10143000013013B39DF802406400E4B23220FFF79C
:10144000CDFD0F490F48224600F0C0FE6420FFF793
:10145000C5FD0C4800F014FF014660B10A4800F0D9
:10146000FDF9094800F0F2FD0748002100F01DFADF
:10147000054800F041FA12B010BD7824DEE700BF45
:1014800080080020E0080020B4080020C30BC0F34F
:101490000E00B0F5806F06D1002B0CBF0121032197
:1014A000054800F03ABAB0F5006F04D1002B0CBF2C
:1014B00002210421F4E77047B4080020FFF736BF8B
:1014C0002DE9F04385B000240F4616468DF80F40F5
:1014D0008046F8B101B30AB303254FF00A096B0047
:1014E00099B2CDF8009000230DF10F024046FFF7AE
:1014F000E7FD20B9A64282BF3D550134E4B2013573
:101500000120ADB2FFF76AFD782DE8D1204605B085
:10151000BDE8F0830446F9E70C46F7E71446F5E723
:101520007FB50D460446002841D04FF42E43642673
:10153000ADF80C300096022303AAFFF7C1FD80BB73
:101540000A20FFF74BFD4FF40143ADF80C30009635
:10155000022303AA29462046FFF7B2FD18BB0A2042
:10156000FFF73CFD4FF44F43ADF80C3000960223DB
:1015700003AA29462046FFF7A3FDB0B90A20FFF7CA
:101580002DFD4FF42F43ADF80C300096022303AA33
:1015900029462046FFF794FD002818BF052004B017
:1015A00070BD0220FBE70320F9E70420F7E70120E4
:1015B000F5E700007FB50C460546002856D0002907
:1015C00054D045220021204602F0CEFD2B680BB1FD
:1015D0002B793BB92649601D02F0CCFE0225284636
:1015E00004B070BD01232370102269462846FFF71E
:1015F00067FF034628B91F49601D02F0BBFE0325A3
:10160000EDE76946002211F8010BA0F13C06012E1E
:1016100015D801236370A070A1784900284601F015
:10162000FE01FFF77DFF0546601DB5B90123E3709C
:101630002371114AA378402102F068FCCFE7013200
:10164000D2B29342DFD16278002AE5D10B4A402121
:10165000601D02F05BFC0425C1E70023E370084A2B
:101660002B46402102F052FC0525B8E70125B6E7DC
:1016700020AC000834AC000873AC000849AC00088A
:1016800085AC00081FB500238DF80C3064238DF85D
:101690000D20009303AA0223FFF712FD05B05DF8A9
:1016A00004FB00002DE9F0410446A2B00D46642081
:1016B000FFF794FCAE2229462046FFF7E3FFD52230
:1016C00029462046FFF7DEFF802229462046FFF705
:1016D000D9FFA82229462046FFF7D4FF3F222946FA
:1016E0002046FFF7CFFFD32229462046FFF7CAFF47
:1016F000002229462046FFF7C5FF40222946204602
:10170000FFF7C0FF8D2229462046FFF7BBFF1422BA
:1017100029462046FFF7B6FF202229462046FFF73C
:10172000B1FF002229462046FFF7ACFFA12229463F
:101730002046FFF7A7FFC82229462046FFF7A2FF51
:10174000DA2229462046FFF79DFF1222294620462D
:10175000FFF798FF812229462046FFF793FFCF220B
:1017600029462046FFF78EFFD92229462046FFF75B
:1017700089FFF12229462046FFF784FFDB22294614
:101780002046FFF77FFF402229462046FFF77AFFD9
:10179000A42229462046FFF775FFA62229462046A7
:1017A000FFF770FFAF2229462046FFF76BFF064682
:1017B000002848D13220FFF711FC2122294620467B
:1017C000FFF760FF324629462046FFF75BFF7F2286
:1017D00029462046FFF756FF222229462046FFF7DA
:1017E00051FF324629462046FFF74CFF0722294683
:1017F0002046FFF747FF174FB04602AB802208F0A4
:10180000010C0020FF21BCF1000F20D11970013A1A
:1018100012F0FF0203F10103F5D14023802202A957
:101820000D483B7008F10108FEF78AFCC8230093BD
:10183000084A8123294620465FFA88F8FFF740FCD2
:10184000B8F1080FD9D1304622B0BDE8F081187048
:10185000DDE700BF7C0900207D09002038B50D467A
:10186000044638B131B12C22002102F07DFC012365
:10187000A562237238BD10B5A8B1A1B10A78042AB7
:1018800011D84C697CB18C696CB1043240F82210DB
:1018900090F82420013280F824208B680BB90020B6
:1018A00010BD9847FBE70120FAE770B50D460446E6
:1018B000E0B104291AD800EB81063369B3B103788B
:1018C000994213D0043350F8233013B11B6903B18C
:1018D00098472378637001232570237233692BB1F5
:1018E000DB681BB12046BDE87040184770BD10B1E1
:1018F0004178FFF7DABF704710B5044660B1806ADF
:1019000050B12378043354F823302BB15B690BB109
:10191000214698470023237210BD10B5044608469F
:1019200084B179B12378043354F8233053B19B69DF
:101930000BB121469847237A23B12046BDE81040D9
:10194000FFF7DABF10BD08B101230372704770477B
:10195000014B4360704700BF34000020014B4360DF
:10196000704700BF20000020014B4360704700BF5C
:101970000800002037B54D680446002D4DD000F01A
:10198000FCFD2046012100F082FC2046012101F0EF
:1019900078F82046224901F017F9224B092200214C
:1019A000204601F0D5F8204B01930F2300932046E9
:1019B0000E231622062100F0CBFC1C4B01930923B9
:1019C0000093192210232046682100F0C1FC204614
:1019D000174901F0F9F82B4628222C21204601F066
:1019E000B7F82046134901F0EFF805F1100328225B
:1019F0004D21204601F0ACF820460F4901F0E4F8F3
:101A000005F118033B220121204601F0A1F82046F0
:101A100003B0BDE8304000F0BABD03B030BD00BF38
:101A20001DCC0008AFAC000835AE00081CAE0008A5
:101A3000CCBB00084BC8000853AE000873B5044681
:101A400000F09BFD2046012100F021FC20460121F1
:101A500001F017F820463149314E01F0B5F807255D
:101A6000304B09220021204601F072F820460196F1
:101A70000095042302221C2100F06AFC2A4B092253
:101A80002321204601F064F82046CDE900560423C6
:101A90000222512100F05CFC244B092258212046EF
:101AA00001F056F8224B01930F23009320460E239A
:101AB0001622062100F04CFC1E4B019309230093D3
:101AC000192210232046682100F042FC20461A49C2
:101AD00001F07AF8194B1A78194B2C2153F822305F
:101AE0002046282201F034F82046164901F06CF80F
:101AF000154B28224D21204601F02AF82046134993
:101B000001F062F8124B3B220121204601F020F83F
:101B1000204602B0BDE8704000F039BD1DCC000881
:101B20002EAE0008AFAC0008B4AC0008BCAC000896
:101B300035AE00081CAE0008CCBB0008FD09002033
:101B4000D0AD00084BC80008C1AC000853AE000877
:101B5000C3AC00084A68FAB101280AD11378517859
:101B60000E480133DBB2994298BF00231370FFF790
:101B7000EABE02280BD11378012B06D0022B09D024
:101B800053B901460548FFF790BE0421FAE7033830
:101B9000012801D80021F5E7704700BFB4080020F4
:101BA0004A68002A30D001280AD1137851780133CD
:101BB000DBB2994298BF002314481370FFF7C3BEED
:101BC00002281ED11378032B1ED8DFE803F002068B
:101BD000080E0F4A13782033EEE70E4AFAE70E4A52
:101BE0001378B3FA83F35B09E6E7094A802313709D
:101BF000084A1370084B01221A7004480021FFF7AD
:101C000054BE03380128F8D9704700BFB40800203B
:101C100006000020050000200400002030B54D68BB
:101C20008BB00446002D62D000F0A7FC01212046B5
:101C300000F02DFB0121204600F023FF2D49204616
:101C400000F0C2FF2C4B09220021204600F080FF4B
:101C50002A4B019307230093022204231C212046D0
:101C600000F076FB2A786B68232153F82230204657
:101C7000092200F06DFF224B01930F2300931622DF
:101C80000E230621204600F063FB1E4B019309231F
:101C90000093192210236821204600F059FB1923D4
:101CA0000322CDE9003226213C231422204600F0F5
:101CB000BCFB1549204600F087FF2A786B78134952
:101CC000013202A802F06AF902AB28222C21204638
:101CD00000F03EFF0E49204600F076FF0D4B3B2200
:101CE0000121204600F034FF204600F050FC0BB0EC
:101CF00030BD00BF1DCC0008AFAC00082EAE000800
:101D000035AE00081CAE0008CCBB0008CEAC000805
:101D100053AE0008D4AC000830B5044685B000F0DE
:101D20002CFC2046012100F0B2FA2046012100F0EF
:101D3000A8FE20463149324D00F046FF314B0922C2
:101D40000021204600F004FF2F4B0193072300934E
:101D50002046042302221C2100F0FAFA2B4B092210
:101D60002321204600F0F4FE294B01930F2300931A
:101D700020460E231622062100F0EAFA254B019395
:101D800009230093204610231922682100F0E0FA6D
:101D900019230322CDE9003220463C2314222621B8
:101DA00000F043FB20461C4900F00EFF2A781B4B35
:101DB0002C2153F822302046282200F0C9FE20466C
:101DC000174900F001FF2A781649013202A802F0F3
:101DD000E5F802AB28224D21204600F0B9FE20464E
:101DE000114900F0F1FE114B3B220121204600F089
:101DF000AFFE204600F0CBFB05B030BD1DCC000887
:101E0000FD090020AFAC00082EAE0008B4AC0008FD
:101E100035AE00081CAE0008CCBB0008D0AD0008F1
:101E20004BC80008D1AC000853AE0008E5AC000870
:101E300030B54D688DB00446002D75D000F09DFB87
:101E40000121204600F023FA0121204600F019FE6E
:101E50004049204600F0B8FE3F4B092200212046B1
:101E600000F076FE3D4B01930723009302220423EA
:101E70001C21204600F06CFA394B09222321204610
:101E800000F066FE374B01930F23009316220E23BA
:101E90000621204600F05CFA334B0193092300939E
:101EA000192210236821204600F052FA142302223E
:101EB000CDE900320C2164231922204600F0B5FA46
:101EC0002A49204600F080FE2A786B68122153F8D8
:101ED00022302046232200F03BFE2549204600F018
:101EE00073FE2B78032B31D8DFE803F00220222E7B
:101EF000204B1A78204903A802F050F803AB29229E
:101F00001621204600F024FE2A786B781B49013206
:101F100007A802F043F807AB3B220121204600F05E
:101F200017FE204600F033FB0DB030BD144BE0E748
:101F3000144B154A1978154B002918BF1A4611463B
:101F400003A802F017FAD9E71149F9E700238DF841
:101F50000C30D3E71DCC0008AFAC00082EAE000853
:101F6000FCAC000835AE00081CAE000808C4000830
:101F70004BC8000806000020D1AC00080EAD0008D8
:101F80000500002004000020F8AC0008F5AC0008B3
:101F900005AD00080128014602D10548FFF785BCC0
:101FA0000228FAD0032801D10421F6E7704700BFC8
:101FB000B408002001280AD10B4A0C4813780133D9
:101FC000DBB2052B28BF00231370FFF7BCBC02282F
:101FD00003D103210548FFF768BC0338012801D865
:101FE0000021F7E7704700BFFD090020B40800207A
:101FF000012808B504D1BDE808400D48FFF777BCBB
:10200000022811D10B4B0C481A780C4B53F82210B4
:1020100002F0B0F90A490B4802F0ACF9BDE80840FB
:1020200003480021FFF741BC0328F7D008BD00BFDB
:10203000B4080020FD09002034000020D0AD0008C5
:1020400021AD00084C0000207047704710B50446D1
:10205000A0B10B49FFF70FFC0A492046FFF70BFC24
:1020600009492046FFF707FC08492046FFF703FC13
:1020700020460749BDE81040FFF7FDBB10BD00BF7B
:1020800000AE0008E4AD0008B4AD000898AD00084B
:102090007CAD00080268044B9A4201BF034A1368F2
:1020A00001331360704700BF00080040000A0020A1
:1020B00073B514390C2944D8DFE801F01143430704
:1020C0001B1F43434343434311001F481F4D0178E7
:1020D0000A44D2B20024914204D104B1017001201B
:1020E00002B070BD4C1C13F8016B6E54E1B20124B8
:1020F000F1E7154B00221A70F1E7154B1D68002D12
:10210000EDD0114B1C78002CE9D0072C0F4E234644
:1021100003D8327812F0BF0F07D00C492246481C72
:1021200001F0A6FF40233370631C6422094900922A
:102130000978064A2846FEF7C3FFB0FA80F0400946
:10214000CEE70020CCE700BF860A0020040A00206A
:10215000880A0020870A00202B2907B5104608D8D6
:10216000272931D92939022906D8DFE801F0091ACF
:102170002A004C39012927D8012003B05DF804FB5F
:10218000FEF72CFFF8E70091009AB2F57A7F03D3AF
:1021900001339842F7D8EFE700BF009A013200926E
:1021A000F2E700231946F4E70191019A092A03D9BD
:1021B00001339842F8D8DFE700BF019A013201925B
:1021C000F3E700231946F4E70020D6E737B50446C5
:1021D000002844D0002942D0224BC0F89410196046
:1021E000214B22491A700025214B80F8982080F855
:1021F0009950204A00F076FA204601F01BF8294653
:10220000204601F020F8204601F058F84FF4FA700B
:10221000FEF7E4FE204601F081F84FF4FA70FEF775
:10222000DDFE204600F0A9F91349204600F0CCFC61
:10223000124B14222946204600F08AFC0A23009300
:10224000192280232946204600F0A9F8204600F0F4
:102250009EF9012384F89A30284603B030BD01204E
:10226000FBE700BF880A0020870A0020E8CF0008AB
:1022700059210008B1200008A4B300086CAD000883
:1022800020B190F89A30002B08BF0020704780F8EA
:10229000911070472DE9F04F164685B001361D4666
:1022A000B6B2CB1890F892A000969BB204460F46A7
:1022B000039200F042FD38B1BAFA8AFB4FEA5B1B89
:1022C000012625B984F892A005B0BDE8F08F0E9BD9
:1022D0001A78002332400E990978A5EB030907EB21
:1022E00003081FFA89F91FFA88F83140F2B939B1A9
:1022F00094F891203ABB84F892B0A8EB03011CE05B
:10230000760016F0FF0608BF0E9903F1010308BF1F
:1023100001319BB204BF0E9101269D42DBD11F44C7
:102320001FFA87F892B14FF0000901E00029E7D1C8
:1023300084F892A0A8EB03010022009289B2039ACC
:10234000204600F05BFC4D464746BAE79146CFE792
:102350002DE9F347BDF82850DDF82CA015441E46A2
:10236000ADB20B4400959BB281460F46144600F077
:10237000E4FC28B106F10708C8F3CC08A54202D155
:1023800002B0BDE8F087CDF800A0224633463946BA
:1023900048460134FFF77EFFC244A4B2EEE72DE9C0
:1023A000F347BDF8285001EB0309984653199BB237
:1023B0001FFA89F900934B4606460F46144600F073
:1023C000BCFC78B30023009322464346394630468E
:1023D00000F014FC012D25D9023D0134ADB2A4B2A8
:1023E000ADB14FF0010A22462B4639463046CDF8B2
:1023F00000A000F003FC09F1FF312246CDF800A057
:102400002B4689B2304600F0F9FB2C44A4B20023DD
:102410000A93224643463946304602B0BDE8F047AB
:1024200000F0ECBB02B0BDE8F0872DE9F04F85B0BD
:102430009A46BDF838B0BDF83C4002EB0B05CB180E
:10244000ADB29BB20095064688469146039300F0D4
:1024500074FC002866D009EB040293B20293039B3C
:10246000029A1B1B013B08EB04079BB2BFB203930C
:102470000223009339462346304600F0E9F82D1B2D
:102480000123DDE90221009330462346013D00F09F
:10249000DFF8ADB204232A4600933946234630467E
:1024A00000F0D6F80823009323466400A4B22A461D
:1024B000AAEB040503993046ADB200F0C9F8ABEBC6
:1024C0000404022DA4B213D90137023DBFB2ADB24C
:1024D0002B464A46394630460BF1FF3B00F0F8FBED
:1024E00009EB0B022B4692B23946304600F0F0FB66
:1024F000022C17D9029D023C0135ADB2A4B223468D
:102500002A464146304600F0EAFB0AF1FF3A08EB62
:102510000A0123462A4689B2304605B0BDE8F04F8D
:1025200000F0DDBB05B0BDE8F08F2DE9F74303688F
:1025300090F8389090F8397093F81180044600268E
:102540002368606B1B7C13FB06F1C90089B2F5B2EE
:10255000084457FA86F201350090D2B20021204695
:10256000EDB200F07DFEA94504D90136BB19DBB2FE
:102570009845E5D803B0BDE8F08303681A7C90F86D
:102580003830406B5A43D200002101F0EDBD10B548
:102590000446FFF7CAFF2046BDE8104000F085BEA4
:1025A0002DE9F8439DF82490BDF8208019F0010F23
:1025B00007460D4616461C460ED05918A8EB0202D7
:1025C00092B289B200F092FBA8EB0502A11992B277
:1025D00089B2384600F08AFB19F0020F0FD0A8EB41
:1025E0000602611B92B289B2384600F07FFBA8EB6D
:1025F0000502A11B92B289B2384600F077FB19F0B0
:10260000080F0FD008EB0602611992B289B2384662
:1026100000F06CFB05EB0802A11992B289B23846B2
:1026200000F064FB19F0040F10D0611B08EB0602E8
:10263000384692B289B200F059FB4544A11BAAB2B8
:10264000384689B2BDE8F84300F050BBBDE8F883D6
:102650002DE9F74F91461C4609F101050133254448
:102660000B448846121B091BADB200959BB292B277
:1026700089B29DF830B0824600F05FFB88B1CDE9A9
:10268000009B4346224600215046C4EBC437FFF767
:1026900087FFC4F101057F002DB23FB20026B4428E
:1026A00002D803B0BDE8F08F002D06DBBB1C013C57
:1026B0001FB215FA83F3A4B21DB20136B6B205EB10
:1026C0004605CDE9009B013543462246314650463A
:1026D0002DB2FFF765FFE2E708230370004870475B
:1026E0008C0A002030B585B00D4600930949134689
:1026F000094A044600F06AFE0DF10F00FFF7ECFFF7
:10270000064B9DF80F2000950146204600F0E8FB9F
:1027100005B030BDFD3100086D3000086B2D00089C
:10272000405A40BA80B270470020704708B50A4648
:10273000097801705178417091788170D178C170B9
:10274000117901715179417191798171D179C17199
:10275000117A0172517A4172917A8172D17AC17281
:10276000117B0173517B4173917B8173D17BC17369
:10277000117C0174034611211046FFF7D1FF13218C
:1027800058821046FFF7CCFF152198821046FFF7BC
:10279000C7FFD88208BD70B5047B036862181D7836
:1027A000D2B2072A45FA04F507D8EBB202734FF00C
:1027B000FF30884023EA000070BD5E1C06605B7835
:1027C000C4F10804E4B2A3402B43083ADBB2D2B20E
:1027D000ECE738B5002300F16005044680F86C3062
:1027E000016690F878102846FFF7D5FF94F8791025
:1027F00084F86A002846FFF7CEFF94F8923084F8F8
:102800006E30B3FA83F35B0984F86B0084F86F30A1
:1028100038BD10B5FFF7BFFF4C1EE4B20123A34043
:10282000C01A40B210BD012B05D0022B05D033B920
:10283000104480B270470844FBE7801AF9E7401A59
:10284000F7E7012B05D0022B05D033B9084480B23D
:102850007047801AFBE7401AF9E71044F7E72DE9C3
:10286000F04F87B090F8685090F869700592044670
:102870000E4694F86AA0B4F866300493AAEB0508F3
:102880005FFA88F84FFA87F946454A4669B294F8E4
:102890007030B4F86400B34628BFC346FFF7D1FFD9
:1028A00003900498FFF7BFFF05990246A1B194F881
:1028B0006E1084F892102046009303995B4600F056
:1028C0009DF935444645EDB20DD3A5EB0A05013718
:1028D000EEB2FFB20025CCE794F86D100029F0D1DC
:1028E00094F86F10E5E784F8685084F8699007B0B1
:1028F000BDE8F08F2DE9F347044600F16008FFF7CB
:1029000068FF94F87A1094F96B704046FFF781FFE6
:1029100094F87B1082464046FFF77BFF94F87C10CA
:1029200006464046FFF775FF94F96A50002D814630
:102930004ADDBA19524252B294F87030B4F86400C9
:102940005146FFF77EFFA4F864000646B4F866001F
:10295000FFF769FF0246A4F86600032B57D8DFE8AB
:1029600003F00237404D3544C119ABB289B2009132
:102970002046314600F0E1F930B30023A4F8683076
:1029800094F876104046FFF706FF94F87710064655
:102990004046FFF700FF0546002231462046FFF77C
:1029A0005EFF294620460122FFF759FF01214046DC
:1029B000FFF7F1FE0028EFD194F96930BB42DFDB6D
:1029C00094F86E3084F89230484602B0BDE8F08743
:1029D000C7F10100731C304451199BB289B286B211
:1029E000C5E7C5F10105C7F10100731C511C354451
:1029F00010449BB289B282B2AEB2B8E7C5F101050C
:102A0000F3190544411C9BB289B2AAB2AFE7014653
:102A10003346ACE7836DFF2910B50A4603F117036F
:102A200012D8602909D9B0F888100B44587818B129
:102A30001978914206D1981C10BD4029F6D9B0F8FA
:102A40008610F2E70344F1E7B0F88A100B441C4605
:102A500000212046FFF764FE022103442046FFF7D1
:102A60005FFE824204F10404F2D8188841BA89B2A8
:102A70000028E1D08A4201D1D81CDDE799780B44C7
:102A8000F3E780F86D107047F8B51F4690F8703086
:102A900004460E461546032B07D8DFE803F002155F
:102AA0001A1EC36D9847284485B23946A4F864605D
:102AB000A4F866502046FFF7ADFF014618B1204646
:102AC000FFF718FF80B2F8BDC36D9847301A86B281
:102AD000EBE7C36D9847281AE6E7C36D9847304483
:102AE000F5E72DE9F0471E4607460C46154600F06F
:102AF00020FA013E4FF0000A4FF6FF784FF6FE79BC
:102B00007B6816F8011F38469847404503461BD09E
:102B10004845F5D02A4621463846FFF7B5FF97F8D5
:102B20007030032B05D8DFE803F002080B0D0444D6
:102B3000A4B250441FFA80FAE2E70544ADB2F8E7C8
:102B4000241AF5E72D1AF9E75046BDE8F087000092
:102B500010B4034C44605DF8044BFFF7C2BF00BFE4
:102B6000232F0008836D10B5CBB190F88D3090F90C
:102B7000814090F9821080F88E4080F88F1073B1F8
:102B8000012B0DD190F98330A342B8BF234680F8C2
:102B90008E3090F98430994201DD80F88F3010BD7D
:102BA00090F9802090F97E3013449C42B8BF80F8A1
:102BB0008E309142C8BF80F88F20F0E7014BC3658B
:102BC000704700BF29270008826D8A4210B504466D
:102BD00008D081657430FFF7A9FD2046BDE810409C
:102BE000FFF7C0BF10BD70B4C68FC46A9DF80C500B
:102BF0000395921BA44692B270BC604770B490F8E3
:102C00008C509DF80C40002D5CD0002B5AD0012B2D
:102C100052D0022C29D10131C91A89B2B0F84C40E6
:102C200094424FD8B0F84E4094424BD90B449CB2DA
:102C30008C42B0F84860B0F84A5041D28D423ED93B
:102C40006C1EA4B2A6423DD2B14238BF3146A54265
:102C500094BFC1EB0503C1EB04039BB20024056BD9
:102C60000394AC68A44670BC6047032C24D10132A5
:102C7000D21A92B2B0F848408C4223D8B0F84A40F9
:102C80008C421FD913449CB29442B0F84C60B0F807
:102C90004E501AD2954217D96C1EA4B2A64211D238
:102CA000B24238BF3246A54294BFC2EB0503C2EB25
:102CB00004039BB20124D2E7E407DBD4AEE731463C
:102CC0008D42BFD870BC704732469542E6D8F9E7CE
:102CD00013B500240094FFF791FF02B010BD13B5A7
:102CE00001240094FFF78AFF02B010BD73B5B0F85D
:102CF0004C60964210D8B0F84E6096420CD9B0F8AD
:102D000048508D4208D8B0F84A308B4204D900238D
:102D100000930123FFF772FF02B070BD8A4206D212
:102D2000834208D89A4294BF002001207047834212
:102D3000F8D8002070470120704770B504460D4652
:102D40001E46B0F84E10BDF81030B0F84C00FFF73A
:102D5000E5FF48B1B4F84A10B4F8480033462A46B3
:102D6000BDE87040FFF7DABF70BDF0B58C4690F853
:102D700092109DF8147002F007060124B440012956
:102D8000E4B218D8254600D10024016822F00702D9
:102D9000097C92B211FB02F189B2426B6144114489
:102DA0005FB90A78013B2A4362409BB201F8012BCC
:102DB000002BF6D1F0BD0025E7E70A7801362A435B
:102DC0006240013B16F007060A709BB20AD1428F9F
:102DD000114490F89220012A09D80AD11546002BF7
:102DE000EBD1E7E76D006400EDB2E4B2F7E7012450
:102DF000F5E701242546F2E770B590F8381002682F
:102E000090F83950CB008387137CDB004387EB00BD
:102E1000C387547CA0F840304E19A642C4BF641B3F
:102E2000A1B203EBC103A0F84230938AA0F844306A
:102E3000D38AA0F8463070BDFFF7DEBF10B49DF80E
:102E4000044001945DF8044BFFF7CDBE13B5B0F814
:102E500056300093B0F85230B0F85420B0F850100B
:102E60000446FFF76AFF18B984F88C0002B010BD61
:102E70000123B4F8482084F88C30B4F850309A42DA
:102E800038BFA4F84830B4F84A20B4F852309A4217
:102E900088BFA4F84A30B4F84C20B4F854309A42B1
:102EA00038BFA4F84C30B4F84E20B4F856309A42EB
:102EB00088BFA4F84E30D9E70022A0F84820B0F827
:102EC0004420A0F84A20026CC264FFF7BFBF000094
:102ED000024A036BC0E914225B6818470000FFFF39
:102EE00070B5049EC362002540F2011380F83820BB
:102EF00080F8395080F86D5080F88D5080F89150EE
:102F0000A0F89230044641633368856506639847AC
:102F10002046FFF7DDFF2046FFF750FE84F8705093
:102F200070BD4FF6FF7019B10A2918BF08467047E7
:102F30007047002380F82630704710B404691346A8
:102F4000A4460A465DF8044B1721604707B58DF883
:102F500007100DF107020121FFF7EFFF03B05DF845
:102F600004FB10B404690023A4461A465DF8044B20
:102F70001821604710B404690023A4461A465DF87E
:102F8000044B19216047F8B5044616460D46FFF775
:102F9000E8FF40212046FFF7D9FF276933462A463C
:102FA00020461721B8472046BDE8F840FFF7E2BFAA
:102FB00010B4C4680A46A44600235DF8044B1521EA
:102FC000604710B4C4680A46A44600235DF8044B69
:102FD0001621604710B4C4681346A4460A465DF83B
:102FE000044B1721604710B4C4680023A4461A4656
:102FF0005DF8044B1821604710B4C4680023A44650
:103000001A465DF8044B1921604773B505460C4616
:103010002178192906D8172921D816D014290BD8B8
:1030200002B070BDFE29FBD162788DF807202921FE
:10303000284600F0A9F906E06278EE688DF80720CE
:1030400000232846B0470234E2E763788DF8073062
:103050000DF1070201212846FFF7BCFFF3E700232B
:10306000EE681A4628460134B047D1E714392DE9F5
:10307000F041044615461E4605294ED8DFE801F00A
:103080003303181C4145264E33780BB1FFF772FF0E
:103090002046FFF766FF00212046FFF757FF29462D
:1030A0002046FFF753FF012333700120BDE8F08174
:1030B0001146FFF74BFFF8E7194F3B780BB1FFF7CD
:1030C00059FF182D324606D829462046FFF75BFFE8
:1030D00000233B70E9E718212046183DFFF753FF16
:1030E000EDB21836EDE790F824300769FF2B04BFE6
:1030F000782380F82430BC4633461421BDE8F041E3
:103100006047074B00221A70CFE7054D2B780BB1B3
:10311000FFF730FF00232B70C7E70020C6E700BF92
:103120008C0E0020FFF75FBF00F0B6B80B39F8B582
:10313000044615461E46042955D8DFE801F003541D
:103140000C1B29002AB929492046FFF75EFF012000
:10315000F8BD2749F8E73AB92649FFF756FF236833
:103160009B7C84F82230F2E72349FFF74EFF236867
:10317000DB7CF6E7FFF737FF81212046FFF718FFDA
:1031800029462046FFF71DFF2046FFF735FFDEE703
:10319000FFF729FF737994F8227007EBC30707F054
:1031A000FF0740212046FFF703FF390941F01001D6
:1031B0002046FFF7FDFE07F00F012046FFF701FF55
:1031C000B179204641F0B001FFF7FBFE317932685A
:1031D000C90001F0F8012046013DFFF7FBFE15F0A4
:1031E000FF05F3D1D0E70020B2E700BF1FD00008F1
:1031F0001AD0000813D000080CD0000838B50446D7
:103200000D46FFF793FF50B9092D0AD00A2D07D1BB
:103210002046FFF787FF05492046FFF7F6FE01200D
:1032200038BD03492046FFF77FFFF8E724D00008A8
:10323000F4CF000810B484680023A4461A465DF851
:10324000044B0A21604710B40B46846829B90A462A
:10325000A4460B215DF8044B604700230122F7E7E9
:10326000F8B51D468768069E13460A460F21044698
:10327000B84706EBC505AE42276906D100231A46BA
:1032800019212046B8470120F8BD334608221721EE
:103290002046B8470836EEE710B484680023A446F9
:1032A0001A465DF8044B0921604710B48468002376
:1032B000A4461A465DF8044B10216047F7B5002379
:1032C00004461A4685680F21A847002325691A4637
:1032D00018212046A8470025CDE9005523685A7CCF
:1032E000EBB29A4218D800231A46192125692046C4
:1032F000A8472046FFF7D9FF03B0F0BD6B46082270
:1033000017212046B8470136236827691A7CF3B293
:103310009A42F3D80135E1E70026F5E70023F7B537
:1033200004461A4685680F21A84700231A462569D6
:1033300018212046A847134A106851686B4603C3FA
:10334000002523685A7CEBB29A4218D800231A460B
:10335000192125692046A8472046FFF7A6FF03B09C
:10336000F0BD6B46082217212046B8470136236876
:1033700027691A7CF3B29A42F3D80135E1E70026B7
:10338000F5E700BF73AD000810B4446924B1A4464A
:1033900000235DF8044B60475DF8044B7047002044
:1033A000704700000023084A036080F8233080F84B
:1033B00026308361FF23C0E90222C0E9042280F89D
:1033C000243080F8283070479F330008F8B5069FF6
:1033D00016461D46FFF7E6FFC0E90216C0E904578E
:1033E000BDE8F840FFF758BF534AD2F8883043F49D
:1033F000700384B0C2F88830504B1A6842F0010262
:103400001A6059684E4A0A405A601A684D4922F0BB
:10341000847222F480321A601A6822F480221A60C0
:103420005A6822F0036222F470225A604FF460520C
:10343000DA6200221A631A649960D96941F08051F6
:10344000D961D96921F08051D9613F49086840F0BC
:1034500080000860086820F01000086002928DF873
:10346000032003921A6842F480321A601A68C2F389
:1034700040428DF80320039A013203929DF8032005
:103480001AB9039AB2F5005FF0D11A68C2F340424C
:103490008DF803209DF8032042B92C4B2C4A1A606A
:1034A000254B4FF000629A6004B07047264A1168BD
:1034B00021F007011160116841F0020111605A68A2
:1034C0005A605A6842F400525A605A6842F4A06244
:1034D0005A605A6822F0036222F470225A601A6C11
:1034E00022F001021A645A680192019A42F4803271
:1034F0000192019A42F400320192019A42F0036271
:1035000042F440220192019A5A60029A1A641A689F
:1035100042F080721A601A689201FCD55A6822F053
:1035200003025A605A6842F002025A605A6802F076
:103530000C02082AFAD1B3E700ED00E000100240C7
:103540000CC07FF80000BF04002002406C00002087
:1035500000127A0070B50178012501F01F039D402B
:10356000C3784C09BBB10E4B4678DA68D243C2F33C
:103570000222C2F104039E4083780F2020FA02F257
:103580001340084A33431B011144DBB281F8003376
:1035900042F8245070BD034B203443F82450F9E71F
:1035A00000ED00E000E100E0036823F001030360A8
:1035B0000023036043608360C360204B984205D1C1
:1035C0001F4A536843F00F03536070471D4B9842E6
:1035D00004D11B4A536843F0F003F5E71A4B9842B5
:1035E00004D1174A536843F47063EDE7174B9842D0
:1035F00004D1134A536843F47043E5E7144B9842EF
:1036000004D10F4A536843F47023DDE7114B98420D
:1036100004D10B4A536843F47003D5E70E4B98422C
:1036200004D1074A536843F07063CDE70B4B9842CF
:10363000CBD1034A536843F07043C5E7080002400A
:10364000000002401C0002403000024044000240E2
:10365000580002406C00024080000240940002408A
:10366000036823F001030360704703680B430360A2
:103670007047036823EA010303607047006808404D
:10368000003818BF012070474160704701617047E2
:10369000084B1A6822EA00021A605A6801F1804158
:1036A00001F5823122EA00025A600B6803430B6085
:1036B000704700BF000401400C4B9A6822EA0002E8
:1036C0009A60DA68102922EA0002DA6006D19A6864
:1036D00002439A60DA681043D860704701F1804174
:1036E00001F582310B6803430B6070470004014011
:1036F00039B902F1804202F58232136823EA0000F0
:103700001060704710B5044601790068FFF7C0FFEC
:1037100061792068FFF7D0FF2279A1792068BDE8A0
:103720001040FFF7E5BF0000054902464869104018
:1037300004D008681040003818BF0120704700BF4F
:1037400000040140014B5861704700BF0004014074
:1037500010B502F00704A40012074FF00F034CBF8E
:10376000426A026A03FA04F36FEA030301FA04F1FE
:103770004BBF134013400B430B434CBF43620362E8
:1037800010BD30B5032304685500AB4024EA0304A0
:1037900001F00303AB402343036021F01003013B1E
:1037A000012B08D8436801249440090923EA040343
:1037B00091401943416030BD10B5C36852000324E5
:1037C000944023EA040391401943C16010BD10B531
:1037D00083680124944023EA0403914019438160E3
:1037E00010BD10B5C36A52000324944023EA0403B9
:1037F00091401943C16210BD70B50C4600250126E9
:10380000236833FA05F200D170BD06FA05F21A42B8
:1038100011D061692A46FFF79BFF2A466168FFF7CE
:10382000B0FFA168FFF7C8FFE1682A46FFF7CFFFA6
:103830002169FFF7D6FF0135E2E74FF6FF7303601A
:103840000F220023C36043604261836003617047BD
:1038500000690840003818BF012070478161704737
:103860008162704700F0FC0303F1804303F580336D
:1038700000F003005A6810B5C0003F24844022EADB
:1038800004025A605A6881401143596010BD00001B
:10389000044B98420CBF4FF400104FF4800000F02E
:1038A00045B900BF00540040F0B587B004466846F3
:1038B0000E46174600F0CAF82C4B0298A1882C4AF5
:1038C00098429CBF2B4BB0FBF3F321F03F014FEA32
:1038D000014194BF9BB22023090C1943A180218888
:1038E00021F001010904090C2180256A964225F086
:1038F0003F0513D87600B0FBF6F6B6B2042E32467A
:1039000038BF042201339BB21D432562A283238862
:103910009BB243F00103238007B0F0BDB7F5804FA1
:1039200005BF1922724306EB4602B0FBF2F20BBF51
:1039300092B2B0FBF2F242F4804292B2C2F30B01B7
:1039400009B942F001020C498E428BBF1BB24FF401
:103950009671C3EB031313FB01F388BFDB004FF435
:103960007A7142F40042B3FBF1F3CBE73F8AF701EF
:10397000A086010040420F00801A060038B50446B8
:103980000D46CA880968FFF78FFF2388AA8823F0AD
:103990000A031B041B0C1343238023886A8923F426
:1039A00080631B041B0C134323802389AA89C3F360
:1039B0000E031343238123892A8903F47C43134391
:1039C000238138BD054B41F28832C0E90023002332
:1039D00083604FF480438381704700BF0000FFBFC6
:1039E00003889BB243F001030380704703889BB2B6
:1039F00043F480730380704703889BB243F40073E1
:103A00000380704701827047012A0CBF41F0010119
:103A100001F0FE010182704782B000230093019300
:103A20000B0F00900193019B21F07F415BB9009B3C
:103A3000090C18330093009B18680840003818BF21
:103A4000012002B07047009B1433F3E7254930B5DD
:103A50004C684A68250140F20F2303EA944302F4BC
:103A600080324ABF6FF4F77402331B19002A35D134
:103A70000A6C12F0010F14BF1B4A1C4A4C681C4D03
:103A800053431A4A04F00C04082C08BF1A4602607B
:103A90004C68C4F303142C5DE24042604C68C4F3EC
:103AA00002242C5D22FA04F484604C68C4F3C2241E
:103AB0002C5D104D22FA04F4C460CC6A04F00F04AB
:103AC0002C5DB2FBF4F24261CA6A0B49C2F30312E5
:103AD00031F81220B3FBF2F3036130BD4A6812F4EF
:103AE000003FC8E70010024000093D0000127A00C4
:103AF0008AD000087AD000085AD00008024A5369D8
:103B000003435361704700BF00100240024A9369AB
:103B100003439361704700BF00100240024AD3691B
:103B20000343D361704700BF00100240044B1A6981
:103B300002431A611A6922EA00021A61704700BF43
:103B400000100240036819B143F40063036070473A
:103B500023F40063FAE7036819B143F48053036068
:103B6000704723F48053FAE7036819B143F4005314
:103B70000360704723F40053FAE7036819B143F474
:103B800080430360704723F48043FAE7036819B168
:103B900043F400430360704723F40043FAE7002333
:103BA0004FF6FF72038043808280C380038143818C
:103BB00083818373704781847047036823F4407363
:103BC000036003681943016070470000244B98426A
:103BD00010B502460C4608D00168638821F07001D8
:103BE0000B430360E188FFF7E8FFA38893852388F0
:103BF00013851C4B9A4203D003F500639A4201D10E
:103C0000237A138601239382154B9A4227D0617A37
:103C10001046FFF797FF134B9A420ED003F500634F
:103C20009A420AD0B2F1804F07D0A3F598339A4256
:103C300003D003F580639A4211D1617B1046FFF7F0
:103C4000A5FFB2F1804F0AD1A17AFFF784FFE17A94
:103C5000FFF78AFF217BBDE81040FFF78EBF10BD44
:103C600000100040002C01400369828913EA010022
:103C700092B203D01140081E18BF01207047C943FB
:103C8000016170478088C0F308007047C1F3421299
:103C900010B5034601F01F040120012A00FA04F0C8
:103CA0000DD19A891B8892B210409BB230B1090A9B
:103CB00001228A401340181E18BF012010BD022A9D
:103CC0000CBF1A8A9A8AEDE7090A01238B40DB436D
:103CD0009BB20380704700000D4885460D480E4991
:103CE0000E4A002302E0D458C4500433C4188C4256
:103CF000F9D30B4A0B4C002301E013600432A242BB
:103D0000FBD3FFF771FB00F005FBFDF749FAFEE777
:103D100000400020000000204407002098D4000844
:103D200044070020A8110020FEE70000024A0349D2
:103D3000034800F0C9B800BF70000020F16E000811
:103D4000800000200C4B4168994210B5044601D018
:103D500003F0CEF8A168094B994202D0204603F047
:103D6000C7F8E168064B994204D02046BDE81040F0
:103D700003F0BEB810BD00BF900E0020F80E00206A
:103D8000600F00202DE9F843314A324C3249DFF808
:103D9000DC90DFF8DC80314F1160002504232946D8
:103DA000082204F15C00C4E903352D4EA560C4E986
:103DB0000055C4E90555656600F0D6F904F15800D0
:103DC000C4E90749C4E90987E66200F0CBFA29464D
:103DD000244B6367082204F1C400C4E91A55C4E9FE
:103DE0001E552567C4F8CC50C4F8805000F0BCF9CB
:103DF00004F1680304F1C000C4F88430C4E92298D7
:103E0000C4E9247600F0AEFA174BC4F8DC3029463A
:103E100004F596700822C4E93455C4E93855C4F84D
:103E2000D850C4F83451C4F8E85000F09DF904F1BA
:103E3000D003C4E93D87C4F8F09004F59470C4F849
:103E4000FC60C4F8EC30BDE8F84300F08BBA00BF6A
:103E5000C80F0020900E00202D3D000845400008AE
:103E6000694000080900010012000200E13F00085B
:103E70000540000810B504460A4800F077FA636B65
:103E800023B9094B094A1B68626323B1BDE810409E
:103E9000044800F06DBAFFF775FFBDE81040014817
:103EA00000F066BAD80F0020C80F0020453D00087A
:103EB000014800F05BBA00BFD80F0020014800F0B5
:103EC00057BA00BFD80F00202DE9F84307468846AF
:103ED00016464FF00009D6E90154013D10D4A389DC
:103EE000012B08D9B4F90E3001332146384602D0EF
:103EF000C04749EA0009013D6B1C04F16804EED19A
:103F00003668002EE7D14846BDE8F8830CB410B5FA
:103F1000214B00291C689CB038DB4FF000034FF4A4
:103F200002721B93ADF81420029006901FAB18D0BC
:103F300001394FF6FF7204910791ADF8162002A9DE
:103F40001E9A0193204600F0AFFE421C01DA8B233B
:103F50002360029B00221A701CB0BDE8104002B022
:103F600070474FF6FF7204910791ADF8162002A931
:103F70001E9A0193204600F097FE431C01DA8B2322
:103F800023601CB0BDE8104002B070478B23236053
:103F90004FF0FF30F5E700BF7C0000200EB430B5D5
:103FA0009CB06FF000411FAB049107910A4953F890
:103FB000042B029000240690084D0868019302A982
:103FC00005951B9400F070FE029B1C701CB0BDE8B0
:103FD000304003B0704700BF7C0000200802FFFFA4
:103FE00010B50C46B1F90E1000F068F9002803DB9B
:103FF000236D0344236510BDA38923F48053A3815B
:1040000010BD00BF2DE9F0410C46B1F90C101F4660
:10401000CB05054616460BD421F48051A1813B46C1
:10402000B4F90E1032462846BDE8F04100F05CB904
:10403000B4F90E100223002200F02AF9B4F90C1092
:10404000EAE700BF10B50C46B1F90E1000F020F9F8
:10405000B4F90C30421C0EBF23F4805343F4805358
:104060002065A38110BD00BFB1F90E1000F0FEB8AD
:1040700088420DD98B1883420AD900EB020C5AB33F
:10408000624613F801CD02F801CD9942F9D170478B
:104090000F2A0DD802F1FF3CF2B10CF1010C431EC6
:1040A0008C4411F8012B03F8012F6145F9D17047B9
:1040B00040EA01039B07F0B50C460ED002F1FF3C2D
:1040C00003460CF1010C013B8C4411F8012B03F861
:1040D000012F6145F9D1F0BD7047A2F1100525F01F
:1040E0000F0501F1200E01F11003AE4400F1100C98
:1040F00053F8106C4CF8106C53F80C6C4CF80C6CBA
:1041000053F8086C4CF8086C53F8046C4CF8046CC9
:10411000103373450CF1100CEAD101EB050C0CF1D6
:104120001001054412F00C0F05F110038E4602F049
:104130000F0517D0043D25F00305AC440CF1140C19
:10414000041B0F680E19043161453760F9D12C1D2D
:1041500004EB0E01234402F0030202F1FF3C002AAB
:10416000AFD1F0BD2A46F8E7830730B546D08418B2
:10417000844604E003F8011B9D0704D09C46A44537
:104180006346F7D130BD013A0244A2EB0C02032A88
:1041900029D9CCB204EB04240F2A04EB04442FD910
:1041A000A2F1100C2CF00F0C03F11005AC44C3E984
:1041B0000044C3E9024410336345F8D112F00C0FF8
:1041C00002F00F0E18D02EF0030C9C44AEF1040543
:1041D0001A4642F8044B6245FBD125F00304043330
:1041E0000EF003022344002ACCD0C9B21A4403F8CB
:1041F000011B9342FBD130BD7246F4E70346C6E78C
:104200009646E0E740EA01039B0710B501D1032A77
:1042100017D8844601F1FF3E07E01EF8011F03F89E
:10422000011B541E29B19C4622466346002AF4D144
:1042300010BD9444002CFBD003F8011B6345FBD157
:1042400010BD8E468446DEF80040A4F1013323EA17
:10425000040313F0803F71460EF1040EDAD1043AE4
:10426000032A4CF8044BEED87146D3E738B5074D16
:104270000022044608462A6006F052FC431C00D087
:1042800038BD2B68002BFBD0236038BDCC0F00203D
:1042900038B50D46084C8446114628461A46002378
:1042A0002360654606F064FC431C00D038BD2368DB
:1042B000002BFBD02B6038BDCC0F002038B50D464D
:1042C000084C8446114628461A460023236065465A
:1042D00006F056FC431C00D038BD2368002BFBD0F1
:1042E0002B6038BDCC0F002038B50D46084C8446F5
:1042F000114628461A4600232360654606F056FC00
:10430000431C00D038BD2368002BFBD02B6038BD88
:10431000CC0F002070B50F4B0F4DAB42A3EB050641
:1043200007D0B610002455F8043B01349847A64244
:10433000F9D806F045FC094D094B5E1BAB424FEA2C
:10434000A60606D0002455F8043B01349847A6423F
:10435000F9D870BD8CD400088CD400088CD4000827
:1043600094D40008704700BF704700BF704700BF7B
:10437000704700BF80EA0102844612F0030F4FD15C
:1043800011F0030F32D14DF8044D11F0040F51F824
:10439000043B0BD0A3F101329A4312F0803F04BFDB
:1043A0004CF8043B51F8043B16D100BF51F8044BC4
:1043B000A3F101329A4312F0803FA4F101320BD1F4
:1043C0004CF8043BA24312F0803F04BF51F8043B79
:1043D0004CF8044BEAD023460CF8013B13F0FF0FD6
:1043E0004FEA3323F8D15DF8044B704711F0010F09
:1043F00006D011F8012B0CF8012B002A08BF7047DA
:1044000011F0020FBFD031F8022B12F0FF0F16BFD0
:104410002CF8022B8CF8002012F47F4FB3D1704798
:1044200011F8012B0CF8012B002AF9D1704700BFBD
:10443000024B13B1024800F005B8704700000000BD
:1044400071710008002301461A46184602F0E4BEC6
:104450002DE9F84306460820894602F09DFEDFF864
:10446000A4800546304600F013FCD8F808305F6899
:1044700027F00307A7F11104A4EB09042C44B4FBB3
:10448000F5F4013C05FB04F4A54208DC00213046AC
:1044900002F05CFED8F808303B44984205D0304624
:1044A00000F0FCFB0020BDE8F8836142304602F0DA
:1044B0004DFE01300FD0114AD8F808303F1B47F0AD
:1044C00001075F60136830461B1B136000F0E6FBBA
:1044D0000120BDE8F8830021304602F037FED8F80D
:1044E0000820831A0F2BDADD43F001035360044BDD
:1044F00002491B68C01A0860D1E700BFE00F002026
:10450000C4010020D001002000295BD0F8B50C4682
:10451000074600F0BDFB54F804CC744DA4F108022A
:104520002CF00103D118A8684E68884226F00306D3
:104530000CF0010E7ED088194E60406800F001003A
:10454000BEF1000F2FD154F8084C121B234494687D
:1045500005F1080C644562D0D2F80CE0C4F80CE018
:10456000CEF8084000287FD043F0010050600B6077
:10457000B3F5007F2FD2D90868685C0901310123A7
:1045800009B2A34003436B6055F83100906005EB1E
:10459000C103083BD36045F83120C2603846BDE80E
:1045A000F84000F07BBB70B9334405F1080C886813
:1045B000604543F0010471D0C968C16088605460EF
:1045C000D350D5E770474CF00101B3F5007F44F8B4
:1045D000041CD350CFD3B3F5206F4FEA532045D2FC
:1045E000980900F1390109B200F13804C9006818CE
:1045F00069580838884203D157E08968884204D056
:104600004C6824F003049C42F7D8C868C2E9021041
:1046100082603846CA60BDE8F84000F03FBB88BB06
:104620001E44D1E90213CB60996046F00103536048
:104630009651B3E71E44BEF1000F07D154F8083C71
:10464000D21A1E44D2E90213CB60996046F00103EE
:104650005360274BAA601B68B3429FD8254B38464E
:104660001968FFF7F5FE99E73344A0E714280ED93F
:10467000542821D8180B00F16F0109B200F16E0423
:10468000C900B4E743F0010050600B6086E700F119
:104690005C0109B200F15B04C900A8E7C5E9042286
:1046A000C2E902CC5460D35078E76E68A4100123AD
:1046B000A34033436B60A9E7B0F5AA7F07D8D80BB6
:1046C00000F1780109B200F17704C9008FE740F2E8
:1046D0005451884206D8980C00F17D0100F17C0409
:1046E000C90084E74FF47E717E2480E7D00100206A
:1046F000C8010020101000202DE9F04F01F10B053A
:10470000162D83B0064623D8102900F2B48000F09D
:10471000BFFA102518230220B84F3B44A3F108022A
:104720005C68944200F064816368E268A16823F0E9
:104730000303CA602344304691605A6842F0010284
:104740005A6000F0ABFA0834204603B0BDE8F08FA1
:1047500035F0070500F18F80A94200F28C8000F04F
:1047600097FAB5F5FC7FC0F0B8815FEA552E00F0EE
:104770008980BEF1040F00F270814FEA951E0EF1A0
:10478000390003B20EF1380EDB009C4F3B44A3F11D
:10479000080C5C68A44507D10DE0002AE16880F2AE
:1047A00021818C4507D00C46636823F003035A1B14
:1047B0000F2AF2DD7046DFF85C823C69444500F068
:1047C000FE80636823F0030CACEB05030F2B00F3B2
:1047D0008981002BC7E9048880F27381BCF5007FD2
:1047E000D7F804E080F018814FEADC03013319B2F6
:1047F0004FEA5C1C012303FA0CF357F83120A26046
:104800004EEA030E07EBC103083BE360C7F804E080
:1048100047F83140D46083104FF0010C0CFA03FCD0
:10482000F44535D81CEA0E0F08D120F003004FEAFA
:104830004C0C1CEA0E0F00F10400F8D007EBC00A84
:10484000D6468146DEF80C300BE0596821F00301B2
:104850004A1B0F2A1C46DB6800F30F81002A80F2F6
:1048600023819E45F1D109F1010919F0030F0EF1E1
:10487000080EE7D161E10C2333600024204603B029
:10488000BDE8F08F4FF4007340204FF03F0E7CE7FF
:10489000BC68636823F00309A94504D3A9EB0503A9
:1048A0000F2B00F38F80564B1B68082003F1100874
:1048B00004EB0903009302F06FFC524A13680133C2
:1048C000A844834605D008F1FF388044434203EAF8
:1048D00008084146304602F039FCB0F1FF3F494A32
:1048E000824600F01B8104EB0903834200F214812D
:1048F000454B186840440BF1FF3C186000F0728192
:104900001168013100F07A8104EB0902AAEB02027E
:1049100002441A601AF00702CDE9002300F0328148
:10492000C2F108029244D04408EA0C015A44521AD7
:1049300002EA0C0B5946304602F008FC421C019B6F
:1049400000F07981A0EB0A0000EB0B081868C7F8AB
:1049500008A048F001025844BC42CAF8042018607C
:1049600016D0B9F10F0F40F24C816168A9F10C0229
:1049700022F0070201F00101114361604FF0050CC4
:10498000A1180F2AC1E901CC00F25D81DAF80420F8
:104990001E4B1968814238BF18601D4B196881424F
:1049A00038BF1860544622F00308A845A8EB050359
:1049B00001D30F2B06DC304600F070F95DE7D7F825
:1049C00004E028E7621943F0010345F00105656042
:1049D0003046BA60536000F061F90834204603B0F5
:1049E000BDE8F08FA2682344D16030468A60A4E617
:1049F000DC68A3427FF498AE0230DCE6D0010020F0
:104A000010100020C4010020E00F00200C10002036
:104A100008100020D8010020BCF5206F4FEA5C226E
:104A200072D3142A00F2C18002F15C031BB25B3224
:104A3000DB00F918FB580839994203D198E09B68CC
:104A4000994204D05A6822F003026245F7D8D96827
:104A5000C4E902318C60DC60DDE6BEF1140F60D980
:104A6000BEF1540F00F2AB804FEA153E0EF16F001D
:104A700003B20EF16E0EDB0087E6D4F808C03046B4
:104A8000661945F001056560CCF80C30C3F808C024
:104A900042F00103C7E90466C6E902887360625008
:104AA00000F0FCF80834E9E6214430464A6842F058
:104AB00001024A6054F8082FD3609A6000F0EEF8C3
:104AC000DCE6A4443046DCF8043043F00103CCF8C3
:104AD000043000F0E3F80834D0E6E808431C1BB2C9
:104AE000DB0019E6621943F0010145F0010565603C
:104AF0003046C7E90422C2E90288516044F80C300C
:104B000000F0CCF80834B9E64FEA9C1202F1390300
:104B10001BB23832DB008CE7BC425CD0BC686268F8
:104B200041E70EF15C0003B20EF15B0EDB002CE6F8
:104B30005AF80839534540F0A68010F0030F00F1F1
:104B4000FF30F5D17B6823EA0C037B604FEA4C0C05
:104B50009C453FF69DAEBCF1000F04D198E64FEAAC
:104B60004C0C09F104091CEA030FF8D0484665E62D
:104B700092104FF0010C0CFA02F24EEA020EC7F846
:104B800004E065E70AEB080202EA0C02ABEB020262
:104B900002EA0C0B5946304602F0D8FA431C019B3E
:104BA0007FF4D0AEDDF800B0D0E6542A2DD84FEA1D
:104BB0001C3202F16F031BB26E32DB0039E7BEF527
:104BC000AA7F2DD84FEAD53E0EF1780003B20EF140
:104BD000770EDB00D9E52D4B186840440BF1FF3C04
:104BE00018608DE61AEA0C0F7FF48AAED7F808A099
:104BF000C84448F00102CAF80420C9E6C2F800A07F
:104C000088E60123CAF80430D5E6B2F5AA7F25D894
:104C10004FEADC3202F178031BB27732DB0008E79F
:104C200040F254539E4524D8AB0C03F17D0003F1B0
:104C30007C0EC300A9E5009A083A9044A8EB0A0844
:104C40004FF0000B82E6304604F108010093FFF7B5
:104C50005BFC009BD7F808A0186897E640F2545315
:104C60009A420CD84FEA9C4202F17D03DB007C3271
:104C7000DFE64FF47E737F204FF07E0E85E54FF424
:104C80007E737E22D5E67B6860E700BFE00F0020E0
:104C90000148FFF76BBB00BFD00F00200148FFF7B2
:104CA00067BB00BFD00F00202DE9F04FD7B00C46F6
:104CB000069115460A93834602F044FA036813935B
:104CC0001846FBF7DDFA00211290082226A8FFF70C
:104CD0004BFAA389190603D52369002B01F0AE8096
:104CE0009FED777B00239E46CDE916EE8DED0E7B82
:104CF000CDE92B332DAB2A931C46CDF850E0CDF8EF
:104D000054E0CDF810E0CDF834E02F463D466E4B30
:104D1000D3F8E46002F010FA26AA0346009222A912
:104D20002A465846B047002800F09880C0F28E808E
:104D3000229A252A034601D01D44E8E7B5EB07086F
:104D4000064640F08F8000234FF0FF328DF87F3011
:104D50009A46059301352B78039201359946A9F1BE
:104D600020035A2B00F2B280DFE813F04402B000B7
:104D7000B0004002B000B000B0002302B000B000AC
:104D8000EE01FD01B000F9010602B00002025B0075
:104D90005B005B005B005B005B005B005B005B003B
:104DA000B000B000B000B000B000B000B00025010D
:104DB000B0007C010203250125012501B000B000EF
:104DC000B000B000FE02B000B0004E02B000B00073
:104DD000B000B901B000A402B000B000C007B0003C
:104DE000B000B000B000B000B000B000B0002501CD
:104DF000B0007C016701250125012501220367011F
:104E00006C00B0003B03B0002C03700345036C0042
:104E1000B000B9016A00DD02B000B0003008B00097
:104E20006A00A9F13003002215F8019B02EB82020F
:104E300003EB4202A9F13003092BF5D905928EE765
:104E40002B788AE72B784AF0200A86E7082200218F
:104E500026A8FFF789F901231D4458E7B5EB070899
:104E6000064612D0DDF8ACE02C9B0EF10102434463
:104E7000072AC4E900782C932B9215DC0834049B94
:104E800043440493002E7FF45EAF2C9B002B41F033
:104E90006883069B9B8903F04003002B41F0C58784
:104EA000049857B0BDE8F08F06992AAA584601F039
:104EB000F3FF0028EDD12DACE1E700BFAFF3008098
:104EC0000000000000000000D8050020B9F1000F2C
:104ED000DBD00023CDE90B3301228DF8F4908DF85F
:104EE0007F3007930892039311933DAF02922C9E5B
:104EF00010961AF0840300F0E4809DF87F2002B33E
:104F00002B984FF00008013001220136626007281B
:104F10000DF17F02CDE92B06226000F302840834F4
:104F2000B8F1000F0DD02B98013020AA0236226074
:104F300007284FF00202CDE92B06626000F3E583FB
:104F40000834802B00F0EC82039B089AA3EB020844
:104F5000B8F1000F00F329831AF4807F40F08982B2
:104F6000089B63601E442B9B27600133072B2C9604
:104F70002B9300F3728308341AF0040F05D0059BBD
:104F8000029A9F1A002F00F3DA83DDE904320299B6
:104F90008A42ACBF9B185B180493002E40F03D83FF
:104FA00000232B93079B1BB107995846FFF7ACFAD8
:104FB0002DAC2F46AAE60A9B073323F00703B3EC78
:104FC000027B8DED0E7B0A930F9B8DED1A7A23F0F9
:104FD00000431B93DDE91A01B34B4FF0FF32FBF79F
:104FE00065FE002840F02886DDE91A01AE4B4FF03F
:104FF000FF32FBF73DFE0646002840F01D86DDE946
:105000000E01002200232AF0800AFBF727FE002869
:1050100041F0F1819DF87F30B9F1470FCCBFA34F2C
:10502000A34F002B41F0DF850322CDE90B3307931B
:10503000089203931193029259E71AF0200F40F05F
:10504000B3850A9A1AF0100F52F8046B41F01B87CF
:105050001AF0400F0A9201F0168146F3C038434619
:1050600036B295E10A9BB9F1430F03F1040603D070
:105070001AF0100F00F0BB860822002128A8FFF7C5
:1050800073F80A9B3DAF1A68394628AB584603F0BF
:10509000B5FD03460133089001F0C286089B23EA60
:1050A000E37302930023CDE90B330A968DF87F302A
:1050B0002C9E0793039311931AF0840310967FF4A8
:1050C0001CAF059A0298A2EB0008B8F1000F00F39C
:1050D00014849DF87F20002A3FF436AF10E7DDF8F6
:1050E000288058F8047B00238DF87F30002F00F0D3
:1050F0009486B9F1530F01F013801AF010030B934B
:1051000041F00E80039B002BC1F219821A460B99C5
:105110003846FBF725F99DF87F300790002801F00D
:10512000CB85079AD21B089222EAE27202920BB157
:10513000013202920B9BCDF82880039311930C93BC
:1051400007934FF07309D2E60A9B53F8042B05929C
:10515000002A80F21385059A0A93524205922B7811
:105160004AF0040AF9E52B238DF87F302B78F4E51B
:105170002B784AF0800AF0E5294611F8019BB9F135
:105180002A0F01F04286A9F13003092B98BF0022B3
:1051900001F20C8411F8019B02EB820203EB420244
:1051A000A9F13003092BF5D942EAE27303930D46C6
:1051B000D5E5584601F0C6FF436815931846FBF73E
:1051C0005FF817900646584601F0BCFF82682B78BE
:1051D0001692002E3FF4C1AD002A3FF4BEAD127806
:1051E000002A3FF4BAAD4AF4806AB6E52B784AF05B
:1051F000010AB2E59DF87F202B78002A7FF4ADAD3F
:1052000020228DF87F20A8E51AF0200F4AF0100028
:1052100000F0BC840A9B073323F007031A46596841
:1052200052F8083B0A9200228DF87F20039A002A48
:1052300018DB53EA010220F4906A15D1039A9AB957
:1052400010F001031A46029300F00B8730238DF80B
:105250005731039B0892CDE90B33119307930DF25D
:10526000571744E620F4806A56AF03F00702DB08C4
:1052700043EA4173C908303253EA0106384607F859
:10528000012DF2D11AF001030B9340F01E83039914
:10529000119356AAD21B9142B8BF114608920291AF
:1052A0000C93079323E600BFFFFFEF7FA0D0000819
:1052B0009CD000081AF0200F4AF0100138D10A9B48
:1052C0001A1D0A9B03981B684FF0000840458DF893
:1052D0007F801E46C0F27C8521F0800A002B00F002
:1052E0008B840A920A2E78F1000380F0B28306F1D3
:1052F0003003DBB2039A8DF85731012AB8BF01227F
:1053000002929DF87F30012208920DF25717002B70
:1053100001F07585029B013302930023CDE90B3325
:1053200007931193E3E51AF0200F00F04E845146E5
:105330000A9B073323F007031A46D3F8048052F878
:10534000086B0A9200238DF87F30039B002BC0F27C
:10535000408556EA080321F0800AC3D1039B002B45
:1053600000F04F840026C2E72B784AF0080AF4E4E4
:105370001AF0200F4AF0100300F019840A9A07323D
:1053800022F007029A46536852F8086B0A92984630
:10539000002BC0F24D83039A002AA3DB56EA0803D0
:1053A0002AF0800A9ED1002A01F055803023A1E71F
:1053B0002B78682B03BF6B784AF4007A01354AF0EA
:1053C000400ACAE40A9A1AF0200F02F1040300F01E
:1053D0002184126804991160C91751600A932F46FD
:1053E00094E42B786C2B03BF6B784AF0200A0135CC
:1053F0004AF0100AB1E40A9A039F52F8040B002104
:1054000047F630038F42ADF880308DF87F100346A9
:10541000C0F2E2842AF0800646F0020A002840F03A
:10542000DD84002F01F01E800A92302301220297B2
:10543000CDE907020C908DF857310DF257171190F6
:105440004FF078090B90844600F0A5BC1AF0200FAD
:1054500040F0B8830A9A1AF0100152F8043B41F068
:105460000F851AF0400000F0EF869BB20A9250467A
:10547000D9E6B9F1650F40F3FA80DDE90E010022AB
:105480000023FBF7E1FB002800F09D812B9BB24A33
:105490002260013301360122072B2C962B93626088
:1054A00000F332860834219B0D9A934280F2618387
:1054B000129B139A1E44C4E900232B9B2C960133A4
:1054C000072B2B9300F39D8408340D9B5F1E002F48
:1054D0007FF752AD102F2B9B41F31C849F49DDF8C1
:1054E0001890109132464FF010080E4604E0083430
:1054F000103F102F40F3A68001331032072BC4E970
:105500000068CDE92B32F2DD2AAA4946584601F05F
:10551000C3FC002840F08980DDE92B322DACE7E7A1
:10552000059B029AA3EB0208B8F1000F7FF70CADC0
:105530008A4B2B9A1093B8F1100F29DD2146304683
:10554000864C2E461023069D06E0A8F11008B8F1FF
:10555000100F01F1080118DD01321030072AC1E9EE
:105560000043CDE92B20F0DD2AAA2946584601F058
:1055700093FC002859D1A8F11008B8F1100FDDE90B
:105580002B202DA94FF01003E6DC35460C460646CD
:105590000132109B23604644072ACDE92B26C4F82C
:1055A000048000F304860834CEE46C4B2B9A1093ED
:1055B000B8F1100F24DD21461023069C06E0A8F167
:1055C0001008B8F1100F01F1080118DD013263482D
:1055D0001036072AC1E90003CDE92B26EFDD2AAA00
:1055E0002146584601F058FCF8B9A8F11008B8F166
:1055F000100FDDE92B262DA94FF01003E6DC0C4639
:105600000132109B23604644072ACDE92B26C4F8BB
:10561000048000F3018208349EE406992AAA5846C1
:1056200001F03AFC00283FF4BBAC079B002B3FF491
:1056300030AC07995846FEF767FF069B9B8903F03D
:1056400040032AE416460133109A22603E44072B99
:105650006760CDE92B367FF78EAC06992AAA5846AB
:1056600001F01AFC0028E0D12C9E2DAC84E42B9B89
:1056700003F101080D9B012B06F1010604F1080955
:1056800040F385810123B8F1070FCDE92B86276010
:10569000636000F35482129B139A08F101081E44C0
:1056A000B8F1070FC9E90023CDE92B8600F3548236
:1056B00009F108090D9BDDE90E015C1E00220023A3
:1056C000FBF7C2FA002840F07C8108F1010801379D
:1056D0002644B8F1070FCDE92B86C9F80070C9F848
:1056E000044000F3618109F10809149AC9F8042003
:1056F00008F101031644072B24AACDE92B36C9F87B
:105700000020AADC09F1080436E4069910932AAABD
:10571000584601F0C1FB002887D12C9E109B2DAC70
:105720000FE4069910932AAA584601F0B5FB002809
:105730007FF47BAF2C9E109B2DACFFF7F1BB084A8A
:105740002B9B1092102F29DDAA46DDF818904FF000
:10575000100815460BE000BFDCD0000844D200085A
:1057600054D20008103F102F04F1080415DD013356
:105770001036072BC4E90058CDE92B36F2DD2AAAF2
:105780004946584601F088FB00287FF44EAF103F91
:10579000102FDDE92B362DACE9DC55460133109A8C
:1057A0003E44072BC4E90027CDE92B367FF7EDAB4C
:1057B00006992AAA584601F06FFB00287FF435AFFE
:1057C0002C9EFFF7E2BB2199002940F353840B9BE9
:1057D0000D9A9342A8BF1346002B99460ADD1E443A
:1057E000C4E900732B9B2C960133072B2B9301F3F9
:1057F000848008340B9BB9F1000FA8BFA3EB090309
:10580000002B984600F329830B9B1AF4806F3B44CE
:1058100040F04C83219A0D998A4203DB1AF0010F64
:1058200000F02D86129913980E44C4E900012B99BB
:105830002C96013107292B9101F36B8008340D99C7
:1058400007EB0108A8EB03088F1AB845A8BFB846B4
:10585000B8F1000F0BDD23602B9BC4F804800133EB
:105860004644072B2C962B9301F3A5800834B8F1FE
:10587000000FA8BFA7EB0807002F7FF77DAB102F05
:105880002B9B41F34782C549DDF8189010913246B1
:105890004FF010080E4604E00834103F102F7FF739
:1058A000D1AE01331032072BC4E90068CDE92B32A9
:1058B000F2DD2AAA4946584601F0EEFA00287FF4A4
:1058C000B4AEDDE92B322DACE7E7302A00F052848C
:1058D0003023039907F8013C023856AB1B1A994252
:1058E0004FF00002B8BF1946CDE90B22079208938A
:1058F000074602911192FFF7FABADDF8ACE0A8482A
:1059000010991090B8F1100F724628DD1C952046B2
:10591000A34D069C1D93102606E0A8F11008B8F1CF
:10592000100F00F1080017DD01321031072AC0E91D
:105930000056CDE92B21F0DD2AAA2146584601F078
:10594000ABFA00287FF471AEA8F11008B8F1100F7F
:10595000DDE92B212DA8E7DC1C9D1D9B044610983A
:105960002060501C08EB01060728CDE92B06C4F87F
:10597000048000F3A4839DF87F200834002A40F0BF
:105980000181002B3FF4E0AA1346FFF7CDBA1AF0CD
:10599000010F7FF477AE0123B8F1070FCDE92B8615
:1059A000276063607FF7A1AE06992AAA584601F0E6
:1059B00073FA00287FF439AEDDE92B860DF1B409C6
:1059C00093E60D9B012B7FF790AE112B41F30E82D6
:1059D00072491091324643461027DDF818800E4672
:1059E00005E009F10809103C102C40F31B84013339
:1059F0001032072BC9E90067CDE92B32F1DD2AAA65
:105A00004146584601F048FA00287FF40EAEDDE921
:105A10002B320DF1B409E6E706992AAA584601F09F
:105A20003BFA00287FF401AE2C9E2DACFFF794BA10
:105A30002D238DF87F30039B764268EB4808002BBE
:105A4000FFF650AC0A2E78F100032AF0800AFFF42A
:105A50004EAC0AF480630022CDE9074956A9DDF86F
:105A60005890029594461C4626E016EB08034D48D4
:105A700043F10003A0FB032020F0030202EB90029D
:105A80009B1AF31A47484FF0CC32B646454602FB04
:105A900003F268F1000800FB0822A3FB0063BEF1DB
:105AA0000A0F13444FEA560675F10005394646EAD7
:105AB000C3764FEA53082DD33A4D16EB080343F152
:105AC0000003A5FB032020F0030202EB90029B1AC7
:105AD000F31AA3FB053268F100005B0805FB002206
:105AE00043EAC27303EB8303A6EB430330330CF1A9
:105AF000010C01F8013C4F1E002CB6D099F8003083
