:020000040800F2
:1000000000800020F10D0008390E0008390E0008AC
:10001000390E0008390E0008390E000800000000F3
:10002000000000000000000000000000390E000881
:10003000390E000800000000390E000835030008E2
:10004000390E0008390E0008390E0008390E000874
:10005000390E0008390E0008390E0008390E000864
:10006000390E0008390E0008390E0008390E000854
:10007000390E0008390E0008390E0008390E000844
:10008000390E0008390E0008390E0008390E000834
:10009000390E0008390E0008390E0008390E000824
:1000A000390E0008390E0008390E0008390E000814
:1000B000390E0008390E0008390E0008390E000804
:1000C000390E0008390E0008390E0008390E0008F4
:1000D00031050008390E0008390E0008390E0008F5
:1000E000390E0008390E0008390E0008390E0008D4
:1000F000390E0008390E0008390E0008390E0008C4
:10010000390E0008390E0008390E0008390E0008B3
:04011000390E00089C
:1001200001F0FF01102A2BDB10F0070F08D010F8A8
:10013000013B013A8B422DD010F0070F42B3F6D1AC
:10014000F0B441EA012141EA014122F007047FF0C5
:1001500000070023F0E80256083C85EA010586EA1C
:10016000010685FA47F5A3FA87F586FA47F6A5FA58
:1001700087F68EB9EED1F0BC01F0FF0102F0070264
:1001800032B110F8013B013A83EA010313B1F8D10F
:100190000020704701387047002D06BF35460338F0
:1001A000073815F0010F07D1013015F4807F02BF29
:1001B000013015F4C03F0130F0BC0138704700BF7A
:1001C0000348044B834202D0034B03B118477047E6
:1001D0005400002054000020000000000548064B99
:1001E0001B1AD90F01EBA301491002D0034B03B135
:1001F0001847704754000020540000200000000001
:1002000010B5064C237843B9FFF7DAFF044B13B15E
:100210000448AFF300800123237010BD5400002078
:1002200000000000BC17000808B5054B1BB10549CC
:100230000548AFF30080BDE80840FFF7CFBF00BF1F
:100240000000000058000020BC17000808B54FF45B
:10025000803000F0FBFA00F009FC012800D008BD56
:1002600000F08EFD022000F081FD002000F03AFB3E
:10027000002000F04BFB4FF4806000F03DFB4FF49A
:1002800060114FF4803000F0FFFA00F013FB3920CA
:1002900000F0D2FB0028FAD0022000F011FB00F0A1
:1002A00019FB0828FBD1DAE708B5FFF7CFFF00F00C
:1002B00021F800F077F84FF4E13000F08DF800F00D
:1002C0006BF94FF40051084800F084FC00F05AF834
:1002D000064BA3FB00318909054800F00FF94FF4E4
:1002E0007A7000F043F8ECE7003C0240D34D621016
:1002F000D417000800B587B0684600F011FB009BDA
:10030000094AA2FB03239B0C013B084A13604FF0F0
:10031000E02253610023936107211161044A1360B5
:1003200007B05DF804FB00BF83DE1B4370000020B4
:1003300074000020024A136801331360704700BF45
:1003400074000020014670B1074B1A68C343934202
:1003500004D2054B1B689342FBD20022024B1B6860
:100360009B1A8B42FAD370477400002000B9704783
:1003700008B503464FF47A7003FB00F0FFF7E2FF85
:1003800008BD0000014B1868704700BF74000020D2
:1003900000B587B0684600F0C3FA009807B05DF872
:1003A00004FB000000B587B04FF4007000F034FB90
:1003B0004FF400530093012301930023029303930E
:1003C0000222049205936946024800F0DAFB07B066
:1003D0005DF804FB003C02402DE9F0438DB0064679
:1003E000802000F019FB4FF4804000F01DFB4FF41B
:1003F00000730693022707970125089500240994A6
:100400000A970B950DF11809DFF888804946404698
:1004100000F0B7FB4FF480630693079708950B95A0
:100420004946404600F0ADFB0296ADF80C40ADF8F1
:100430000E40ADF81040ADF814400C23ADF812306A
:10044000154E02A9304600F020FC24238DF804301C
:100450008DF805508DF806508DF8075001A800F072
:1004600097FC40F22551304600F030FC304600F059
:1004700027FC4FF480722146084800F01BFD084B12
:100480001C80084B1C80084B1C80084B1D700DB055
:10049000BDE8F083003402400038014080000020B5
:1004A0007C0000207A0000207800002080020020DC
:1004B00010B50446094B1B787BB18021084800F039
:1004C00020FC0028F9D02146054800F012FC40210C
:1004D000034800F016FC0028F9D010BD800200206F
:1004E0000038014010B5044618B905E00134FFF7A3
:1004F000DFFF20780028F9D110BD00000FB400B54F
:1005000083B004AB53F8042B01934FF48071074878
:1005100000F0C2FC0138FE2804D903B05DF804EBFA
:1005200004B070470148FFF7DDFFF6E780010020C7
:1005300008B540F22551144800F0EAFB00B908BDA7
:10054000114800F0DAFBC0B2104B1B889BB2FF2BA6
:1005500014D80F4A13889BB20E49C85413889BB213
:1005600001335942DBB2C9B258BF4B429BB2138030
:10057000064A13889BB201339BB2138040F2255187
:10058000014800F0EAFBDAE700380140780000207B
:100590007C0000208000002008B50B48FFF7A2FF78
:1005A0000A48FFF79FFFFFF7F3FE01460848FFF7F1
:1005B000A5FFFFF7E7FE01460648FFF79FFF064845
:1005C000FFF790FF08BD00BFF017000818180008DB
:1005D00030180008481800086018000808B50346DD
:1005E0000B4A126842B10A4A106803446A469342B1
:1005F00006D8074A136008BD054A06491160F2E7AC
:1006000000F060FC0C2303604FF0FF30F3E700BF05
:1006100084020020D003002008B5014B984708BD94
:10062000A502FF1F00B583B000230193174B1A6882
:1006300022F080021A601A6842F040021A6001A992
:100640001348FFF7E9FF9DF80430052B07D90F4A3F
:10065000136843F08003136003B05DF804FB01A945
:100660000C48FFF7D9FF01990B0A03F47F430A02F4
:1006700002F47F0243EA11631343019306494A6877
:1006800002F07F4213434B60E1E700BF00200240CD
:1006900020F0FF1F30F2FF1F0018004010B584B09B
:1006A000002302938DF807300093414A136843F406
:1006B000803313603E4B1B6803F40033003B18BFCC
:1006C00001238DF80730009B013300939DF807301C
:1006D0001BB9009BB3F5005FECD1354B1B6803F4ED
:1006E0000033003B18BF01238DF807309DF8073019
:1006F000002B52D02F4A136823F0070313602E4BB0
:100700001B68DBB2122B4CD8136843F00303136051
:10071000274C63686360636843F4005363606368F5
:1007200043F4A0636360FFF77DFF636823F0036316
:1007300023F470236360236C23F001032364636854
:100740000393039B43F480330393039B43F40033ED
:100750000393039B43F0036343F440230393039BFE
:100760006360029B2364236843F080732360104B13
:100770001B6813F0007FFAD00D4B5A6822F0030279
:100780005A605A6842F002025A60094B5B6803F0F3
:100790000C03082BF9D104B010BD084B084A1A60AD
:1007A000F9E7044A136843F003031360B0E700BF9E
:1007B0000010024000200240002004E00000002061
:1007C00000127A0008B51D4B1A6842F001021A6047
:1007D00059681B4A0A405A601A6822F0847222F44F
:1007E00080321A601A6822F480221A605A6822F055
:1007F000036222F470225A604FF46052DA621A6C7B
:1008000042F001021A640F4A9A60DA6942F080529B
:10081000DA61DA6922F08052DA6103F580531A68EE
:1008200042F080021A601A6822F010021A60FFF784
:1008300035FF054B4FF000629A6008BD0010024082
:100840000CC07FF800009F0400ED00E00D4B1A681B
:1008500022F480321A601A6822F480221A60B0F5FD
:10086000803F03D0B0F5802F06D070471A461B6832
:1008700043F4803313607047024A136843F4A023A3
:100880001360F2E700100240094A5368126C23F02B
:10089000036323F4702322F00102012805D90843E1
:1008A000034303494B600A6470470B430243F8E774
:1008B00000100240014B01221A66704700004242BC
:1008C000034A536823F0030303435360704700BF98
:1008D00000100240024B586800F00C00704700BF47
:1008E00000100240034A536823F0F00303435360AF
:1008F000704700BF00100240034A536823F4E063CE
:1009000003435360704700BF00100240034A53681E
:1009100023F4605343EAC003536070470010024061
:1009200030B4364A5168364B0B40526802F480327C
:1009300011F0006F45D19B0C0233002A49D102F11E
:10094000804202F50432126C12F0010F3DD02D4AA4
:1009500002FB03F3294A526802F00C02042A45D034
:10096000082A46D0002A46D1274A026023494A680D
:10097000C2F30312254DAC5C0268E24042604C6851
:10098000C4F302242C5D22FA04F484604C68C4F39E
:10099000C2242C5D22FA04F4C460CC6A04F00F0C6B
:1009A0001B4C14F80C40B2FBF4F24261CA6AC2F369
:1009B0000312184931F81220B3FBF2F3036130BC83
:1009C00070479B0CA3F2EF13B7E70F4A02FB03F348
:1009D000C0E70A4A526812F4003F03D0094A02FBFA
:1009E00003F3B7E7084A02FB03F3B3E7064A0260E2
:1009F000BCE70360BAE7044A0260B7E700100240B0
:100A000000003C0800093D0000127A00AC18000804
:100A10009C1800087C180008024A5369034353617C
:100A2000704700BF00100240024A9369034393617C
:100A3000704700BF001002404309012B04D0022B75
:100A40000CD0094B5B6A01E0074B1B6800F01F00EC
:100A5000C34013F0010F04D001207047024B1B6A02
:100A6000F4E70020704700BF0010024010B588B0C6
:100A70000023079301A8FFF753FF019A0C4BB3FB28
:100A8000F2F34FF40054B4FBF3F43120FFF7D4FF3A
:100A9000079B01330793079BA34201D00028F4D0A2
:100AA0003120FFF7C9FF00B1012008B010BD00BF21
:100AB0000020A10712F0080F0ED0436A02F00702CF
:100AC00092004FF00F0C0CFA02FC23EA0C0301FA1F
:100AD00002F21A4342627047036A02F00702920070
:100AE0004FF00F0C0CFA02FC23EA0C03914019435F
:100AF0000162704710B5046801F003034FEA420E2B
:100B00004FF0030C0CFA0EFC24EA0C0C03FA0EF363
:100B100043EA0C030360012905D0112903D00229FF
:100B200001D0122909D143680124944023EA040327
:100B3000C1F3001191401943416010BDC3685200D8
:100B40004FF0030C0CFA02FC23EA0C03914019430A
:100B5000C160704783684FF0010C0CFA02FC23EA75
:100B60000C039140194381607047C36A52004FF0F3
:100B7000030C0CFA02FC23EA0C0391401943C162F6
:100B8000704770B506460D46002400E001342A681F
:100B900032FA04F31DD00123A3401342F6D02246BB
:100BA00069693046FFF786FF224669683046FFF7DD
:100BB000A1FF2246A9683046FFF7C0FF2246E96838
:100BC0003046FFF7C7FF224629693046FFF7CDFFC1
:100BD000DCE770BD436959404161704730B587B06B
:100BE00004460D466846FFF79BFE144B9C4209D015
:100BF00003F5C0539C4205D003F580639C4201D0AD
:100C0000029B00E0039B03EB830303EB8303AD0034
:100C1000B3FBF5F30A49A1FB03025209642002FB6E
:100C200010331B013233A1FB0313C3F3431343EA15
:100C300002139BB2238107B030BD00BF00380140D2
:100C40001F85EB5183899BB223F480531943818123
:100C50007047038A9BB223F44053194301827047C3
:100C600083899BB223F4C0631943818170478389D0
:100C70009BB223F00C03194381817047838A9BB296
:100C800023F4407319438182704738B505460C46FA
:100C90000968FFF7A3FFA1882846FFF7D3FFE18883
:100CA0002846FFF7D6FF21892846FFF7D9FF61893B
:100CB0002846FFF7DCFFA1892846FFF7DFFF38BD94
:100CC00083899BB243F4005383817047C1F342137D
:100CD00001F01F0101228A40012B06D0022B06D011
:100CE000143003681343036070470C30F9E7103089
:100CF000F7E7C1F30801818070478088C0F30800DE
:100D000070470388194201D00120704700207047C6
:100D1000C1F3421201F01F0C012303FA0CF3012A64
:100D20000FD0022A11D0828A92B21340090A0122FE
:100D300002FA01F1028892B20A4053B15AB9002076
:100D40007047828992B21340F0E7028A92B2134050
:100D5000ECE70020704701207047090A01238B400F
:100D60009BB2DB439BB2038070470000034A1368C9
:100D700023F0070303431360704700BF00200240C5
:100D8000024A136843F010031360704700200240CA
:100D9000C378F3B1144BDB68DB43C3F30223C3F125
:100DA000040C0F21D940427802FA0CF283780B40F0
:100DB000134302781B01DBB20C490A4482F800336A
:100DC000037803F01F005B090122824041F82320D1
:100DD0007047037803F01F015B0901228A4020332A
:100DE000024941F82320704700ED00E000E100E0F7
:100DF000002103E00B4B5B58435004310A480B4B76
:100E000042189A42F6D30A4A02E0002342F8043B11
:100E1000084B9A42F9D3FFF7D5FC00F059F8FFF7D9
:100E200043FA704700190008000000205400002019
:100E300054000020D0030020FEE730B51446002CFB
:100E40009BB005461A4605DA8B2303604FF0FF304E
:100E50001BB030BD4FF40273ADF80C304FF00003FF
:100E6000199314BF04F1FF332346029305934FF601
:100E7000FF7300910491ADF80E3069461E9B00F09F
:100E8000A5F9431CBCBF8B232B60002CE0D0009B3A
:100E900000221A70DCE7000007B5009313460A46EB
:100EA000014603480068FFF7C8FF03B05DF804FB84
:100EB0000400002002440346934200D1704703F827
:100EC000011BF9E7014B1868704700BF04000020C0
:100ED00070B50D4B0D4D5B1B9C100026A64209D131
:100EE00000F06CFC0A4D0B4B5B1B9C100026A642CD
:100EF00005D170BD55F8043B98470136EEE755F82B
:100F0000043B98470136F2E7F8180008F818000883
:100F1000F8180008FC1800087047704738B50546F7
:100F2000002941D051F8043C0C1F002BB8BFE41835
:100F300000F0E0F81D4A136833B963601460284676
:100F4000BDE8384000F0DCB8A34208D92068211879
:100F50008B4201BF19685B6809182160EDE71A46EA
:100F60005B680BB1A342FAD911685018A0420BD1AB
:100F700020680144501883421160E0D118685B6812
:100F8000536008441060DAE702D90C232B60D6E7DF
:100F9000206821188B4204BF19685B68636004BF36
:100FA000091821605460CAE738BD00BFCC03002097
:100FB00070B50F4E0C463168054611B900F0AAFB1A
:100FC00030602146284600F0A5FB431C03D14FF0BA
:100FD000FF34204670BDC41C24F00304A042F8D0A6
:100FE000211A284600F096FB0130F2D1EFE700BF4E
:100FF000C80300202DE9F843CD1C25F00305083572
:101000000C2D38BF0C25002D064601DBA94204D962
:101010000C2333600020BDE8F883DFF8D48000F0B3
:1010200069F8D8F800301C4644BB29463046FFF723
:10103000BFFF431C044658D1D8F800402746002F74
:1010400043D1002C4BD023683946304604EB0309CA
:1010500000F060FB814542D121686D1A2946304677
:10106000FFF7A6FF01303AD023682B442360D8F85D
:1010700000305A6862BBC8F800700FE02268521B4B
:1010800020D40B2A17D96119A342256018BF5960D3
:10109000636808BFC8F8001062514B60304600F02A
:1010A0002FF804F10B00231D20F00700C21A1CBF0B
:1010B0001B1AA350AFE76268A3420CBFC8F8002018
:1010C0005A60EBE723466468AEE73C467F68B6E7C4
:1010D0001A465B68A342FBD100235360DEE70C2372
:1010E0003360304600F00CF894E70560D6E700BFA7
:1010F000CC0300200148FFF70FBF00BFC40300204E
:101100000148FFF70ABF00BFC40300202DE9F047E4
:101110008E681F46BE4282460C469046334653D8E0
:10112000B1F90C0010F4906F2BD065692368096940
:1011300005EB4505A3EB010905EBD5757B1C6D108F
:101140004B44AB422A4684BF1D462A46430527D559
:1011500011465046FFF74EFF064658B321694A46EE
:1011600000F0E8FAA38923F4906343F08003A3819D
:10117000266165614E44A5EB09052660A5603E46E3
:101180003B461F4620683A46414600F0A9FAA3684C
:101190009B1BA36023683B4423600020BDE8F087CD
:1011A000504600F0D5FA06460028E1D121695046A4
:1011B000FFF7B4FE0C23CAF80030A38943F04003C4
:1011C000A3814FF0FF30E9E73E46DBE72DE9F04F22
:1011D00098468B891B069DB007460D46144610D5D0
:1011E0000B6973B94021FFF705FF2860286130B90A
:1011F0000C233B604FF0FF301DB0BDE8F08F402363
:101200006B610023099320238DF82930CDF80C80E1
:101210003023DFF89C818DF82A304FF001092346F6
:101220009A4613F8012B0AB1252AF9D1BAEB040B1F
:101230000BD05B46224629463846FFF767FF013050
:1012400000F0A780099A5A4409929AF80030002BBE
:1012500000F09F8000234FF0FF32CDE905230AF113
:10126000010A049307938DF853301A9354460522CC
:1012700014F8011B4E48FEF753FF049AD8B9D00664
:1012800044BF20238DF85330110744BF2B238DF822
:1012900053309AF800302A2B15D0079A5446002074
:1012A0004FF00A0C214611F8013B303B092B4BD97A
:1012B000B0B1079214E0A0EB080309FA03F313435B
:1012C0000493A246D2E7039B191D1B680391002BD0
:1012D000BBBF5B4242F0020207930793B8BF049280
:1012E00023782E2B0AD163782A2B32D1039B1A1D27
:1012F0001B68039243EAE37302340593DFF8B4A05A
:10130000217803225046FEF70BFF38B1049BA0EB77
:101310000A004022824013430134049314F8011B55
:1013200025488DF828100622FEF7FAFE002836D050
:10133000224B1BBB039B073323F0070308330393A4
:10134000099B334409936AE70CFB02320C460120E7
:10135000A8E700230134059319464FF00A0C2046F4
:1013600010F8012B303A092A03D9002BC6D0059179
:10137000C4E70CFB012104460123F0E703AB009313
:101380002A460F4B04A93846AFF30080421C06469C
:10139000D6D1AB895B063FF52DAF09982CE703AB9F
:1013A00000932A46064B04A9384600F079F8EDE789
:1013B000BC180008C2180008C61800080000000089
:1013C0000D1100082DE9F047164698468A680B690A
:1013D000DDF820909342B8BF1346336091F8432064
:1013E00007460C460AB1013333602368990642BFB1
:1013F000336802333360256815F0060506D104F121
:10140000190AE36832689B1AAB4226DC94F8433031
:101410002268003B18BF012392062BD404F143023B
:1014200041463846C84701301ED02368226903F080
:101430000603042B02BFE5683368ED1AA3680CBFEE
:1014400025EAE57500259342C4BF9B1AED180026D6
:101450001A34B5421AD1002008E001235246414611
:101460003846C847013003D14FF0FF30BDE8F08760
:101470000135C6E7E1185A1C302081F843002244A8
:1014800094F8451082F843100233C7E7012322463F
:1014900041463846C8470130E6D00136D9E700005A
:1014A0002DE9FF470F7E0C9E782F914680460C4613
:1014B0009A4601F1430207D8622F0AD8002F00F0A4
:1014C000D280582F00F0B78004F1420684F84270B1
:1014D0003AE0A7F16303152BF6D801A151F823F0E8
:1014E000391500084D150008C9140008C914000872
:1014F000C9140008C91400084D150008C9140008D3
:10150000C9140008C9140008C91400084D160008C1
:101510007715000803160008C9140008C91400084C
:101520006F160008C914000877150008C9140008D0
:10153000C91400080B16000833681A1D1B683260B6
:1015400004F1420684F8423001239DE033682068AC
:10155000191D3160060601D51D6803E04506FBD55F
:10156000B3F90050002D03DA2D236D4284F8433087
:1015700059480A2310E021683368080653F8045BD1
:1015800002D4490648BFADB26F2F5348336059D1DA
:101590000823002184F843106668A660002E05DB4E
:1015A00021682E4321F0040121604DD01646B5FB81
:1015B000F3F103FB1157C75D06F8017D2F46BB42CF
:1015C0000D46F4D9082B0BD12368DF0708D5236912
:1015D00061689942DEBF302306F8013C06F1FF3610
:1015E000921B2261CDF800A04B4603AA214640463B
:1015F000FFF7E8FE01304CD14FF0FF3004B0BDE8FA
:10160000F087236843F0200323603448782784F868
:101610004570236831681F0651F8045B02D45F06E9
:1016200048BFADB23160D90744BF43F02003236007
:101630001DB11023ADE72848E9E7236823F0200314
:101640002360F6E70A23A4E71646BBE7336825685C
:101650006169181D30602E061B6801D5196002E013
:101660006806FBD51980002323611646BAE7336864
:101670001A1D32601E68626800213046FEF750FD78
:1016800008B1801B606063682361002384F84330E5
:10169000A8E72369324649464046D0470130ABD0DF
:1016A00023689B0713D4E068039B9842B8BF184691
:1016B000A4E70123324649464046D04701309BD03B
:1016C0000135E36803995B1AAB42F2DCEBE70025D6
:1016D00004F11906F5E700BFCD180008DE18000870
:1016E000884210B501EB020402D98442234607D890
:1016F000431EA14207D011F8012B03F8012FF8E790
:101700000244824200D110BD13F8011D02F8011DF0
:10171000F7E7000038B5064D0023044608462B6065
:10172000FEF75CFF431C02D12B6803B1236038BD78
:10173000C00300200A44914200F1FF3300D17047FA
:1017400010B511F8014B03F8014F9142F9D110BDCA
:101750002DE9F041074614460D4621B9BDE8F04198
:101760001146FFF747BC2AB9FFF7D8FB25462846A4
:10177000BDE8F08100F01AF88442064602D8B4EBC6
:10178000500FF4D821463846FFF734FC804608B99C
:101790004546ECE7B4422246294628BF3246FFF7C9
:1017A000C9FF29463846FFF7B9FBF1E751F8043C79
:1017B000181F002BBCBF0B58C0187047F8B500BFEE
:1017C000F8BC08BC9E467047F8B500BFF8BC08BC22
:0417D0009E4670477A
:1017D4004C454420546F67676C65202D2054696321
:1017E4006B3A202575206D730D0A00000D0A3D3DEE
:1017F4003D2055534152543120436F6D6D756E69D0
:10180400636174696F6E2054657374203D3D3D0DB2
:101814000A00000048656C6C6F2066726F6D204E84
:10182400333247343330210D0A0000005379737486
:10183400656D20436C6F636B3A20257520487A0DE3
:101844000A00000043757272656E74205469636BFC
:101854003A2025752075730D0A0000003D3D3D209A
:101864005465737420436F6D706C657465203D3DE1
:101874003D0D0A0D0A0000000100020004000600EC
:1018840008000A000C001000200040008000000145
:10189400000100010001000101020406080A0C1005
:1018A400202020202020202000000000010203042A
:1018B4000102030406070809232D302B2000686C5D
:1018C4004C0065666745464700303132333435365F
:1018D4003738394142434445460030313233343598
:0C18E400363738396162636465660000C5
:0818F00030E8FF7F0100000059
:0418F80029020008B9
:0418FC0001020008DD
:101900000020A1070800002000000000880200203D
:10191000F00200205803002000000000000000003A
:1019200000000000000000000000000000000000B7
:1019300000000000000000000000000000000000A7
:101940000000000000000000000000000000000097
:041950000000000093
:0400000508000DF1F1
:00000001FF
