:020000040800F2
:1000000000400020C5160008250600082706000845
:1000100000000000000000000000000000000000E0
:100020000000000000000000000000002906000899
:100030000000000000000000151700082B06000853
:1000400015170008151700081517000815170008E0
:1000500015170008151700081517000815170008D0
:10006000151700081517000815170008C505000822
:1000700015170008151700081517000815170008B0
:1000800015170008151700081517000815170008A0
:100090001517000815170008151700081517000890
:1000A0001517000815170008151700081517000880
:1000B0001517000815170008151700081517000870
:1000C0001517000815170008151700081517000860
:1000D00031030008910500081517000815170008DE
:1000E0001517000815170008151700081517000840
:1000F0001517000815170008151700081517000830
:10010000151700081517000815170008151700081F
:0401100015170008B7
:10011400844641EA000313F003036DD1403A41D30E
:1001240051F8043B40F8043B51F8043B40F8043BCD
:1001340051F8043B40F8043B51F8043B40F8043BBD
:1001440051F8043B40F8043B51F8043B40F8043BAD
:1001540051F8043B40F8043B51F8043B40F8043B9D
:1001640051F8043B40F8043B51F8043B40F8043B8D
:1001740051F8043B40F8043B51F8043B40F8043B7D
:1001840051F8043B40F8043B51F8043B40F8043B6D
:1001940051F8043B40F8043B51F8043B40F8043B5D
:1001A400403ABDD2303211D351F8043B40F8043BFD
:1001B40051F8043B40F8043B51F8043B40F8043B3D
:1001C40051F8043B40F8043B103AEDD20C3205D30D
:1001D40051F8043B40F8043B043AF9D2043208D005
:1001E400D2071CBF11F8013B00F8013B01D30B8877
:1001F40003806046704700BF082A13D38B078DD055
:1002040010F003038AD0C3F10403D21ADB071CBF26
:1002140011F8013B00F8013B80D331F8023B20F890
:10022400023B7BE7043AD9D3013A11F8013B00F8C9
:10023400013BF9D20B7803704B7843708B78837051
:10024400604670470348044B834202D0034B03B11A
:10025400184770470C0000200C000020000000002C
:100264000548064B1B1AD90F01EBA301491002D014
:10027400034B03B1184770470C0000200C0000200A
:100284000000000010B5064C237843B9FFF7DAFFED
:10029400044B13B10448AFF300800123237010BD55
:1002A4000C00002000000000D418000808B5054B1D
:1002B4001BB105490548AFF30080BDE80840FFF7CE
:1002C400CFBF00BF0000000010000020D4180008B9
:1002D40000B589B0019002A801F0E0F8029B4FF448
:1002E4007A72B3FBF2F34FF0E022013B53610E4B01
:1002F400F02183F823100521002393611161116912
:1003040021F0020111610199994208D84FF0E022CD
:10031400136923F00103136109B05DF804FB11694B
:10032400C903FCD50133EEE700ED00E010B5104839
:1003340040F2255101F09FF9A8B10E4C0C4840F24F
:10034400255101F0B6F923880948FF2B0CD801F098
:1003540087F9094A09491388C8540133DBB2138069
:1003640023880133238010BDBDE8104001F078B923
:100374000038014030020020320200203402002004
:100384002DE9F043812097B001F0E0F84FF40030FC
:10039400002401F0E3F804264FF0020901270525A3
:1003A40005A94048CDE90975CDE90569CDE90744BA
:1003B40001F053F8082305A93A48CDE90975CDE9B8
:1003C4000534CDE9074401F048F84FF4E1330DEB6F
:1003D4000601CDE901343448ADF810404FF4402310
:1003E400039301F0F1F83148314D00F009FF314B2E
:1003F4000C934FF0800810234FF400570BA92B489F
:100404000B95CDE90D34CDE91084CDE91244CDE945
:1004140014740F9400F090FF2448032100F0C7FFE8
:100424004946224800F0B4FF234800F0E9FE234B7C
:100434000B95CDE90C344FF4807520230BA91E488D
:100444001294CDE91337CDE90E54CDE910841594F7
:1004540000F072FF3146184800F0A9FF164800F07A
:100464008DFF174B0093684600F0A0FE154B0093D8
:10047400684600F09BFE0C4840F2244101F0D4F899
:10048400C021094801F0E3F8074801F0C7F80E4B12
:100494001C800E4B1C800E4B1C700E4B1D8017B025
:1004A400BDE8F083003402400044004008000240EC
:1004B40004440040300100201C00024030000020B1
:1004C4000B010001250101012E0000202C00002059
:1004D4002A0000202800002010B504460548802189
:1004E40001F0C2F80028F9D021460248BDE81040C6
:1004F40001F0B2B80044004038B504464518AC4297
:1005040006D10648402101F0AFF80028F9D038BDE3
:1005140014F8010BFFF7E0FFF1E700BF00440040CF
:10052400F8B50C46054680B1D1B10E480E4E0F4FBA
:1005340000F032FFC0F580739BB20021328892B282
:100544009A4288B201D0844200D8F8BD328892B26F
:10055400BA5C6A5432880132D2B232800131EDE79A
:100564000846F2E71C0002402C0000203000002066
:1005740008B5044800F010FF034BC0F5807080B24A
:10058400188008BD1C0002402C00002010B5094C46
:1005940040F22441204601F06EF848B10648238811
:1005A400A38800F0F9FE054BC0F5807080B2188076
:1005B40010BD00BF004400401C0002402E0000207B
:1005C40008B50848022100F0EAFE48B105480221B6
:1005D40000F0EBFE044800F0D6FE044B00221A7033
:1005E40008BD00BF00000240080002402A000020AD
:1005F40008B500F019FB0849002000F013FD0022A3
:100604000649BF23104600F00DFD012000F042F81A
:1006140000F076F8FCE700BFEC1800080C1900089D
:100624007047FEE77047704730B5024601444FF605
:10063400FF7012F8013B0824584000F0010303EB5B
:10064400830503EB453383EA500398B2631E13F02A
:10065400FF04F2D18A42ECD130BDF8B507460D460D
:1006640032260024291B89B23819FFF759FF38B103
:100674000444A4B2A542F5D82B1B58425841F8BDF6
:100684000120FFF725FEA54206F1FF36F4D9002E1E
:10069400E8D1F1E737B5124D124B287000242146FA
:1006A4004FF4C07210481C8001F034F80F4B10480E
:1006B4001C70104B1C70104B21464FF498721C7028
:1006C40001F028F8FFF75CFEFFF752FFBF23009309
:1006D4002A780A492346204600F0A4FC03B030BD22
:1006E40000000020680400206A0400203603002073
:1006F4003803002035030020340300203419000897
:100704002DE9F047BC4D2E78A6B0002E00F0ED8008
:10071400BA4EBB49327826235A438B188C5C002C82
:1007240064D15888DA88DFF810935F88B3F80680BC
:1007340099F800308DF8143040BA52BA0621ADF859
:10074400160005A88DF81510ADF81820FFF76CFFFA
:10075400ADF81A00FFF70CFF082105A8FFF7CCFE3F
:10076400082107A8FFF779FF18B9A64900F05AFC39
:100774000FE09DF81C2099F800309A4209D19DF8A9
:100784001D10862913D19DF81E209F49002000F0DA
:1007940049FC3378013303F0070333702B78013BB2
:1007A4002B700A2026B0BDE8F047FFF791BD06295B
:1007B400EFD107A8FFF738FFBDF82230834202D0FB
:1007C40092490020D2E7BDF81E2052BA92B2BA4232
:1007D40005D1BDF820305BBA9BB2434501D08C49AA
:1007E400EFE78C49002000F01DFCD2E7012CD0D1AA
:1007F400B3F8048008F1FF300F28CAD8DFF8389224
:1008040058885F8899F800308DF81C3010238DF8D3
:100814001D3000238DF8203006325FFA88F340BA89
:100824008DF821300A445B008DF82230ADF81E00AB
:1008340007AB4FEA480A02EB480132F8020B187280
:10084400040A8A42DC7103F10203F6D11FFA8AFA20
:100854000AF10704A4B2214607A8FFF7E5FE04F154
:1008640098030DEB030404F87C0C000A04F87B0CD9
:10087400FFF77EFE0AF1090189B207A8FFF73CFEE3
:10088400082105A8FFF7E9FE08B963496EE79DF85A
:10089400142099F800309A427FF47BAF9DF815300C
:1008A400902B03D19DF816205C496FE7102B7FF441
:1008B40070AF062105A8FFF7B7FEBDF81A308342D2
:1008C40001D057497DE7BDF816305BBA9BB2BB42F5
:1008D40005D1BDF818305BBA9BB2434501D05149EC
:1008E4006FE7514943463A467CE7DFF85081B8F850
:1008F4000050B8F80030C5F1C004A4B23C2C28BFA5
:100904003C24C02D5BBA4DD0DFF82C91ADF81630E5
:1009140099F800208DF814200621032705A88DF8E6
:1009240015708DF818608DF81940FFF77DFEADF84D
:100934001A00FFF71DFE082105A8FFF7DDFD31466B
:100944007B2207A800F0E6FE394607A8FFF785FEDC
:1009540040B39DF81C2099F800309A4222D19DF8AA
:100964001D30832B25D1012102A8FFF776FEC8B1E3
:10097400022103A8FFF771FEA0B1BDF81C309DF859
:100984000880ADF81030394604A88DF81280FFF7BE
:100994004BFEBDF80C30834204D124494246304614
:1009A40000F040FB224923462A46002000F03AFB8F
:1009B400F7E6032BF6D19DF81E60B6EB440FF1D198
:1009C40031460DF11F00FFF748FE0028EAD002214E
:1009D40004A8FFF742FE0028E4D0F11C07A8FFF7A3
:1009E40023FEBDF810309842024629D01149002058
:1009F40000F018FBD6E700BF3403002036030020C4
:100A0400380300207119000891190008BB19000867
:100A1400DD190008031A0008281A00084A1A0008F9
:100A2400761A00089A1A0008C21A0008E81A000880
:100A3400641B00080A1B0008000000206804002052
:100A4400104907AB01EB45010022DE78187940EA32
:100A5400062021F81200013290B2844203F102030D
:100A6400F3D82E19B6B2771EBFB2074900943B469D
:100A74002A46002000F0D6FABF2F28BF0026A8F887
:100A840000608EE66A040020381B00080369C2680F
:100A940093429CBF81685B18013B981A70472DE90B
:100AA400F041D0E902840546A8EB0406406896426A
:100AB40020440F46144406D9FFF72AFBBFF35F8F87
:100AC400EC60BDE8F0813246A4EB0804FFF720FB9C
:100AD40068682246B919EFE72DE9F843C568064668
:100AE400894617464FF000083369B46870689D4220
:100AF40028BF1B19641BBC4203F1FF3328BF3C46CB
:100B04005B1B9C4228BF1C46494622462844FFF7EB
:100B1400FFFAB3682544A044A1443F1BAB4208BF7D
:100B24000025BFF35F8FF560002FDDD14046BDE89F
:100B3400F883000008B5144BA8220021184600F0E1
:100B4400E9FD0322026111494261114A8161C261D6
:100B54004FF480620262002282624262C2620166D3
:100B64000C4941661021816603460267C2664267EA
:100B7400BFF35F8F084911F8010D98540132102A10
:100B8400F9D1BFF35F8F08BDFC0900208F1B00085B
:100B9400FA050020EA050020AF1B0008F8B5144B45
:100BA400182700FB07751D4407FB00330E46DB6A5C
:100BB400012B14460AD0022B14D023B92846FFF780
:100BC40065FF844208D900242046F8BD2846FFF773
:100BD4005DFF844228BF0446224631462846FFF77B
:100BE4005EFFF1E72846BDE8F840FFF775BF00BF98
:100BF400FC090020F8B50B4B1B78532B04460D461B
:100C0400164601D0FFF796FFEFF311874FF020014E
:100C140081F31188324629462046FFF7BFFF87F348
:100C24001188F8BDFC090020FFF784BF826810B565
:100C340004464068531C834206D820688154E26805
:100C4400A3600132E2601A46636893420BD12168C3
:100C54002069FFF7CFFFA368984215BF4FF0FF3319
:100C64000023E360A36010BD2DE9F84F9946DDE948
:100C74000A431746064688460A464FF0010ABA4216
:100C840012D2CA4538BFCA4613F0010B01D184B948
:100C94000024F368002B3EDB0125B9F1010F20D9B4
:100CA40009F1FF397D43F8E70AF1010AB2FBF7F2D3
:100CB400E5E79B0712D5B9F1000F0CBF30252025BD
:100CC400A245E6D229463046FFF7B0FFF368002B71
:100CD40004F1FF34DDDB002CF2D1D9E72025EFE766
:100CE4007D43B8FBF5F39F42FAD9DFF84C90B8FB8B
:100CF400F5F3304619F8031005FB1388FFF796FF48
:100D0400F368002B03DBB5FBF7F3BD4205D2BBF15F
:100D1400000F00D064B9BDE8F88F1D46E7E7202135
:100D24003046FFF783FFF368002B04F1FF34F2DB56
:100D34005445F4D8EFE700BFB01B00082DE9F04F8D
:100D44009BB00AAB059300244023039088461746C2
:100D540006930990254618F8011B002900F05681D6
:100D6400252940F04B8143464FF0000A184610F8FD
:100D7400011B2D2917D011D823291BD02B2916D0BC
:100D84000026984613F8011BA1F13000092814D855
:100D94000A2202FB0611A1F13006F2E73029EFD155
:100DA4004AF0020A01E04AF0010A0346DEE74AF08B
:100DB400040AFAE74AF0080AF7E72E292BD198F833
:100DC40001302A2B15D04FF0000B08F10100D94651
:100DD4004FF00A0C804610F8011BA1F1300EBEF151
:100DE400090F0FD80CFB0B11A1F1300B4FF00109C7
:100DF400F0E73B68191DD3F800B0396008F1020828
:100E04004FF0010998F8001001F0FB00682806D1A2
:100E140018F8011FF8E74FF0000BD946F2E77829DC
:100E240002D908F1010896E76F2912D8632972D014
:100E340028D8252900F0DF805829F2D13968081D07
:100E440038600968CDE90754CDE9006A5B46102291
:100E5400A0E070390829E4D801A050F821F000BFBF
:100E6400E50F0008270E0008270E0008A10F000850
:100E7400270E0008850F0008270E0008270E00081B
:100E8400410E00086429CCD139680B680293081D0F
:100E940083EAE3713860A1EBE3714FF001090A20A2
:100EA400092944DCD94538BFD94636B1029B002B09
:100EB40002DB1AF0040F00D0013E1AF0020F02D038
:100EC400BBF1000F05D01AF0010F02D10EB1B145EC
:100ED40032D3029B002B3FDA029BCDE907545B42DD
:100EE40002932D2105A8FFF7A1FEDDE90754002C8C
:100EF4002EDB0AF00301022905D1BBF1000F02D158
:100F04000EB1B1452FD3CDE90754CDE9006A02995A
:100F14005B460A223EE03B68CDE907541A1D197866
:100F24003A6005A8FFF782FEDDE9075452E009F1B3
:100F34000109B1FBF0F1B3E7202105A8CDE907547D
:100F4400FFF774FEDDE90754002C06F1FF36BDDA25
:100F540020461BB0BDE8F08F1AF0040FC9D0CDE9CC
:100F640007542B21BEE7302105A8CDE90754FFF72C
:100F74005DFEDDE90754002C06F1FF36C0DAE7E731
:100F84003968081D38600968CDE90754CDE9006A5D
:100F94005B460A2205A8FFF767FEC5E73A68111DFC
:100FA4003960166816B91E4E4FF0000916F8011B79
:100FB40081B1B9F1000F02D0BBF1000F0AD005A82E
:100FC400CDE90754FFF732FEDDE90754002C0BF19D
:100FD400FF3BEBDA08F10108002CBFF6BCAEB7E723
:100FE4003B681A1D19683A6008230022CDE90754AA
:100FF400CDE900322BE7CDE9075492E705A8CDE906
:101004000754FFF713FEDDE90754E5E7002C9FD0F2
:1010140025B103982A460AA9FFF7ECFD2C4497E76B
:10102400981B00080EB403B503AB01AA53F8041BC4
:101034000193FFF783FE02B05DF804EB03B0704741
:10104400534AD2F8883043F4700384B0C2F888302D
:10105400504B1A6842F001021A6059684E4A0A401D
:101064005A601A684D4922F0847222F480321A6060
:101074001A6822F480221A605A6822F0036222F469
:1010840070225A604FF46052DA6200221A631A64C2
:101094009960D96941F08051D961D96921F08051B1
:1010A400D9613F49086840F080000860086820F072
:1010B4001000086002928DF8032003921A6842F42B
:1010C40080321A601A68C2F340428DF80320039AF2
:1010D400013203929DF803201AB9039AB2F5005F16
:1010E400F0D11A68C2F340428DF803209DF8032022
:1010F40042B92C4B2C4A1A60254B4FF000629A607F
:1011040004B07047264A116821F007011160116884
:1011140041F0020111605A685A605A6842F4005260
:101124005A605A6842F4A0625A605A6822F0036214
:1011340022F470225A601A6C22F001021A645A686E
:101144000192019A42F480320192019A42F40032EF
:101154000192019A42F0036242F440220192019A00
:101164005A60029A1A641A6842F080721A601A6805
:101174009201FCD55A6822F003025A605A6842F080
:1011840002025A605A6802F00C02082AFAD1B3E744
:1011940000ED00E0001002400CC07FF80000BF0426
:1011A400002002400400002000127A0070B501788B
:1011B400012501F01F039D40C3784C09BBB10E4BC0
:1011C4004678DA68D243C2F30222C2F104039E4095
:1011D40083780F2020FA02F21340084A33431B019C
:1011E4001144DBB281F8003342F8245070BD034B44
:1011F400203443F82450F9E700ED00E000E100E07A
:10120400036823F0010303600023036043608360E9
:10121400C360204B984205D11F4A536843F00F0323
:10122400536070471D4B984204D11B4A536843F0E6
:10123400F003F5E71A4B984204D1174A536843F474
:101244007063EDE7174B984204D1134A536843F493
:101254007043E5E7144B984204D10F4A536843F4B2
:101264007023DDE7114B984204D10B4A536843F4D1
:101274007003D5E70E4B984204D1074A536843F0F4
:101284007063CDE70B4B9842CBD1034A536843F0CC
:101294007043C5E708000240000002401C00024001
:1012A4003000024044000240580002406C000240FA
:1012B4008000024094000240036823F0100303609E
:1012C40003680B4303607047036823F04003036023
:1012D40003680B4303607047036823F080030360D3
:1012E40003680B4303607047036823F4407303608F
:1012F40003680B4303607047036823F4406303608F
:1013040003680B4303607047036823F02003036002
:1013140003680B4303607047036823F4405303607E
:1013240003680B4303607047036823F4804303603E
:1013340003680B43036070470B6810B50A4683606B
:101344004B68C3608968FFF7B7FFD36843601169CE
:10135400FFF7BAFF5169FFF7BFFF9169FFF7C4FFB9
:10136400D169FFF7C9FF116AFFF7CEFF516AFFF792
:10137400D3FFBDE81040916AFFF7D6BF036843F07E
:10138400010303607047036823F00103036070479F
:1013940003680B4303607047406880B2704700687D
:1013A4000840003818BF0120704741607047016150
:1013B400704710B502F00704A40012074FF00F03A2
:1013C4004CBF426A026A03FA04F36FEA030301FAA8
:1013D40004F14BBF134013400B430B434CBF436218
:1013E400036210BD30B5032304685500AB4024EA02
:1013F400030401F00303AB402343036021F0100313
:10140400013B012B08D8436801249440090923EACD
:10141400040391401943416030BD10B5C3685200C4
:101424000324944023EA040391401943C16010BD8E
:1014340010B583680124944023EA040391401943BE
:10144400816010BD10B5C36A52000324944023EA9E
:10145400040391401943C16210BD70B50C460025C8
:101464000126236833FA05F200D170BD06FA05F2AD
:101474001A4211D061692A46FFF79BFF2A46616828
:10148400FFF7B0FFA168FFF7C8FFE1682A46FFF73E
:10149400CFFF2169FFF7D6FF0135E2E7254930B5D3
:1014A4004C684A68250140F20F2303EA944302F48E
:1014B40080324ABF6FF4F77402331B19002A35D106
:1014C4000A6C12F0010F14BF1B4A1C4A4C681C4DD5
:1014D40053431A4A04F00C04082C08BF1A4602604D
:1014E4004C68C4F303142C5DE24042604C68C4F3BE
:1014F40002242C5D22FA04F484604C68C4F3C224F0
:101504002C5D104D22FA04F4C460CC6A04F00F047C
:101514002C5DB2FBF4F24261CA6A0B49C2F30312B6
:1015240031F81220B3FBF2F3036130BD4A6812F4C0
:10153400003FC8E70010024000093D0000127A0095
:10154400F01B0008E01B0008C01B0008024A536996
:1015540003435361704700BF00100240024AD3693D
:101564000343D361704700BF0010024030B587B019
:10157400044668460D46FFF791FF124B9C4207D084
:1015840003F5C0539C4203D003F580639C4216D1FB
:10159400039B192253436422AD00B3FBF5F3B3FB61
:1015A400F2F102FB11331B013233B3FBF2F303F00C
:1015B4000F0343EA01139BB2238107B030BD029BA2
:1015C400E7E700BF0038014038B504460D46096816
:1015D400FFF7CCFFA389AA889BB223F4805313435B
:1015E400A381238AEA889BB223F4405313432382C2
:1015F400A3892A899BB223F4C0631343A381A389DB
:101604006A899BB223F00C031343A381A38AAA899A
:101614009BB223F440731343A38238BD83899BB2E6
:1016240043F4005383817047C1F34213012201F054
:101634001F01012B02FA01F204D10C300368134399
:1016440003607047022B0CBF10301430F6E7838A16
:101654009BB20B4383827047C1F3080181807047BA
:101664008088C0F308007047038801EA030000384B
:1016740018BF01207047C1F3421210B5034601F0B0
:101684001F040120012A00FA04F00DD19A891B8855
:1016940092B210409BB230B1090A01228A40134031
:1016A400181E18BF012010BD022A0CBF1A8A9A8A7C
:1016B400EDE7090A01238B40DB439BB203807047AB
:1016C4000D4885460D480E490E4A002302E0D458C1
:1016D400C4500433C4188C42F9D30B4A0B4C002376
:1016E40001E013600432A242FBD3FFF7A9FC00F02F
:1016F4005FF8FEF77DFFFEE70040002000000020B9
:101704000C000020141C00080C0000203C0C0020DD
:10171400FEE70000830730B546D08418844604E011
:1017240003F8011B9D0704D09C46A4456346F7D1EA
:1017340030BD013A0244A2EB0C02032A29D9CCB2EF
:1017440004EB04240F2A04EB04442FD9A2F1100C57
:101754002CF00F0C03F11005AC44C3E90044C3E9B9
:10176400024410336345F8D112F00C0F02F00F0E4F
:1017740018D02EF0030C9C44AEF104051A4642F82E
:10178400044B6245FBD125F0030404330EF003023D
:101794002344002ACCD0C9B21A4403F8011B934253
:1017A400FBD130BD7246F4E70346C6E79646E0E750
:1017B40070B50F4B0F4DAB42A3EB050607D0B61027
:1017C400002455F8043B01349847A642F9D800F0A8
:1017D4007FF8094D094B5E1BAB424FEAA60606D0C3
:1017E400002455F8043B01349847A642F9D870BD4B
:1017F400081C0008081C0008081C0008101C00082D
:10180400704700BF704700BF024B13B1024800F09D
:1018140005B87047000000002D1800080023014699
:101824001A46184600F014B838B5074D074C2C1B5F
:10183400A41005D0013C55F8043D9847002CF9D17B
:10184400BDE8384000F04AB8141C0008101C000819
:101854002DE9F8431B4D0646286898460F469146E5
:10186400FFF7CEFF184B1C681CB3286865681F2D52
:1018740022DC4EB96B1C0235636044F82570FFF717
:10188400C1FF0020BDE8F88304EB85010123C1F802
:101894008890D4F88821AB401A43022EC4F88821DA
:1018A400C1F80881E6D1D4F88C211A43C4F88C21FC
:1018B400E0E7064C1C60D8E7FFF7A4FF4FF0FF30C9
:1018C400E0E700BF08000020A80A0020AC0A0020BE
:1018D400F8B500BFF8BC08BC9E467047F8B500BF19
:0818E400F8BC08BC9E467047E9
:1018EC004E333247343330204D6F64627573204D64
:1018FC00617374657220537461727465640D0A00AF
:10190C005553415254322052545520686F737420F1
:10191C00706F6C6C696E67203078253034582D30C0
:10192C0078253034580D0A005B4D6F646275735D19
:10193C00204D61737465722072656164792E205339
:10194C006C6176653A203078253032582C20526103
:10195C006E67653A203078253034582D3078253034
:10196C0034580D0A005B4D6F646275735D205772BD
:10197C006974652073696E676C652074696D656F39
:10198C0075740D0A005B4D6F646275735D20577240
:10199C006974652073696E676C6520657863657022
:1019AC0074696F6E3A203078253032580D0A005B1E
:1019BC004D6F646275735D2057726974652073692D
:1019CC006E676C6520435243206572726F720D0A0C
:1019DC00005B4D6F646275735D205772697465208E
:1019EC0073696E676C65206563686F206D69736DD4
:1019FC00617463680D0A005B4D6F646275735D20E2
:101A0C005772697465204F4B3A2030782530345822
:101A1C00203D203078253034580D0A005B4D6F6422
:101A2C006275735D205772697465206D756C74698D
:101A3C00706C652074696D656F75740D0A005B4D73
:101A4C006F646275735D205772697465206D756C77
:101A5C007469706C6520657863657074696F6E3A33
:101A6C00203078253032580D0A005B4D6F6462755A
:101A7C00735D205772697465206D756C7469706C38
:101A8C006520435243206572726F720D0A005B4DE4
:101A9C006F646275735D205772697465206D756C27
:101AAC007469706C65206563686F206D69736D6116
:101ABC007463680D0A005B4D6F646275735D20572B
:101ACC0072697465204F4B3A203078253034582099
:101ADC002825752072656773290D0A005B4D6F64AC
:101AEC006275735D20457863657074696F6E2063F1
:101AFC006F64653A203078253032580D0A005B4D02
:101B0C006F646275735D20435243206572726F720D
:101B1C002E2043616C633A3078253034582052655E
:101B2C0073703A3078253034580D0A005B4D6F6471
:101B3C006275735D2052656164204F4B3A2030789A
:101B4C00253034582D3078253034582028257520F0
:101B5C0072656773290D0A005B4D6F646275735D66
:101B6C002052656164206661696C65642061742033
:101B7C0030782530345820282575207265677329F4
:101B8C000D0A005465726D696E616C00284E554CDF
:101B9C004C290000000000000054545220524547CC
:101BAC0047455300303132333435363738394142BA
:101BBC0043444546010002000400060008000A00E8
:101BCC000C0010002000400080000001000100010A
:101BDC000001000101020406080A0C10202020203C
:101BEC002020202000000000010203040102030455
:041BFC0006070809C7
:081C000014E5FF7F0100000064
:081C08000D180008B1020008EC
:041C1000890200083D
:0C1C1400010000000020A107A40A00202D
:04000005080016C514
:00000001FF
