:020000040800F2
:100000000040002095180008890600088B060008AB
:1000100000000000000000000000000000000000E0
:100020000000000000000000000000008D06000835
:100030000000000000000000E51800088F0600081E
:10004000E5180008E5180008E5180008E51800089C
:10005000E5180008E5180008E5180008E51800088C
:10006000E5180008E5180008E518000879030008FD
:10007000E5180008E1050008E5180008E518000883
:10008000E5180008E5180008E5180008E51800085C
:10009000E5180008E5180008E5180008E51800084C
:1000A000E5180008E5180008E5180008E51800083C
:1000B000E5180008E5180008E5180008E51800082C
:1000C000E5180008E5180008E5180008E51800081C
:1000D000D502000845030008E5180008E5180008E7
:1000E000E5180008E5180008E5180008E5180008FC
:1000F000E5180008E5180008E5180008E5180008EC
:10010000E5180008E5180008E5180008E5180008DB
:04011000E5180008E6
:10011400844641EA000313F003036DD1403A41D30E
:1001240051F8043B40F8043B51F8043B40F8043BCD
:1001340051F8043B40F8043B51F8043B40F8043BBD
:1001440051F8043B40F8043B51F8043B40F8043BAD
:1001540051F8043B40F8043B51F8043B40F8043B9D
:1001640051F8043B40F8043B51F8043B40F8043B8D
:1001740051F8043B40F8043B51F8043B40F8043B7D
:1001840051F8043B40F8043B51F8043B40F8043B6D
:1001940051F8043B40F8043B51F8043B40F8043B5D
:1001A400403ABDD2303211D351F8043B40F8043BFD
:1001B40051F8043B40F8043B51F8043B40F8043B3D
:1001C40051F8043B40F8043B103AEDD20C3205D30D
:1001D40051F8043B40F8043B043AF9D2043208D005
:1001E400D2071CBF11F8013B00F8013B01D30B8877
:1001F40003806046704700BF082A13D38B078DD055
:1002040010F003038AD0C3F10403D21ADB071CBF26
:1002140011F8013B00F8013B80D331F8023B20F890
:10022400023B7BE7043AD9D3013A11F8013B00F8C9
:10023400013BF9D20B7803704B7843708B78837051
:10024400604670470348044B834202D0034B03B11A
:10025400184770470C0000200C000020000000002C
:100264000548064B1B1AD90F01EBA301491002D014
:10027400034B03B1184770470C0000200C0000200A
:100284000000000010B5064C237843B9FFF7DAFFED
:10029400044B13B10448AFF300800123237010BD55
:1002A4000C00002000000000A41A000808B5054B4B
:1002B4001BB105490548AFF30080BDE80840FFF7CE
:1002C400CFBF00BF0000000010000020A41A0008E7
:1002D40010B5164C40F22441204601F0B3FA20B187
:1002E4002388A388124B01221A70104840F225512A
:1002F40001F0A8FAA8B10F4C0C4840F2255101F0C6
:10030400BFFA23880948FF2B0CD801F097FA0A4A50
:100314000A491388C8540133DBB21380238801339C
:10032400238010BDBDE8104001F088BA00380140B8
:100334002C00002030020020320200203402002071
:1003440010B5094C40F22441204601F07BFA48B133
:1003540006482388A38801F011F9054BC0F5807085
:1003640080B2188010BD00BF004400401C00024051
:100374002A00002008B50848022101F002F948B11A
:100384000548022101F003F9044801F0ECF8044B9C
:1003940000221A7008BD00BF00000240080002409D
:1003A400280000202DE9F043812097B001F0C0F926
:1003B4004FF48040002401F0C3F9022501264FF4D4
:1003C4000073052705A94148DFF82C91CDE90535CF
:1003D400CDE90967CDE9074401F031F94FF48063B1
:1003E40005A93A48CDE90534CDE90967CDE90744C3
:1003F40001F025F94FF4E13301A9CDE90134344882
:10040400ADF810404FF44023039301F0CFF9314885
:1004140000F0E6FF304B0C934FF0800810234FF4AC
:1004240000570BA92B48CDF82C90CDE90D34CDE91C
:100434001084CDE91244CDE914740F9401F06CF8E2
:100444003146244801F0A5F82946224801F090F8E5
:10045400224800F0C5FF224B2048CDF82C90CDE96E
:100464000C344FF48073CDE90E340BA92023CDE96D
:100474001337CDE910841294159401F04DF82946F0
:10048400164801F086F8154801F068F8154B0093FA
:10049400684600F07BFF144B0093684600F076FF3B
:1004A4000B4840F2244101F0B1F9C021084801F0A1
:1004B400C0F9074801F0A4F90C4B1C800C4B1C70CC
:1004C4000C4B1C7017B0BDE8F08300BF0034024031
:1004D4000038014030000240300100204400024056
:1004E400300000200D010001240000012E00002036
:1004F4002D0000202C0000200438014038B50C46A3
:100504000146D8B1D4B10E4D2B78002BFCD1B4F5F3
:10051400807F28BF4FF4807422460A48FFF7F8FD15
:10052400012309482B7001F01EF80748214601F009
:1005340023F8BDE83840044801F010B838BD00BFC6
:100544002D0000203001002030000240F8B50C4698
:10055400054680B1D1B10E480E4E0F4F01F00EF892
:10056400C0F580739BB20021328892B29A4288B25D
:1005740001D0844200D8F8BD328892B2BA5C6A5481
:1005840032880132D2B232800131EDE70846F2E717
:10059400440002402E0000203000002008B5064828
:1005A40000F0ECFF054BC0F5807080B21880044B5E
:1005B40000221A7008BD00BF440002402E00002033
:1005C4002C000020014B1878704700BF2C0000203D
:1005D400014B00221A7070472C00002008B509480E
:1005E4004FF4007100F0CDFF50B106484FF4007194
:1005F40000F0CDFF044800F0B6FF044B00221A704F
:1006040008BD00BF00000240300002402D00002061
:1006140008B500F0F9FB1949002000F0F3FD184972
:10062400002000F0EFFD012000F084F841F23421B5
:10063400002000F0EFFA45F27861012000F0EAFAB8
:100644004AF6CD31022000F0E5FA41F21111002002
:1006540000F0EAFA42F22221012000F0E5FA012139
:10066400002000F0EBFA0021012000F0E7FA01215C
:10067400022000F0E3FA00F095F8FCE7BC1A000849
:10068400DB1A00087047FEE77047704730B5024632
:1006940001444FF6FF7012F8013B0824584000F063
:1006A400010303EB830503EB453383EA500398B25C
:1006B400631E13F0FF04F2D18A42ECD130BD000076
:1006C40038B50A4D044601462846FFF7DFFF2B19CB
:1006D4002855A11C000A587089B22846FFF70EFF5E
:1006E400034A13680133136038BD00BF440300207C
:1006F4003C03002010B50C4B0C4C1B78A17060F02F
:100704007F006070032120462370FFF7BFFFE07075
:10071400000A207105212046FFF7F0FE044A136801
:100724000133136010BD00BF00000020440300200B
:100734003C03002038B5124D4FF40072287000219C
:10074400104801F0CFF8802200210F4801F0CAF8C8
:100754000E4B00241C605C600D4B1C605C600D4BF8
:100764001C600D4B1C600D4B1C60FFF71BFEFFF75C
:1007740015FF2A780A492046BDE8384000F042BDFA
:1007840000000020D4050020540500204C05002062
:1007940044050020400300203C03002038030020CF
:1007A400FD1A00082DE9F14FFFF70CFF002800F0B7
:1007B4009C81AE4CFFF70CFF4FF480712046FFF78D
:1007C400C5FE0328064640F29081A21E631E155CF6
:1007D4001B5C811E89B2204645EA0325FFF756FFBC
:1007E400854203460BD0A2490A6801320A60A14936
:1007F4002A46002001B0BDE8F04F00F003BD9E4F33
:10080400237839788B4202D0002B40F06E819B4ACA
:100814006078136801331360431E0F2B00F2E781E5
:10082400DFE813F010005C009F00CA00F200190119
:10083400E501E501E501E501E501E501E501E50184
:100844004D01A2016588A48864BAA4B2631E6DBA7E
:10085400B3F5FA6FADB206D30321012001B0BDE8B0
:10086400F04FFFF747BF2B19402B01DD0221F4E7BE
:10087400834EE71DFF0831703A464FF0010800210E
:10088400F01C86F80180B77001F02CF87D48002236
:1008940015FA82FCCCF3CC0C55FA82FE10F80CC08D
:1008A4000EF0070E2CFA0EFC1CF0010F91B2D3B21D
:1008B4000AD0C908033103F0070316F801C008FA87
:1008C40003F343EA0C037354013293B29C42DFD81E
:1008D400F81C01B0BDE8F04FFFF7F2BE6588A488AC
:1008E40064BAA4B2631E6DBAB3F5FA6FADB202D3A3
:1008F40003210220B2E72B19402B01DD0221F8E786
:100904005F4EE71DFF08317002233A460021F01CB8
:100914007370B77000F0E6FF5B4800224FF0010CE3
:1009240015FA82FECEF3CC0E55FA82F810F80EE0DA
:1009340008F007082EFA08FE1EF0010F91B2D3B298
:100944000AD0C908033103F0070316F801E00CFAD2
:1009540003F343EA0E037354013293B29C42DFD88B
:10096400B6E7A288658852BA92B2531E6DBA7C2B40
:10097400ADB202D90321032070E7AB18B3F5807F31
:1009840001DD0221F7E73E4B197003215000597035
:100994003E49C0B2987001EB4501002431F8025B76
:1009A4001D7101342E0AA5B29542DE7003F10203D3
:1009B400F4D30330C0B28CE7A288658852BA92B2ED
:1009C400531E6DBA7C2BADB202D90321042045E736
:1009D400AB18402B01DD0221F8E7294B19700421E3
:1009E400500059702A49C0B2987001EB45010024A7
:1009F40031F8025B1D7101342E0AA5B29542DE70F6
:100A040003F10203F4D3D4E76388A4885BBA9BB2EE
:100A140024B1FF2C02D0032105201FE73F2B01D96D
:100A24000221F9E7DD08174E012203F00703705D88
:100A340002FA03F3DBB2FF2C0CBF034320EA0303E7
:100A4400144A7355144B1068127918601A7103F81C
:100A5400011C06203DE76088A38840BA80B25BBAD7
:100A6400FF2899B21AD902210620F7E6440400208F
:100A740038030020201B0008000000204003002051
:100A8400440300204C05002044050020D405002028
:100A9400540500204504002045030020554A22F84F
:100AA4001030554B1B6803B19847544A544B116896
:100AB40012791A713A78196003F8012CC9E7A388EE
:100AC4005BBA9BB25A1EB2F5F66F02D303210F2014
:100AD400C4E6A279D81DB2EBD00FF7D10932964201
:100AE40006D2484A13680133136001B0BDE8F08FA1
:100AF400628852BA1FFA82FC13FA82F2402A01DD9C
:100B04000221E4E7DFF804E100255FFA8CF74FF0F7
:100B1400010857FA85F000F0070008FA00F0C2B2A5
:100B2400C5F3CC0007301CFA85F6C6F3CC06205C6E
:100B34001EF8069005F0070A20FA0AF0C0074CBF19
:100B440049EA020229EA020201350EF80620AAB295
:100B54009A42DED32C4A11700F21517000219170FA
:100B6400D7701171537174E7A5886DBAADB26B1E5D
:100B74007A2B02D90321102070E6A379B3EB450F39
:100B8400F8D109339E42ACD363885BBA1FFA83F869
:100B940015FA83F3B3F5807F01DD0221EBE7154AF3
:100BA400DFF86C90DFF850B002EB480A9CB246467E
:100BB40099F8073099F8081041EA0321DBF800306E
:100BC4002AF8021B0BB1304698470136B6B2A6424A
:100BD40009F10209ECD10C4B3A781A7010225A70C0
:100BE40000229A7083F803801A715D7131E7012144
:100BF40034E600BFD405002034030020450400205F
:100C04004503002038030020440300204C05002045
:100C140044040020FF289DBF024B23F8101001203C
:100C240000207047D40500203F289DBF024B23F8C5
:100C34001010012000207047540500203F2830B5D3
:100C44000FD8C408084D00F00700012282402B5D34
:100C5400D2B219B113432B55012030BD23EA02034C
:100C6400F9E70020F9E700BF4C0500200369C268DA
:100C740093429CBF81685B18013B981A70472DE929
:100C8400F041D0E902840546A8EB04064068964288
:100C940020440F46144406D9FFF73AFABFF35F8F96
:100CA400EC60BDE8F0813246A4EB0804FFF730FAAB
:100CB40068682246B919EFE72DE9F843C568064686
:100CC400894617464FF000083369B46870689D423E
:100CD40028BF1B19641BBC4203F1FF3328BF3C46E9
:100CE4005B1B9C4228BF1C46494622462844FFF70A
:100CF4000FFAB3682544A044A1443F1BAB4208BF8C
:100D04000025BFF35F8FF560002FDDD14046BDE8BD
:100D1400F883000008B5144BA8220021184600F0FF
:100D2400E1FD0322026111494261114A8161C261FC
:100D34004FF480620262002282624262C2620166F1
:100D44000C4941661021816603460267C266426708
:100D5400BFF35F8F084911F8010D98540132102A2E
:100D6400F9D1BFF35F8F08BDE40B00204D1B0008D1
:100D7400E4070020D40700206D1B0008F8B5144BCD
:100D8400182700FB07751D4407FB00330E46DB6A7A
:100D9400012B14460AD0022B14D023B92846FFF79E
:100DA40065FF844208D900242046F8BD2846FFF791
:100DB4005DFF844228BF0446224631462846FFF799
:100DC4005EFFF1E72846BDE8F840FFF775BF00BFB6
:100DD400E40B0020F8B50B4B1B78532B04460D464F
:100DE400164601D0FFF796FFEFF311874FF020016D
:100DF40081F31188324629462046FFF7BFFF87F367
:100E04001188F8BDE40B0020FFF784BF826810B599
:100E140004464068531C834206D820688154E26823
:100E2400A3600132E2601A46636893420BD12168E1
:100E34002069FFF7CFFFA368984215BF4FF0FF3337
:100E44000023E360A36010BD2DE9F84F9946DDE966
:100E54000A431746064688460A464FF0010ABA4234
:100E640012D2CA4538BFCA4613F0010B01D184B966
:100E74000024F368002B3EDB0125B9F1010F20D9D2
:100E840009F1FF397D43F8E70AF1010AB2FBF7F2F1
:100E9400E5E79B0712D5B9F1000F0CBF30252025DB
:100EA400A245E6D229463046FFF7B0FFF368002B8F
:100EB40004F1FF34DDDB002CF2D1D9E72025EFE784
:100EC4007D43B8FBF5F39F42FAD9DFF84C90B8FBA9
:100ED400F5F3304619F8031005FB1388FFF796FF66
:100EE400F368002B03DBB5FBF7F3BD4205D2BBF17E
:100EF400000F00D064B9BDE8F88F1D46E7E7202154
:100F04003046FFF783FFF368002B04F1FF34F2DB74
:100F14005445F4D8EFE700BF6E1B00082DE9F04FED
:100F24009BB00AAB059300244023039088461746E0
:100F340006930990254618F8011B002900F05681F4
:100F4400252940F04B8143464FF0000A184610F81B
:100F5400011B2D2917D011D823291BD02B2916D0DA
:100F64000026984613F8011BA1F13000092814D873
:100F74000A2202FB0611A1F13006F2E73029EFD173
:100F84004AF0020A01E04AF0010A0346DEE74AF0A9
:100F9400040AFAE74AF0080AF7E72E292BD198F851
:100FA40001302A2B15D04FF0000B08F10100D9466F
:100FB4004FF00A0C804610F8011BA1F1300EBEF16F
:100FC400090F0FD80CFB0B11A1F1300B4FF00109E5
:100FD400F0E73B68191DD3F800B0396008F1020846
:100FE4004FF0010998F8001001F0FB00682806D1C1
:100FF40018F8011FF8E74FF0000BD946F2E77829FB
:1010040002D908F1010896E76F2912D8632972D032
:1010140028D8252900F0DF805829F2D13968081D25
:1010240038600968CDE90754CDE9006A5B461022AF
:10103400A0E070390829E4D801A050F821F000BFDD
:10104400C5110008071000080710000881110008E6
:1010540007100008651100080710000807100008B1
:10106400211000086429CCD139680B680293081D4B
:1010740083EAE3713860A1EBE3714FF001090A20C0
:10108400092944DCD94538BFD94636B1029B002B27
:1010940002DB1AF0040F00D0013E1AF0020F02D056
:1010A400BBF1000F05D01AF0010F02D10EB1B1450A
:1010B40032D3029B002B3FDA029BCDE907545B42FB
:1010C40002932D2105A8FFF7A1FEDDE90754002CAA
:1010D4002EDB0AF00301022905D1BBF1000F02D176
:1010E4000EB1B1452FD3CDE90754CDE9006A029979
:1010F4005B460A223EE03B68CDE907541A1D197885
:101104003A6005A8FFF782FEDDE9075452E009F1D1
:101114000109B1FBF0F1B3E7202105A8CDE907549B
:10112400FFF774FEDDE90754002C06F1FF36BDDA43
:1011340020461BB0BDE8F08F1AF0040FC9D0CDE9EA
:1011440007542B21BEE7302105A8CDE90754FFF74A
:101154005DFEDDE90754002C06F1FF36C0DAE7E74F
:101164003968081D38600968CDE90754CDE9006A7B
:101174005B460A2205A8FFF767FEC5E73A68111D1A
:101184003960166816B91E4E4FF0000916F8011B97
:1011940081B1B9F1000F02D0BBF1000F0AD005A84C
:1011A400CDE90754FFF732FEDDE90754002C0BF1BB
:1011B400FF3BEBDA08F10108002CBFF6BCAEB7E741
:1011C4003B681A1D19683A6008230022CDE90754C8
:1011D400CDE900322BE7CDE9075492E705A8CDE924
:1011E4000754FFF713FEDDE90754E5E7002C9FD011
:1011F40025B103982A460AA9FFF7ECFD2C4497E78A
:10120400561B00080EB403B503AB01AA53F8041B24
:101214000193FFF783FE02B05DF804EB03B070475F
:10122400534AD2F8883043F4700384B0C2F888304B
:10123400504B1A6842F001021A6059684E4A0A403B
:101244005A601A684D4922F0847222F480321A607E
:101254001A6822F480221A605A6822F0036222F487
:1012640070225A604FF46052DA6200221A631A64E0
:101274009960D96941F08051D961D96921F08051CF
:10128400D9613F49086840F080000860086820F090
:101294001000086002928DF8032003921A6842F449
:1012A40080321A601A68C2F340428DF80320039A10
:1012B400013203929DF803201AB9039AB2F5005F34
:1012C400F0D11A68C2F340428DF803209DF8032040
:1012D40042B92C4B2C4A1A60254B4FF000629A609D
:1012E40004B07047264A116821F0070111601168A3
:1012F40041F0020111605A685A605A6842F400527F
:101304005A605A6842F4A0625A605A6822F0036232
:1013140022F470225A601A6C22F001021A645A688C
:101324000192019A42F480320192019A42F400320D
:101334000192019A42F0036242F440220192019A1E
:101344005A60029A1A641A6842F080721A601A6823
:101354009201FCD55A6822F003025A605A6842F09E
:1013640002025A605A6802F00C02082AFAD1B3E762
:1013740000ED00E0001002400CC07FF80000BF0444
:10138400002002400400002000127A0070B50178A9
:10139400012501F01F039D40C3784C09BBB10E4BDE
:1013A4004678DA68D243C2F30222C2F104039E40B3
:1013B40083780F2020FA02F21340084A33431B01BA
:1013C4001144DBB281F8003342F8245070BD034B62
:1013D400203443F82450F9E700ED00E000E100E098
:1013E400036823F001030360002303604360836008
:1013F400C360204B984205D11F4A536843F00F0342
:10140400536070471D4B984204D11B4A536843F004
:10141400F003F5E71A4B984204D1174A536843F492
:101424007063EDE7174B984204D1134A536843F4B1
:101434007043E5E7144B984204D10F4A536843F4D0
:101444007023DDE7114B984204D10B4A536843F4EF
:101454007003D5E70E4B984204D1074A536843F012
:101464007063CDE70B4B9842CBD1034A536843F0EA
:101474007043C5E708000240000002401C0002401F
:101484003000024044000240580002406C00024018
:101494008000024094000240036823F010030360BC
:1014A40003680B4303607047036823F04003036041
:1014B40003680B4303607047036823F080030360F1
:1014C40003680B4303607047036823F440730360AD
:1014D40003680B4303607047036823F440630360AD
:1014E40003680B4303607047036823F02003036021
:1014F40003680B4303607047036823F4405303609D
:1015040003680B4303607047036823F4804303605C
:1015140003680B43036070470B6810B50A46836089
:101524004B68C3608968FFF7B7FFD36843601169EC
:10153400FFF7BAFF5169FFF7BFFF9169FFF7C4FFD7
:10154400D169FFF7C9FF116AFFF7CEFF516AFFF7B0
:10155400D3FFBDE81040916AFFF7D6BF036843F09C
:10156400010303607047036823F0010303607047BD
:1015740003680B430360704741607047406880B262
:10158400704700680840003818BF01207047416068
:1015940070470161704710B502F00704A4001207F8
:1015A4004FF00F034CBF426A026A03FA04F36FEA76
:1015B400030301FA04F14BBF134013400B430B43E5
:1015C4004CBF4362036210BD30B503230468550069
:1015D400AB4024EA030401F00303AB40234303605C
:1015E40021F01003013B012B08D8436801249440E7
:1015F400090923EA040391401943416030BD10B541
:10160400C36852000324944023EA0403914019431D
:10161400C16010BD10B583680124944023EA04031B
:1016240091401943816010BD10B5C36A5200032470
:10163400944023EA040391401943C16210BD70B57C
:101644000C4600250126236833FA05F200D170BD4B
:1016540006FA05F21A4211D061692A46FFF79BFF88
:101664002A466168FFF7B0FFA168FFF7C8FFE16889
:101674002A46FFF7CFFF2169FFF7D6FF0135E2E7DE
:10168400254930B54C684A68250140F20F2303EA26
:10169400944302F480324ABF6FF4F77402331B1987
:1016A400002A35D10A6C12F0010F14BF1B4A1C4AE0
:1016B4004C681C4D53431A4A04F00C04082C08BF10
:1016C4001A4602604C68C4F303142C5DE240426085
:1016D4004C68C4F302242C5D22FA04F484604C6840
:1016E400C4F3C2242C5D104D22FA04F4C460CC6A05
:1016F40004F00F042C5DB2FBF4F24261CA6A0B4998
:10170400C2F3031231F81220B3FBF2F3036130BDCC
:101714004A6812F4003FC8E70010024000093D0087
:1017240000127A00AE1B00089E1B00087E1B0008F6
:10173400024A536903435361704700BF00100240DB
:10174400024A936903439361704700BF001002404B
:1017540030B587B0044668460D46FFF791FF124B3B
:101764009C4207D003F5C0539C4203D003F5806329
:101774009C4216D1039B192253436422AD00B3FB50
:10178400F5F3B3FBF2F102FB11331B013233B3FB6C
:10179400F2F303F00F0343EA01139BB2238107B072
:1017A40030BD029BE7E700BF0038014038B504466E
:1017B4000D460968FFF7CCFFA389AA889BB223F4DE
:1017C40080531343A381238AEA889BB223F44053B2
:1017D40013432382A3892A899BB223F4C06313434E
:1017E400A381A3896A899BB223F00C031343A381C9
:1017F400A38AAA899BB223F440731343A38238BDFE
:1018040083899BB243F4005383817047C1F342132D
:10181400012201F01F01012B02FA01F204D10C3064
:101824000368134303607047022B0CBF103014305D
:10183400F6E7838A9BB20B43838270478088C0F3A8
:1018440008007047C1F3421210B5034601F01F04AB
:101854000120012A00FA04F00DD19A891B8892B262
:1018640010409BB230B1090A01228A401340181E6D
:1018740018BF012010BD022A0CBF1A8A9A8AEDE70C
:10188400090A01238B40DB439BB2038070470000AD
:101894000D4885460D480E490E4A002302E0D458EF
:1018A400C4500433C4188C42F9D30B4A0B4C0023A4
:1018B40001E013600432A242FBD3FFF7B1FC00F055
:1018C4005FF8FEF7A5FEFEE70040002000000020C0
:1018D4000C000020D41B00080C000020240E002063
:1018E400FEE70000830730B546D08418844604E040
:1018F40003F8011B9D0704D09C46A4456346F7D119
:1019040030BD013A0244A2EB0C02032A29D9CCB21D
:1019140004EB04240F2A04EB04442FD9A2F1100C85
:101924002CF00F0C03F11005AC44C3E90044C3E9E7
:10193400024410336345F8D112F00C0F02F00F0E7D
:1019440018D02EF0030C9C44AEF104051A4642F85C
:10195400044B6245FBD125F0030404330EF003026B
:101964002344002ACCD0C9B21A4403F8011B934281
:10197400FBD130BD7246F4E70346C6E79646E0E77E
:1019840070B50F4B0F4DAB42A3EB050607D0B61055
:10199400002455F8043B01349847A642F9D800F0D6
:1019A4007FF8094D094B5E1BAB424FEAA60606D0F1
:1019B400002455F8043B01349847A642F9D870BD79
:1019C400C81B0008C81B0008C81B0008D01B00085F
:1019D400704700BF704700BF024B13B1024800F0CC
:1019E40005B8704700000000FD19000800230146F7
:1019F4001A46184600F014B838B5074D074C2C1B8E
:101A0400A41005D0013C55F8043D9847002CF9D1A9
:101A1400BDE8384000F04AB8D41B0008D01B0008C9
:101A24002DE9F8431B4D0646286898460F46914613
:101A3400FFF7CEFF184B1C681CB3286865681F2D80
:101A440022DC4EB96B1C0235636044F82570FFF745
:101A5400C1FF0020BDE8F88304EB85010123C1F830
:101A64008890D4F88821AB401A43022EC4F8882108
:101A7400C1F80881E6D1D4F88C211A43C4F88C212A
:101A8400E0E7064C1C60D8E7FFF7A4FF4FF0FF30F7
:101A9400E0E700BF08000020900C0020940C002018
:101AA400F8B500BFF8BC08BC9E467047F8B500BF47
:081AB400F8BC08BC9E46704717
:101ABC004E333247343330204D6F6462757320538C
:101ACC006C61766520537461727465640D0A0055FF
:101ADC0053415254312052545520736C6176652C0D
:101AEC0020416464726573733A20307830310D0A8A
:101AFC00005B536C6176655D20496E6974204F4BB9
:101B0C002E20416464726573733A2030782530322C
:101B1C00580D0A005B536C6176655D20435243207F
:101B2C006572726F722E20526563763A307825306A
:101B3C0034582043616C633A3078253034580D0AA0
:101B4C00005465726D696E616C00284E554C4C29C1
:101B5C0000000000000000545452205245474745F5
:101B6C0053003031323334353637383941424344FF
:101B7C004546010002000400060008000A000C00A3
:101B8C001000200040008000000100010001000155
:101B9C00000101020406080A0C102020202020203D
:101BAC0020200000000001020304010203040607C8
:041BBC000809000014
:081BC00054E5FF7F0100000065
:081BC800DD190008B10200085C
:041BD000890200087E
:0C1BD400010000000020A1078C0C002084
:040000050800189542
:00000001FF
