:020000040800F2
:1000000000800020B5220008FD220008FD22000823
:10001000FD220008FD220008FD220008000000006B
:10002000000000000000000000000000511F000858
:10003000FD22000800000000B11F00081520000884
:10004000FD220008FD220008FD220008FD22000814
:10005000FD220008FD220008FD220008FD22000804
:10006000FD220008FD220008FD220008FD220008F4
:10007000FD220008FD220008FD220008FD220008E4
:10008000FD220008FD220008FD220008FD220008D4
:10009000FD220008FD220008FD220008FD220008C4
:1000A000FD220008FD220008FD220008FD220008B4
:1000B000FD220008FD220008FD220008FD220008A4
:1000C000FD220008FD220008FD220008FD22000894
:1000D00009050008FD220008FD220008FD22000895
:1000E000FD220008FD220008FD220008FD22000874
:1000F000FD220008FD220008FD220008FD22000864
:10010000FD220008FD220008FD220008FD22000853
:04011000FD220008C4
:1001200001F0FF01102A2BDB10F0070F08D010F8A8
:10013000013B013A8B422DD010F0070F42B3F6D1AC
:10014000F0B441EA012141EA014122F007047FF0C5
:1001500000070023F0E80256083C85EA010586EA1C
:10016000010685FA47F5A3FA87F586FA47F6A5FA58
:1001700087F68EB9EED1F0BC01F0FF0102F0070264
:1001800032B110F8013B013A83EA010313B1F8D10F
:100190000020704701387047002D06BF35460338F0
:1001A000073815F0010F07D1013015F4807F02BF29
:1001B000013015F4C03F0130F0BC0138704700BF7A
:1001C0000348044B834202D0034B03B118477047E6
:1001D0005800002058000020000000000548064B91
:1001E0001B1AD90F01EBA301491002D0034B03B135
:1001F00018477047580000205800002000000000F9
:1002000010B5064C237843B9FFF7DAFF044B13B15E
:100210000448AFF300800123237010BD5800002074
:1002200000000000802C000808B5054B1BB10549F3
:100230000548AFF30080BDE80840FFF7CFBF00BF1F
:10024000000000005C000020802C0008034BF0221E
:1002500083F82220E02283F82320704700ED00E09D
:1002600000B583B000F0EAFF01904FF40051074859
:1002700000F0A2FC00F0E2FF0146054800F02AF978
:100280004FF47A7101A801F02FF9EEE7003C02402B
:10029000982C000808B54FF4803000F0C9FA00F03F
:1002A000D7FB012800D008BD00F05CFD022000F063
:1002B0004FFD002000F008FB002000F019FB4FF478
:1002C000806000F00BFB4FF460114FF4803000F0C1
:1002D000CDFA00F0E1FA392000F0A0FB0028FAD0B6
:1002E000022000F0DFFA00F0E7FA0828FBD1DAE795
:1002F00000B583B0FFF7CEFFFFF7A8FF00F01AF8B4
:1003000000F03CF84FF4E13000F052F800F030F922
:10031000002301930122009280220349034800F048
:100320001FFF00F059FFFEE7B42C0008610200082F
:10033000FEE7FEE700B587B0684600F0E3FA009BF1
:10034000044AA2FB03239B0C013B034A136007B042
:100350005DF804FB83DE1B4374000020014B18682A
:10036000704700BF7800002000B587B0684600F0F5
:10037000C9FA009807B05DF804FB000000B587B02B
:100380004FF4007000F03AFB4FF400530093012348
:10039000019300230293039302220492059369467A
:1003A000024800F0E0FB07B05DF804FB003C0240AF
:1003B0002DE9F0438DB00646802000F01FFB4FF47E
:1003C000804000F023FB4FF4007306930227079749
:1003D00001250895002409940A970B950DF1180939
:1003E000DFF8A0804946404600F0BDFB4FF4806333
:1003F0000693079708950B954946404600F0B3FBD6
:100400000296ADF80C40ADF80E40ADF81040ADF8D6
:1004100014400C23ADF81230144E02A9304600F0FF
:1004200026FC24238DF804308DF805508DF80650F5
:100430008DF8075001A800F09DFC40F22551304690
:1004400000F036FC304600F02DFC4FF4807221465F
:10045000074801F091FF074B1C80074B1C80074B9E
:100460001C80074B1D700DB0BDE8F08300380140C3
:1004700084000020800000207E0000207C000020FE
:10048000840200200034024010B50446094B1B785A
:100490007BB18021084800F026FC0028F9D02146D5
:1004A000054800F018FC4021034800F01CFC00281F
:1004B000F9D010BD840200200038014010B5044678
:1004C00018B905E00134FFF7DFFF20780028F9D1E3
:1004D00010BD00000FB400B583B004AB53F8042B7B
:1004E00001934FF48071074801F038FF0138FE286E
:1004F00004D903B05DF804EB04B070470148FFF77E
:10050000DDFFF6E78401002008B540F225511448CC
:1005100000F0F0FB00B908BD114800F0E0FBC0B2EC
:10052000104B1B889BB2FF2B14D80F4A13889BB229
:100530000E49C85413889BB201335942DBB2C9B289
:1005400058BF4B429BB21380064A13889BB20133BB
:100550009BB2138040F22551014800F0F0FBDAE72E
:10056000003801407C000020800000208400002032
:1005700008B50B48FFF7A2FF0A48FFF79FFFFFF7F8
:10058000F3FE01460848FFF7A5FFFFF7E7FE014627
:100590000648FFF79FFF0648FFF790FF08BD00BF22
:1005A000C02C0008E82C0008002D0008182D0008B9
:1005B000302D000808B503460B4A126842B10A4ABA
:1005C000106803446A46934206D8074A136008BD80
:1005D000054A06491160F2E701F0D6FE0C230360DC
:1005E0004FF0FF30F3E700BF88020020501D0020CD
:1005F00008B5014B984708BDA502FF1F00B583B0A1
:1006000000230193174B1A6822F080021A601A68BF
:1006100042F040021A6001A91348FFF7E9FF9DF874
:100620000430052B07D90F4A136843F08003136089
:1006300003B05DF804FB01A90C48FFF7D9FF01994D
:100640000B0A03F47F430A0202F47F0243EA1163B8
:100650001343019306494A6802F07F4213434B60FB
:10066000E1E700BF0020024020F0FF1F30F2FF1F33
:100670000018004010B584B0002302938DF80730B5
:100680000093414A136843F4803313603E4B1B6868
:1006900003F40033003B18BF01238DF80730009BA3
:1006A000013300939DF807301BB9009BB3F5005F41
:1006B000ECD1354B1B6803F40033003B18BF01231A
:1006C0008DF807309DF80730002B52D02F4A136861
:1006D00023F0070313602E4B1B68DBB2122B4CD8A0
:1006E000136843F003031360274C63686360636817
:1006F00043F400536360636843F4A0636360FFF7EF
:100700007DFF636823F0036323F470236360236C2D
:1007100023F00103236463680393039B43F4803352
:100720000393039B43F400330393039B43F003635E
:1007300043F440230393039B6360029B2364236879
:1007400043F080732360104B1B6813F0007FFAD0D6
:100750000D4B5A6822F003025A605A6842F00202B6
:100760005A60094B5B6803F00C03082BF9D104B005
:1007700010BD084B084A1A60F9E7044A136843F0B1
:1007800003031360B0E700BF0010024000200240E6
:10079000002004E00000002000127A0010B5204C78
:1007A000D4F8883043F47003C4F888301D4B1A68BD
:1007B00042F001021A6059681B4A0A405A601A68DE
:1007C00022F0847222F480321A601A6822F48022A5
:1007D0001A605A6822F0036222F470225A604FF4C1
:1007E0006052DA621A6C42F001021A640F4A9A608F
:1007F000DA6942F08052DA61DA6922F08052DA6115
:1008000003F580531A6842F080021A601A6822F0D9
:1008100010021A60FFF72EFF4FF00063A36010BDB7
:1008200000ED00E0001002400CC07FF800009F04C3
:100830000D4B1A6822F480321A601A6822F4802262
:100840001A60B0F5803F03D0B0F5802F06D0704716
:100850001A461B6843F4803313607047024A1368DA
:1008600043F4A0231360F2E700100240094A5368E2
:10087000126C23F0036323F4702322F00102012899
:1008800005D90843034303494B600A6470470B438F
:100890000243F8E700100240014B01221A6670473C
:1008A00000004242034A536823F0030303435360AA
:1008B000704700BF00100240024B586800F00C0067
:1008C000704700BF00100240034A536823F0F00352
:1008D00003435360704700BF00100240034A53684F
:1008E00023F4E06303435360704700BF00100240ED
:1008F000034A536823F4605343EAC00353607047CC
:100900000010024030B4364A5168364B0B405268F2
:1009100002F4803211F0006F45D19B0C0233002AA3
:1009200049D102F1804202F50432126C12F0010F3B
:100930003DD02D4A02FB03F3294A526802F00C0213
:10094000042A45D0082A46D0002A46D1274A026008
:1009500023494A68C2F30312254DAC5C0268E240A9
:1009600042604C68C4F302242C5D22FA04F48460D3
:100970004C68C4F3C2242C5D22FA04F4C460CC6A2F
:1009800004F00F0C1B4C14F80C40B2FBF4F2426163
:10099000CA6AC2F30312184931F81220B3FBF2F30A
:1009A000036130BC70479B0CA3F2EF13B7E70F4A0B
:1009B00002FB03F3C0E70A4A526812F4003F03D077
:1009C000094A02FB03F3B7E7084A02FB03F3B3E764
:1009D000064A0260BCE70360BAE7044A0260B7E770
:1009E0000010024000003C0800093D0000127A009F
:1009F000942D0008842D0008642D0008024A5369D4
:100A000003435361704700BF00100240024A9369DC
:100A100003439361704700BF001002404309012B5C
:100A200004D0022B0CD0094B5B6A01E0074B1B681A
:100A300000F01F00C34013F0010F04D001207047E5
:100A4000024B1B6AF4E70020704700BF0010024011
:100A500010B588B00023079301A8FFF753FF019A50
:100A60000C4BB3FBF2F34FF40054B4FBF3F431201E
:100A7000FFF7D4FF079B01330793079BA34201D0E5
:100A80000028F4D03120FFF7C9FF00B1012008B0E1
:100A900010BD00BF0020A10712F0080F0ED0436A5E
:100AA00002F0070292004FF00F0C0CFA02FC23EA4E
:100AB0000C0301FA02F21A4342627047036A02F021
:100AC000070292004FF00F0C0CFA02FC23EA0C0311
:100AD000914019430162704710B5046801F00303A7
:100AE0004FEA420E4FF0030C0CFA0EFC24EA0C0CF9
:100AF00003FA0EF343EA0C030360012905D0112920
:100B000003D0022901D0122909D14368012494405D
:100B100023EA0403C1F3001191401943416010BD61
:100B2000C36852004FF0030C0CFA02FC23EA0C03DA
:100B300091401943C160704783684FF0010C0CFA73
:100B400002FC23EA0C039140194381607047C36A99
:100B500052004FF0030C0CFA02FC23EA0C03914004
:100B60001943C162704770B506460D46002400E087
:100B700001342A6832FA04F31DD00123A340134242
:100B8000F6D0224669693046FFF786FF224669683B
:100B90003046FFF7A1FF2246A9683046FFF7C0FFA5
:100BA0002246E9683046FFF7C7FF224629693046EA
:100BB000FFF7CDFFDCE770BD4369594041617047E5
:100BC00030B587B004460D466846FFF79BFE144BD0
:100BD0009C4209D003F5C0539C4205D003F58063C5
:100BE0009C4201D0029B00E0039B03EB830303EBD9
:100BF0008303AD00B3FBF5F30A49A1FB03025209DD
:100C0000642002FB10331B013233A1FB0313C3F337
:100C1000431343EA02139BB2238107B030BD00BFE8
:100C2000003801401F85EB5183899BB223F4805328
:100C3000194381817047038A9BB223F440531943BF
:100C40000182704783899BB223F4C0631943818179
:100C5000704783899BB223F00C031943818170474D
:100C6000838A9BB223F4407319438182704738B55D
:100C700005460C460968FFF7A3FFA1882846FFF741
:100C8000D3FFE1882846FFF7D6FF21892846FFF7E2
:100C9000D9FF61892846FFF7DCFFA1892846FFF7C5
:100CA000DFFF38BD83899BB243F4005383817047D3
:100CB000C1F3421301F01F0101228A40012B06D02B
:100CC000022B06D0143003681343036070470C30C6
:100CD000F9E71030F7E7C1F3080181807047808899
:100CE000C0F3080070470388194201D00120704703
:100CF00000207047C1F3421201F01F0C012303FAD8
:100D00000CF3012A0FD0022A11D0828A92B213402A
:100D1000090A012202FA01F1028892B20A4053B193
:100D20005AB900207047828992B21340F0E7028AD4
:100D300092B21340ECE70020704701207047090A87
:100D400001238B409BB2DB439BB2038070470000C2
:100D5000034A136823F0070303431360704700BF7F
:100D600000200240024A136843F0100313607047EA
:100D700000200240C378F3B1144BDB68DB43C3F3BC
:100D80000223C3F1040C0F21D940427802FA0CF27D
:100D900083780B40134302781B01DBB20C490A44F1
:100DA00082F80033037803F01F005B0901228240C0
:100DB00041F823207047037803F01F015B090122EB
:100DC0008A402033024941F82320704700ED00E0BB
:100DD00000E100E0074B1B681B6823B9064B4FF08E
:100DE000FF321A607047034B1B68DB681A68024BBE
:100DF0001A607047FC0200209402002010B50446DF
:100E0000006B01F02DFA204601F02AFA10BD2DE901
:100E1000F04780460D4617469946089EDDF824A007
:100E20000A9C9200A521206B01F0A6FA236B07F122
:100E30008042013A03EB820727F007078DB14FF09C
:100E4000000CBCF1070F09D815F80C3004EB0C02AC
:100E500082F8343013B10CF1010CF2E7002384F86E
:100E60003B30042E00D90426E662E663201D00F024
:100E700063FE04F1180000F05FFE2461C6F1050670
:100E8000A66164624A464146384601F04BF820604C
:100E9000BAF1000F01D0CAF80040BDE8F0872DE993
:100EA000F04385B006460F4614469846900001F080
:100EB00061F98146F8B14C2001F05CF90546B0B10A
:100EC0004C22002101F058FAC5F83090002303931A
:100ED00002950D9B01930C9B009343462246394695
:100EE0003046FFF794FF284605B0BDE8F08348463A
:100EF00001F0B6F9F7E70546F5E7000038B500243C
:100F000007E004EB840293000E48184400F009FE49
:100F10000134042CF5D90C4D284600F002FE0B4C90
:100F2000204600F0FEFD0A4800F0FBFD094800F0F5
:100F3000F8FD094800F0F5FD084B1D60084B1C60EA
:100F400038BD00BF28030020140300200003002048
:100F5000E4020020D0020020B8020020FC020020A1
:100F6000F802002010B5044601F004F82A4A13687C
:100F700001331360294B1B685BB1294B1B686BB9AC
:100F8000264B1B68DA6AE36A9A4207D8234B1C6037
:100F900004E0224B1C601368012B39D0214A1368EE
:100FA00001331360E36A01229A401F490868024333
:100FB0000A601E4A03EB830302EB83035B68A360B2
:100FC0009868E060211D41609960E36A03EB83014A
:100FD00002EB8100606152F82110013103EB8303C1
:100FE00042F8231000F0D6FF0D4B1B687BB10B4B72
:100FF0001B68DA6AE36A9A4209D24FF0E0234FF0A5
:101000008052C3F8042DBFF34F8FBFF36F8F10BD15
:10101000FFF774FFC2E700BFB40200208C0300207A
:10102000A802002098020020AC0200202803002023
:101030000F4B1B68D3B110B500F09CFF0D4BDB6864
:10104000DC68201D00F094FD0B4A1368013B13601F
:10105000074A1368013B136000F09CFF2046FFF72E
:10106000CDFE034B1B68002BE6D110BD704700BFBF
:10107000CC020020D0020020B402002008B5FFF707
:10108000D7FF074B1B68012BF9D94FF0E0234FF036
:101090008052C3F8042DBFF34F8FBFF36F8FEEE77D
:1010A000280300202DE9F04104460D46254B1E681B
:1010B000254B1F68254BD3F80080254B186804305A
:1010C00000F056FD48B9224B1B68DB6A01229A40AA
:1010D00020490B6823EA02030B60B4F1FF3F0DD0F7
:1010E00034441B4B1B685C60A6421DD9184B196821
:1010F0000431404600F023FDBDE8F081002DEFD023
:10110000154A5168124B1868816018688C68C46071
:101110001868043060601868043088601B685A6181
:10112000136801331360E7E7094B19680431384647
:1011300000F005FD094B1B68A342DDD9074B1C607D
:10114000DAE700BFB0020020FC020020F802002015
:101150008C030020AC020020B80200209402002082
:1011600010B582B0059C0194049C0094FFF797FE93
:1011700020B1FFF7F7FE012002B010BD4FF0FF30A5
:10118000FAE7000010B584B00023072B17DC0F4AE4
:10119000D25C03F11001694401F8082C7AB10133E3
:1011A000F3E70B4B03EB84030193002300938022AE
:1011B00002A90848FFF7D4FF28B1013401E0002458
:1011C0000120002CEDDD04B010BD00BF4C2D000847
:1011D000900200207D10000808B5FFF7D3FF01281A
:1011E00002D00E4B1B6808BD00F050FE0128F8D15C
:1011F0004FF0500383F31188BFF36F8FBFF34F8F0E
:10120000074B4FF0FF321A60064B01221A60064B63
:1012100000221A6000F028FFE3E700BFA42D0008B9
:1012200094020020A8020020B0020020024A1368A5
:1012300001331360704700BF8C020020014B186817
:10124000704700BFB0020020F8B54C4B1B68002B64
:1012500040F08D804A4B1C6801341C60ACB1494B96
:101260001B68A3421ED90020474B1B68DB6A03EBB7
:1012700083039A00454B9B58012B00D90120444B16
:101280001B68002B78D0012076E0424A1168424B5F
:10129000186810601960414A136801331360FFF742
:1012A00099FDDCE7002037E0364B4FF0FF321A6043
:1012B000DAE7344B1A60D7E7D968516042E0002181
:1012C0009962116801391160DA6A01219140344E46
:1012D0003768394331602D4902EB82024FEA820CB4
:1012E0008C44DCF804209A609668DE607560956036
:1012F000DA6A02EB820C4FEA8C056E185E614D597A
:1013000001354FEA8C0C41F80C50DA6A1E4B1B6811
:10131000DB6A9A4200D901201E4B1B681B68002B18
:10132000C2D01C4B1B68DB68DB685A689442C0D390
:101330005A699D68D968A9609D684D6051681D1DF6
:10134000A942B9D0002159611168013911609A6A26
:10135000002AB9D0DE69196AB160DE694E6056684C
:1013600003F118018E42AAD1196A5160A7E70D4A0C
:101370001368013313600020F8BD00BF8C02002009
:10138000B0020020940200208C03002028030020DB
:10139000A0020020FC020020F80200209C02002095
:1013A000AC020020A402002038B500F0E3FD464B5B
:1013B0001A68013A1A601B68002B7FD1434B1B68E7
:1013C0003BB900247BE0196A516015E0D96851608F
:1013D00021E000233E4A1268002A4AD03C4BDB68D9
:1013E000DB689A6AD869196A8160D8694860506870
:1013F00003F118018842E6D0002199621168013991
:1014000011605A699868D968816098684860516825
:10141000181D8142DAD0002159611168013911602B
:10142000DA6A012191402B4C2568294321602A4921
:1014300002EB820201EB820252689A609468DC60DF
:1014400060609060DA6A02EB820001EB80045C610C
:1014500051F82000013002EB820241F82200D96AE3
:101460001E4A1268D26A9142B4D91D4A0121116004
:10147000B0E70BB1FFF7AEFC1A4B1C6894B9184BE0
:101480001C68E4B1154B1B684FF0E0234FF080520D
:10149000C3F8042DBFF34F8FBFF36F8F01240EE00D
:1014A000013C07D0FFF7D0FE0028F9D00C4B0122F9
:1014B0001A60F5E70B4B00221A60E0E7002400F009
:1014C00069FD204638BD00BF8C020020B402002018
:1014D000E4020020AC020020280300208C0300203E
:1014E000A0020020A402002038B505460C46FFF7F4
:1014F0009DFE174B18682A68144482420BD9A242F9
:1015000002D82C60002410E0A04202D32C600024FA
:101510000BE02C6004E0A24201D8A04214D22C605F
:101520000021201AFFF7BEFD0124FFF73DFF48B957
:101530004FF0E0234FF08052C3F8042DBFF34F8FDC
:10154000BFF36F8F204638BD2C600024EDE700BF4D
:10155000B002002008B5264B1B681BB1254B0122A9
:101560001A6008BD234B00221A60234B1B681B6BBB
:101570001A68B2F1A53F03D15A68B2F1A53F27D04E
:101580001D4B196818683431FEF7D2FE1B4B1B68DF
:10159000B3FA83F3DBB2C3F11F03194803EB8301F2
:1015A0008A00024451684968516003EB830C4FEA9A
:1015B0008C0208320244914213D003EB83039A0059
:1015C0000F4B13445B68DA680B4B1A601B68C8E763
:1015D0009A68B2F1A53FD3D1DB68B3F1A53FCFD173
:1015E000D4E76246910002460A44D1685160E4E7BC
:1015F0008C020020A00200208C030020AC020020FE
:101600002803002010B50C46044B1968183100F06F
:1016100096FA01212046FFF745FD10BD8C030020FE
:1016200070B50346084659680B4C2568E961256882
:101630008E682E62256818357560256818358D60AE
:1016400021688B6219680131196011460AB14FF0A7
:10165000FF30FFF727FD70BD8C03002030B4C36856
:10166000DB689A6AD869196A8160D86948605168EC
:1016700003F11800814241D00021996211680139BB
:101680001160284A1268002A3ED15A699868D968C0
:101690008160986848605168181D814231D00021EE
:1016A0005961116801391160DA6A012191401E4CBB
:1016B0002568294321601D4902EB820201EB820269
:1016C00052689A609468DC6060609060DA6A02EB4D
:1016D000820001EB80045C6151F82000013002EBD4
:1016E000820241F82200DA6A114B1B68DB6A9A42D7
:1016F00016D901200F4B186030BC7047196A516031
:10170000BAE7D9685160CAE70B4A5168D9618C6859
:101710001C62606088609A62116801311160E2E7C2
:101720000020E9E78C020020AC0200202803002002
:101730008C030020A0020020E4020020034B1B6861
:101740000360034B1B684360704700BF9C0200208E
:10175000B0020020F8B504460D4600F00BFC134B18
:1017600019686368C81A2A68B2F1FF3F18D0104E92
:1017700036682768B74205D08B4203D800232B6018
:1017800001240EE0824203D800232B60012408E0EC
:101790005B1A13442B602046FFF7D0FF002400E0C3
:1017A000002400F0F7FB2046F8BD00BFB002002087
:1017B0009C020020014B01221A607047A002002009
:1017C00010B5044600F0D6FBA36B23B9012400F04A
:1017D000E1FB204610BD0024F9E70346026C6AB124
:1017E00010B50846D9681144D9609C68A14201D35C
:1017F0001968D960D96800F0F3FD10BD704738B59D
:10180000054600F0B7FB95F8454064B201E0013CA5
:1018100064B2002C0ADD6B6A43B105F12400FFF7C6
:101820001DFF0028F3D0FFF7C5FFF0E7FF2385F881
:10183000453000F0AFFB00F09DFB95F8444064B2EA
:1018400001E0013C64B2002C0ADD2B6943B105F1D3
:101850001000FFF703FF0028F3D0FFF7ABFFF0E71E
:10186000FF2385F8443000F095FB38BD002844D0B4
:1018700038B50D460446C36B002B40D0026C0021E6
:10188000A2FB032313B919B1002039E00121FAE7C3
:1018900000F070FB2368E26B216C01FB0230A0605A
:1018A0000020A0636360013A02FB0133E360FF2381
:1018B00084F8443084F84530B5B923691BB900F089
:1018C00069FB01201CE004F11000FFF7C7FE0028AF
:1018D000F5D04FF0E0234FF08052C3F8042DBFF352
:1018E0004F8FBFF36F8FEAE704F1100000F019F992
:1018F00004F1240000F015F9E1E700207047002012
:1019000038BD10B5034602980C4631B90060C36378
:1019100004640121FFF7AAFF10BD0260F7E7F0B5EC
:1019200083B0E0B10C46174605460023A4FB001225
:101930009AB9C3B904FB05F010F1490F15D8483026
:1019400000F018FC064658B100903B4600F14802F2
:1019500021462846FFF7D5FF02E00123E9E70026EC
:10196000304603B0F0BD0026FAE70026F8E7F0B5F0
:1019700085B004460F46019200263EE039462046D7
:10198000FFF72BFF013DA563236923B900F002FB9C
:10199000012005B0F0BD04F11000FFF75FFE002844
:1019A000F4D04FF0E0234FF08052C3F8042DBFF382
:1019B0004F8FBFF36F8FE9E700F0ECFA0020E8E704
:1019C00002A8FFF7BBFE012621E0002384F8443083
:1019D00029E0002384F845302BE02046FFF70FFF75
:1019E000FFF7E2FC09E02046FFF709FFFFF7DCFC08
:1019F0002046FFF7E5FE00283FD100F0BBFAA56BBB
:101A0000002DBBD1019B002BD6D0002ED8D000F0EA
:101A1000C1FAFFF70BFC00F0ADFA94F844305BB26A
:101A2000B3F1FF3FD1D094F845305BB2B3F1FF3F43
:101A3000CFD000F0AFFA01A902A8FFF78BFE002873
:101A4000D1D12046FFF7BCFE0028C6D0019904F191
:101A50002400FFF7D7FD2046FFF7D1FEFFF7A4FCD7
:101A60000028CAD14FF0E0234FF08052C3F8042D74
:101A7000BFF34F8FBFF36F8FBFE7002089E70000F0
:101A800021B110B40C4600210B4605E070470F4908
:101A900001EBC30114E00133032B10D80B4A02EB16
:101AA000C30252688242F2D00029F4D1074A52F8A8
:101AB0003320002AEFD1054901EBC301EBE709B15F
:101AC0000C6048605DF8044B704700BF9003002035
:101AD00070B504460D46164600F04CFA94F84430B2
:101AE0005BB2B3F1FF3F0DD094F845305BB2B3F178
:101AF000FF3F0BD000F04EFAA36B5BB12046FFF71F
:101B00007EFE70BD002384F84430EDE7002384F8A6
:101B10004530EFE73246294604F12400FFF780FD07
:101B2000ECE700F1080343604FF0FF328260C360CE
:101B3000036100230360704700230361704730B4E2
:101B40000D68B5F1FF3F11D000F108031C465B683A
:101B50001A68AA42FAD963684B6099608C60616028
:101B6000086103680133036030BC70470469F2E721
:101B70000369416882688A60416851605A6882429C
:101B800005D0002202611868013818607047826829
:101B90005A60F6E7064B1A6813682BB901230360F5
:101BA00023B9D368186870470023F8E7002070470E
:101BB000C003002008B54160006191420CD8D21AE0
:101BC00083699A4201D3012008BD011D094B1868A1
:101BD000FFF7B5FF0020F7E79A4201D2994206D2FB
:101BE000011D054B1868FFF7AAFF0020ECE7012054
:101BF000EAE700BFBC030020C003002070B5044624
:101C00000D46164604E0A3691D44236A2046984702
:101C1000A1692B46324629442046FFF7CBFF002816
:101C2000F1D170BD70B505460E460D4B1B68DB68E3
:101C3000DC68201DFFF79CFF94F8243013F0040F9C
:101C400007D123F0010384F82430236A2046984703
:101C500070BD324629462046FFF7D0FFF5E700BFAA
:101C6000C003002008B505E0DB684FF0FF311868BD
:101C7000FFF7D8FF054B1B681A68002AF4D1044A05
:101C8000106802490860136008BD00BFC00300204F
:101C9000BC03002038B50546FFF7D0FA0446074BD1
:101CA0001B68834205D800232B60044B1C60204630
:101CB00038BDFFF7D7FF01232B60F6E7B003002004
:101CC00070B582B006460C46FFF7B0FA01A8FFF7E0
:101CD000E1FF019B33BB0546E4B9B04213D2224673
:101CE000711B124B1868FFF7F3FEFFF75DFBD8B9C5
:101CF0004FF0E0234FF08052C3F8042DBFF34F8F15
:101D0000BFF36F8F10E0FFF74FFB29463046FFF718
:101D100089FF09E0064A126812680AB90124DEE761
:101D20001C46DCE7FFF740FB02B070BDB8030020A3
:101D3000BC03002030B585B00023019302930393C8
:101D4000002201A9334B1868FFF711FE00285FD06D
:101D5000019B002BF4DB039C636913B1201DFFF78B
:101D600007FF6846FFF796FF0546019B013B082BDE
:101D7000E6D8DFE803F0050529303F0505293000E6
:101D800094F8243043F0010384F82430029BA169C5
:101D9000024619442046FFF70DFF0028D0D094F8E2
:101DA000243013F0040F07D123F0010384F824300A
:101DB000236A20469847C3E7A3692A460299194433
:101DC0002046FFF71BFFF3E794F8243023F00103CC
:101DD00084F82430B4E794F8243043F0010384F805
:101DE00024300299A1610346024601442046FFF7D0
:101DF000E1FEA5E794F8243013F0020F04D023F09D
:101E0000010384F824309BE7204600F029FA97E785
:101E100005B030BDB803002000B583B001A8FFF7BE
:101E2000B9FE0199FFF74CFFFFF784FFF6E70000CA
:101E300038B500F09FF80F4B1B6813B100F0AAF8FB
:101E400038BD0D4D2846FFF76CFE0C4C2046FFF7C1
:101E500068FE0B4B1D600B4B1C6000220C210A20FE
:101E6000FFF75DFD034B18600028E7D00649FFF738
:101E700007FEE3E7B8030020D8030020C4030020D6
:101E8000C0030020BC030020542D000800B583B01F
:101E9000FFF7CEFF084B1B6863B1084B0193022389
:101EA00000930023802206490648FFF759F903B042
:101EB0005DF804FB0020FAE7B8030020B40300201B
:101EC0005C2D0008191E000882B0002301934FF01A
:101ED000500383F31188BFF36F8FBFF34F8F019BC4
:101EE000002BFCD002B0704708480068006880F3FF
:101EF00008884FF0000080F3148862B661B6BFF323
:101F00004F8FBFF36F8F00DF00BF000008ED00E0D0
:101F1000DFF80C00016841F47001016070470000B7
:101F200088ED00E04FF0807340F8043C21F001019F
:101F300040F8081C054B40F80C3C40F8202C6FF092
:101F4000020340F8243C4438704700BFC91E000813
:101F5000074B19680868B0E8F04F80F30988BFF3B1
:101F60006F8F4FF0000080F311887047AFF300804F
:101F70008C0300204FF0500383F31188BFF36F8F61
:101F8000BFF34F8F024A136801331360704700BFDD
:101F900004000020034A1368013B13600BB983F36C
:101FA00011887047040000200000000000000000BD
:101FB000EFF30980BFF36F8F154B1A681EF0100FF7
:101FC00008BF20ED108A20E9F04F10602DE90900CC
:101FD0004FF0500080F31188BFF34F8FBFF36F8F26
:101FE000FFF7B8FA4FF0000080F3118809BC1968B8
:101FF0000868B0E8F04F1EF0100F08BFB0EC108A70
:1020000080F30988BFF36F8F704700BFAFF3008084
:102010008C03002008B54FF0500383F31188BFF301
:102020006F8FBFF34F8FFFF70FF928B14FF0E02309
:102030004FF08052C3F8042D002383F3118808BDAC
:102040004FF0E022002313619361054B1B680549A3
:10205000A1FB03139B09013B5361072313617047E5
:1020600000000020D34D621038B54FF0E024D4F8C2
:10207000203D43F47F03C4F8203DD4F8203D43F0D5
:102080007F43C4F8203D0025C4F81C5DFFF7D8FF4E
:10209000084B1D60FFF73CFFD4F8343F43F040434A
:1020A000C4F8343FFFF720FFFFF754FAFFF70CFFA7
:1020B000284638BD04000020104A12F0070F1AD03D
:1020C000D11D21F00701C1F5C05313440A460C4845
:1020D0000260002141601344083B23F007030948D4
:1020E000036059601960991A51601360064B1960BA
:1020F000064B196070474FF4C053E8E7080400200E
:1021000000040020FC030020F4030020F80300205A
:10211000164B1A461B688342FBD3516802EB010C35
:10212000844509D0416800EB010C634509D0036088
:10213000904219D0106070474068014451601046C9
:10214000F0E710B40A4C2468A3420BD05B68194432
:10215000416013681B680360904200D010605DF816
:10216000044B70470460F7E7704700BF000400208D
:10217000FC03002070B5044670B110F1090F0AD8B5
:10218000083414F0070307D0C3F10802093BA34247
:1021900011D3144400E00024FFF748F82B4B1B68D0
:1021A0005BB1002C0CDB94B1294B1E68A64212D304
:1021B00028490B6815E00024EEE7FFF77DFFF0E704
:1021C000FFF7F2F80025FEF7B4F8284670BDFFF7D8
:1021D000EBF80025F7E7FFF7E7F80025F3E71946E6
:1021E00013465A68A24202D21A68002AF7D1174A47
:1021F00012689A4225D00D6808351A680A60586836
:10220000001B102805D91A1950605C600868185125
:102210000A605968761A0E4806600F4800688642C0
:1022200001D20D48066041F00041596000221A6059
:102230000A4A136801331360FFF7B6F8002DC4D1C2
:10224000C1E7FFF7B1F80025BDE700BFFC030020A0
:10225000F803002000040020F4030020F003002015
:1022600010B338B50446A0F1080550F8043C002B23
:1022700000DB38BD50F8082C002AFAD123F00043C7
:1022800040F8043CFEF7D2FF54F8041C074A1368D8
:102290000B4413602846FFF73BFF054A13680133E0
:1022A0001360FFF781F8E4E7704700BFF8030020F0
:1022B000EC030020002103E00B4B5B58435004313A
:1022C0000A480B4B42189A42F6D30A4A02E000230E
:1022D00042F8043B084B9A42F9D3FEF75FFA00F04C
:1022E00059F8FEF705F87047EC2D000800000020B3
:1022F0005800002058000020501D0020FEE730B597
:102300001446002C9BB005461A4605DA8B23036061
:102310004FF0FF301BB030BD4FF40273ADF80C30FE
:102320004FF00003199314BF04F1FF3323460293C7
:1023300005934FF6FF7300910491ADF80E30694696
:102340001E9B00F0B3F9431CBCBF8B232B60002CF9
:10235000E0D0009B00221A70DCE7000007B5009374
:1023600013460A46014603480068FFF7C8FF03B05A
:102370005DF804FB0800002002440346934200D1AC
:10238000704703F8011BF9E7014B1868704700BF5D
:102390000800002070B50D4B0D4D5B1B9C100026F6
:1023A000A64209D100F06CFC0A4D0B4B5B1B9C1044
:1023B0000026A64205D170BD55F8043B984701366A
:1023C000EEE755F8043B98470136F2E7E42D0008A4
:1023D000E42D0008E42D0008E82D00087047704740
:1023E0000A44914200F1FF3300D1704710B511F853
:1023F000014B03F8014F9142F9D110BD38B50546A4
:10240000002941D051F8043C0C1F002BB8BFE41840
:1024100000F0E0F81D4A136833B963601460284681
:10242000BDE8384000F0DCB8A34208D92068211884
:102430008B4201BF19685B6809182160EDE71A46F5
:102440005B680BB1A342FAD911685018A0420BD1B6
:1024500020680144501883421160E0D118685B681D
:10246000536008441060DAE702D90C232B60D6E7EA
:10247000206821188B4204BF19685B68636004BF41
:10248000091821605460CAE738BD00BF4C1D002008
:1024900070B50F4E0C463168054611B900F0AAFB25
:1024A00030602146284600F0A5FB431C03D14FF0C5
:1024B000FF34204670BDC41C24F00304A042F8D0B1
:1024C000211A284600F096FB0130F2D1EFE700BF59
:1024D000481D00202DE9F843CD1C25F003050835E3
:1024E0000C2D38BF0C25002D064601DBA94204D96E
:1024F0000C2333600020BDE8F883DFF8D48000F0BF
:1025000069F8D8F800301C4644BB29463046FFF72E
:10251000BFFF431C044658D1D8F800402746002F7F
:1025200043D1002C4BD023683946304604EB0309D5
:1025300000F060FB814542D121686D1A2946304682
:10254000FFF7A6FF01303AD023682B442360D8F868
:1025500000305A6862BBC8F800700FE02268521B56
:1025600020D40B2A17D96119A342256018BF5960DE
:10257000636808BFC8F8001062514B60304600F035
:102580002FF804F10B00231D20F00700C21A1CBF16
:102590001B1AA350AFE76268A3420CBFC8F8002023
:1025A0005A60EBE723466468AEE73C467F68B6E7CF
:1025B0001A465B68A342FBD100235360DEE70C237D
:1025C0003360304600F00CF894E70560D6E700BFB2
:1025D0004C1D00200148FFF701BF00BF441D002033
:1025E0000148FFF7FCBE00BF441D00202DE9F04765
:1025F0008E681F46BE4282460C469046334653D8EC
:10260000B1F90C0010F4906F2BD06569236809694B
:1026100005EB4505A3EB010905EBD5757B1C6D109A
:102620004B44AB422A4684BF1D462A46430527D564
:1026300011465046FFF74EFF064658B321694A46F9
:10264000FFF7CEFEA38923F4906343F08003A381B8
:10265000266165614E44A5EB09052660A5603E46EE
:102660003B461F4620683A46414600F0A9FAA36857
:102670009B1BA36023683B4423600020BDE8F087D8
:10268000504600F0C7FA06460028E1D121695046BD
:10269000FFF7B4FE0C23CAF80030A38943F04003CF
:1026A000A3814FF0FF30E9E73E46DBE72DE9F04F2D
:1026B00098468B891B069DB007460D46144610D5DB
:1026C0000B6973B94021FFF705FF2860286130B915
:1026D0000C233B604FF0FF301DB0BDE8F08F40236E
:1026E0006B610023099320238DF82930CDF80C80ED
:1026F0003023DFF89C818DF82A304FF00109234602
:102700009A4613F8012B0AB1252AF9D1BAEB040B2A
:102710000BD05B46224629463846FFF767FF01305B
:1027200000F0A780099A5A4409929AF80030002BC9
:1027300000F09F8000234FF0FF32CDE905230AF11E
:10274000010A049307938DF853301A9354460522D7
:1027500014F8011B4E48FDF7E3FC049AD8B9D006E3
:1027600044BF20238DF85330110744BF2B238DF82D
:1027700053309AF800302A2B15D0079A544600207F
:102780004FF00A0C214611F8013B303B092B4BD985
:10279000B0B1079214E0A0EB080309FA03F3134366
:1027A0000493A246D2E7039B191D1B680391002BDB
:1027B000BBBF5B4242F0020207930793B8BF04928B
:1027C00023782E2B0AD163782A2B32D1039B1A1D32
:1027D0001B68039243EAE37302340593DFF8C0A059
:1027E000217803225046FDF79BFC38B1049BA0EBF7
:1027F0000A004022824013430134049314F8011B61
:1028000024488DF828100622FDF78AFC002836D0CF
:10281000214B1BBB039B073323F0070308330393B0
:10282000099B334409936AE70CFB02320C460120F2
:10283000A8E700230134059319464FF00A0C2046FF
:1028400010F8012B303A092A03D9002BC6D0059184
:10285000C4E70CFB012104460123F0E703AB00931E
:102860002A460E4B04A93846AFF30080421C0646A8
:10287000D6D1AB895B063FF52DAF09982CE703ABAA
:1028800000932A46054B04A9384600F079F8EDE795
:10289000A82D0008B22D000800000000ED2500085A
:1028A000AE2D00082DE9F047164698468A680B6958
:1028B000DDF820909342B8BF1346336091F843206F
:1028C00007460C460AB1013333602368990642BFBC
:1028D000336802333360256815F0060506D104F12C
:1028E000190AE36832689B1AAB4226DC94F843303D
:1028F0002268003B18BF012392062BD404F1430247
:1029000041463846C84701301ED02368226903F08B
:102910000603042B02BFE5683368ED1AA3680CBFF9
:1029200025EAE57500259342C4BF9B1AED180026E1
:102930001A34B5421AD1002008E00123524641461C
:102940003846C847013003D14FF0FF30BDE8F0876B
:102950000135C6E7E1185A1C302081F843002244B3
:1029600094F8451082F843100233C7E7012322464A
:1029700041463846C8470130E6D00136D9E7000065
:102980002DE9FF470F7E0C9E782F914680460C461E
:102990009A4601F1430207D8622F0AD8002F00F0AF
:1029A000D280582F00F0B78004F1420684F84270BC
:1029B0003AE0A7F16303152BF6D801A151F823F0F3
:1029C000192A00082D2A0008A9290008A9290008A9
:1029D000A9290008A92900082D2A0008A92900080A
:1029E000A9290008A9290008A92900082D2B0008F9
:1029F000572A0008E32A0008A9290008A929000885
:102A00004F2B0008A9290008572A0008A929000807
:102A1000A9290008EB2A000833681A1D1B683260D8
:102A200004F1420684F8423001239DE033682068B7
:102A3000191D3160060601D51D6803E04506FBD56A
:102A4000B3F90050002D03DA2D236D4284F8433092
:102A500059480A2310E021683368080653F8045BDC
:102A600002D4490648BFADB26F2F5348336059D1E5
:102A70000823002184F843106668A660002E05DB59
:102A800021682E4321F0040121604DD01646B5FB8C
:102A9000F3F103FB1157C75D06F8017D2F46BB42DA
:102AA0000D46F4D9082B0BD12368DF0708D523691D
:102AB00061689942DEBF302306F8013C06F1FF361B
:102AC000921B2261CDF800A04B4603AA2146404646
:102AD000FFF7E8FE01304CD14FF0FF3004B0BDE805
:102AE000F087236843F0200323603448782784F874
:102AF0004570236831681F0651F8045B02D45F06F5
:102B000048BFADB23160D90744BF43F02003236012
:102B10001DB11023ADE72848E9E7236823F020031F
:102B20002360F6E70A23A4E71646BBE73368256867
:102B30006169181D30602E061B6801D5196002E01E
:102B40006806FBD51980002323611646BAE733686F
:102B50001A1D32601E68626800213046FDF7E0FAF7
:102B600008B1801B606063682361002384F84330F0
:102B7000A8E72369324649464046D0470130ABD0EA
:102B800023689B0713D4E068039B9842B8BF18469C
:102B9000A4E70123324649464046D04701309BD046
:102BA0000135E36803995B1AAB42F2DCEBE70025E1
:102BB00004F11906F5E700BFB92D0008CA2D000879
:102BC000884210B501EB020402D98442234607D89B
:102BD000431EA14207D011F8012B03F8012FF8E79B
:102BE0000244824200D110BD13F8011D02F8011DFC
:102BF000F7E7000038B5064D0023044608462B6071
:102C0000FDF7D8FC431C02D12B6803B1236038BD0B
:102C1000401D00202DE9F041074614460D4621B91C
:102C2000BDE8F0411146FFF755BC2AB9FFF7E6FBB6
:102C300025462846BDE8F08100F01AF88442064691
:102C400002D8B4EB500FF4D821463846FFF742FCC7
:102C5000804608B94546ECE7B4422246294628BFDB
:102C60003246FFF7BDFB29463846FFF7C7FBF1E7C1
:102C700051F8043C181F002BBCBF0B58C0187047FC
:102C8000F8B500BFF8BC08BC9E467047F8B500BF59
:082C9000F8BC08BC9E46704729
:102C98004C454420546F67676C65202D2054696348
:102CA8006B3A202575206D730D0A00004C454420B1
:102CB8005461736B000000000D0A3D3D3D205553E3
:102CC8004152543120436F6D6D756E69636174694B
:102CD8006F6E2054657374203D3D3D0D0A00000061
:102CE80048656C6C6F2066726F6D204E33324734C6
:102CF8003330210D0A00000053797374656D204349
:102D08006C6F636B3A20257520487A0D0A00000025
:102D180043757272656E74205469636B3A20257529
:102D28002075730D0A0000003D3D3D205465737405
:102D380020436F6D706C657465203D3D3D0D0A0D37
:102D48000A00000049444C4500000000546D7251CF
:102D580000000000546D72205376630001000200E9
:102D68000400060008000A000C00100020004000C3
:102D780080000001000100010001000101020406B9
:102D8800080A0C102020202020202020000000000D
:102D980001020304010203040607080904000000F5
:102DA800232D302B2000686C4C006566674546472C
:102DB80000303132333435363738394142434445AF
:102DC800460030313233343536373839616263641E
:042DD800656600002C
:082DDC0044D3FF7F0100000059
:042DE40029020008B8
:042DE80001020008DC
:102DEC000020A107AAAAAAAA0C000020000000003B
:102DFC00081C0020701C0020D81C002000000000C3
:102E0C0000000000000000000000000000000000B6
:102E1C0000000000000000000000000000000000A6
:102E2C000000000000000000000000000000000096
:082E3C0000000000000000008E
:04000005080022B518
:00000001FF
