:020000040800F2
:100000000040002029360008CD120008CF12000859
:1000100000000000000000000000000000000000E0
:10002000000000000000000000000000D1120008E5
:10003000000000000000000079360008D31200081C
:1000400079360008793600087936000879360008D4
:1000500079360008793600087936000879360008C4
:10006000793600087936000879360008D912000878
:1000700079360008793600087936000879360008A4
:100080007936000879360008793600087936000894
:100090007936000879360008793600087936000884
:1000A0007936000879360008793600087936000874
:1000B00079360008E512000879360008793600081C
:1000C0007936000879360008793600087936000854
:1000D000E50D000879360008793600087936000801
:1000E0007936000879360008793600087936000834
:1000F0007936000879360008793600087936000824
:100100007936000879360008793600087936000813
:040110007936000834
:10014000844641EA000313F003036DD1403A41D3E2
:1001500051F8043B40F8043B51F8043B40F8043BA1
:1001600051F8043B40F8043B51F8043B40F8043B91
:1001700051F8043B40F8043B51F8043B40F8043B81
:1001800051F8043B40F8043B51F8043B40F8043B71
:1001900051F8043B40F8043B51F8043B40F8043B61
:1001A00051F8043B40F8043B51F8043B40F8043B51
:1001B00051F8043B40F8043B51F8043B40F8043B41
:1001C00051F8043B40F8043B51F8043B40F8043B31
:1001D000403ABDD2303211D351F8043B40F8043BD1
:1001E00051F8043B40F8043B51F8043B40F8043B11
:1001F00051F8043B40F8043B103AEDD20C3205D3E1
:1002000051F8043B40F8043B043AF9D2043208D0D8
:10021000D2071CBF11F8013B00F8013B01D30B884A
:1002200003806046704700BF082A13D38B078DD028
:1002300010F003038AD0C3F10403D21ADB071CBFFA
:1002400011F8013B00F8013B80D331F8023B20F864
:10025000023B7BE7043AD9D3013A11F8013B00F89D
:10026000013BF9D20B7803704B7843708B78837025
:100270006046704700000000000000000000000021
:1002800030B490F800F020F007016FF0000C10F08F
:10029000070491F820F040F048804FF000046FF020
:1002A0000700D1E9002391F840F000F1080082FA3C
:1002B0004CF2A4FA8CF283FA4CF3A2FA8CF34BBB07
:1002C000D1E9022382FA4CF200F10800A4FA8CF280
:1002D00083FA4CF3A2FA8CF3E3B9D1E9042382FA4E
:1002E0004CF200F10800A4FA8CF283FA4CF3A2FA63
:1002F0008CF37BB9D1E9062301F1200182FA4CF29B
:1003000000F10800A4FA8CF283FA4CF3A2FA8CF301
:10031000002BC6D0002A04BF04301A4612BAB2FA23
:1003200082F200EBD20030BC7047D1E9002304F028
:100330000305C4F100004FEAC50514F0040F91F85D
:1003400040F00CFA05F562EA05021CBF63EA0503FA
:1003500062464FF00004AAE7000000000000000021
:1003600001F0FF01102A2BDB10F0070F08D010F866
:10037000013B013A8B422DD010F0070F42B3F6D16A
:10038000F0B441EA012141EA014122F007047FF083
:1003900000070023F0E80256083C85EA010586EADA
:1003A000010685FA47F5A3FA87F586FA47F6A5FA16
:1003B00087F68EB9EED1F0BC01F0FF0102F0070222
:1003C00032B110F8013B013A83EA010313B1F8D1CD
:1003D0000020704701387047002D06BF35460338AE
:1003E000073815F0010F07D1013015F4807F02BFE7
:1003F000013015F4C03F0130F0BC0138704700BF38
:1004000081F0004102E000BF83F0004330B54FEAC5
:1004100041044FEA430594EA050F08BF90EA020F32
:100420001FBF54EA000C55EA020C7FEA645C7FEAC5
:10043000655C00F0E2804FEA5454D4EB5555B8BFE8
:100440006D420CDD2C4480EA020281EA030382EA59
:10045000000083EA010180EA020281EA0303362DEB
:1004600088BF30BD11F0004F4FEA01314FF4801CBE
:100470004CEA113102D0404261EB410113F0004FD0
:100480004FEA03334CEA133302D0524263EB430387
:1004900094EA050F00F0A780A4F10104D5F1200E25
:1004A0000DDB02FA0EFC22FA05F2801841F1000180
:1004B00003FA0EF2801843FA05F359410EE0A5F154
:1004C00020050EF1200E012A03FA0EFC28BF4CF085
:1004D000020C43FA05F3C01851EBE37101F000453B
:1004E00007D54FF0000EDCF1000C7EEB00006EEB48
:1004F0000101B1F5801F1BD3B1F5001F0CD34908D2
:100500005FEA30004FEA3C0C04F101044FEA445228
:1005100012F5800F80F09A80BCF1004F08BF5FEAAF
:10052000500C50F1000041EB045141EA050130BD8F
:100530005FEA4C0C404141EB0101013C28BFB1F5A1
:10054000801FE9D291F0000F04BF01460020B1FAEC
:1005500081F308BF2033A3F10B03B3F120020CDABF
:100560000C3208DD02F1140CC2F10C0201FA0CF09D
:1005700021FA02F10CE002F11402D8BFC2F1200C02
:1005800001FA02F120FA0CFCDCBF41EA0C019040B8
:10059000E41AA2BF01EB0451294330BD6FEA040401
:1005A0001F3C1CDA0C340EDC04F11404C4F12002EC
:1005B00020FA04F001FA02F340EA030021FA04F3FE
:1005C00045EA030130BDC4F10C04C4F1200220FA55
:1005D00002F001FA04F340EA0300294630BD21FA93
:1005E00004F0294630BD94F0000F83F4801306BF59
:1005F00081F480110134013D4EE77FEA645C18BF4D
:100600007FEA655C29D094EA050F08BF90EA020FE3
:1006100005D054EA000C04BF1946104630BD91EADB
:10062000030F1EBF0021002030BD5FEA545C05D1DE
:100630004000494128BF41F0004130BD14F580041D
:100640003CBF01F5801130BD01F0004545F0FE4191
:1006500041F470014FF0000030BD7FEA645C1ABFC6
:10066000194610467FEA655C1CBF0B46024650EAFD
:10067000013406BF52EA033591EA030F41F4002129
:1006800030BD00BF90F0000F04BF0021704730B5AF
:100690004FF4806404F132044FF000054FF0000184
:1006A00050E700BF90F0000F04BF0021704730B545
:1006B0004FF4806404F1320410F0004548BF40421A
:1006C0004FF000013EE700BF42004FEAE2014FEA6F
:1006D00031014FEA02701FBF12F07F4393F07F4F4A
:1006E00081F06051704732F07F4208BF704793F04D
:1006F0007F4F04BF41F40021704730B54FF4607460
:1007000001F0004521F000411CE700BF50EA010262
:1007100008BF704730B54FF000050AE050EA01020B
:1007200008BF704730B511F0004502D5404261EB7B
:1007300041014FF4806404F132045FEA915C3FF4BC
:10074000D8AE4FF003025FEADC0C18BF03325FEA59
:10075000DC0C18BF033202EBDC02C2F1200300FA0A
:1007600003FC20FA02F001FA03FE40EA0E0021FA2F
:1007700002F11444BDE600BF70B54FF0FF0C4CF41D
:10078000E06C1CEA11541DBF1CEA135594EA0C0FCF
:1007900095EA0C0F00F0DEF82C4481EA030621EA0A
:1007A0004C5123EA4C5350EA013518BF52EA033545
:1007B00041F4801143F4801338D0A0FB02CE4FF0F7
:1007C0000005E1FB02E506F00042E0FB03E54FF027
:1007D0000006E1FB03569CF0000F18BF4EF0010E1F
:1007E000A4F1FF04B6F5007F64F5407404D25FEA1B
:1007F0004E0E6D4146EB060642EAC62141EA5551CE
:100800004FEAC52040EA5E504FEACE2EB4F1FD0C0F
:1008100088BFBCF5E06F1ED8BEF1004F08BF5FEA8D
:10082000500E50F1000041EB045170BD06F000463F
:1008300046EA010140EA020081EA0301B4EB5C04EC
:10084000C2BFD4EB0C0541EA045170BD41F48011E4
:100850004FF0000E013C00F3AB8014F1360FDEBF09
:10086000002001F0004170BDC4F10004203C35DAE5
:100870000C341BDC04F11404C4F1200500FA05F368
:1008800020FA04F001FA05F240EA020001F0004209
:1008900021F0004110EBD37021FA04F642EB06017F
:1008A0005EEA430E08BF20EAD37070BDC4F10C04A9
:1008B000C4F1200500FA04F320FA05F001FA04F26D
:1008C00040EA020001F0004110EBD37041F1000159
:1008D0005EEA430E08BF20EAD37070BDC4F1200564
:1008E00000FA05F24EEA020E20FA04F301FA05F2CC
:1008F00043EA020321FA04F001F0004121FA04F274
:1009000020EA020000EBD3705EEA430E08BF20EA43
:10091000D37070BD94F0000F0FD101F0004640007D
:1009200041EB010111F4801F08BF013CF7D041EAFF
:10093000060195F0000F18BF704703F00046520003
:1009400043EB030313F4801F08BF013DF7D043EAD4
:100950000603704794EA0C0F0CEA135518BF95EA8A
:100960000C0F0CD050EA410618BF52EA4306D1D111
:1009700081EA030101F000414FF0000070BD50EA30
:10098000410606BF1046194652EA430619D094EABA
:100990000C0F02D150EA013613D195EA0C0F05D1A4
:1009A00052EA03361CBF104619460AD181EA0301F8
:1009B00001F0004141F0FE4141F470014FF00000B0
:1009C00070BD41F0FE4141F4780170BD70B54FF04B
:1009D000FF0C4CF4E06C1CEA11541DBF1CEA1355CB
:1009E00094EA0C0F95EA0C0F00F0A7F8A4EB0504AD
:1009F00081EA030E52EA03354FEA013100F08880A4
:100A00004FEA03334FF0805545EA131343EA12636C
:100A10004FEA022245EA111545EA10654FEA002621
:100A20000EF000419D4208BF964244F1FD0404F5DA
:100A3000407402D25B084FEA3202B61A65EB030536
:100A40005B084FEA32024FF480104FF4002CB6EBF3
:100A5000020E75EB030E22BFB61A754640EA0C0073
:100A60005B084FEA3202B6EB020E75EB030E22BFB3
:100A7000B61A754640EA5C005B084FEA3202B6EBF4
:100A8000020E75EB030E22BFB61A754640EA9C00B3
:100A90005B084FEA3202B6EB020E75EB030E22BF83
:100AA000B61A754640EADC0055EA060E18D04FEA41
:100AB000051545EA16754FEA06164FEAC30343EAE1
:100AC00052734FEAC2025FEA1C1CC0D111F4801FAE
:100AD0000BD141EA00014FF000004FF0004CB6E7A7
:100AE00011F4801F04BF01430020B4F1FD0C88BF46
:100AF000BCF5E06F3FF6AFAEB5EB030C04BFB6EB51
:100B0000020C5FEA500C50F1000041EB045170BD43
:100B10000EF0004E4EEA113114EB5C04C2BFD4EB70
:100B20000C0541EA045170BD41F480114FF0000EF4
:100B3000013C90E645EA060E8DE60CEA135594EA70
:100B40000C0F08BF95EA0C0F3FF43BAF94EA0C0F73
:100B50000AD150EA01347FF434AF95EA0C0F7FF4E8
:100B600025AF104619462CE795EA0C0F06D152EA3C
:100B700003353FF4FDAE1046194622E750EA410620
:100B800018BF52EA43067FF4C5AE50EA41047FF431
:100B90000DAF52EA43057FF4EBAE12E74FF0FF3C96
:100BA00006E000BF4FF0010C02E000BF4FF0010C67
:100BB0004DF804CD4FEA410C7FEA6C5C4FEA430CE0
:100BC00018BF7FEA6C5C1BD001B050EA410C0CBF2F
:100BD00052EA430C91EA030F02BF90EA020F002091
:100BE000704710F1000F91EA030F58BF994208BFF8
:100BF00090422CBFD8176FEAE37040F001007047B5
:100C00004FEA410C7FEA6C5C02D150EA013C07D10B
:100C10004FEA430C7FEA6C5CD6D152EA033CD3D056
:100C20005DF8040B704700BF8446104662468C4650
:100C30001946634600E000BF01B5FFF7B7FF002883
:100C400048BF10F1000F01BD4DF808EDFFF7F4FFAC
:100C50000CBF012000205DF808FB00BF4DF808ED37
:100C6000FFF7EAFF34BF012000205DF808FB00BF5A
:100C70004DF808EDFFF7E0FF94BF012000205DF87C
:100C800008FB00BF4DF808EDFFF7CEFF94BF012031
:100C900000205DF808FB00BF4DF808EDFFF7C4FF2A
:100CA00034BF012000205DF808FB00BF4FEA410C73
:100CB0007FEA6C5C02D150EA013C0AD14FEA430C56
:100CC0007FEA6C5C02D152EA033C02D14FF0000093
:100CD00070474FF0010070474FEA410212F50012D1
:100CE00015D211D56FF47873B3EB625212D94FEA73
:100CF000C12343F0004343EA505311F0004F23FA5D
:100D000002F018BF404270474FF00000704750EAB1
:100D1000013005D111F0004008BF6FF0004070476E
:100D20004FF00000704700BF0348044B834202D0DD
:100D3000034B03B118477047EC060020EC06002077
:100D4000000000000548064B1B1AD90F01EBA30158
:100D5000491002D0034B03B118477047EC0600203E
:100D6000EC0600200000000010B5064C237843B9C3
:100D7000FFF7DAFF044B13B10448AFF300800123FF
:100D8000237010BDEC06002000000000D0A4000875
:100D900008B5054B1BB105490548AFF30080BDE818
:100DA0000840FFF7CFBF00BF00000000F0060020A2
:100DB000D0A4000830B5044687B010460D4602F0B6
:100DC0003DFB684602F0D5F90123019369460223F1
:100DD00020460095049302F0ABF907B030BD02F055
:100DE000D3B9000010B5104840F2255102F0F7FBCE
:100DF000A8B10E4C0C4840F2255102F00EFC23889D
:100E00000948FF2B0CD802F0E6FB094A0949138870
:100E1000C8540133DBB2138023880133238010BD13
:100E2000BDE8104002F0D7BB0038014008070020A1
:100E30000A0700200C07002013B5144C012002F013
:100E4000FDFA204602F038F80D21204602F01AF98A
:100E5000204602F001F920460E2102F006F90C4B63
:100E60000D229A6040F201129A800A210022204647
:100E7000C3E903225A611C6002F0F3F8054B0193A9
:100E800001A801F0EFFF02B010BD00BF0800024052
:100E90000C0800200B01000170B54379082B0446B3
:100EA00027D8144A52F82360134A52F8235076B1D7
:100EB0001248314602F0DEF848B11048314602F0DF
:100EC000DFF80123237123690BB12046984785B1D0
:100ED0000A48294602F0CEF858B10848294602F0DF
:100EE000CFF80323237163691BB12046BDE870402E
:100EF000184770BD14A50008F0A4000800000240C7
:100F00000C4B4FF47A721B68B3FBF2F3013BB3F165
:100F1000807F0AD24FF0E022F0215361064B83F824
:100F200023100023936107231361034B002283F8EE
:100F3000232070470000002000ED00E0024A136803
:100F400001331360704700BF24080020014B18686C
:100F5000704700BF24080020044A116813685B1A18
:100F6000834200D3704700BFF8E700BF2408002089
:100F70002DE9F04105460E4614469846FFF7E6FF78
:100F800007462868314602F0E6F9A04202D1002067
:100F9000BDE8F081FFF7DAFFC01B4045F1D3032025
:100FA000F6E7000030B54FF480708BB002F046FADF
:100FB000012002F04BFA4FF4001002F04FFA04A89F
:100FC00002F0D7F84FF440721223CDE90423012533
:100FD0000023154C1548CDE9065302210523CDE920
:100FE000081304A902F0A4F8204602F0CFF86846DE
:100FF00002F066F90E4B00934FF48063ADF80A30AF
:1010000069464FF480432046ADF80C3002F034F9C5
:10101000204602F063F9074B074A1C601D719A6075
:10102000D3600BB030BD00BF005400400038024018
:1010300040420F00280800200C08002010B504468C
:1010400040B1006830B102F04FF9206802F09EF81C
:101050000023237110BD00002DE9F7430A9F884645
:1010600015461E46044600285AD0002A58D0002BA8
:1010700056D090F80490B9F1010F53D112230371A7
:1010800041823B4600224FF40031FFF771FF0028F8
:1010900040D1206802F049F94A4623493B462046A0
:1010A000FFF766FF0246002834D120685FFA88F116
:1010B00002F049F91D493B464A462046FFF758FFD2
:1010C00040BB2268938A9BB20193138B9BB201931E
:1010D000019B2E443B46164901222046FFF748FF5C
:1010E0002368B8B915F8011B184602F02AF9B54271
:1010F000F0D110493B4601222046FFF739FF054653
:1011000040B9206802F017F901232371284603B083
:10111000BDE8F0832068032502F00DF92571F5E79D
:101120000125F3E70225F1E701000010020000109D
:1011300080000010040000102DE9F0410D468CB035
:1011400017461E460446002878D08368002B75D0C9
:10115000002A73D0002E71D090F80480B8F1010FEE
:101160006ED1122303716182E26064230682002241
:101170004FF40031FFF7FCFE0346206843B1032320
:10118000237102F0D8F8032528460CB0BDE8F081A1
:1011900002F0CBF842462B4964232046FFF7E8FED5
:1011A00002462068002AEAD1E9B202F0CCF86423B2
:1011B000254942462046FFF7DBFE2368054618B165
:1011C000032222711846DCE79A8A92B200921B8BA6
:1011D0009BB20093009BA368186801F03DFF01A833
:1011E00001F028FF236805951033CDE9013710235E
:1011F000CDE903368023CDE906354FF40053CDE920
:101200000A35A36801A91868CDE9085501F0F0FE78
:10121000A36802221A710D4A1868DC60C3E904252C
:101220000A2101F01EFFA368186801F010FF206872
:1012300002F06EF8206802F05EF8A5E70125A3E74A
:101240000225A1E701000010020000105112000861
:1012500038B5C4680546BCB1206802F052F8206871
:1012600002F05CF8286801F0F7FE642307490122C8
:101270002046FFF77DFE206802F05DF801232B7108
:101280002046237101F00AFA38BD00BF04000010A7
:1012900008B5FFF735FE0C4880220221FFF78AFDD2
:1012A000802209480C21FFF785FD07480E21FFF732
:1012B00096FDFFF7C1FDFFF775FE00F019F800F08D
:1012C000AFFC00F03FFDFCE7003402407047FEE752
:1012D0007047FFF733BE00000148FFF7DDBD00BFD8
:1012E0000C080020014800F050B800BF3C08002066
:1012F00070B5174B174D1C68174BB4FBF3F486B051
:10130000042002F0ABF802A802F0E9F8013C40F238
:10131000E733002602A928460393ADF80840ADF84C
:101320000A6002F0F7F83146284602F0E4F801219D
:10133000284602F04DF9094B019301A801F092FDF6
:10134000074BBDF80C209A60C3E9005406B070BD8D
:10135000000000200008004040420F001D01010174
:101360003C08002010B5044668B1006858B101215E
:1013700002F02EF92068012102F01AF9206802F02B
:10138000BCF8002010BD0120FCE710B50121044687
:10139000006802F012F90128014605D1206802F028
:1013A00017F9204601F06CF910BD90F82E3070B599
:1013B00005460C460BB9012070BD427C0368002A2B
:1013C0003BD1212198470028F6D12B6895F835109C
:1013D000284698470028EFD12B6895F83610284604
:1013E00098470028E8D12B682221284698470028F2
:1013F000E2D12B682146284698470028DCD12B688B
:101400002146284698470028D6D12A7E95F83330C1
:10141000298C04FB02339942CDD92A8F6E68D018EB
:1014200081423CBFC91A8AB2E96928461944B047CB
:10143000B8B9013485F83240BEE75039C9B298478F
:101440000028B9D195F835102B6801F00F01284616
:1014500098470028B0D195F835102B68090910314C
:10146000CFE7002385F82E30012385F82730A3E746
:10147000FFF772BD38B50446FFF768FD05463CB17D
:10148000E3682BB11B79012B0CD1002384F83B308E
:1014900038BDE3681B79012BF7D0FFF757FD401BE0
:1014A0006328F2D894F83B30002BF2D1F0E700002B
:1014B00037B50D46044680B1C36873B1FFF7DAFF54
:1014C000074A00231370642355700093217CE06861
:1014D0000223FFF7C1FD03B030BD0120FBE700BFD1
:1014E000C908002070B50E461546044608B901200B
:1014F00070BDC368002BFAD00029F8D0FFF7BAFFFF
:101500001248802D4FF0400328BF802500F8013B92
:101510002A463146FEF714FEE0688368002BE6D0C9
:101520001B79002BE3D00A4B5B69DB07DFD5012376
:1015300084F83B30EB18054A217C9BB2FFF7FCFD99
:101540000028D5D0002384F83B30D1E7480800209C
:101550000010024010B5044698B1C06988B1228CD1
:10156000002102F00BFA237E84F822300023627EF1
:1015700084F8233084F825304FF4807384F82420D5
:10158000E38410BD034628B190F82E0010B993F8FB
:101590003B0070477047F0B530B3C76927B3057E8D
:1015A0008D4221D9447E94421ED9D40804FB0515EE
:1015B000048CAC4218D902F0070C01267C5D06FAB7
:1015C0000CF693B144EA0603DBB27B5590F8263063
:1015D00073B9012380F8221080F8231080F82420AA
:1015E00080F8252080F82630F0BD24EA0603ECE7D9
:1015F00090F822308B4290F8233088BF80F8221078
:101600008B4290F8243038BF80F82310934290F832
:10161000253088BF80F82420934238BF80F82520E9
:10162000E2E700002DE9F84F88469DF828A0914692
:1016300018B3203BDBB25E2B1FD8114EBAFA8AF7E3
:1016400006227F0902FB0366002408EB040116F85A
:1016500001BB0025C9B24BFA05F3DB0709EB050214
:101660004CBF53463B46D2B20135FFF794FF082DDD
:10167000F1D10134E4B2062CE7D1BDE8F88F00BF08
:1016800038A5000840B190F83A202AB1036809B1A2
:10169000AF211847AE21FCE77047034640B1C2684E
:1016A00032B11279012A4FF0000002D183F83B00D9
:1016B0000120704770B504460E46FFF747FC05460B
:1016C00094F82E302BB92046FFF7E7FF60B10020D9
:1016D00005E0FFF73BFC401BB04201D3032070BD87
:1016E0000120FFF739FCEBE7FFF730FC401BB0426D
:1016F000F4D20120FFF730FCE5E72DE9F8439046EE
:101700009DF820609DF824701D460446002868D08E
:1017100090F83A30002B64D0C369002B61D090F868
:101720002E3013B10220BDE8F88390F83B30002B37
:101730003ED1A37E994240D2984524BF03F1FF33A6
:101740005FFA83F8237E84F82F70884538BF884677
:101750009D4224BF03F1FF35EDB29E4224BF03F149
:10176000FF33DEB2637D84F83350AE424FF001099F
:1017700038BF2E46EA18A9EB0505334484F83460D7
:101780002E4484F82E9084F8301084F8318084F848
:10179000321084F8352084F8363026872046FFF74B
:1017A00004FE68B1002384F82E3084F82790BAE74D
:1017B000FFF773FF0028BCD1B4E7591EC9B2BBE7DD
:1017C000237E84F82230637E84F8230084F824305A
:1017D00084F8250084F82600002FA4D084F8270080
:1017E000A1E701209FE707B5A0B190F83A308BB18F
:1017F000037E7BB1827E6AB1013BDBB20121013AFB
:10180000009300230191D2B21946FFF776FF03B08F
:101810005DF804FB0120FAE710B5044670B190F8BA
:101820003A305BB1FFF7DFFF48B9A17E0A23594385
:1018300020466431BDE81040FFF73CBF012010BDD9
:101840002DE9F843089E1D46044618B9012738467D
:10185000BDE8F8830029F9D0002BF7D0002EF5D091
:10186000744B0360744B4360744B83602B68C0F807
:101870001130AB88A0F81530AB79C375C160027424
:10188000A9780176EA78C661D308837611FB03F361
:1018900003844FF480730027C3840126684B42768B
:1018A000C7764787C0F82E70C0F83270C0F836701F
:1018B00080F8221080F8237080F8242080F82570AA
:1018C000836280F82C606420FFF746FB2D78002DA2
:1018D00040F0B880AE212368A77D94F8199094F861
:1018E000178020469847A3680A2098472368D52187
:1018F000204698478021236820469847A3683046B1
:1019000098472368A8212046984709F1FF31C9B2BA
:10191000236820469847A368304698472368D32118
:10192000204698472946236820469847A3683046B2
:1019300098474021236820469847A3683046984737
:1019400023688D2120469847142123682046984714
:10195000A3683046984723682021204698472946A7
:10196000236820469847A36830469847A1212368FA
:1019700020469847A36830469847C82123682046E8
:101980009847A368304698472368DA21204698474D
:101990004146236820469847A36830469847236805
:1019A0008121204698473946236820469847A368F6
:1019B000304698472368D92120469847F12123686B
:1019C00020469847A368304698472368DB21204685
:1019D00098474021236820469847A3683046984797
:1019E000A421236820469847A36830469847A6213B
:1019F000236820469847A3683046984723682E21DD
:101A000020469847A3680746304698470125002F8F
:101A100040F0A1802046FFF79DFD84F83A50204613
:101A2000FFF7FAFEA3686420984701212046FFF7DC
:101A300029FE0CE7B1140008E51400087114000831
:101A400000000608012D7FF401AFAE21236894F851
:101A50001990A67D94F8178020469847A3680A201D
:101A600098472368D521204698478021236820463F
:101A70009847A368284698472368A8212046984796
:101A800009F1FF31C9B2236820469847A368284668
:101A900098472368D3212046984739462368204633
:101AA0009847A368284698474021236820469847CE
:101AB000A36828469847A121236820469847A36831
:101AC00028469847C821236820469847A368284697
:101AD00098472368DA2120469847414623682046E4
:101AE0009847A3682846984723688121204698474D
:101AF0003146236820469847A368284698472368BC
:101B0000D92120469847F121236820469847A368A9
:101B1000284698472368DB212046984740212368C0
:101B200020469847A36828469847A4212368204662
:101B30009847A36828469847A621236820469847D7
:101B4000A3682846984723682E2120469847A36813
:101B50000746284659E784F83A5063E773B50446C8
:101B6000002843D090F83A30002B3FD090F827302F
:101B700023B102B0BDE87040FFF735BE90F82600F3
:101B800090B3227E94F8223094F82310A07E94F82B
:101B90002560934224BF02F1FF33DBB2914224BFA0
:101BA00002F1FF32D1B294F82420994238BF19468D
:101BB000B0EBD20F0D464FEAD2019CBF00F1FF31CE
:101BC000C9B2B0EBD60F98BF00F1FF304FEAD60292
:101BD00098BFC2B28A424FF00000CDE9005038BF32
:101BE0000A462046FFF789FD02B070BD0120FBE7E1
:101BF00010B468B190F82E10002280F83B2039B163
:101C000090F8321090F831408C4204D280F82E20A7
:101C10005DF8044B70475DF8044BFFF7C6BB00004E
:101C2000F0B5384B85B002AF18689A889B79BB71C4
:101C3000354B02905B69ADF80C20D90701D4FFF752
:101C4000FBF8324D2B7943B1AA6832B1127922B137
:101C5000032B04D12846FFF7F1F9FFF7A3F92C79FC
:101C60002B4E012C4AD1AB68002B47D01B79002B9F
:101C700044D0284B2549009378223B462648FFF75D
:101C8000DFFD21462448FFF7FDFC80234022CDE9FB
:101C9000003200231A462049204800F02DFD204B39
:101CA00020485C710A221A7032225A706C229A7093
:101CB00000250822DA709C711D7102233822294602
:101CC0000093194B00F0CDFF184B34701D70FFF7D7
:101CD0003DF9174C174B18602046FFF743FB164B96
:101CE0001D60164B1A6823684FF47A719B8C4A4327
:101CF00012FA83F3124A136005B0F0BD002333706B
:101D0000FAE700BFE8A400080010024028080020FD
:101D1000D8080020480A00200C0A0020000A0020F1
:101D2000F8080020E808002072A70008E408002056
:101D30003C080020E0080020CC080020D408002047
:101D4000D00800202DE9F0478AB0FFF7FFF8AD4B2F
:101D50001B78054623B90AB0BDE8F047FFF760BF1E
:101D6000A94C236840F6B732C31A934240F2EA8086
:101D7000A648A74E00F043FFA64800F040FFA64843
:101D800000F03DFFA54800F03AFFA54800F037FFFE
:101D9000A44800F034FFA44800F031FFA34800F04D
:101DA0002EFF33780A220133B3FBF2F102FB113329
:101DB00033708BB99E4A9F4B12681B689E49928C68
:101DC0004FF47A70434313FA82F20B680A60D31A15
:101DD000B3FBF0F3994803609948FFF7BBFB3378F6
:101DE000013B062B00F2AD80DFE813F0070029006D
:101DF0002B0069009500A600E400924E3268DFEDEA
:101E0000920A9FED920A814840F6B83100F09AFE9E
:101E10003268DFED8F0A9FED8D0A7E4840F6B831BB
:101E200000F090FE794A794840F201139383794A91
:101E3000938300F0DCFE774800F0D9FE81E0854E08
:101E4000DCE7804EDFED840A3268754840F6B83131
:101E5000B2EE040A00F076FE3268DFED800A7148C7
:101E600040F6B831B2EE040A00F06CFE3268DFEDE5
:101E70007C0A6D4840F6B831B3EE040A00F062FE09
:101E8000DFED760A3268694840F6B831B2EE040AEE
:101E900000F058FE624A624840F201139383614A9F
:101EA0009383614A9383614A938300F0A0FE5D4867
:101EB00000F09DFE5C4800F09AFE5C48BCE7DFED58
:101EC000690A644E51483268B0EE600A40F6B83193
:101ED00000F038FEDFED640A32684E48B0EE600A6A
:101EE00040F6B83100F02EFE564B4B481A6840F6CB
:101EF000B831F3EE0E0AB1EE040A00F023FE40F210
:101F00000113454A4148938300F071FE414800F0B7
:101F10006EFE414890E74B4B40481A68DFED500A8F
:101F20009FED4A0A40F6B83100F00CFE3B4A40F201
:101F30000113938310467FE74C4B80225A81012284
:101F40005A7325604A4F3C682C1B312C40F260814B
:101F500021462E4800F00AFE21462E4800F006FEDB
:101F600021462D4800F002FE21462C4800F0FEFDDF
:101F700021462B4800F0FAFD21462A4800F0F6FDE4
:101F80002146294800F0F2FD2146284800F0EEFDE8
:101F90001F4B1B780124092B00F20781DFE813F0A7
:101FA00070008600C5003B018501DA012E023E0269
:101FB0007F022E03274BDFED2F0A1A68134840F6E5
:101FC000B831B2EE040A00F0BDFD2B4BDFED290A5B
:101FD0001A68104840F6B831B2EE040A00F0B2FDBB
:101FE000264BDFED240A1A680B4840F6B831B2EEF2
:101FF000040A00F0A7FD054A40F201139383054A45
:1020000093837EE7D8080020E0080020E009002044
:10201000E4080020C0090020A00900208009002059
:10202000600900204009002020090020000900204C
:102030003C080020D4080020D0080020CC08002054
:102040000C0A0020040000200000FE4200000000F6
:1020500000007C42100000200000A042000020424E
:102060000000C8420000804200000042E808002052
:10207000DC0800200000EC420C00002008000020DA
:1020800014221146C84BC948009400F02BFDC84BE0
:10209000C648009423220F2100F024FDC54B009474
:1020A00032220A21C14800F01DFD7EE0C24B00949F
:1020B000BE4805221E2100F015FDC04BD3ED027A6B
:1020C000BF4BFCEEE77A4FF00008CDED037AD3ED7D
:1020D000027A9DF80C60FCEEE77ACDED037A9DF86C
:1020E0000C4004EB480212F0300F4FEA480109D0CF
:1020F00041443144AD48012302F03F0201F07F0129
:1021000000F008FB08F10108B8F10A0FE9D10F2C23
:102110004BD903230120CDE90030621E711EA34874
:10212000D2B2C9B200F099FB3FE0A64B9F480094A1
:1021300005221E2100F0D6FCA04B9C48D3ED027A6C
:102140009F4BFCEEE77A2022CDED037AD3ED027AA5
:102150009DF80C80FCEEE77A4346CDED037A9DF8BE
:102160000C60102EB24638BF4FF0100AC6F13F0681
:10217000F6B24021CDE900A400F0E6FAC8F17F09EB
:10218000102E38BF10265FFA89F988484B46202266
:102190004021CDE9006400F0D7FACDE9006483481E
:1021A0004B465246414600F0CFFA874B1A68002A48
:1021B00040F03682854904A801F0B2FC04A8FEF77D
:1021C0005FF800EB400040000206C3B25ABFC3F103
:1021D0007E04E4B20024002608220233611ECDE909
:1021E0000026724803F0FE033246C9B200F035FB08
:1021F00001236E480093324604AB214600F072FC86
:102200007348FFF7BFF910B97148FFF7A7FC3D60AD
:102210000AB0BDE8F0876F4B6448009405221E2188
:1022200000F060FC6C4B6148D3ED027A6B4BFCEE26
:10223000E77A4FF0010ACDED037AD3ED027A684BCD
:102240009DF80C90FCEEE77A4946CDED037AD3ED8C
:10225000027A644B9DF80C40FCEEE77A0E2CCDED33
:10226000037AD3ED027A9DF80C80FCEEE77A98BFF2
:10227000102417EE903ADEB254FA83F3402BC4BF19
:10228000C4F14006F6B2CDE9006A43462246043E58
:1022900000F0AEFAF6B2A8F10403A21C09F10201A3
:1022A000CDF804A00096DBB239E74F4B3F480094CD
:1022B00005221E2100F016FC404B3C48D3ED027A6B
:1022C0003F4BFCEEE77A4FF00109CDED037AD3EDF9
:1022D000027A464B9DF80C80FCEEE77A4146CDED44
:1022E000037AD3ED027A9DF80C60CDF80090FCEEF5
:1022F000E77A0E2ECDED037A9DF80C4098BF10269C
:10230000A6F10F03A342DCBFA6F11004E4B2C6F1AC
:102310003F039C42C8BFDCB22346324600F0C1FAFC
:10232000052C7FF642AF631F2048CDF80090DBB24A
:102330003246414600F0B5FA0A2C7FF636AFA4F1DA
:102340000A031A48CDF80090DBB23246414600F04D
:1023500053FB2AE70522264B144800941E2100F067
:10236000C1FB244B244ED3ED027A1048FCEEE77AF1
:10237000314617EE903A337100F045FC3379009402
:102380000A21B3FBF1F201FB1233303302F13000CA
:102390008DF811302523ADF812308DF8100004AB04
:1023A000232237217EE600BF9DA70008000A0020F7
:1023B000A7A70008B2A70008C0A70008E0090020EE
:1023C000C0090020CBA70008CC0800204AA80008BC
:1023D0000C0A0020D5A70008600900204009002051
:1023E0002009002000090020DFA70008A009002024
:1023F000EBA7000880090020F80800208F4B9048C8
:10240000009405221E2100F06DFB8E498C4800F0DF
:102410003BFC8D4B00942322142143E68B4B8848D0
:1024200000940522192100F05DFB894B8448D3ED0F
:10243000027A884BFCEEE77A1922CDED037AD3EDD0
:10244000027A9DF80C600094FCEEE77A0323CDED50
:10245000037A9DF80C80314600F0CEFA784800945B
:1024600003232822414600F0C7FA7548009403234D
:102470003722314600F0C0FA774B7148009417229A
:10248000052100F02FFB754B6D4800942622052195
:1024900000F028FB724B00943522052102E6714EB4
:1024A000714B009466480522192100F01BFB33781C
:1024B0000133337000244FF002094FF4B4783378BD
:1024C00013FB0943B3FBF8F208FB1233592B99B203
:1024D0006EDC1BB2C1F15A010AB202EB82025A2130
:1024E00002EB820292FBF1F22032D2B2102A03EB0D
:1024F000830338BF102203EB83034FF0010A93FBE1
:10250000F1F3403300924E48CDF804A0DBB2202214
:1025100040212D3400F018F9B4F5B47FCFD14848EC
:10252000CDF800A005232022402100F065FA4FF0ED
:1025300000084FF00309317811FB0981B1FBF4F376
:1025400004FB131159298AB245DC09B2C2F15A02BF
:1025500013B203EB830292005A2392FBF3F2203270
:10256000D2B201EB8101102A4FEA810191FBF3F114
:102570004FF0010301F14001009338BF10223048B1
:102580000323C9B208F13C0800F08BF9B8F5B47F19
:10259000D1D13378354964225B00B3FBF2F002FB02
:1025A00010330B71264832234B7000F02CFBFCE5F6
:1025B000B32B04DCC1F1B4031BB25A398CE7B3F579
:1025C000877FC1F58772B4BFC1F1B401A1F5B471C1
:1025D00012B20BB281E7B32904DCC2F1B40109B233
:1025E0005A3AB5E7B1F5877FC2F58773B4BFC2F138
:1025F000B402A2F5B4721BB211B2AAE71C4B104888
:1026000000941422192100F06DFA1A4B0C48009422
:1026100023220F2100F066FA174B00943222FBE6CA
:102620004FF47A71B2FBF1F301FB132200921821EF
:10263000124A04A801F012F9C0E500BFF8A700088B
:10264000000A0020E808002004A8000811A80008DB
:10265000E0090020A00900201DA800081FA800080C
:102660002AA80008CB08002021A80008F8080020AC
:102670002CA8000835A8000840A8000853A80008A6
:102680000268044B9A4201BF034A13680133136086
:10269000704700BF00080040D4080020034B83426D
:1026A00002D10348FFF7A4BA704700BF28080020F2
:1026B0000C0A0020704720EE000A7047F0EE007A06
:1026C00077EEC07A27EE800A7047F6EE006AB4EE25
:1026D000E60AF1EE10FA70EE007A5CBFF1EE006AE5
:1026E00076EEE77AB0EE407A4EBF20EE270ABFEED4
:1026F000000AA7EE270A704758B151B143719DF8FF
:10270000003083719DF80430C371012301600271B0
:102710000372704770B40446A0B1006890B1257A86
:102720006DB12679B1420DD3A5793544A94209DAB4
:102730006579AA4206D3E4792C44A24202DA70BC3D
:10274000FEF729BF70BC70472DE9F04F87B01F46D8
:102750009DF844309DF840800293002845D00468DD
:10276000002C42D08F428CBF7D1ACD1B90458CBF70
:10277000A8EB0206A2EB0806ADB2B6B2904594BF34
:102780004FF0FF3401240FFA86F90194AC1B0FFAC5
:1027900085FA8F4294BF4FF0FF3B4FF0010B24B2FC
:1027A000C9F10009029B0390CDE90412FFF7B2FFC3
:1027B00004990398059A8F4201D1904515D01FFACC
:1027C00084FE4FEA4E0C0FFA8CFCCC45C1BFAEEB39
:1027D000060E59440FFA8EF4C9B2E245E2DD019BC0
:1027E0002C441A4424B2D2B2DCE707B0BDE8F08F23
:1027F0002DE9F74388469DF828509DF82C90174600
:10280000064638B304682CB35C1E0C44013DE4B2A8
:102810003D44EDB2CDE900292346FFF795FF23465D
:102820002A4641463046CDE90059FFF78DFF434621
:102830003A4641463046CDE90059FFF785FF234629
:102840003A4621463046CDE90A5903B0BDE8F04387
:10285000FFF77ABF03B0BDE8F0832DE9F047894662
:102860009DF824A014461D468046C0B10368B3B14C
:102870009DF820700D441744FFB2EDB2BC420ED05B
:102880004E4607E03146534622464046FFF742FF98
:102890000136F6B2AE42F5D10134E4B2EEE7BDE85E
:1028A000F0872DE9F04F87B089469DF840501646D5
:1028B0001F46044660B3036853B3C7EBC7335B00DE
:1028C0001BB20493BA183BB20193D2B22B46FFF766
:1028D00021FFF21B2B46D2B249462046FFF71AFFD2
:1028E00007EB09012B463246C9B22046FFF712FF1B
:1028F000A9EB07012B463246C9B22046FFF70AFF73
:102900000023C7F101080293DDE90123934202DBB2
:1029100007B0BDE8F08FB8F1000F0BDB019B013B66
:102920001BB20193049B02331AB218FA83F3049288
:102930000FFA83F8029B9DF8047001331FFA83FAA3
:102940001BB202935FFA8AF30393019B08EB4A08D8
:1029500059FA8AFA5FFA8AFA56FA83F2D2B22B4609
:10296000514620460592FFF7D5FE039B059AA9EB39
:10297000030B5FFA8BFB2B4659462046FFF7CAFE36
:10298000F21BD2B22B46514620460592FFF7C2FEFB
:10299000059A2B4659462046FFF7BCFE039B07EBE2
:1029A000090A06EB030B5FFA8AFA5FFA8BFBA9EBC5
:1029B00007072B465A4651462046FFB2FFF7AAFEAC
:1029C0002B465A4639462046FFF7A4FE039BA6EB4A
:1029D000030B5FFA8BFB2B465A4651462046FFF706
:1029E00099FE08F101082B465A46394620460FFA4F
:1029F00088F8FFF78FFE87E72DE9F04F87B089460B
:102A00009DF840B016460546C8B10268BAB1C3EB9E
:102A1000C332520012B20492C3F10104F21A0FFA47
:102A200083FA3344DBB20093CDF804B00B46D2B244
:102A3000FFF78AFE00230293029B534502DB07B097
:102A4000BDE8F08F002C0ADB049B02331AB20AF1B6
:102A5000FF3A14FA83F30FFA8AFA04921CB2029A2C
:102A600001325FFA8AF793B25FFA83F812B204EB8D
:102A70004304B91959FA83F30292DBB2C9B2F21BCB
:102A8000CDE9001BD2B20391284619460592FFF703
:102A90005BFEA9EB0803039A0092DBB2059ACDF81E
:102AA00004B019462846FFF74FFEA6EB080207EBD5
:102AB0000903B044DBB25FFA88F8D2B2194628465F
:102AC000CDE9008B0392FFF73FFEA9EB0703DBB2D2
:102AD000CDE9008B039A01341946284624B2FFF74A
:102AE00033FEA9E72DE9F3410D469DF820801746F6
:102AF000044618B302680AB303B35E1E16F8013F1A
:102B0000E3B1227A6AB121798D4211D3A2790A44C4
:102B100095420DDA61798F420AD3E2790A449742ED
:102B200006DACDF8008020683A462946FEF77AFD9D
:102B3000236806351B7EEDB2AB42DFD802B0BDE89C
:102B4000F081000070B1002380ED000AC0ED010AA1
:102B500080ED020AC160036103750AB9024A126876
:102B600082618383704700BF1000002010B50446C7
:102B7000D0B1037D012B17D103691944C3680161EA
:102B8000994213D3027F5AB1437F1BB10368426855
:102B900002604360002323612368A360002004E0F7
:102BA0000361436883600275012010BD07EE103A8F
:102BB00007EE901AB8EE477AF8EE677AB7EE000A99
:102BC000C7EE876A8369F4EEC06AF1EE10FAD8BFE7
:102BD000B0EE660A03B19847D4ED007A94ED017A1D
:102BE00037EE677AE0EE077AC4ED027AD6E728B1CD
:102BF000012303750023036103688360704708B1F4
:102C000000230375704737B50C46054638B3036893
:102C10002BB321B34B790193CB7800938B784A780F
:102C20000978FFF7E5FDA2782379911E4B436420D4
:102C3000013A93FBF0F3DBB29A42D8BFCBB273B147
:102C4000A079627821780190E0780238C0B2013230
:102C500001310090D2B2C9B22846FFF7FEFD03B0A1
:102C600030BD10B5044618466CB163B16360217085
:102C70006270FDF705FB002363819DF80830237324
:102C800001232072637310BDF7B5002830D00368AC
:102C900073B369B34A7B5AB31D7E0A7B4B890E7AA4
:102CA0009B1A1BB2A6EB8602B3EB420F4B81B8BF57
:102CB0004D8100230624B5FBF4F4DAB2964217D90D
:102CC000944215D34F890A783A4403EB430702EB49
:102CD000470297B212B212F1060F0BDBAA4209DAD1
:102CE0004A680124009413444A78F9B2FFF7FAFEC7
:102CF00003B0F0BD0133E0E7534AD2F8883043F423
:102D0000700384B0C2F88830504B1A6842F0010258
:102D10001A6059684E4A0A405A601A684D4922F0B2
:102D2000847222F480321A601A6822F480221A60B7
:102D30005A6822F0036222F470225A604FF4605203
:102D4000DA6200221A631A649960D96941F08051ED
:102D5000D961D96921F08051D9613F49086840F0B3
:102D600080000860086820F01000086002928DF86A
:102D7000032003921A6842F480321A601A68C2F380
:102D800040428DF80320039A013203929DF80320FC
:102D90001AB9039AB2F5005FF0D11A68C2F3404243
:102DA0008DF803209DF8032042B92C4B2C4A1A6061
:102DB000254B4FF000629A6004B07047264A1168B4
:102DC00021F007011160116841F0020111605A6899
:102DD0005A605A6842F400525A605A6842F4A0623B
:102DE0005A605A6822F0036222F470225A601A6C08
:102DF00022F001021A645A680192019A42F4803268
:102E00000192019A42F400320192019A42F0036267
:102E100042F440220192019A5A60029A1A641A6896
:102E200042F080721A601A689201FCD55A6822F04A
:102E300003025A605A6842F002025A605A6802F06D
:102E40000C02082AFAD1B3E700ED00E000100240BE
:102E50000CC07FF80000BF040020024014000020D6
:102E600000127A0070B50178012501F01F039D4022
:102E7000C3784C09BBB10E4B4678DA68D243C2F333
:102E80000222C2F104039E4083780F2020FA02F24E
:102E90001340084A33431B011144DBB281F800336D
:102EA00042F8245070BD034B203443F82450F9E716
:102EB00000ED00E000E100E0036823F0010303609F
:102EC0000023036043608360C360204B984205D1B8
:102ED0001F4A536843F00F03536070471D4B9842DD
:102EE00004D11B4A536843F0F003F5E71A4B9842AC
:102EF00004D1174A536843F47063EDE7174B9842C7
:102F000004D1134A536843F47043E5E7144B9842E5
:102F100004D10F4A536843F47023DDE7114B984204
:102F200004D10B4A536843F47003D5E70E4B984223
:102F300004D1074A536843F07063CDE70B4B9842C6
:102F4000CBD1034A536843F07043C5E70800024001
:102F5000000002401C0002403000024044000240D9
:102F6000580002406C000240800002409400024081
:102F7000036823F01003036003680B43036070478A
:102F8000036823F04003036003680B43036070474A
:102F9000036823F08003036003680B4303607047FA
:102FA000036823F44073036003680B4303607047B6
:102FB000036823F44063036003680B4303607047B6
:102FC000036823F02003036003680B43036070472A
:102FD000036823F44053036003680B4303607047A6
:102FE000036823F48043036003680B430360704766
:102FF0000B6810B50A4683604B68C3608968FFF7A9
:10300000B7FFD36843601169FFF7BAFF5169FFF753
:10301000BFFF9169FFF7C4FFD169FFF7C9FF116ACC
:10302000FFF7CEFF516AFFF7D3FFBDE81040916A6A
:10303000FFF7D6BF0023C0E90033C0E90233C0E97F
:103040000433C0E90633C0E908338362704703687C
:1030500043F0010303607047036823F0010303603A
:10306000704703680B4303607047036823EA01035A
:103070000360704700680840003818BF012070479F
:10308000416070470161704710B502F00704A40069
:1030900012074FF00F034CBF426A026A03FA04F3AF
:1030A0006FEA030301FA04F14BBF134013400B43D3
:1030B0000B434CBF4362036210BD30B50323046869
:1030C0005500AB4024EA030401F00303AB40234363
:1030D000036021F01003013B012B08D84368012451
:1030E0009440090923EA040391401943416030BD2B
:1030F00010B5C36852000324944023EA04039140AE
:103100001943C16010BD10B583680124944023EABF
:10311000040391401943816010BD10B5C36A520089
:103120000324944023EA040391401943C16210BD73
:1031300070B50C4600250126236833FA05F200D14C
:1031400070BD06FA05F21A4211D061692A46FFF7EE
:103150009BFF2A466168FFF7B0FFA168FFF7C8FF31
:10316000E1682A46FFF7CFFF2169FFF7D6FF013557
:10317000E2E74FF6FF7303600F220023C360436052
:10318000426183600361704781627047044B9842DB
:103190000CBF4FF400104FF4800000F067B900BF7F
:1031A00000540040F0B587B0044668460E46174606
:1031B00000F0ECF82C4B0298A1882C4A98429CBF56
:1031C0002B4BB0FBF3F321F03F014FEA014194BFD9
:1031D0009BB22023090C1943A180218821F0010111
:1031E0000904090C2180256A964225F03F0513D871
:1031F0007600B0FBF6F6B6B2042E324638BF042293
:1032000001339BB21D432562A28323889BB243F006
:103210000103238007B0F0BDB7F5804F05BF192229
:10322000724306EB4602B0FBF2F20BBF92B2B0FB68
:10323000F2F242F4804292B2C2F30B0109B942F0B9
:1032400001020C498E428BBF1BB24FF49671C3EB47
:10325000031313FB01F388BFDB004FF47A7142F4D0
:103260000042B3FBF1F3CBE73F8AF701A0860100F0
:1032700040420F00801A060038B504460D46CA8841
:103280000968FFF78FFF2388AA8823F00A031B042D
:103290001B0C1343238023886A8923F480631B0457
:1032A0001B0C134323802389AA89C3F30E03134302
:1032B000238123892A8903F47C431343238138BD66
:1032C000054B41F28832C0E90023002383604FF4AC
:1032D00080438381704700BF0000FFBF03889BB21B
:1032E00043F0010303807047038823F001031B04AC
:1032F0001B0C0380704783889BB243F40063838078
:103300007047838823F400631B041B0C8380704781
:1033100083889BB243F4805383807047838823F46F
:1033200080531B041B0C8380704703889BB243F4BB
:1033300080730380704703889BB243F4007303805B
:10334000704701827047012A0CBF41F0010101F072
:10335000FE010182704782B00023009301930B0F9E
:1033600000900193019B21F07F415BB9009B090C08
:1033700018330093009B18680840003818BF0120DC
:1033800002B07047009B1433F3E70000254930B5C5
:103390004C684A68250140F20F2303EA944302F483
:1033A00080324ABF6FF4F77402331B19002A35D1FB
:1033B0000A6C12F0010F14BF1B4A1C4A4C681C4DCA
:1033C00053431A4A04F00C04082C08BF1A46026042
:1033D0004C68C4F303142C5DE24042604C68C4F3B3
:1033E00002242C5D22FA04F484604C68C4F3C224E5
:1033F0002C5D104D22FA04F4C460CC6A04F00F0472
:103400002C5DB2FBF4F24261CA6A0B49C2F30312AB
:1034100031F81220B3FBF2F3036130BD4A6812F4B5
:10342000003FC8E70010024000093D0000127A008A
:1034300094A8000884A8000864A80008024A5369F8
:1034400003435361704700BF00100240024A936972
:1034500003439361704700BF00100240024AD369E2
:103460000343D361704700BF00100240044B1A6948
:1034700002431A611A6922EA00021A61704700BF0A
:1034800000100240036819B143F400630360704701
:1034900023F40063FAE7036819B143F4805303602F
:1034A000704723F48053FAE7036819B143F40053DB
:1034B0000360704723F40053FAE7036819B143F43B
:1034C00080430360704723F48043FAE7036819B12F
:1034D00043F400430360704723F40043FAE70023FA
:1034E0004FF6FF72038043808280C3800381438153
:1034F00083818373704781847047036843F00103BD
:1035000003607047036823F4407303600368194342
:1035100001607047244B984210B502460C4608D013
:103520000168638821F070010B430360E188FFF7B5
:10353000E9FFA3889385238813851C4B9A4203D007
:1035400003F500639A4201D1237A13860123938203
:10355000154B9A4227D0617A1046FFF793FF134B21
:103560009A420ED003F500639A420AD0B2F1804F1E
:1035700007D0A3F598339A4203D003F580639A42AB
:1035800011D1617B1046FFF7A1FFB2F1804F0AD144
:10359000A17AFFF780FFE17AFFF786FF217BBDE884
:1035A0001040FFF78ABF10BD00100040002C014002
:1035B00083899BB20B43838170470369828913EA35
:1035C000010092B203D01140081E18BF01207047BD
:1035D000C943016170478088C0F308007047C1F398
:1035E000421210B5034601F01F040120012A00FA1F
:1035F00004F00DD19A891B8892B210409BB230B171
:10360000090A01228A401340181E18BF012010BD6C
:10361000022A0CBF1A8A9A8AEDE7090A01238B4015
:10362000DB439BB2038070470D4885460D480E4929
:103630000E4A002302E0D458C4500433C4188C420C
:10364000F9D30B4A0B4C002301E013600432A24271
:10365000FBD3FFF751FB00F033FAFDF719FEFEE74D
:103660000040002000000020EC060020A0AC000874
:10367000EC06002060110020FEE70000024A03492A
:10368000034800F0C9B800BF18000020A166000878
:10369000280000200C4B4168994210B5044601D027
:1036A00002F0FEFFA168094B994202D0204602F0C9
:1036B000F7FFE168064B994204D02046BDE8104070
:1036C00002F0EEBF10BD00BF480E0020B00E00207B
:1036D000180F00202DE9F843314A324C3249DFF807
:1036E000DC90DFF8DC80314F11600025042329468F
:1036F000082204F15C00C4E903352D4EA560C4E93D
:103700000055C4E90555656600F038F904F1580024
:10371000C4E90749C4E90987E66200F0F9F92946D6
:10372000244B6367082204F1C400C4E91A55C4E9B4
:103730001E552567C4F8CC50C4F8805000F01EF91F
:1037400004F1680304F1C000C4F88430C4E922988D
:10375000C4E9247600F0DCF9174BC4F8DC302946C4
:1037600004F596700822C4E93455C4E93855C4F804
:10377000D850C4F83451C4F8E85000F0FFF804F110
:10378000D003C4E93D87C4F8F09004F59470C4F800
:10379000FC60C4F8EC30BDE8F84300F0B9B900BFF4
:1037A000800F0020480E00207D36000851390008A7
:1037B000753900080900010012000200ED38000808
:1037C0001139000810B504460A4800F0A5F9636BEA
:1037D00023B9094B094A1B68626323B1BDE8104055
:1037E000044800F09BB9FFF775FFBDE810400148A1
:1037F00000F094B9900F0020800F0020953600084B
:10380000014800F089B900BF900F0020014800F086
:1038100085B900BF900F00202DE9F8430746884680
:1038200016464FF00009D6E90154013D10D4A38992
:10383000012B08D9B4F90E3001332146384602D0A5
:10384000C04749EA0009013D6B1C04F16804EED150
:103850003668002EE7D14846BDE8F8830CB410B5B1
:10386000214B00291C689CB038DB4FF000034FF45B
:1038700002721B93ADF81420029006901FAB18D073
:1038800001394FF6FF7204910791ADF8162002A995
:103890001E9A0193204600F0DFFD421C01DA8B23C3
:1038A0002360029B00221A701CB0BDE8104002B0D9
:1038B00070474FF6FF7204910791ADF8162002A9E8
:1038C0001E9A0193204600F0C7FD431C01DA8B23AA
:1038D00023601CB0BDE8104002B070478B2323600A
:1038E0004FF0FF30F5E700BF2400002010B50C4674
:1038F000B1F90E1000F0B8F8002803DB236D034483
:10390000236510BDA38923F48053A38110BD00BF9C
:103910002DE9F0410C46B1F90C101F46CB050546C8
:1039200016460BD421F48051A1813B46B4F90E1008
:1039300032462846BDE8F04100F0ACB8B4F90E10AC
:103940000223002200F07AF8B4F90C10EAE700BF75
:1039500010B50C46B1F90E1000F070F8B4F90C3047
:10396000421C0EBF23F4805343F480532065A3818F
:1039700010BD00BFB1F90E1000F04EB8830730B58E
:1039800046D08418844604E003F8011B9D0704D048
:103990009C46A4456346F7D130BD013A0244A2EBF0
:1039A0000C02032A29D9CCB204EB04240F2A04EB1D
:1039B00004442FD9A2F1100C2CF00F0C03F11005C8
:1039C000AC44C3E90044C3E9024410336345F8D171
:1039D00012F00C0F02F00F0E18D02EF0030C9C44C6
:1039E000AEF104051A4642F8044B6245FBD125F0BE
:1039F000030404330EF003022344002ACCD0C9B2DE
:103A00001A4403F8011B9342FBD130BD7246F4E720
:103A10000346C6E79646E0E738B5074D0022044660
:103A200008462A6006F004FD431C00D038BD2B6810
:103A3000002BFBD0236038BD840F002038B50D4625
:103A4000084C8446114628461A46002323606546E2
:103A500006F016FD431C00D038BD2368002BFBD0B8
:103A60002B6038BD840F002038B50D46084C8446C5
:103A7000114628461A4600232360654606F008FDD5
:103A8000431C00D038BD2368002BFBD02B6038BD11
:103A9000840F002038B50D46084C84461146284650
:103AA0001A4600232360654606F008FD431C00D03B
:103AB00038BD2368002BFBD02B6038BD840F00205D
:103AC00070B50F4B0F4DAB42A3EB050607D0B610F8
:103AD000002455F8043B01349847A642F9D806F073
:103AE000F7FC094D094B5E1BAB424FEAA60606D018
:103AF000002455F8043B01349847A642F9D870BD1C
:103B000094AC000894AC000894AC00089CAC00088D
:103B1000704700BF704700BF704700BF704700BFCD
:103B200080EA0102844612F0030F4FD111F0030F17
:103B300032D14DF8044D11F0040F51F8043B0BD075
:103B4000A3F101329A4312F0803F04BF4CF8043BCA
:103B500051F8043B16D100BF51F8044BA3F10132D8
:103B60009A4312F0803FA4F101320BD14CF8043B90
:103B7000A24312F0803F04BF51F8043B4CF8044BC1
:103B8000EAD023460CF8013B13F0FF0F4FEA332332
:103B9000F8D15DF8044B704711F0010F06D011F811
:103BA000012B0CF8012B002A08BF704711F0020FFF
:103BB000BFD031F8022B12F0FF0F16BF2CF8022BEA
:103BC0008CF8002012F47F4FB3D1704711F8012B0D
:103BD0000CF8012B002AF9D1704700BF024B13B13A
:103BE000024800F005B8704700000000896900082D
:103BF000002301461A46184602F01ABF2DE9F84381
:103C000006460820894602F0D3FEDFF8A480054668
:103C1000304600F013FCD8F808305F6827F003073F
:103C2000A7F11104A4EB09042C44B4FBF5F4013C06
:103C300005FB04F4A54208DC0021304602F092FEA8
:103C4000D8F808303B44984205D0304600F0FCFBE1
:103C50000020BDE8F8836142304602F083FE013067
:103C60000FD0114AD8F808303F1B47F001075F60BA
:103C7000136830461B1B136000F0E6FB0120BDE813
:103C8000F8830021304602F06DFED8F80820831A30
:103C90000F2BDADD43F001035360044B02491B682C
:103CA000C01A0860D1E700BF980F00206C01002007
:103CB0007801002000295BD0F8B50C46074600F0DB
:103CC000BDFB54F804CC744DA4F108022CF00103A0
:103CD000D118A8684E68884226F003060CF0010E41
:103CE0007ED088194E60406800F00100BEF1000FE0
:103CF0002FD154F8084C121B2344946805F1080C8A
:103D0000644562D0D2F80CE0C4F80CE0CEF808406C
:103D100000287FD043F0010050600B60B3F5007FB6
:103D20002FD2D90868685C090131012309B2A34088
:103D300003436B6055F83100906005EBC103083B0D
:103D4000D36045F83120C2603846BDE8F84000F045
:103D50007BBB70B9334405F1080C8868604543F0BB
:103D6000010471D0C968C16088605460D350D5E740
:103D700070474CF00101B3F5007F44F8041CD350A8
:103D8000CFD3B3F5206F4FEA532045D2980900F105
:103D9000390109B200F13804C900681869580838B7
:103DA000884203D157E08968884204D04C6824F0E7
:103DB00003049C42F7D8C868C2E902108260384602
:103DC000CA60BDE8F84000F03FBB88BB1E44D1E9A3
:103DD0000213CB60996046F0010353609651B3E73C
:103DE0001E44BEF1000F07D154F8083CD21A1E44FD
:103DF000D2E90213CB60996046F001035360274B70
:103E0000AA601B68B3429FD8254B38461968FFF754
:103E1000F5FE99E73344A0E714280ED9542821D899
:103E2000180B00F16F0109B200F16E04C900B4E78C
:103E300043F0010050600B6086E700F15C0109B2BD
:103E400000F15B04C900A8E7C5E90422C2E902CC7D
:103E50005460D35078E76E68A4100123A340334325
:103E60006B60A9E7B0F5AA7F07D8D80B00F17801FD
:103E700009B200F17704C9008FE740F2545188423B
:103E800006D8980C00F17D0100F17C04C90084E79C
:103E90004FF47E717E2480E77801002070010020BD
:103EA000C80F00202DE9F04F01F10B05162D83B04E
:103EB000064623D8102900F2B48000F0BFFA10257E
:103EC00018230220B84F3B44A3F108025C689442D7
:103ED00000F064816368E268A16823F00303CA60AC
:103EE0002344304691605A6842F001025A6000F063
:103EF000ABFA0834204603B0BDE8F08F35F0070573
:103F000000F18F80A94200F28C8000F097FAB5F59D
:103F1000FC7FC0F0B8815FEA552E00F08980BEF1C9
:103F2000040F00F270814FEA951E0EF1390003B2C2
:103F30000EF1380EDB009C4F3B44A3F1080C5C688B
:103F4000A44507D10DE0002AE16880F221818C456B
:103F500007D00C46636823F003035A1B0F2AF2DDD7
:103F60007046DFF85C823C69444500F0FE8063687F
:103F700023F0030CACEB05030F2B00F38981002B1E
:103F8000C7E9048880F27381BCF5007FD7F804E0AC
:103F900080F018814FEADC03013319B24FEA5C1C50
:103FA000012303FA0CF357F83120A2604EEA030E06
:103FB00007EBC103083BE360C7F804E047F8314072
:103FC000D46083104FF0010C0CFA03FCF44535D893
:103FD0001CEA0E0F08D120F003004FEA4C0C1CEA3B
:103FE0000E0F00F10400F8D007EBC00AD646814658
:103FF000DEF80C300BE0596821F003014A1B0F2A50
:104000001C46DB6800F30F81002A80F223819E4565
:10401000F1D109F1010919F0030F0EF1080EE7D1F2
:1040200061E10C2333600024204603B0BDE8F08F2B
:104030004FF4007340204FF03F0E7CE7BC6863688C
:1040400023F00309A94504D3A9EB05030F2B00F3C3
:104050008F80564B1B68082003F1100804EB0903FE
:10406000009302F0A5FC524A13680133A84483462A
:1040700005D008F1FF388044434203EA080841466E
:10408000304602F06FFCB0F1FF3F494A824600F033
:104090001B8104EB0903834200F21481454B18682D
:1040A00040440BF1FF3C186000F07281116801314F
:1040B00000F07A8104EB0902AAEB020202441A60C2
:1040C0001AF00702CDE9002300F03281C2F10802A4
:1040D0009244D04408EA0C015A44521A02EA0C0BEA
:1040E0005946304602F03EFC421C019B00F07981AB
:1040F000A0EB0A0000EB0B081868C7F808A048F00E
:1041000001025844BC42CAF80420186016D0B9F124
:104110000F0F40F24C816168A9F10C0222F00702F6
:1041200001F00101114361604FF0050CA1180F2A45
:10413000C1E901CC00F25D81DAF804201E4B196858
:10414000814238BF18601D4B1968814238BF186022
:10415000544622F00308A845A8EB050301D30F2B12
:1041600006DC304600F070F95DE7D7F804E028E798
:10417000621943F0010345F0010565603046BA60FD
:10418000536000F061F90834204603B0BDE8F08FB9
:10419000A2682344D16030468A60A4E6DC68A3426A
:1041A0007FF498AE0230DCE678010020C80F0020D2
:1041B0006C010020980F0020C40F0020C00F0020C9
:1041C00080010020BCF5206F4FEA5C2272D3142AD4
:1041D00000F2C18002F15C031BB25B32DB00F91814
:1041E000FB580839994203D198E09B68994204D062
:1041F0005A6822F003026245F7D8D968C4E902314F
:104200008C60DC60DDE6BEF1140F60D9BEF1540FA6
:1042100000F2AB804FEA153E0EF16F0003B20EF1D3
:104220006E0EDB0087E6D4F808C03046661945F00C
:1042300001056560CCF80C30C3F808C042F00103FA
:10424000C7E90466C6E902887360625000F0FCF8B2
:104250000834E9E6214430464A6842F001024A60E7
:1042600054F8082FD3609A6000F0EEF8DCE6A4441E
:104270003046DCF8043043F00103CCF8043000F0A1
:10428000E3F80834D0E6E808431C1BB2DB0019E66B
:10429000621943F0010145F0010565603046C7E948
:1042A0000422C2E90288516044F80C3000F0CCF8D6
:1042B0000834B9E64FEA9C1202F139031BB23832D6
:1042C000DB008CE7BC425CD0BC68626841E70EF161
:1042D0005C0003B20EF15B0EDB002CE65AF80839E5
:1042E000534540F0A68010F0030F00F1FF30F5D1E8
:1042F0007B6823EA0C037B604FEA4C0C9C453FF63D
:104300009DAEBCF1000F04D198E64FEA4C0C09F1C8
:1043100004091CEA030FF8D0484665E692104FF0F6
:10432000010C0CFA02F24EEA020EC7F804E065E74F
:104330000AEB080202EA0C02ABEB020202EA0C0BE7
:104340005946304602F00EFB431C019B7FF4D0AE71
:10435000DDF800B0D0E6542A2DD84FEA1C3202F125
:104360006F031BB26E32DB0039E7BEF5AA7F2DD892
:104370004FEAD53E0EF1780003B20EF1770EDB0066
:10438000D9E52D4B186840440BF1FF3C18608DE6D1
:104390001AEA0C0F7FF48AAED7F808A0C84448F098
:1043A0000102CAF80420C9E6C2F800A088E6012389
:1043B000CAF80430D5E6B2F5AA7F25D84FEADC3238
:1043C00002F178031BB27732DB0008E740F2545366
:1043D0009E4524D8AB0C03F17D0003F17C0EC30095
:1043E000A9E5009A083A9044A8EB0A084FF0000BA0
:1043F00082E6304604F108010093FFF75BFC009B66
:10440000D7F808A0186897E640F254539A420CD89F
:104410004FEA9C4202F17D03DB007C32DFE64FF481
:104420007E737F204FF07E0E85E54FF47E737E22F3
:10443000D5E67B6860E700BF980F00200148FFF7D2
:104440006BBB00BF880F00200148FFF767BB00BFB0
:10445000880F0020000000002DE9F04FD7B00C4677
:10446000069115460A93834602F078FA036813937F
:104470001846FBF705FF00211290082226A8FFF737
:104480007DFAA389190603D52369002B01F0AE80BC
:104490009FED777B00239E46CDE916EE8DED0E7BDA
:1044A000CDE92B332DAB2A931C46CDF850E0CDF847
:1044B00054E0CDF810E0CDF834E02F463D466E4B89
:1044C000D3F8E46002F044FA26AA0346009222A937
:1044D0002A465846B047002800F09880C0F28E80E7
:1044E000229A252A034601D01D44E8E7B5EB0708C8
:1044F000064640F08F8000234FF0FF328DF87F306A
:104500009A46059301352B78039201359946A9F116
:1045100020035A2B00F2B280DFE813F04402B0000F
:10452000B0004002B000B000B0002302B000B00004
:10453000EE01FD01B000F9010602B00002025B00CD
:104540005B005B005B005B005B005B005B005B0093
:10455000B000B000B000B000B000B000B000250165
:10456000B0007C010203250125012501B000B00047
:10457000B000B000FE02B000B0004E02B000B000CB
:10458000B000B901B000A402B000B000C007B00094
:10459000B000B000B000B000B000B000B000250125
:1045A000B0007C0167012501250125012203670177
:1045B0006C00B0003B03B0002C03700345036C009B
:1045C000B000B9016A00DD02B000B0003008B000F0
:1045D0006A00A9F13003002215F8019B02EB820268
:1045E00003EB4202A9F13003092BF5D905928EE7BE
:1045F0002B788AE72B784AF0200A86E708220021E8
:1046000026A8FFF7BBF901231D4458E7B5EB0708BF
:10461000064612D0DDF8ACE02C9B0EF101024344BB
:10462000072AC4E900782C932B9215DC0834049BEC
:1046300043440493002E7FF45EAF2C9B002B41F08B
:104640006883069B9B8903F04003002B41F0C587DC
:10465000049857B0BDE8F08F06992AAA584601F091
:10466000F3FF0028EDD12DACE1E700BFAFF30080F0
:10467000000000000000000080050020B9F1000FDC
:10468000DBD00023CDE90B3301228DF8F4908DF8B7
:104690007F3007930892039311933DAF02922C9EB3
:1046A00010961AF0840300F0E4809DF87F2002B396
:1046B0002B984FF000080130012201366260072874
:1046C0000DF17F02CDE92B06226000F3028408344D
:1046D000B8F1000F0DD02B98013020AA02362260CD
:1046E00007284FF00202CDE92B06626000F3E58354
:1046F0000834802B00F0EC82039B089AA3EB02089D
:10470000B8F1000F00F329831AF4807F40F089820A
:10471000089B63601E442B9B27600133072B2C965C
:104720002B9300F3728308341AF0040F05D0059B15
:10473000029A9F1A002F00F3DA83DDE9043202990E
:104740008A42ACBF9B185B180493002E40F03D8357
:1047500000232B93079B1BB107995846FFF7AAFA32
:104760002DAC2F46AAE60A9B073323F00703B3ECD0
:10477000027B8DED0E7B0A930F9B8DED1A7A23F051
:1047800000431B93DDE91A01B34B4FF0FF32FCF7F6
:104790008DFA002840F02886DDE91A01AE4B4FF073
:1047A000FF32FCF765FA0646002840F01D86DDE979
:1047B0000E01002200232AF0800AFCF74FFA00289D
:1047C00041F0F1819DF87F30B9F1470FCCBFA34F85
:1047D000A34F002B41F0DF850322CDE90B33079374
:1047E000089203931193029259E71AF0200F40F0B8
:1047F000B3850A9A1AF0100F52F8046B41F01B8728
:104800001AF0400F0A9201F0168146F3C038434671
:1048100036B295E10A9BB9F1430F03F1040603D0C8
:104820001AF0100F00F0BB860822002128A8FFF71D
:10483000A5F80A9B3DAF1A68394628AB584603F0E5
:10484000E9FD03460133089001F0C286089B23EA84
:10485000E37302930023CDE90B330A968DF87F3082
:104860002C9E0793039311931AF0840310967FF400
:104870001CAF059A0298A2EB0008B8F1000F00F3F4
:1048800014849DF87F20002A3FF436AF10E7DDF84E
:10489000288058F8047B00238DF87F30002F00F02B
:1048A0009486B9F1530F01F013801AF010030B93A3
:1048B00041F00E80039B002BC1F219821A460B991E
:1048C0003846FBF74DFD9DF87F300790002801F03A
:1048D000CB85079AD21B089222EAE27202920BB1B0
:1048E000013202920B9BCDF82880039311930C9315
:1048F00007934FF07309D2E60A9B53F8042B0592F5
:10490000002A80F21385059A0A93524205922B7869
:104910004AF0040AF9E52B238DF87F302B78F4E573
:104920002B784AF0800AF0E5294611F8019BB9F18D
:104930002A0F01F04286A9F13003092B98BF00220B
:1049400001F20C8411F8019B02EB820203EB42029C
:10495000A9F13003092BF5D942EAE27303930D461E
:10496000D5E5584601F0FAFF436815931846FBF762
:1049700087FC17900646584601F0F0FF82682B78B6
:104980001692002E3FF4C1AD002A3FF4BEAD12785E
:10499000002A3FF4BAAD4AF4806AB6E52B784AF0B3
:1049A000010AB2E59DF87F202B78002A7FF4ADAD97
:1049B00020228DF87F20A8E51AF0200F4AF0100081
:1049C00000F0BC840A9B073323F007031A4659689A
:1049D00052F8083B0A9200228DF87F20039A002AA1
:1049E00018DB53EA010220F4906A15D1039A9AB9B0
:1049F00010F001031A46029300F00B8730238DF864
:104A00005731039B0892CDE90B33119307930DF2B5
:104A1000571744E620F4806A56AF03F00702DB081C
:104A200043EA4173C908303253EA0106384607F8B1
:104A3000012DF2D11AF001030B9340F01E8303996C
:104A4000119356AAD21B9142B8BF11460892029107
:104A50000C93079323E600BFFFFFEF7FA8A8000891
:104A6000A4A800081AF0200F4AF0100138D10A9BC0
:104A70001A1D0A9B03981B684FF0000840458DF8EB
:104A80007F801E46C0F27C8521F0800A002B00F05A
:104A90008B840A920A2E78F1000380F0B28306F12B
:104AA0003003DBB2039A8DF85731012AB8BF0122D7
:104AB00002929DF87F30012208920DF25717002BC9
:104AC00001F07585029B013302930023CDE90B337E
:104AD00007931193E3E51AF0200F00F04E8451463E
:104AE0000A9B073323F007031A46D3F8048052F8D1
:104AF000086B0A9200238DF87F30039B002BC0F2D5
:104B0000408556EA080321F0800AC3D1039B002B9D
:104B100000F04F840026C2E72B784AF0080AF4E43C
:104B20001AF0200F4AF0100300F019840A9A073295
:104B300022F007029A46536852F8086B0A92984688
:104B4000002BC0F24D83039A002AA3DB56EA080328
:104B50002AF0800A9ED1002A01F055803023A1E777
:104B60002B78682B03BF6B784AF4007A01354AF042
:104B7000400ACAE40A9A1AF0200F02F1040300F076
:104B80002184126804991160C91751600A932F4655
:104B900094E42B786C2B03BF6B784AF0200A013524
:104BA0004AF0100AB1E40A9A039F52F8040B00215C
:104BB00047F630038F42ADF880308DF87F10034602
:104BC000C0F2E2842AF0800646F0020A002840F093
:104BD000DD84002F01F01E800A923023012202970B
:104BE000CDE907020C908DF857310DF2571711904F
:104BF0004FF078090B90844600F0A5BC1AF0200F06
:104C000040F0B8830A9A1AF0100152F8043B41F0C0
:104C10000F851AF0400000F0EF869BB20A925046D2
:104C2000D9E6B9F1650F40F3FA80DDE90E01002203
:104C30000023FCF709F8002800F09D812B9BB24A65
:104C40002260013301360122072B2C962B936260E0
:104C500000F332860834219B0D9A934280F26183DF
:104C6000129B139A1E44C4E900232B9B2C960133FC
:104C7000072B2B9300F39D8408340D9B5F1E002FA0
:104C80007FF752AD102F2B9B41F31C849F49DDF819
:104C90001890109132464FF010080E4604E0083488
:104CA000103F102F40F3A68001331032072BC4E9C8
:104CB0000068CDE92B32F2DD2AAA4946584601F0B8
:104CC000C3FC002840F08980DDE92B322DACE7E7FA
:104CD000059B029AA3EB0208B8F1000F7FF70CAD19
:104CE0008A4B2B9A1093B8F1100F29DD21463046DC
:104CF000864C2E461023069D06E0A8F11008B8F158
:104D0000100F01F1080118DD01321030072AC1E946
:104D10000043CDE92B20F0DD2AAA2946584601F0B0
:104D200093FC002859D1A8F11008B8F1100FDDE963
:104D30002B202DA94FF01003E6DC35460C46064625
:104D40000132109B23604644072ACDE92B26C4F884
:104D5000048000F304860834CEE46C4B2B9A109345
:104D6000B8F1100F24DD21461023069C06E0A8F1BF
:104D70001008B8F1100F01F1080118DD0132634885
:104D80001036072AC1E90003CDE92B26EFDD2AAA58
:104D90002146584601F058FCF8B9A8F11008B8F1BE
:104DA000100FDDE92B262DA94FF01003E6DC0C4691
:104DB0000132109B23604644072ACDE92B26C4F814
:104DC000048000F3018208349EE406992AAA58461A
:104DD00001F03AFC00283FF4BBAC079B002B3FF4EA
:104DE00030AC07995846FEF765FF069B9B8903F098
:104DF00040032AE416460133109A22603E44072BF2
:104E00006760CDE92B367FF78EAC06992AAA584603
:104E100001F01AFC0028E0D12C9E2DAC84E42B9BE1
:104E200003F101080D9B012B06F1010604F10809AD
:104E300040F385810123B8F1070FCDE92B86276068
:104E4000636000F35482129B139A08F101081E4418
:104E5000B8F1070FC9E90023CDE92B8600F354828E
:104E600009F108090D9BDDE90E015C1E00220023FB
:104E7000FBF7EAFE002840F07C8108F101080137C9
:104E80002644B8F1070FCDE92B86C9F80070C9F8A0
:104E9000044000F3618109F10809149AC9F804205B
:104EA00008F101031644072B24AACDE92B36C9F8D3
:104EB0000020AADC09F1080436E4069910932AAA16
:104EC000584601F0C1FB002887D12C9E109B2DACC9
:104ED0000FE4069910932AAA584601F0B5FB002862
:104EE0007FF47BAF2C9E109B2DACFFF7F1BB084AE3
:104EF0002B9B1092102F29DDAA46DDF818904FF059
:104F0000100815460BE000BFE4A800084CAA0008F2
:104F10005CAA0008103F102F04F1080415DD0133CE
:104F20001036072BC4E90058CDE92B36F2DD2AAA4A
:104F30004946584601F088FB00287FF44EAF103FE9
:104F4000102FDDE92B362DACE9DC55460133109AE4
:104F50003E44072BC4E90027CDE92B367FF7EDABA4
:104F600006992AAA584601F06FFB00287FF435AF56
:104F70002C9EFFF7E2BB2199002940F353840B9B41
:104F80000D9A9342A8BF1346002B99460ADD1E4492
:104F9000C4E900732B9B2C960133072B2B9301F351
:104FA000848008340B9BB9F1000FA8BFA3EB090361
:104FB000002B984600F329830B9B1AF4806F3B4427
:104FC00040F04C83219A0D998A4203DB1AF0010FBD
:104FD00000F02D86129913980E44C4E900012B9914
:104FE0002C96013107292B9101F36B8008340D9920
:104FF00007EB0108A8EB03088F1AB845A8BFB8460D
:10500000B8F1000F0BDD23602B9BC4F80480013343
:105010004644072B2C962B9301F3A5800834B8F156
:10502000000FA8BFA7EB0807002F7FF77DAB102F5D
:105030002B9B41F34782C549DDF818901091324609
:105040004FF010080E4604E00834103F102F7FF791
:10505000D1AE01331032072BC4E90068CDE92B3201
:10506000F2DD2AAA4946584601F0EEFA00287FF4FC
:10507000B4AEDDE92B322DACE7E7302A00F05284E4
:105080003023039907F8013C023856AB1B1A9942AA
:105090004FF00002B8BF1946CDE90B2207920893E2
:1050A000074602911192FFF7FABADDF8ACE0A84882
:1050B00010991090B8F1100F724628DD1C9520460B
:1050C000A34D069C1D93102606E0A8F11008B8F128
:1050D000100F00F1080017DD01321031072AC0E976
:1050E0000056CDE92B21F0DD2AAA2146584601F0D1
:1050F000ABFA00287FF471AEA8F11008B8F1100FD8
:10510000DDE92B212DA8E7DC1C9D1D9B0446109892
:105110002060501C08EB01060728CDE92B06C4F8D7
:10512000048000F3A4839DF87F200834002A40F017
:105130000181002B3FF4E0AA1346FFF7CDBA1AF025
:10514000010F7FF477AE0123B8F1070FCDE92B866D
:10515000276063607FF7A1AE06992AAA584601F03E
:1051600073FA00287FF439AEDDE92B860DF1B4091E
:1051700093E60D9B012B7FF790AE112B41F30E822E
:1051800072491091324643461027DDF818800E46CA
:1051900005E009F10809103C102C40F31B84013391
:1051A0001032072BC9E90067CDE92B32F1DD2AAABD
:1051B0004146584601F048FA00287FF40EAEDDE97A
:1051C0002B320DF1B409E6E706992AAA584601F0F8
:1051D0003BFA00287FF401AE2C9E2DACFFF794BA69
:1051E0002D238DF87F30039B764268EB4808002B17
:1051F000FFF650AC0A2E78F100032AF0800AFFF483
:105200004EAC0AF480630022CDE9074956A9DDF8C7
:105210005890029594461C4626E016EB08034D482C
:1052200043F10003A0FB032020F0030202EB9002F5
:105230009B1AF31A47484FF0CC32B646454602FB5C
:1052400003F268F1000800FB0822A3FB0063BEF133
:105250000A0F13444FEA560675F10005394646EA2F
:10526000C3764FEA53082DD33A4D16EB080343F1AA
:105270000003A5FB032020F0030202EB90029B1A1F
:10528000F31AA3FB053268F100005B0805FB00225E
:1052900043EAC27303EB8303A6EB430330330CF101
:1052A000010C01F8013C4F1E002CB6D099F80030DB
:1052B0006345B2D1BCF1FF0FAFD00A2E78F10003E5
:1052C00080F0D28356AB0399029DCDF85890DB1B3A
:1052D0001A469142B8BF1146DDF82090079C08930A
:1052E000CDF834C09DF87F300291FFF7E8BB0699F6
:1052F0002AAA584601F0A8F900287FF46EADDDE92E
:105300002B860DF1B4099EE506992AAA584601F0AC
:105310009BF900287FF461ADDDE92B860DF1B4091E
:10532000A0E51AF0010F3FF4FFA999E40A932B7846
:10533000FFF7EBB898460023FFF7BDB90A9B1A1D8B
:105340000A9B0A921B680021FFF745BB4CAA000884
:105350005CAA0008CDCCCCCC5346FFF7E7BB0A9A39
:1053600004320A990A920E684FEAE6789A46434652
:10537000FFF7E6BB5046FFF725BB0A9A1AF0100864
:1053800052F8043B41F051811AF0400100F03D8396
:105390009EB2039B8DF87F80002BFFF67AAB2AF03C
:1053A000800A002E7FF475AB039B0A92002B7FF4DA
:1053B000B1ABCDE90B33089311930293079356AF2A
:1053C000FFF76DB91AF0100F40F0D5821AF0400FB8
:1053D00040F087841AF4007F00F0CD820A9A049985
:1053E00012681170FFF7D2BBDDE90E0102460B46D1
:1053F000FBF75CFC0646002840F0B687B9F1610F68
:1054000000F04285B9F1410F00F0C486039B0133DF
:1054100000F0A784B9F1670F0F9B4AF4807800F081
:105420006887B9F1470F00F064870790DDE90E1235
:10543000002AC0F27A879DED0E7B8DED187B00234C
:105440001093A9F14103252B00F20884DFE813F043
:1054500016070604060406049004FB04060406046A
:1054600006040604060406040604060406040604EC
:1054700006040604060406040604060406040604DC
:1054800006040604060406040604060406040604CC
:1054900016070604060406049004FB04B64E1AF030
:1054A000200100F092810A9B073323F007031A467C
:1054B000596852F8083B0A921AF0010200F0648120
:1054C00053EA010200F0E88130228DF880200022AA
:1054D0008DF87F20039A8DF88190002AC0F28F8189
:1054E0002AF4906242F0020A03F00F020AF002006E
:1054F000B25C8DF857211B0943EA01730A0953EA8C
:1055000011110DF257170BD003F00F011B09715C3D
:1055100007F8011D43EA0273120953EA0201F3D1AD
:10552000039A56AB4FF0000CDB1B9A42CDE90BCC33
:10553000B8BF1A4608930292CDF81CC0CDF844C0FB
:1055400000283FF4ACA8029BDDE92B06023302934E
:105550001AF084031096864606D10599029AA1EBAB
:105560000208B8F1000F07DCBCF1000F3FF4B4A84B
:105570004FF00208FFF79FB8022398E57F4E8EE7B1
:105580000A928A46FFF786BA4AF0020A0A927B4ECE
:1055900003F00F020220B25C4FF07809A9E70A9BE2
:1055A0001B688DF8F4300123029308933DAFFFF799
:1055B00051B906992AAA584601F046F800287FF406
:1055C0000CAC2C9E2DACFFF758BB039BCDF828806C
:1055D000062B3A4628BF0623CDE907730397CDE98A
:1055E0000B22674F02931192FFF759B8402158469A
:1055F000FEF758FC069B18601861002801F0068031
:10560000069A40235361FEF743BFB8F1100F2B9B5E
:1056100040F3C0875B48109022463146069C4FF00D
:105620001009064606E00832A8F11008B8F1100F7C
:1056300040F3A98201331031072BC2E90069CDE99B
:105640002B31F0DD2AAA2146584600F0FDFF002844
:105650007FF4C3ABDDE92B312DAAE5E70D9ADDF828
:105660004480CDF840A0BA18039222461C460C9BF9
:10567000DDF85890DDF818A00B95002B31461197F6
:10568000179E31DDB8F1000F40F3108108F1FF38AB
:105690002B98159B013031440728C2E900362C9124
:1056A0002B9000F3A1800832039B99F800001F1B88
:1056B0008742A8BF0746002F0CDD2B9801303944E4
:1056C0000728C2E900472C912B9000F33B8199F801
:1056D00000000832002FACBFC51B0546002D15DCAD
:1056E00004440C9B002BCDDCB8F1000FCEDC23462C
:1056F000119F0B9DDDF840A0CDF8589014460D9AEF
:10570000BA1893420E4628BF13465BE4102D2B981F
:105710001C4B23DD089410272C461D4604E0103C4A
:10572000102C02F1080216DD0130164B103107284B
:10573000C2E90037CDE92B01F1DD2AAA51465846CE
:1057400000F082FF00287FF448AB103C102CDDE90C
:105750002B012DAAE8DC2B462546089C136001305E
:1057600029440728CDE92B01556000F37A8399F885
:10577000000008320444B4E7C8A80008B4A8000830
:10578000DCA800084CAA00088DF87F20039A002AA4
:1057900037DB53EA01022AF4906A7FF4A5AE039A3C
:1057A000002A00F0EE80012A33788DF85731B8BF17
:1057B0000122002302920122CDE90B3307930892C4
:1057C00011930DF25717FEF76ABF0A9A52F8043B7D
:1057D0000A921AF010027FF46FAE1AF0400000F047
:1057E00035819BB2114667E62AAA5146584600F019
:1057F0002BFF00287FF4F1AA2C992DAA54E74AF038
:10580000020A03F00F020AF00200B25C2AF4806A76
:105810006FE6039B0893CDE90B331193079356AFC3
:10582000FEF73DBF2B9BB54A2260013301360122B2
:10583000072B2C962B93626000F3C9810834002952
:1058400040F0A9800D9A0AF0010313433EF46CAFB7
:10585000129B139A1E44C4E900232B9B2C96013300
:10586000072B2B9300F3708204F10802A4E0069941
:1058700010932AAA584600F0E7FE00287FF4ADAA4C
:105880009DF87F202C9E109B002A7CD098462DAC42
:1058900003462B98FEF70FBF039B002083428DF831
:1058A0007F00C0F2D9802AF4906A78E70C9B013B14
:1058B00009F1FF390C93EBE606992AAA584600F045
:1058C000C3FE00287FF489AA2C9E2DACFFF7C3B934
:1058D0000822002128A82397FEF750F8039B002BED
:1058E000C0F2108100260295CDF81C8035469846FE
:1058F0000EE03DA9584602F08DFD411C284400F001
:105900002185404509DC06F1040600F026850546A0
:10591000239A925928AB002AEBD10895DDF81C8018
:10592000029DFDE0039956AAD21B91424FF000035D
:10593000B8BF1146CDE90B3307930892029111933A
:10594000FEF7ADBE2AAA5146584600F07DFE00285B
:105950007FF443AA99F800002C992DAABAE606997B
:105960002AAA584600F070FE00287FF436AA2C9E22
:105970002DACFEF7C1BE0A9A049912681160FFF7B8
:1059800005B9039B15E5002B00F05B812B981346AE
:105990002DACFEF7A1BE129B139A1E44C4E900234E
:1059A0002B9B2C960133072B2B9300F3CD8104F115
:1059B00008020029C0F22A840D99176001330E44B1
:1059C000072BCDE92B3651603FF71FAA02F10804DF
:1059D000FEF7AABE1646984608F10108109BC9F8C2
:1059E00000302644B8F1070FCDE92B86C9F80440F2
:1059F0007FF751AAFFF7B0BB1AF400711CBF014634
:105A0000DBB20A925046FEF7E6BF1AF4007840F087
:105A10001B8103998DF87F8000291E46FFF639A867
:105A20002AF0800A002B7FF434A80B460A92002942
:105A30007FF470A8BDE41AF4007F16BF46F3C018C7
:105A40004FEAE67876B24346FFF77AB81AF4007167
:105A50001CBFDBB201462FE533788DF857312AF4AD
:105A6000806A0DF257175BE5179A1599BF1A3846E9
:105A700000F03AFF99F801300BB109F10109204A11
:105A800016EB080343F10003A2FB030525F0030016
:105A900000EB95001B1AF31A4FF0CC3168F10008A7
:105AA00003FB01F102FB0811A3FB023001445B0878
:105AB00043EAC1764FEA510816EB080343F10003AD
:105AC000A2FB031020F0030101EB90015B1AF31A13
:105AD000A3FB023168F100005B0802FB001243EAFD
:105AE000C27303EB8303A6EB4303303307F8013C97
:105AF0004FF0010C013FFFF7D9BB00BFE4A800083D
