:020000040800F2
:1000000000400020F91000084506000847060008D7
:1000100000000000000000000000000000000000E0
:100020000000000000000000000000004906000879
:100030000000000000000000491100084B06000805
:100040004911000849110008491100084911000828
:100050004911000849110008491100084911000818
:100060004911000849110008491100084911000808
:1000700049110008491100084911000849110008F8
:1000800049110008491100084911000849110008E8
:1000900049110008491100084911000849110008D8
:1000A00049110008491100084911000849110008C8
:1000B00049110008491100084911000849110008B8
:1000C00049110008491100084911000849110008A8
:1000D000B504000849110008491100084911000839
:1000E0004911000849110008491100084911000888
:1000F0004911000849110008491100084911000878
:100100004911000849110008491100084911000867
:040110004911000889
:10011400844641EA000313F003036DD1403A41D30E
:1001240051F8043B40F8043B51F8043B40F8043BCD
:1001340051F8043B40F8043B51F8043B40F8043BBD
:1001440051F8043B40F8043B51F8043B40F8043BAD
:1001540051F8043B40F8043B51F8043B40F8043B9D
:1001640051F8043B40F8043B51F8043B40F8043B8D
:1001740051F8043B40F8043B51F8043B40F8043B7D
:1001840051F8043B40F8043B51F8043B40F8043B6D
:1001940051F8043B40F8043B51F8043B40F8043B5D
:1001A400403ABDD2303211D351F8043B40F8043BFD
:1001B40051F8043B40F8043B51F8043B40F8043B3D
:1001C40051F8043B40F8043B103AEDD20C3205D30D
:1001D40051F8043B40F8043B043AF9D2043208D005
:1001E400D2071CBF11F8013B00F8013B01D30B8877
:1001F40003806046704700BF082A13D38B078DD055
:1002040010F003038AD0C3F10403D21ADB071CBF26
:1002140011F8013B00F8013B80D331F8023B20F890
:10022400023B7BE7043AD9D3013A11F8013B00F8C9
:10023400013BF9D20B7803704B7843708B78837051
:10024400604670470348044B834202D0034B03B11A
:100254001847704708000020080000200000000034
:100264000548064B1B1AD90F01EBA301491002D014
:10027400034B03B118477047080000200800002012
:100284000000000010B5064C237843B9FFF7DAFFED
:10029400044B13B10448AFF300800123237010BD55
:1002A40008000020000000000813000808B5054BF2
:1002B4001BB105490548AFF30080BDE80840FFF7CE
:1002C400CFBF00BF000000000C000020081300088E
:1002D40000B589B0019002A800F0FEFD029B4FF426
:1002E4007A72B3FBF2F34FF0E022013B53610E4B01
:1002F400F02183F823100521002393611161116912
:1003040021F0020111610199994208D84FF0E022CD
:10031400136923F00103136109B05DF804FB11694B
:10032400C903FCD50133EEE700ED00E030B5044627
:1003340087B010460D4600F027FE684600F0B3FD76
:10034400012301936946022320460095049300F09B
:1003540089FD07B030BD00F0BBBD00F0B5BD00F0B5
:10036400B5BD000070B580208CB000F00DFE4FF4D8
:10037400804000F011FE00244FF400720223012695
:10038400052506A91B48CDE90623CDE90844CDE996
:100394000A6500F067FD4FF4806306A91548CDE9AE
:1003A4000634CDE90844CDE90A6500F05BFD4FF45D
:1003B400E133CDE9023402A94FF440230E480493FB
:1003C400ADF8144000F01EFE40F225510A4800F03A
:1003D40049FE0A4B019301A800F0C6FC064800F050
:1003E4003BFE074B1C80074B1C80074B1C800CB04A
:1003F40070BD00BF003402400038014024000001F9
:1004040028000020260000202400002010B5044607
:100414000548802100F041FE0028F9D02146024819
:10042400BDE8104000F031BE0038014010B5441E54
:1004340014F8010F00B910BDFFF7E8FFF8E738B56D
:1004440004464518AC4200D138BD14F8010BFFF73F
:10045400DDFFF7E72DE9F041DFF84CC0DFF84CE0B1
:10046400BCF80080BEF800300E4D00260746344626
:100474000139B0B2A8EB0002B04592B208D11CB168
:10048400AEF80030ACF8002000233B70BDE8F081EA
:10049400B142F4DDEA5C07F8012B0133DBB201362B
:1004A4000124E6E72A000020240000202600002082
:1004B40010B5104840F2255100F0F6FDA8B10E4CDD
:1004C4000C4840F2255100F00DFE23880948FF2B0B
:1004D4000CD800F0DEFD094A09491388C8540133D9
:1004E400DBB2138023880133238010BDBDE81040A4
:1004F40000F0CFBD00380140240000202800002077
:100504002A00002070B5A0B000F06CF93E4900202C
:1005140000F066FB3D49002000F062FB3C490020EE
:1005240000F05EFBFFF71EFF3748FFF77FFF3748F9
:10053400FFF77CFF3648FFF779FF36488022022117
:10054400FFF7F4FE802233480C21FFF7EFFE314819
:100554000E21FFF704FF2F480C21FFF7FEFE4FF496
:100564007A70FFF7B5FE1E2580216846FFF772FFFB
:10057400044620B32848FFF759FF21466846FFF791
:100584005EFF2648FFF752FF2548FFF74FFF21483B
:10059400022100F093FC88B32248FFF747FF1D486F
:1005A400042100F08BFC58B31F48FFF73FFF1948A4
:1005B400082100F083FC28B31C48FFF737FF154BD4
:1005C400022418469C6104211E46FFF7C4FE4FF422
:1005D4007A70FFF77DFE08213046FFF7BCFE4FF42A
:1005E4007A70FFF775FEB4624FF47A70FFF770FE0D
:1005F400013DB9D10E48FFF719FFB4E70D48CCE728
:100604000D48D2E70D48D8E7201300083F1300082F
:100614005213000800340240771300083C1300080A
:10062400821300088F130008A2130008B5130008F2
:10063400CA13000898130008AB130008BF1300087E
:100644007047FEE7704770470369C26893429CBFD6
:1006540081685B18013B981A70472DE9F041D0E995
:1006640002840546A8EB04064068964220440F46DF
:10067400144406D9FFF74CFDBFF35F8FEC60BDE86F
:10068400F0813246A4EB0804FFF742FD6868224675
:10069400B919EFE72DE9F843C568064689461746B8
:1006A4004FF000083369B46870689D4228BF1B1975
:1006B400641BBC4203F1FF3328BF3C465B1B9C42D6
:1006C40028BF1C46494622462844FFF721FDB3684B
:1006D4002544A044A1443F1BAB4208BF0025BFF3FF
:1006E4005F8FF560002FDDD14046BDE8F883000040
:1006F40008B5144BA8220021184600F025FD03225A
:10070400026111494261114A8161C2614FF4806200
:100714000262002282624262C26201660C49416640
:100724001021816603460267C2664267BFF35F8F8A
:10073400084911F8010D98540132102AF9D1BFF378
:100744005F8F08BD3C050020EE1300083A0100202D
:100754002A0100200E140008F8B5144B182700FBDA
:1007640007751D4407FB00330E46DB6A012B144654
:100774000AD0022B14D023B92846FFF765FF844220
:1007840008D900242046F8BD2846FFF75DFF8442BF
:1007940028BF0446224631462846FFF75EFFF1E7AC
:1007A4002846BDE8F840FFF775BF00BF3C050020B0
:1007B400F8B50B4B1B78532B04460D46164601D057
:1007C400FFF796FFEFF311874FF0200181F31188B3
:1007D400324629462046FFF7BFFF87F31188F8BD4C
:1007E4003C050020FFF784BF826810B504464068CA
:1007F400531C834206D820688154E268A360013206
:10080400E2601A46636893420BD121682069FFF7BE
:10081400CFFFA368984215BF4FF0FF330023E36076
:10082400A36010BD2DE9F84F9946DDE90A43174648
:10083400064688460A464FF0010ABA4212D2CA4511
:1008440038BFCA4613F0010B01D184B90024F36800
:10085400002B3EDB0125B9F1010F20D909F1FF3945
:100864007D43F8E70AF1010AB2FBF7F2E5E79B07DB
:1008740012D5B9F1000F0CBF30252025A245E6D2D0
:1008840029463046FFF7B0FFF368002B04F1FF342C
:10089400DDDB002CF2D1D9E72025EFE77D43B8FB5F
:1008A400F5F39F42FAD9DFF84C90B8FBF5F33046E4
:1008B40019F8031005FB1388FFF796FFF368002B64
:1008C40003DBB5FBF7F3BD4205D2BBF1000F00D04B
:1008D40064B9BDE8F88F1D46E7E720213046FFF7ED
:1008E40083FFF368002B04F1FF34F2DB5445F4D8A2
:1008F400EFE700BF0F1400082DE9F04F9BB00AABDF
:1009040005930024402303908846174606930990D4
:10091400254618F8011B002900F05681252940F0CE
:100924004B8143464FF0000A184610F8011B2D294D
:1009340017D011D823291BD02B2916D0002698466E
:1009440013F8011BA1F13000092814D80A2202FB74
:100954000611A1F13006F2E73029EFD14AF0020A7C
:1009640001E04AF0010A0346DEE74AF0040AFAE726
:100974004AF0080AF7E72E292BD198F801302A2BE0
:1009840015D04FF0000B08F10100D9464FF00A0CC6
:10099400804610F8011BA1F1300EBEF1090F0FD8EB
:1009A4000CFB0B11A1F1300B4FF00109F0E73B6890
:1009B400191DD3F800B0396008F102084FF001099D
:1009C40098F8001001F0FB00682806D118F8011F00
:1009D400F8E74FF0000BD946F2E7782902D908F17D
:1009E400010896E76F2912D8632972D028D82529DF
:1009F40000F0DF805829F2D13968081D3860096891
:100A0400CDE90754CDE9006A5B461022A0E07039B5
:100A14000829E4D801A050F821F000BFA10B000878
:100A2400E3090008E30900085D0B0008E309000876
:100A3400410B0008E3090008E3090008FD09000868
:100A44006429CCD139680B680293081D83EAE371E9
:100A54003860A1EBE3714FF001090A20092944DC55
:100A6400D94538BFD94636B1029B002B02DB1AF0B8
:100A7400040F00D0013E1AF0020F02D0BBF1000FA8
:100A840005D01AF0010F02D10EB1B14532D3029B49
:100A9400002B3FDA029BCDE907545B4202932D21E0
:100AA40005A8FFF7A1FEDDE90754002C2EDB0AF0B0
:100AB4000301022905D1BBF1000F02D10EB1B145EA
:100AC4002FD3CDE90754CDE9006A02995B460A2287
:100AD4003EE03B68CDE907541A1D19783A6005A831
:100AE400FFF782FEDDE9075452E009F10109B1FB89
:100AF400F0F1B3E7202105A8CDE90754FFF774FE10
:100B0400DDE90754002C06F1FF36BDDA20461BB0A0
:100B1400BDE8F08F1AF0040FC9D0CDE907542B219A
:100B2400BEE7302105A8CDE90754FFF75DFEDDE9F6
:100B34000754002C06F1FF36C0DAE7E73968081DD0
:100B440038600968CDE90754CDE9006A5B460A229A
:100B540005A8FFF767FEC5E73A68111D39601668F6
:100B640016B91E4E4FF0000916F8011B81B1B9F1F8
:100B7400000F02D0BBF1000F0AD005A8CDE907543D
:100B8400FFF732FEDDE90754002C0BF1FF3BEBDAF3
:100B940008F10108002CBFF6BCAEB7E73B681A1D8C
:100BA40019683A6008230022CDE90754CDE90032E0
:100BB4002BE7CDE9075492E705A8CDE90754FFF7E1
:100BC40013FEDDE90754E5E7002C9FD025B1039817
:100BD4002A460AA9FFF7ECFD2C4497E7F71300080F
:100BE4000EB403B503AB01AA53F8041B0193FFF73A
:100BF40083FE02B05DF804EB03B07047534AD2F8A9
:100C0400883043F4700384B0C2F88830504B1A68BB
:100C140042F001021A6059684E4A0A405A601A6842
:100C24004D4922F0847222F480321A601A6822F448
:100C340080221A605A6822F0036222F470225A60F9
:100C44004FF46052DA6200221A631A649960D96917
:100C540041F08051D961D96921F08051D9613F496E
:100C6400086840F080000860086820F01000086000
:100C740002928DF8032003921A6842F480321A60BB
:100C84001A68C2F340428DF80320039A013203929A
:100C94009DF803201AB9039AB2F5005FF0D11A68DF
:100CA400C2F340428DF803209DF8032042B92C4B37
:100CB4002C4A1A60254B4FF000629A6004B07047CA
:100CC400264A116821F007011160116841F0020100
:100CD40011605A685A605A6842F400525A605A685D
:100CE40042F4A0625A605A6822F0036222F470222D
:100CF4005A601A6C22F001021A645A680192019A2D
:100D040042F480320192019A42F400320192019A33
:100D140042F0036242F440220192019A5A60029A1C
:100D24001A641A6842F080721A601A689201FCD53B
:100D34005A6822F003025A605A6842F002025A606A
:100D44005A6802F00C02082AFAD1B3E700ED00E079
:100D5400001002400CC07FF80000BF0400200240D5
:100D64000000002000127A0070B50178012501F01E
:100D74001F039D40C3784C09BBB10E4B4678DA681B
:100D8400D243C2F30222C2F104039E4083780F20AF
:100D940020FA02F21340084A33431B011144DBB228
:100DA40081F8003342F8245070BD034B203443F8DB
:100DB4002450F9E700ED00E000E100E010B502F096
:100DC4000704A40012074FF00F034CBF426A026AE3
:100DD40003FA04F36FEA030301FA04F14BBF13406F
:100DE40013400B430B434CBF4362036210BD30B549
:100DF400032304685500AB4024EA030401F0030311
:100E0400AB402343036021F01003013B012B08D8BE
:100E1400436801249440090923EA040391401943D7
:100E2400416030BD10B5C36852000324944023EAE6
:100E3400040391401943C16010BD10B583680124B7
:100E4400944023EA040391401943816010BD10B516
:100E5400C36A52000324944023EA040391401943D3
:100E6400C16210BD70B50C4600250126236833FA13
:100E740005F200D170BD06FA05F21A4211D061697B
:100E84002A46FFF79BFF2A466168FFF7B0FFA16877
:100E9400FFF7C8FFE1682A46FFF7CFFF2169FFF794
:100EA400D6FF0135E2E74FF6FF7303600F220023FC
:100EB400C3604360426183600361704740690840D6
:100EC400003818BF01207047816170478162704704
:100ED4004369594041617047254930B54C684A68B7
:100EE400250140F20F2303EA944302F480324ABFFF
:100EF4006FF4F77402331B19002A35D10A6C12F00F
:100F0400010F14BF1B4A1C4A4C681C4D53431A4A18
:100F140004F00C04082C08BF1A4602604C68C4F3A1
:100F240003142C5DE24042604C68C4F302242C5D3F
:100F340022FA04F484604C68C4F3C2242C5D104D7E
:100F440022FA04F4C460CC6A04F00F042C5DB2FBF2
:100F5400F4F24261CA6A0B49C2F3031231F8122057
:100F6400B3FBF2F3036130BD4A6812F4003FC8E7F3
:100F74000010024000093D0000127A0050140008DD
:100F84004014000820140008024A536903435361C3
:100F9400704700BF00100240024A93690343936103
:100FA400704700BF0010024030B587B00446684661
:100FB4000D46FFF791FF124B9C4207D003F5C05337
:100FC4009C4203D003F580639C4216D1039B1922F3
:100FD40053436422AD00B3FBF5F3B3FBF2F102FB20
:100FE40011331B013233B3FBF2F303F00F0343EA73
:100FF40001139BB2238107B030BD029BE7E700BF1A
:101004000038014038B504460D460968FFF7CCFFA7
:10101400A389AA889BB223F480531343A381238A10
:10102400EA889BB223F4405313432382A3892A8979
:101034009BB223F4C0631343A381A3896A899BB23F
:1010440023F00C031343A381A38AAA899BB223F43C
:1010540040731343A38238BD83899BB243F4005386
:1010640083817047C1F34213012201F01F01012B58
:1010740002FA01F204D10C30036813430360704791
:10108400022B0CBF10301430F6E7C1F30801818045
:1010940070478088C0F308007047038801EA0300A2
:1010A400003818BF01207047C1F3421210B503463F
:1010B40001F01F040120012A00FA04F00DD19A89DD
:1010C4001B8892B210409BB230B1090A01228A40B7
:1010D4001340181E18BF012010BD022A0CBF1A8A23
:1010E4009A8AEDE7090A01238B40DB439BB2038014
:1010F400704700000D4885460D480E490E4A0023EE
:1011040002E0D458C4500433C4188C42F9D30B4AB7
:101114000B4C002301E013600432A242FBD3FFF71F
:101124006DFD00F05FF8FFF7EDF9FEE700400020E9
:1011340000000020080000207414000808000020AB
:101144007C070020FEE70000830730B546D08418F2
:10115400844604E003F8011B9D0704D09C46A44583
:101164006346F7D130BD013A0244A2EB0C02032AD4
:1011740029D9CCB204EB04240F2A04EB04442FD95C
:10118400A2F1100C2CF00F0C03F11005AC44C3E9D0
:101194000044C3E9024410336345F8D112F00C0F44
:1011A40002F00F0E18D02EF0030C9C44AEF104058F
:1011B4001A4642F8044B6245FBD125F0030404337C
:1011C4000EF003022344002ACCD0C9B21A4403F817
:1011D400011B9342FBD130BD7246F4E70346C6E7D8
:1011E4009646E0E770B50F4B0F4DAB42A3EB0506F7
:1011F40007D0B610002455F8043B01349847A642A2
:10120400F9D800F07FF8094D094B5E1BAB424FEA59
:10121400A60606D0002455F8043B01349847A6429C
:10122400F9D870BD68140008681400086814000830
:1012340070140008704700BF704700BF024B13B121
:10124400024800F005B87047000000006112000871
:10125400002301461A46184600F014B838B5074D65
:10126400074C2C1BA41005D0013C55F8043D9847AD
:10127400002CF9D1BDE8384000F04AB874140008D5
:10128400701400082DE9F8431B4D0646286898465B
:101294000F469146FFF7CEFF184B1C681CB3286815
:1012A40065681F2D22DC4EB96B1C0235636044F85F
:1012B4002570FFF7C1FF0020BDE8F88304EB85012A
:1012C4000123C1F88890D4F88821AB401A43022E38
:1012D400C4F88821C1F80881E6D1D4F88C211A43D6
:1012E400C4F88C21E0E7064C1C60D8E7FFF7A4FFA4
:1012F4004FF0FF30E0E700BF04000020E8050020C5
:10130400EC050020F8B500BFF8BC08BC9E46704749
:0C131400F8B500BFF8BC08BC9E4670474E
:101320004E333247343330205553415254312054D8
:101330006573742053746172746564210D0A0042F0
:10134000617564726174653A203131353230300D27
:101350000A0053656E6420616E7920636861726172
:101360006374657220746F206563686F20626163C7
:101370006B2E2E2E0D0A0052656365697665643A00
:1013800020004C4544205374617475733A20004C1E
:101390004544313D4F4E20004C4544313D4F46467B
:1013A00020004C4544323D4F4E20004C4544323DD8
:1013B0004F464620004C4544333D4F4E0D0A004CED
:1013C0004544333D4F46460D0A0053797374656DAD
:1013D0002072756E6E696E672E2E2E204C4544204D
:1013E000626C696E6B696E672E2E2E0D0A00546555
:1013F000726D696E616C00284E554C4C29000000DE
:1014000000000000545452205245474745530030D5
:10141000313233343536373839414243444546005A
:10142000010002000400060008000A000C00100081
:1014300020004000800000010001000100010001C7
:1014400001020406080A0C10202020202020202061
:10145000000000000102030401020304060708095A
:08146000B4ECFF7F0100000065
:0814680041120008B102000866
:0414700089020008E5
:081474000020A107E40500209F
:04000005080010F9E6
:00000001FF
