:020000040800F2
:1000000000400020E5220008E9120008EB12000879
:1000100000000000000000000000000000000000E0
:100020000000000000000000000000003523000870
:100030000000000000000000B301000805220008D5
:100040003523000835230008352300083523000830
:100050003523000835230008352300083523000820
:100060003523000835230008352300083523000810
:100070003523000835230008352300083523000800
:1000800035230008352300083523000835230008F0
:1000900035230008352300083523000835230008E0
:1000A00035230008352300083523000835230008D0
:1000B00035230008352300083523000835230008C0
:1000C00035230008352300083523000835230008B0
:1000D000691000083523000835230008352300087F
:1000E0003523000835230008352300083523000890
:1000F0003523000835230008352300083523000880
:10010000352300083523000835230008352300086F
:04011000352300088B
:10014000EFF3108072B6704780F3108870472E4A24
:100150001368012B04D04FF0010313602B4A106089
:100160002B4A11602B484FF080510160704728499D
:10017000086026494FF00000086023494FF0010055
:10018000086025482549026841EA020101602148CA
:100190004FF08051016062B6FEE71B4A1368012BE5
:1001A00004D04FF001031360184A1060184A116020
:1001B0007047EFF3108272B61348016891B14FF0A7
:1001C000000101601148016829B1EFF3098121E9BB
:1001D000F00F006801600E4909680968B1E8F00F86
:1001E00081F3098882F310884EF0040E70471EF0E8
:1001F000040F0CBFEFF30880EFF3098000B502F0A5
:100200000BF85DF804EB7047EC110020F4110020AE
:10021000F011002004ED00E020ED00E00000FFFF01
:10022000844641EA000313F003036DD1403A41D301
:1002300051F8043B40F8043B51F8043B40F8043BC0
:1002400051F8043B40F8043B51F8043B40F8043BB0
:1002500051F8043B40F8043B51F8043B40F8043BA0
:1002600051F8043B40F8043B51F8043B40F8043B90
:1002700051F8043B40F8043B51F8043B40F8043B80
:1002800051F8043B40F8043B51F8043B40F8043B70
:1002900051F8043B40F8043B51F8043B40F8043B60
:1002A00051F8043B40F8043B51F8043B40F8043B50
:1002B000403ABDD2303211D351F8043B40F8043BF0
:1002C00051F8043B40F8043B51F8043B40F8043B30
:1002D00051F8043B40F8043B103AEDD20C3205D300
:1002E00051F8043B40F8043B043AF9D2043208D0F8
:1002F000D2071CBF11F8013B00F8013B01D30B886A
:1003000003806046704700BF082A13D38B078DD047
:1003100010F003038AD0C3F10403D21ADB071CBF19
:1003200011F8013B00F8013B80D331F8023B20F883
:10033000023B7BE7043AD9D3013A11F8013B00F8BC
:10034000013BF9D20B7803704B7843708B78837044
:100350006046704700000000000000000000000040
:10036000000000000000000000000000000000008D
:10037000000000000000000000000000000000007D
:1003800030B490F800F020F007016FF0000C10F08E
:10039000070491F820F040F048804FF000046FF01F
:1003A0000700D1E9002391F840F000F1080082FA3B
:1003B0004CF2A4FA8CF283FA4CF3A2FA8CF34BBB06
:1003C000D1E9022382FA4CF200F10800A4FA8CF27F
:1003D00083FA4CF3A2FA8CF3E3B9D1E9042382FA4D
:1003E0004CF200F10800A4FA8CF283FA4CF3A2FA62
:1003F0008CF37BB9D1E9062301F1200182FA4CF29A
:1004000000F10800A4FA8CF283FA4CF3A2FA8CF300
:10041000002BC6D0002A04BF04301A4612BAB2FA22
:1004200082F200EBD20030BC7047D1E9002304F027
:100430000305C4F100004FEAC50514F0040F91F85C
:1004400040F00CFA05F562EA05021CBF63EA0503F9
:1004500062464FF00004AAE7000000000000000020
:1004600001F0FF01102A2BDB10F0070F08D010F865
:10047000013B013A8B422DD010F0070F42B3F6D169
:10048000F0B441EA012141EA014122F007047FF082
:1004900000070023F0E80256083C85EA010586EAD9
:1004A000010685FA47F5A3FA87F586FA47F6A5FA15
:1004B00087F68EB9EED1F0BC01F0FF0102F0070221
:1004C00032B110F8013B013A83EA010313B1F8D1CC
:1004D0000020704701387047002D06BF35460338AD
:1004E000073815F0010F07D1013015F4807F02BFE6
:1004F000013015F4C03F0130F0BC0138704700BF37
:1005000081F0004102E000BF83F0004330B54FEAC4
:1005100041044FEA430594EA050F08BF90EA020F31
:100520001FBF54EA000C55EA020C7FEA645C7FEAC4
:10053000655C00F0E2804FEA5454D4EB5555B8BFE7
:100540006D420CDD2C4480EA020281EA030382EA58
:10055000000083EA010180EA020281EA0303362DEA
:1005600088BF30BD11F0004F4FEA01314FF4801CBD
:100570004CEA113102D0404261EB410113F0004FCF
:100580004FEA03334CEA133302D0524263EB430386
:1005900094EA050F00F0A780A4F10104D5F1200E24
:1005A0000DDB02FA0EFC22FA05F2801841F100017F
:1005B00003FA0EF2801843FA05F359410EE0A5F153
:1005C00020050EF1200E012A03FA0EFC28BF4CF084
:1005D000020C43FA05F3C01851EBE37101F000453A
:1005E00007D54FF0000EDCF1000C7EEB00006EEB47
:1005F0000101B1F5801F1BD3B1F5001F0CD34908D1
:100600005FEA30004FEA3C0C04F101044FEA445227
:1006100012F5800F80F09A80BCF1004F08BF5FEAAE
:10062000500C50F1000041EB045141EA050130BD8E
:100630005FEA4C0C404141EB0101013C28BFB1F5A0
:10064000801FE9D291F0000F04BF01460020B1FAEB
:1006500081F308BF2033A3F10B03B3F120020CDABE
:100660000C3208DD02F1140CC2F10C0201FA0CF09C
:1006700021FA02F10CE002F11402D8BFC2F1200C01
:1006800001FA02F120FA0CFCDCBF41EA0C019040B7
:10069000E41AA2BF01EB0451294330BD6FEA040400
:1006A0001F3C1CDA0C340EDC04F11404C4F12002EB
:1006B00020FA04F001FA02F340EA030021FA04F3FD
:1006C00045EA030130BDC4F10C04C4F1200220FA54
:1006D00002F001FA04F340EA0300294630BD21FA92
:1006E00004F0294630BD94F0000F83F4801306BF58
:1006F00081F480110134013D4EE77FEA645C18BF4C
:100700007FEA655C29D094EA050F08BF90EA020FE2
:1007100005D054EA000C04BF1946104630BD91EADA
:10072000030F1EBF0021002030BD5FEA545C05D1DD
:100730004000494128BF41F0004130BD14F580041C
:100740003CBF01F5801130BD01F0004545F0FE4190
:1007500041F470014FF0000030BD7FEA645C1ABFC5
:10076000194610467FEA655C1CBF0B46024650EAFC
:10077000013406BF52EA033591EA030F41F4002128
:1007800030BD00BF90F0000F04BF0021704730B5AE
:100790004FF4806404F132044FF000054FF0000183
:1007A00050E700BF90F0000F04BF0021704730B544
:1007B0004FF4806404F1320410F0004548BF404219
:1007C0004FF000013EE700BF42004FEAE2014FEA6E
:1007D00031014FEA02701FBF12F07F4393F07F4F49
:1007E00081F06051704732F07F4208BF704793F04C
:1007F0007F4F04BF41F40021704730B54FF460745F
:1008000001F0004521F000411CE700BF50EA010261
:1008100008BF704730B54FF000050AE050EA01020A
:1008200008BF704730B511F0004502D5404261EB7A
:1008300041014FF4806404F132045FEA915C3FF4BB
:10084000D8AE4FF003025FEADC0C18BF03325FEA58
:10085000DC0C18BF033202EBDC02C2F1200300FA09
:1008600003FC20FA02F001FA03FE40EA0E0021FA2E
:1008700002F11444BDE600BF70B54FF0FF0C4CF41C
:10088000E06C1CEA11541DBF1CEA135594EA0C0FCE
:1008900095EA0C0F00F0DEF82C4481EA030621EA09
:1008A0004C5123EA4C5350EA013518BF52EA033544
:1008B00041F4801143F4801338D0A0FB02CE4FF0F6
:1008C0000005E1FB02E506F00042E0FB03E54FF026
:1008D0000006E1FB03569CF0000F18BF4EF0010E1E
:1008E000A4F1FF04B6F5007F64F5407404D25FEA1A
:1008F0004E0E6D4146EB060642EAC62141EA5551CD
:100900004FEAC52040EA5E504FEACE2EB4F1FD0C0E
:1009100088BFBCF5E06F1ED8BEF1004F08BF5FEA8C
:10092000500E50F1000041EB045170BD06F000463E
:1009300046EA010140EA020081EA0301B4EB5C04EB
:10094000C2BFD4EB0C0541EA045170BD41F48011E3
:100950004FF0000E013C00F3AB8014F1360FDEBF08
:10096000002001F0004170BDC4F10004203C35DAE4
:100970000C341BDC04F11404C4F1200500FA05F367
:1009800020FA04F001FA05F240EA020001F0004208
:1009900021F0004110EBD37021FA04F642EB06017E
:1009A0005EEA430E08BF20EAD37070BDC4F10C04A8
:1009B000C4F1200500FA04F320FA05F001FA04F26C
:1009C00040EA020001F0004110EBD37041F1000158
:1009D0005EEA430E08BF20EAD37070BDC4F1200563
:1009E00000FA05F24EEA020E20FA04F301FA05F2CB
:1009F00043EA020321FA04F001F0004121FA04F273
:100A000020EA020000EBD3705EEA430E08BF20EA42
:100A1000D37070BD94F0000F0FD101F0004640007C
:100A200041EB010111F4801F08BF013CF7D041EAFE
:100A3000060195F0000F18BF704703F00046520002
:100A400043EB030313F4801F08BF013DF7D043EAD3
:100A50000603704794EA0C0F0CEA135518BF95EA89
:100A60000C0F0CD050EA410618BF52EA4306D1D110
:100A700081EA030101F000414FF0000070BD50EA2F
:100A8000410606BF1046194652EA430619D094EAB9
:100A90000C0F02D150EA013613D195EA0C0F05D1A3
:100AA00052EA03361CBF104619460AD181EA0301F7
:100AB00001F0004141F0FE4141F470014FF00000AF
:100AC00070BD41F0FE4141F4780170BD70B54FF04A
:100AD000FF0C4CF4E06C1CEA11541DBF1CEA1355CA
:100AE00094EA0C0F95EA0C0F00F0A7F8A4EB0504AC
:100AF00081EA030E52EA03354FEA013100F08880A3
:100B00004FEA03334FF0805545EA131343EA12636B
:100B10004FEA022245EA111545EA10654FEA002620
:100B20000EF000419D4208BF964244F1FD0404F5D9
:100B3000407402D25B084FEA3202B61A65EB030535
:100B40005B084FEA32024FF480104FF4002CB6EBF2
:100B5000020E75EB030E22BFB61A754640EA0C0072
:100B60005B084FEA3202B6EB020E75EB030E22BFB2
:100B7000B61A754640EA5C005B084FEA3202B6EBF3
:100B8000020E75EB030E22BFB61A754640EA9C00B2
:100B90005B084FEA3202B6EB020E75EB030E22BF82
:100BA000B61A754640EADC0055EA060E18D04FEA40
:100BB000051545EA16754FEA06164FEAC30343EAE0
:100BC00052734FEAC2025FEA1C1CC0D111F4801FAD
:100BD0000BD141EA00014FF000004FF0004CB6E7A6
:100BE00011F4801F04BF01430020B4F1FD0C88BF45
:100BF000BCF5E06F3FF6AFAEB5EB030C04BFB6EB50
:100C0000020C5FEA500C50F1000041EB045170BD42
:100C10000EF0004E4EEA113114EB5C04C2BFD4EB6F
:100C20000C0541EA045170BD41F480114FF0000EF3
:100C3000013C90E645EA060E8DE60CEA135594EA6F
:100C40000C0F08BF95EA0C0F3FF43BAF94EA0C0F72
:100C50000AD150EA01347FF434AF95EA0C0F7FF4E7
:100C600025AF104619462CE795EA0C0F06D152EA3B
:100C700003353FF4FDAE1046194622E750EA41061F
:100C800018BF52EA43067FF4C5AE50EA41047FF430
:100C90000DAF52EA43057FF4EBAE12E74FF0FF3C95
:100CA00006E000BF4FF0010C02E000BF4FF0010C66
:100CB0004DF804CD4FEA410C7FEA6C5C4FEA430CDF
:100CC00018BF7FEA6C5C1BD001B050EA410C0CBF2E
:100CD00052EA430C91EA030F02BF90EA020F002090
:100CE000704710F1000F91EA030F58BF994208BFF7
:100CF00090422CBFD8176FEAE37040F001007047B4
:100D00004FEA410C7FEA6C5C02D150EA013C07D10A
:100D10004FEA430C7FEA6C5CD6D152EA033CD3D055
:100D20005DF8040B704700BF8446104662468C464F
:100D30001946634600E000BF01B5FFF7B7FF002882
:100D400048BF10F1000F01BD4DF808EDFFF7F4FFAB
:100D50000CBF012000205DF808FB00BF4DF808ED36
:100D6000FFF7EAFF34BF012000205DF808FB00BF59
:100D70004DF808EDFFF7E0FF94BF012000205DF87B
:100D800008FB00BF4DF808EDFFF7CEFF94BF012030
:100D900000205DF808FB00BF4DF808EDFFF7C4FF29
:100DA00034BF012000205DF808FB00BF4FEA410C72
:100DB0007FEA6C5C02D150EA013C0AD14FEA430C55
:100DC0007FEA6C5C02D152EA033C02D14FF0000092
:100DD00070474FF0010070474FEA410212F50012D0
:100DE00015D211D56FF47873B3EB625212D94FEA72
:100DF000C12343F0004343EA505311F0004F23FA5C
:100E000002F018BF404270474FF00000704750EAB0
:100E1000013005D111F0004008BF6FF0004070476D
:100E20004FF00000704700BF0348044B834202D0DC
:100E3000034B03B118477047DC060020DC06002096
:100E4000000000000548064B1B1AD90F01EBA30157
:100E5000491002D0034B03B118477047DC0600204D
:100E6000DC0600200000000010B5064C237843B9D2
:100E7000FFF7DAFF044B13B10448AFF300800123FE
:100E8000237010BDDC0600200000000038B500080B
:100E900008B5054B1BB105490548AFF30080BDE817
:100EA0000840FFF7CFBF00BF00000000E0060020B1
:100EB00038B50008002070470020704710B5044680
:100EC000C0B200F087F8204610BD08B500F09EF8CB
:100ED000B0FA80F0400908BD08B500F08BF800209A
:100EE00008BD08B500F022F8002008BD00F048BD9C
:100EF000014800F06DBA00BF50B5000830B5044697
:100F000087B010460D4600F07FFC684600F015FCE7
:100F1000012301936946022320460095049300F0C3
:100F2000EBFB07B030BD00F013BC000070B58020B3
:100F30008CB000F069FC4FF4804000F06DFC0024A0
:100F40004FF4007202230126052506A91B48CDE9AE
:100F50000623CDE90844CDE90A6500F0CDFB4FF446
:100F6000806306A91548CDE90634CDE90844CDE9EA
:100F70000A6500F0C1FB4FF4E133CDE9023402A968
:100F80004FF440230E480493ADF8144000F07AFC6F
:100F900040F225510A4800F0A5FC0A4B019301A834
:100FA00000F02CFB064800F097FC074B1C80074B19
:100FB0001C80074B1C800CB070BD00BF0034024089
:100FC0000038014024000001FC060020FA06002041
:100FD000F806002010B504460548802100F09DFC6D
:100FE0000028F9D021460248BDE8104000F08DBC31
:100FF0000038014038B504464518AC4200D138BD30
:1010000014F8010BFFF7E6FFF7E700002DE9F041C8
:10101000DFF84CC0DFF84CE0BCF80080BEF80030D0
:101020000E4D0026074634460139B0B2A8EB000247
:10103000B04592B208D11CB1AEF80030ACF8002037
:1010400000233B70BDE8F081B142F4DDEA5C07F8B3
:10105000012B0133DBB201360124E6E7FE06002056
:10106000F8060020FA06002010B5104840F225517D
:1010700000F05AFCA8B10E4C0C4840F2255100F08B
:1010800071FC23880948FF2B0CD800F042FC094A68
:1010900009491388C8540133DBB213802388013314
:1010A000238010BDBDE8104000F033BC0038014083
:1010B000F8060020FC060020FE06002000207047F5
:1010C00010B50446C0B2FFF785FF204610BD00F002
:1010D000AFB970B50D4614460E46731B9C4201DC39
:1010E000204670BD16F8010BFFF7F1FFF5E7000091
:1010F00013B5184B18480122542100F02BF9002495
:1011000001340523B4FBF3F303EB8303E31A013B40
:101110000094032B03D8DFE803F00D1115190F4BD2
:1011200000225E210C4800F015F94FF47A7001F0AE
:1011300020F8E5E70A4B01226221F3E7094B02227E
:101140006621EFE7084B03226A21EBE7074B0422F5
:101150006E21E7E768B500087FB5000892B5000882
:10116000ADB50008C7B50008E1B50008FCB500083A
:1011700037B50F4B0F48104D01223B2100F0EAF824
:1011800000240E48042100F0D1F805FB04F3B3F16C
:10119000333F06D80A4B074800940022452100F04F
:1011A000D9F84FF4FA70013400F0E3FFE9E700BF2B
:1011B00017B600087FB50008CDCCCCCC0038024073
:1011C00028B600081FB5FFF793FE002000F010F9C5
:1011D00033484FF48072042100F088F8314B3248D4
:1011E0000122892100F0B6F8304B2F4801228A21D4
:1011F00000F0B0F82E4B2C4801228B2100F0AAF809
:10120000284B294801228C2100F0A4F80A2314213C
:10121000CDE902314FF400730193264B0093264A27
:1012200026492748002300F0E1FE58BB1E48254B05
:1012300001229A2100F08EF8214800F081FF0B2353
:101240001422CDE902324FF4806301931E4B0093C8
:101250001E4A1F491F48002300F0C8FEC8B91248A3
:101260001D4B0122AE2100F075F81A4800F068FF0E
:101270001A4B0D480122B62100F06CF8002005B091
:101280005DF804FB164B084803229F2100F062F82A
:10129000D5E7144B04480322B32100F05BF8E7E7DD
:1012A000003802403EB600087FB5000867B6000867
:1012B00085B600086C0C002071110008A1B600086A
:1012C0006C0E0020AAB60008FE070020F1100008EE
:1012D000F9B60008000C002003B7000854B7000856
:1012E000D3B600082DB700087047FEE773B50C4B66
:1012F000CDE9000104460D4616460A480122212187
:1013000000F028F8324629462046FFF7F7FD064B45
:1013100004480122232102B0BDE8704000F01AB851
:1013200095B70008C2B70008D8B7000838B5002242
:1013300004460D46054B0648432100F00BF82946AC
:101340002046BDE83840FFF7EEBD00BFF5B7000806
:10135000C2B7000808B42DE9FF43164B0BAC53F895
:101360002280154B54F8047B13F802900E46054674
:10137000FFF7BCFD2B46CDE900604A4641460F48C9
:1013800001F0CAF823463A46FF210D48039401F0C4
:1013900085F90B4A0A49002313540A4A0A4801F006
:1013A000BBF80A4801F02AF904B0BDE8F04301B0E7
:1013B000704700BF9CB8000896B8000802B8000843
:1013C000D80E002019B8000820B8000827B8000877
:1013D00048B103683BB183682BB103691BB1034B70
:1013E0001860002070470420704700BFDC0F002009
:1013F00007B50C4A13680BB90B4B136030B94FF4A7
:10140000E1314FF48472CDE9001268461B683BB1AC
:10141000984710B9054B01221A7003B05DF804FB20
:101420000120FAE7DC0F0020B0B80008D80F002038
:10143000054B1B782BB1054B1B6813B11B6903B11E
:1014400018474FF0FF307047D80F0020DC0F002006
:1014500008B5FFF733FE08BD0120704708B5FFF758
:10146000FBFF08BD0120704708B5FFF7FBFF08BD73
:101470000120704708B5FFF7FBFF08BD08B5FFF76F
:101480001FFE08BD0020704708B5FFF7FBFF08BD31
:10149000534AD2F8883043F4700384B0C2F88830DD
:1014A000504B1A6842F001021A6059684E4A0A40CD
:1014B0005A601A684D4922F0847222F480321A6010
:1014C0001A6822F480221A605A6822F0036222F419
:1014D00070225A604FF46052DA6200221A631A6472
:1014E0009960D96941F08051D961D96921F0805161
:1014F000D9613F49086840F080000860086820F022
:101500001000086002928DF8032003921A6842F4DA
:1015100080321A601A68C2F340428DF80320039AA1
:10152000013203929DF803201AB9039AB2F5005FC5
:10153000F0D11A68C2F340428DF803209DF80320D1
:1015400042B92C4B2C4A1A60254B4FF000629A602E
:1015500004B07047264A116821F007011160116834
:1015600041F0020111605A685A605A6842F4005210
:101570005A605A6842F4A0625A605A6822F00362C4
:1015800022F470225A601A6C22F001021A645A681E
:101590000192019A42F480320192019A42F400329F
:1015A0000192019A42F0036242F440220192019AB0
:1015B0005A60029A1A641A6842F080721A601A68B5
:1015C0009201FCD55A6822F003025A605A6842F030
:1015D00002025A605A6802F00C02082AFAD1B3E7F4
:1015E00000ED00E0001002400CC07FF80000BF04D6
:1015F000002002400000002000127A0070B501783F
:10160000012501F01F039D40C3784C09BBB10E4B6F
:101610004678DA68D243C2F30222C2F104039E4044
:1016200083780F2020FA02F21340084A33431B014B
:101630001144DBB281F8003342F8245070BD034BF3
:10164000203443F82450F9E700ED00E000E100E029
:1016500010B502F00704A40012074FF00F034CBFAF
:10166000426A026A03FA04F36FEA030301FA04F11F
:101670004BBF134013400B430B434CBF4362036209
:1016800010BD30B5032304685500AB4024EA0304C1
:1016900001F00303AB402343036021F01003013B3F
:1016A000012B08D8436801249440090923EA040364
:1016B00091401943416030BD10B5C3685200032406
:1016C000944023EA040391401943C16010BD10B552
:1016D00083680124944023EA040391401943816004
:1016E00010BD10B5C36A52000324944023EA0403DA
:1016F00091401943C16210BD70B50C46002501260A
:10170000236833FA05F200D170BD06FA05F21A42D9
:1017100011D061692A46FFF79BFF2A466168FFF7EF
:10172000B0FFA168FFF7C8FFE1682A46FFF7CFFFC7
:101730002169FFF7D6FF0135E2E74FF6FF7303603B
:101740000F220023C36043604261836003617047DE
:101750004369594041617047254930B54C684A6832
:10176000250140F20F2303EA944302F480324ABF7A
:101770006FF4F77402331B19002A35D10A6C12F08A
:10178000010F14BF1B4A1C4A4C681C4D53431A4A94
:1017900004F00C04082C08BF1A4602604C68C4F31D
:1017A00003142C5DE24042604C68C4F302242C5DBB
:1017B00022FA04F484604C68C4F3C2242C5D104DFA
:1017C00022FA04F4C460CC6A04F00F042C5DB2FB6E
:1017D000F4F24261CA6A0B49C2F3031231F81220D3
:1017E000B3FBF2F3036130BD4A6812F4003FC8E76F
:1017F0000010024000093D0000127A00F8B800080D
:10180000E8B80008C8B80008024A536903435361A6
:10181000704700BF00100240024A9369034393617E
:10182000704700BF0010024030B587B004466846DC
:101830000D46FFF791FF124B9C4207D003F5C053B2
:101840009C4203D003F580639C4216D1039B19226E
:1018500053436422AD00B3FBF5F3B3FBF2F102FB9B
:1018600011331B013233B3FBF2F303F00F0343EAEE
:1018700001139BB2238107B030BD029BE7E700BF95
:101880000038014038B504460D460968FFF7CCFF23
:10189000A389AA889BB223F480531343A381238A8C
:1018A000EA889BB223F4405313432382A3892A89F5
:1018B0009BB223F4C0631343A381A3896A899BB2BB
:1018C00023F00C031343A381A38AAA899BB223F4B8
:1018D00040731343A38238BD83899BB243F4005302
:1018E00083817047C1F34213012201F01F01012BD4
:1018F00002FA01F204D10C3003681343036070470D
:10190000022B0CBF10301430F6E7C1F308018180C0
:1019100070478088C0F308007047038801EA03001D
:10192000003818BF01207047C1F3421210B50346BA
:1019300001F01F040120012A00FA04F00DD19A8958
:101940001B8892B210409BB230B1090A01228A4032
:101950001340181E18BF012010BD022A0CBF1A8A9E
:101960009A8AEDE7090A01238B40DB439BB203808F
:1019700070470000014BC3E900337047E00F0020BF
:10198000014B1868704700BFE80F002070B504468F
:1019900016460A460A211D4600F014FA04F1100307
:1019A000C4E90433049B2362002363629DF814306E
:1019B00023F001036372C4E9066570BD70B5044687
:1019C000FEF7BEFBD4E904134B6019600F4B104DBA
:1019D0001968236A04F11002C4E9042219442B682F
:1019E0006162AB420CD159680A6061615A6023613F
:1019F000637A43F001036372FEF7A6FB002070BD1B
:101A00005E69B142EFD11B68EBE700BFE80F002031
:101A1000E00F002038B50446FEF792FB637ADA0740
:101A200004D4FEF791FB4FF0FF3038BDD4E90451E8
:101A300004F1100223F0010369600D60C4E904227F
:101A40006372FEF781FB0020EFE770B50E46044697
:101A50001546FEF775FB042E09D8DFE806F00603ED
:101A60000C111500236A2B6001E02B682362FEF73E
:101A70006BFB002070BD637A23F002036372F6E70C
:101A8000637A43F00203F9E7637A13F0010318BFA6
:101A90000123E8E7184B2DE9F0411F68174EFEF7C8
:101AA0004FFB6FF0004805463468B44203D06369C9
:101AB000FB1A434504D32846BDE8F041FEF744BB7A
:101AC000D4E9002353601A6014F8073C23F00103A3
:101AD00004F8073CA368C4E900440BB1E0689847E8
:101AE00014F8073C9B07DFD523693B446361A4F1ED
:101AF0001000FFF763FFD7E7E80F0020E00F00209A
:101B00000C4A08B513680133136000F0B7FA68B1E6
:101B1000836B013B83634BB9436B836390F8303035
:101B200043F0080380F8303000F0F0F9BDE80840D9
:101B3000FFF7B0BFE80F002008B5FEF701FB00F08B
:101B40001FFBFFF717FF00F05DF900F015F800F03C
:101B500093FB00F0C3F9002008BD000038B5054D27
:101B6000002455F8043B03B198470134042CF8D104
:101B7000F5E700BFEC0F00201FB50D4A0D4800230C
:101B8000C2E90033C2E9023320211F22CDE902213C
:101B90004FF480720192084A00920849084A00F006
:101BA00025FA044805B05DF804EB00F0C9BA00BF9F
:101BB000EC0F0020FC100020FC0F00204FB80008A4
:101BC0005D1B0008F0B50A2A03468BB0084606D113
:101BD000002B04DA5B42012601A90D460EE0002627
:101BE000FAE7B3FBF2F402FB1437092F2346FCB2E9
:101BF00094BF30345734E4B205F8014B002BF0D1D8
:101C00008D42EED0034616B12D2203F8012B5C1E47
:101C10002A468A4207D86A1AA94288BF00220021B0
:101C200099540BB0F0BD12F8016D04F8016FF0E7A4
:101C30002DE9FF410139064600EB01080546117800
:101C400009B1454505D30023A81B2B7004B0BDE89E
:101C5000F081252902D0571C2A4646E05178782980
:101C600002F1020708D86F290FD863293AD025D886
:101C70002529F1D0582963D02A46252002F8010BE6
:101C8000904542D9AA1C69703FE0A1F17002082A70
:101C9000F2D801A050F822F0651D0008791C000858
:101CA000791C0008F11C0008791C00081D1D0008A3
:101CB000791C0008791C0008411D0008642901D026
:101CC0006929D9D11C460A2254F8040B01A9FFF74F
:101CD00079FF2A46013810F8013F0BB142451AD16D
:101CE000234612E053F8041B2A4602F8011B0CE0BD
:101CF000294953F8042B002A08BF0A46511E2A46D8
:101D000011F8010F08B1424502D115463A4696E74F
:101D100002F8010BF4E702F8013BDCE71C460A225B
:101D200054F8040B01A9FFF74DFF2A46013810F8BB
:101D3000013F002BD4D04245D2D002F8013BF6E758
:101D40001C46102254F8040B01A9FFF73BFF2A465A
:101D5000013810F8013F002BC2D04245C0D002F834
:101D6000013BF6E71C46102254F8040B01A9FFF7CB
:101D700029FFAB1C434504D230222A7078226A70B6
:101D80001D4601382A4610F8013F002BA8D04245D5
:101D9000A6D202F8013BF6E755B800080FB407B524
:101DA00004AB7F2153F8042B05480193FFF740FF54
:101DB000034800F0F7F903B05DF804EB04B0704796
:101DC00068110020002361F07F0101724372C3603B
:101DD000D15C19B1C1540133072BF9D10022C2548F
:101DE000704703461A46013311780029FAD1101AB8
:101DF000704702440346934200D1704703F8011B29
:101E0000F9E70000094A00231380094A0133202B17
:101E1000C2E9002202F10802F8D1064B1F221A7013
:101E2000054A00231360054A13607047F81100202B
:101E300004120020FA110020FC11002000120020E2
:101E400010B50446FEF77CF9012394F8311084F8AC
:101E500030300A4B03EBC10304F1100259680A60E9
:101E600061615A60064A2361116894F83330BDE815
:101E700010400B431360FEF767B900BF0412002047
:101E80000012002010B50446FEF75AF9D4E90412F6
:101E900004F110034A601160C4E9043394F831205E
:101EA000084B03EBC20153F832308B4206D1064A8D
:101EB00094F83310136823EA01031360BDE810405F
:101EC000FEF742B9041200200012002020B190FA5F
:101ED000A0F0B0FA80F001307047000008B5084B60
:101EE0001868084BFFF7F2FF013853F83000064B33
:101EF000A0F110021A600830BDE80840FEF737B9BB
:101F00000012002004120020FC11002070B5FEF722
:101F100017F9174BB3F900300646FBB9154B186893
:101F2000E0B1FFF7D3FF144A431E52F83350134A6F
:101F30001468A5F110018C4210D011481160037093
:101F4000104B1B680BB1204698470F4B1B6805F1DF
:101F5000080104F1180033B9FEF7F9F83046BDE87E
:101F60007040FEF7F1B8094B1860094B1960F5E7AE
:101F7000F81100200012002004120020FC110020A3
:101F8000FA110020E8110020EC110020F4110020CB
:101F9000F011002038B50B4B1C68FEF7D1F8054650
:101FA0002046FFF76FFF042384F83030636E0BB1D7
:101FB000204698472846FEF7C7F8BDE83840FFF7A7
:101FC000A5BF00BFFC11002010B5D0E904416FF09F
:101FD0000102C26200F1100261600C60C0E90422DB
:101FE000FFF72EFFBDE81040FFF790BF2DE9F74F38
:101FF000DDE90CAB04460E4691460A4601219DF8E8
:1020000038500F9F9846FFF7DDFE04F11003C4E936
:1020100004335A46C4E90798C4E909AB2321504662
:10202000FFF7E7FEA26A616A124B043A0A44D4E958
:10203000070100F037F9012384F8315084F8325059
:10204000AB400025A06184F83330C4E90D77E56228
:1020500084F8305004F13C00CDE90055064A23468F
:102060003146FFF793FC2846C4E9195503B0BDE893
:10207000F08F00BF951F0008C91F0008014B1868AA
:10208000704700BFFC11002038B5044640B1FEF790
:1020900057F894F83030012B054604D0FEF754F879
:1020A0004FF0FF3038BD022384F8303004F13C009B
:1020B000FFF7B0FC2046FFF7E5FE2846FEF744F8A0
:1020C0000020EFE773B50190FEF73AF80D4B1C685E
:1020D000054604F13C062046FFF7D6FF01AA002181
:1020E0003046FFF7B2FC3046FFF768FC2846FEF7A3
:1020F0002BF8FFF70BFFE06A831C18BF002002B02B
:1021000070BD00BFFC11002038B5044640B1FEF799
:1021100017F894F83030022B054604D0FEF714F877
:102120004FF0FF3038BD04F13C00FFF773FC204650
:10213000FFF786FE2846FEF707F80020F2E70000CA
:1021400008B5022380F83030FFF7DEFF034B1B6831
:102150000BB1FFF7DBFE002008BD00BFFC11002023
:10216000002801DB03D070474FF0FF30704701209B
:10217000704708B5FFF7F4FFBDE80840FFF7A2BFBE
:102180004FF0E0234BF67F325A61054AF02182F886
:10219000231000229A6107221A61FEF7C7BE00BF12
:1021A00000ED00E070B50446FFF71BFE2518AC42B9
:1021B00000D170BD23780A2B264602D10D20FEF7F0
:1021C00009FF30780134FEF705FFF0E708B5FDF7A9
:1021D000B7FF044A13780133DBB21370BDE808403F
:1021E000FDF7B2BF7015002008B5FDF7A9FF044A3E
:1021F0001378013BDBB21370BDE80840FDF7A4BFC4
:102200007015002008B5FFF7E1FFFFF779FCBDE886
:102210000840FFF7E9BF0000064C074808B5FFF784
:10222000BDFDA16A0548FFF7B9FDE16A0448FFF763
:10223000B5FDFEE700ED00E05CB8000869B80008F5
:102240007DB800081FB51346079A03929DF8182021
:1022500002924FF400720192054A00920A4601462A
:102260000448FFF7C3FE034805B05DF804FB00BF58
:10227000041300200415002007B50A231422CDE919
:102280000032064906484FF400730022FFF7DAFFD8
:1022900003B05DF804EBFFF753BF00BFC5110008A2
:1022A00091B80008043222F0070270B504460C4EC3
:1022B000A2F14400054645F8046BAA42FBD142E96D
:1022C000033442F8201C4FF08073002142E90711CB
:1022D00042E9051142F8043C42F8441C70BD00BFBD
:1022E000EFBEADDE0D4885460D480E490E4A00236F
:1022F00002E0D458C4500433C4188C42F9D30B4ABA
:102300000B4C002301E013600432A242FBD3FFF721
:10231000BFF800F0A1FAFFF70FFCFEE70040002035
:1023200000000020DC06002028BD0008DC0600209C
:102330008C180020FEE70000024A0349034800F021
:10234000C9B800BF040000203D7700081800002035
:102350000C4B4168994210B5044601D005F0EEF9E6
:10236000A168094B994202D0204605F0E7F9E168DF
:10237000064B994204D02046BDE8104005F0DEB976
:1023800010BD00BF74150020DC150020441600208D
:102390002DE9F843314A324C3249DFF8DC90DFF85E
:1023A000DC80314F1160002504232946082204F106
:1023B0005C00C4E903352D4EA560C4E90055C4E9AD
:1023C0000555656600F0A6F904F15800C4E907490F
:1023D000C4E90987E66200F067FA2946244B63677F
:1023E000082204F1C400C4E91A55C4E91E55256742
:1023F000C4F8CC50C4F8805000F08CF904F16803A4
:1024000004F1C000C4F88430C4E92298C4E92476F9
:1024100000F04AFA174BC4F8DC30294604F59670F0
:102420000822C4E93455C4E93855C4F8D850C4F872
:102430003451C4F8E85000F06DF904F1D003C4E958
:102440003D87C4F8F09004F59470C4F8FC60C4F8BB
:10245000EC30BDE8F84300F027BA00BFAC1600200E
:1024600074150020392300087126000895260008FD
:1024700009000100120002000D26000831260008A4
:1024800010B504460A4800F013FA636B23B9094BF0
:10249000094A1B68626323B1BDE81040044800F09C
:1024A00009BAFFF775FFBDE81040014800F002BA15
:1024B000BC160020AC16002051230008014800F093
:1024C000F7B900BFBC160020014800F0F3B900BF07
:1024D000BC1600202DE9F8430746884616464FF003
:1024E0000009D6E90154013D10D4A389012B08D974
:1024F000B4F90E3001332146384602D0C04749EACC
:102500000009013D6B1C04F16804EED13668002E11
:10251000E7D14846BDE8F8830FB400B5074983B05A
:1025200004AB086853F8042B8168019302F0F8FEAD
:1025300003B05DF804EB04B0704700BF100000204A
:1025400070B5054688B008460C46FDF719FF2A4EBF
:102550006A6B059001214318CDE9066104A80221A8
:1025600004940393AC6801900291002A40D0636EFA
:10257000B4F90C20D8071AD5910421D442F40052A2
:1025800023F40053A2816366284601AA214605F080
:10259000F9F9636E002814BF4FF0FF350A25DA07FA
:1025A00002D4A3899B0510D5284608B070BD9005BC
:1025B00011D59104E2D59E04E6D54FF0FF35F0E742
:1025C0009E04E1D54FF0FF35EEE7A06D00F072F903
:1025D000284608B070BDA06D00F06AF9B4F90C206F
:1025E000636E9004CAD59904CED54FF0FF35D6E777
:1025F0002846FFF745FFBAE708B90008024B014635
:102600001868FFF79DBF00BF1000002010B50C46F2
:10261000B1F90E1000F0F4F8002803DB236D034439
:10262000236510BDA38923F48053A38110BD00BF8F
:102630002DE9F0410C46B1F90C101F46CB050546BB
:1026400016460BD421F48051A1813B46B4F90E10FB
:1026500032462846BDE8F04100F0E8B8B4F90E1063
:102660000223002200F0B6F8B4F90C10EAE700BF2C
:1026700010B50C46B1F90E1000F0ACF8B4F90C30FE
:10268000421C0EBF23F4805343F480532065A38182
:1026900010BD00BFB1F90E1000F08AB810B51C4C87
:1026A000002924689AB02DDB009004904FF402704A
:1026B000ADF80C004FF00000199013D001394FF61F
:1026C000FF7002910591ADF80E006946204600F0BA
:1026D0002FFD421C01DA8B232360009B00221A701D
:1026E0001AB010BD4FF6FF7002910591ADF80E00C3
:1026F0006946204600F01CFD431C01DA8B23236051
:102700001AB010BD8B2323604FF0FF30F8E700BFF5
:1027100010000020830730B546D08418844604E0BA
:1027200003F8011B9D0704D09C46A4456346F7D1DE
:1027300030BD013A0244A2EB0C02032A29D9CCB2E3
:1027400004EB04240F2A04EB04442FD9A2F1100C4B
:102750002CF00F0C03F11005AC44C3E90044C3E9AD
:10276000024410336345F8D112F00C0F02F00F0E43
:1027700018D02EF0030C9C44AEF104051A4642F822
:10278000044B6245FBD125F0030404330EF0030231
:102790002344002ACCD0C9B21A4403F8011B934247
:1027A000FBD130BD7246F4E70346C6E79646E0E744
:1027B00038B5074D0022044608462A6008F074FE2A
:1027C000431C00D038BD2B68002BFBD0236038BDE4
:1027D000B016002038B50D46084C844611462846F0
:1027E0001A4600232360654608F086FE431C00D08D
:1027F00038BD2368002BFBD02B6038BDB0160020FD
:1028000038B50D46084C8446114628461A46002322
:102810002360654608F078FE431C00D038BD23686D
:10282000002BFBD02B6038BDB016002038B50D460C
:10283000084C8446114628461A4600232360654604
:10284000FEF747FC431C00D038BD2368002BFBD0AB
:102850002B6038BDB016002070B50F4B0F4DAB424A
:10286000A3EB050607D0B610002455F8043B01344D
:102870009847A642F9D808F05FFE094D094B5E1B48
:10288000AB424FEAA60606D0002455F8043B0134BB
:102890009847A642F9D870BD1CBD00081CBD0008B1
:1028A0001CBD000824BD0008704700BF704700BF72
:1028B000704700BF704700BF024B13B1024800F0E1
:1028C00005B8704700000000FD7E000800230146A7
:1028D0001A46184605F066BB2DE9F843064608205F
:1028E000894605F01FFBDFF8A4800546304600F05E
:1028F00013FCD8F808305F6827F00307A7F111042C
:10290000A4EB09042C44B4FBF5F4013C05FB04F4EE
:10291000A54208DC0021304605F0DEFAD8F8083080
:102920003B44984205D0304600F0FCFB0020BDE857
:10293000F8836142304605F0CFFA01300FD0114ADA
:10294000D8F808303F1B47F001075F601368304636
:102950001B1B136000F0E6FB0120BDE8F88300219B
:10296000304605F0B9FAD8F80820831A0F2BDADDC3
:1029700043F001035360044B02491B68C01A08600E
:10298000D1E700BFC41600205C01002068010020D0
:1029900000295BD0F8B50C46074600F0BDFB54F8A3
:1029A00004CC744DA4F108022CF00103D118A868DE
:1029B0004E68884226F003060CF0010E7ED088197E
:1029C0004E60406800F00100BEF1000F2FD154F8B6
:1029D000084C121B2344946805F1080C644562D02E
:1029E000D2F80CE0C4F80CE0CEF8084000287FD004
:1029F00043F0010050600B60B3F5007F2FD2D9087F
:102A000068685C090131012309B2A34003436B608C
:102A100055F83100906005EBC103083BD36045F8E1
:102A20003120C2603846BDE8F84000F07BBB70B989
:102A3000334405F1080C8868604543F0010471D007
:102A4000C968C16088605460D350D5E770474CF0C6
:102A50000101B3F5007F44F8041CD350CFD3B3F584
:102A6000206F4FEA532045D2980900F1390109B28D
:102A700000F13804C900681869580838884203D141
:102A800057E08968884204D04C6824F003049C42D3
:102A9000F7D8C868C2E9021082603846CA60BDE84B
:102AA000F84000F03FBB88BB1E44D1E90213CB6065
:102AB000996046F0010353609651B3E71E44BEF19E
:102AC000000F07D154F8083CD21A1E44D2E9021371
:102AD000CB60996046F001035360274BAA601B68E6
:102AE000B3429FD8254B38461968FFF7F5FE99E7A2
:102AF0003344A0E714280ED9542821D8180B00F12C
:102B00006F0109B200F16E04C900B4E743F001009F
:102B100050600B6086E700F15C0109B200F15B04D4
:102B2000C900A8E7C5E90422C2E902CC5460D35029
:102B300078E76E68A4100123A34033436B60A9E7D4
:102B4000B0F5AA7F07D8D80B00F1780109B200F1DF
:102B50007704C9008FE740F25451884206D8980C98
:102B600000F17D0100F17C04C90084E74FF47E711F
:102B70007E2480E76801002060010020F416002018
:102B80002DE9F04F01F10B05162D83B0064623D831
:102B9000102900F2B48000F0BFFA1025182302209B
:102BA000B84F3B44A3F108025C68944200F0648192
:102BB0006368E268A16823F00303CA6023443046D7
:102BC00091605A6842F001025A6000F0ABFA083492
:102BD000204603B0BDE8F08F35F0070500F18F8087
:102BE000A94200F28C8000F097FAB5F5FC7FC0F0A6
:102BF000B8815FEA552E00F08980BEF1040F00F223
:102C000070814FEA951E0EF1390003B20EF1380EB5
:102C1000DB009C4F3B44A3F1080C5C68A44507D142
:102C20000DE0002AE16880F221818C4507D00C4636
:102C3000636823F003035A1B0F2AF2DD7046DFF8A6
:102C40005C823C69444500F0FE80636823F0030C1D
:102C5000ACEB05030F2B00F38981002BC7E9048837
:102C600080F27381BCF5007FD7F804E080F0188112
:102C70004FEADC03013319B24FEA5C1C012303FA6B
:102C80000CF357F83120A2604EEA030E07EBC103A4
:102C9000083BE360C7F804E047F83140D460831094
:102CA0004FF0010C0CFA03FCF44535D81CEA0E0F6A
:102CB00008D120F003004FEA4C0C1CEA0E0F00F183
:102CC0000400F8D007EBC00AD6468146DEF80C3087
:102CD0000BE0596821F003014A1B0F2A1C46DB68F0
:102CE00000F30F81002A80F223819E45F1D109F182
:102CF000010919F0030F0EF1080EE7D161E10C2371
:102D000033600024204603B0BDE8F08F4FF4007319
:102D100040204FF03F0E7CE7BC68636823F0030956
:102D2000A94504D3A9EB05030F2B00F38F80564B65
:102D30001B68082003F1100804EB0903009305F059
:102D4000F1F8524A13680133A844834605D008F1CC
:102D5000FF388044434203EA08084146304605F004
:102D6000BBF8B0F1FF3F494A824600F01B8104EBFB
:102D70000903834200F21481454B186840440BF16B
:102D8000FF3C186000F072811168013100F07A8117
:102D900004EB0902AAEB020202441A601AF00702CD
:102DA000CDE9002300F03281C2F108029244D04400
:102DB00008EA0C015A44521A02EA0C0B59463046F2
:102DC00005F08AF8421C019B00F07981A0EB0A0013
:102DD00000EB0B081868C7F808A048F00102584437
:102DE000BC42CAF80420186016D0B9F10F0F40F2A7
:102DF0004C816168A9F10C0222F0070201F0010187
:102E0000114361604FF0050CA1180F2AC1E901CCF4
:102E100000F25D81DAF804201E4B1968814238BF48
:102E200018601D4B1968814238BF1860544622F063
:102E30000308A845A8EB050301D30F2B06DC304699
:102E400000F070F95DE7D7F804E028E7621943F075
:102E5000010345F0010565603046BA60536000F03B
:102E600061F90834204603B0BDE8F08FA26823441E
:102E7000D16030468A60A4E6DC68A3427FF498AE55
:102E80000230DCE668010020F41600205C0100201E
:102E9000C4160020F0160020EC160020700100205F
:102EA000BCF5206F4FEA5C2272D3142A00F2C18075
:102EB00002F15C031BB25B32DB00F918FB580839E6
:102EC000994203D198E09B68994204D05A6822F055
:102ED00003026245F7D8D968C4E902318C60DC602E
:102EE000DDE6BEF1140F60D9BEF1540F00F2AB80E5
:102EF0004FEA153E0EF16F0003B20EF16E0EDB00CD
:102F000087E6D4F808C03046661945F001056560CB
:102F1000CCF80C30C3F808C042F00103C7E90466DE
:102F2000C6E902887360625000F0FCF80834E9E6F4
:102F3000214430464A6842F001024A6054F8082FA2
:102F4000D3609A6000F0EEF8DCE6A4443046DCF88A
:102F5000043043F00103CCF8043000F0E3F8083407
:102F6000D0E6E808431C1BB2DB0019E6621943F007
:102F7000010145F0010565603046C7E90422C2E958
:102F80000288516044F80C3000F0CCF80834B9E6FF
:102F90004FEA9C1202F139031BB23832DB008CE796
:102FA000BC425CD0BC68626841E70EF15C0003B2D1
:102FB0000EF15B0EDB002CE65AF80839534540F061
:102FC000A68010F0030F00F1FF30F5D17B6823EAF3
:102FD0000C037B604FEA4C0C9C453FF69DAEBCF168
:102FE000000F04D198E64FEA4C0C09F104091CEAE1
:102FF000030FF8D0484665E692104FF0010C0CFA2A
:1030000002F24EEA020EC7F804E065E70AEB080296
:1030100002EA0C02ABEB020202EA0C0B5946304604
:1030200004F05AFF431C019B7FF4D0AEDDF800B0E2
:10303000D0E6542A2DD84FEA1C3202F16F031BB29E
:103040006E32DB0039E7BEF5AA7F2DD84FEAD53EB8
:103050000EF1780003B20EF1770EDB00D9E52D4BAF
:10306000186840440BF1FF3C18608DE61AEA0C0F1B
:103070007FF48AAED7F808A0C84448F00102CAF825
:103080000420C9E6C2F800A088E60123CAF804308B
:10309000D5E6B2F5AA7F25D84FEADC3202F17803F3
:1030A0001BB27732DB0008E740F254539E4524D828
:1030B000AB0C03F17D0003F17C0EC300A9E5009A7F
:1030C000083A9044A8EB0A084FF0000B82E630461D
:1030D00004F108010093FFF75BFC009BD7F808A000
:1030E000186897E640F254539A420CD84FEA9C4233
:1030F00002F17D03DB007C32DFE64FF47E737F203C
:103100004FF07E0E85E54FF47E737E22D5E67B6818
:1031100060E700BFC41600200148FFF7C9BB00BF2D
:10312000B41600200148FFF7C5BB00BFB41600204D
:103130002DE9F04FD7B00C46069115460A93834609
:1031400004F0C6FE036813931846FDF719F9002131
:103150001290082226A8FFF7DDFAA389190603D5E5
:103160002369002B01F0AE809FED777B00239E4604
:10317000CDE916EE8DED0E7BCDE92B332DAB2A93E9
:103180001C46CDF850E0CDF854E0CDF810E0CDF875
:1031900034E02F463D466E4BD3F8E46004F092FED7
:1031A00026AA0346009222A92A465846B04700287C
:1031B00000F09880C0F28E80229A252A034601D022
:1031C0001D44E8E7B5EB0708064640F08F80002372
:1031D0004FF0FF328DF87F309A46059301352B78FA
:1031E000039201359946A9F120035A2B00F2B280CF
:1031F000DFE813F04402B000B0004002B000B000BD
:10320000B0002302B000B000EE01FD01B000F901F2
:103210000602B00002025B005B005B005B005B002B
:103220005B005B005B005B00B000B000B000B00072
:10323000B000B000B0002501B0007C010203250100
:1032400025012501B000B000B000B000FE02B000C2
:10325000B0004E02B000B000B000B901B000A4024E
:10326000B000B000C007B000B000B000B000B000C7
:10327000B000B000B0002501B0007C01670125015D
:1032800025012501220367016C00B0003B03B0005B
:103290002C03700345036C00B000B9016A00DD0225
:1032A000B000B0003008B0006A00A9F1300300227D
:1032B00015F8019B02EB820203EB4202A9F13003F5
:1032C000092BF5D905928EE72B788AE72B784AF0FF
:1032D000200A86E70822002126A8FFF71BFA01230F
:1032E0001D4458E7B5EB0708064612D0DDF8ACE000
:1032F0002C9B0EF101024344072AC4E900782C9369
:103300002B9215DC0834049B43440493002E7FF475
:103310005EAF2C9B002B41F06883069B9B8903F0DA
:103320004003002B41F0C587049857B0BDE8F08FEB
:1033300006992AAA584604F0D5F90028EDD12DACFB
:10334000E1E700BFAFF300800000000000000000D4
:1033500070050020B9F1000FDBD00023CDE90B335D
:1033600001228DF8F4908DF87F3007930892039333
:1033700011933DAF02922C9E10961AF0840300F038
:10338000E4809DF87F2002B32B984FF000080130B5
:1033900001220136626007280DF17F02CDE92B067C
:1033A000226000F302840834B8F1000F0DD02B988E
:1033B000013020AA0236226007284FF00202CDE930
:1033C0002B06626000F3E5830834802B00F0EC826A
:1033D000039B089AA3EB0208B8F1000F00F32983BE
:1033E0001AF4807F40F08982089B63601E442B9B07
:1033F00027600133072B2C962B9300F3728308343C
:103400001AF0040F05D0059B029A9F1A002F00F3B3
:10341000DA83DDE9043202998A42ACBF9B185B185B
:103420000493002E40F03D8300232B93079B1BB198
:1034300007995846FFF7ACFA2DAC2F46AAE60A9B2F
:10344000073323F00703B3EC027B8DED0E7B0A9369
:103450000F9B8DED1A7A23F000431B93DDE91A01CF
:10346000B34B4FF0FF32FDF7A1FC002840F0288657
:10347000DDE91A01AE4B4FF0FF32FDF779FC06464D
:10348000002840F01D86DDE90E01002200232AF00D
:10349000800AFDF763FC002841F0F1819DF87F3040
:1034A000B9F1470FCCBFA34FA34F002B41F0DF85ED
:1034B0000322CDE90B3307930892039311930292F1
:1034C00059E71AF0200F40F0B3850A9A1AF0100F4E
:1034D00052F8046B41F01B871AF0400F0A9201F07A
:1034E000168146F3C038434636B295E10A9BB9F1DE
:1034F000430F03F1040603D01AF0100F00F0BB864F
:103500000822002128A8FFF705F90A9B3DAF1A6899
:10351000394628AB584606F0D9FB034601330890DC
:1035200001F0C286089B23EAE37302930023CDE9EE
:103530000B330A968DF87F302C9E079303931193DB
:103540001AF0840310967FF41CAF059A0298A2EB40
:103550000008B8F1000F00F314849DF87F20002AC2
:103560003FF436AF10E7DDF8288058F8047B0023DD
:103570008DF87F30002F00F09486B9F1530F01F0E1
:1035800013801AF010030B9341F00E80039B002B65
:10359000C1F219821A460B993846FCF761FF9DF873
:1035A0007F300790002801F0CB85079AD21B089244
:1035B00022EAE27202920BB1013202920B9BCDF829
:1035C0002880039311930C9307934FF07309D2E66D
:1035D0000A9B53F8042B0592002A80F21385059A62
:1035E0000A93524205922B784AF0040AF9E52B23FC
:1035F0008DF87F302B78F4E52B784AF0800AF0E5DF
:10360000294611F8019BB9F12A0F01F04286A9F170
:103610003003092B98BF002201F20C8411F8019BA2
:1036200002EB820203EB4202A9F13003092BF5D928
:1036300042EAE27303930D46D5E5584604F048FC90
:10364000436815931846FCF79BFE179006465846AC
:1036500004F03EFC82682B781692002E3FF4C1AD38
:10366000002A3FF4BEAD1278002A3FF4BAAD4AF406
:10367000806AB6E52B784AF0010AB2E59DF87F2012
:103680002B78002A7FF4ADAD20228DF87F20A8E5AD
:103690001AF0200F4AF0100000F0BC840A9B073398
:1036A00023F007031A46596852F8083B0A92002291
:1036B0008DF87F20039A002A18DB53EA010220F4D8
:1036C000906A15D1039A9AB910F001031A46029331
:1036D00000F00B8730238DF85731039B0892CDE91A
:1036E0000B33119307930DF2571744E620F4806AC9
:1036F00056AF03F00702DB0843EA4173C9083032D2
:1037000053EA0106384607F8012DF2D11AF00103F9
:103710000B9340F01E830399119356AAD21B91423A
:10372000B8BF1146089202910C93079323E600BF9D
:10373000FFFFEF7F10B900080CB900081AF0200F46
:103740004AF0100138D10A9B1A1D0A9B03981B6886
:103750004FF0000840458DF87F801E46C0F27C8502
:1037600021F0800A002B00F08B840A920A2E78F157
:10377000000380F0B28306F13003DBB2039A8DF8C8
:103780005731012AB8BF012202929DF87F300122F1
:1037900008920DF25717002B01F07585029B01333B
:1037A00002930023CDE90B3307931193E3E51AF05D
:1037B000200F00F04E8451460A9B073323F0070385
:1037C0001A46D3F8048052F8086B0A9200238DF849
:1037D0007F30039B002BC0F2408556EA080321F09E
:1037E000800AC3D1039B002B00F04F840026C2E760
:1037F0002B784AF0080AF4E41AF0200F4AF010037C
:1038000000F019840A9A073222F007029A46536898
:1038100052F8086B0A929846002BC0F24D83039A27
:10382000002AA3DB56EA08032AF0800A9ED1002A68
:1038300001F055803023A1E72B78682B03BF6B780C
:103840004AF4007A01354AF0400ACAE40A9A1AF0AA
:10385000200F02F1040300F0218412680499116022
:10386000C91751600A932F4694E42B786C2B03BF41
:103870006B784AF0200A01354AF0100AB1E40A9A3E
:10388000039F52F8040B002147F630038F42ADF836
:1038900080308DF87F100346C0F2E2842AF0800663
:1038A00046F0020A002840F0DD84002F01F01E805F
:1038B0000A92302301220297CDE907020C908DF87D
:1038C00057310DF2571711904FF078090B9084463D
:1038D00000F0A5BC1AF0200F40F0B8830A9A1AF045
:1038E000100152F8043B41F00F851AF0400000F03F
:1038F000EF869BB20A925046D9E6B9F1650F40F3C4
:10390000FA80DDE90E0100220023FDF71DFA0028F0
:1039100000F09D812B9BB24A2260013301360122C7
:10392000072B2C962B93626000F332860834219B80
:103930000D9A934280F26183129B139A1E44C4E94C
:1039400000232B9B2C960133072B2B9300F39D8494
:1039500008340D9B5F1E002F7FF752AD102F2B9B5D
:1039600041F31C849F49DDF81890109132464FF0C6
:1039700010080E4604E00834103F102F40F3A680D4
:1039800001331032072BC4E90068CDE92B32F2DD98
:103990002AAA4946584603F0A5FE002840F089802F
:1039A000DDE92B322DACE7E7059B029AA3EB020879
:1039B000B8F1000F7FF70CAD8A4B2B9A1093B8F13A
:1039C000100F29DD21463046864C2E461023069DD9
:1039D00006E0A8F11008B8F1100F01F1080118DD98
:1039E00001321030072AC1E90043CDE92B20F0DD78
:1039F0002AAA2946584603F075FE002859D1A8F195
:103A00001008B8F1100FDDE92B202DA94FF010039D
:103A1000E6DC35460C4606460132109B23604644E0
:103A2000072ACDE92B26C4F8048000F30486083465
:103A3000CEE46C4B2B9A1093B8F1100F24DD214685
:103A40001023069C06E0A8F11008B8F1100F01F150
:103A5000080118DD013263481036072AC1E9000366
:103A6000CDE92B26EFDD2AAA2146584603F03AFE7F
:103A7000F8B9A8F11008B8F1100FDDE92B262DA92F
:103A80004FF01003E6DC0C460132109B23604644E5
:103A9000072ACDE92B26C4F8048000F301820834FC
:103AA0009EE406992AAA584603F01CFE00283FF41B
:103AB000BBAC079B002B3FF430AC07995846FEF790
:103AC00067FF069B9B8903F040032AE416460133F7
:103AD000109A22603E44072B6760CDE92B367FF7B2
:103AE0008EAC06992AAA584603F0FCFD0028E0D1C6
:103AF0002C9E2DAC84E42B9B03F101080D9B012B24
:103B000006F1010604F1080940F385810123B8F1AB
:103B1000070FCDE92B862760636000F35482129B68
:103B2000139A08F101081E44B8F1070FC9E90023F0
:103B3000CDE92B8600F3548209F108090D9BDDE9DC
:103B40000E015C1E00220023FDF7FEF8002840F065
:103B50007C8108F1010801372644B8F1070FCDE94F
:103B60002B86C9F80070C9F8044000F3618109F19F
:103B70000809149AC9F8042008F101031644072B18
:103B800024AACDE92B36C9F80020AADC09F10804E3
:103B900036E4069910932AAA584603F0A3FD00289C
:103BA00087D12C9E109B2DAC0FE4069910932AAA66
:103BB000584603F097FD00287FF47BAF2C9E109BA6
:103BC0002DACFFF7F1BB084A2B9B1092102F29DD7B
:103BD000AA46DDF818904FF0100815460BE000BF1C
:103BE0004CB90008B4BA0008C4BA0008103F102F3E
:103BF00004F1080415DD01331036072BC4E9005821
:103C0000CDE92B36F2DD2AAA4946584603F06AFD73
:103C100000287FF44EAF103F102FDDE92B362DAC7E
:103C2000E9DC55460133109A3E44072BC4E90027CE
:103C3000CDE92B367FF7EDAB06992AAA584603F05B
:103C400051FD00287FF435AF2C9EFFF7E2BB219990
:103C5000002940F353840B9B0D9A9342A8BF13464F
:103C6000002B99460ADD1E44C4E900732B9B2C9659
:103C70000133072B2B9301F3848008340B9BB9F19C
:103C8000000FA8BFA3EB0903002B984600F329837C
:103C90000B9B1AF4806F3B4440F04C83219A0D99A2
:103CA0008A4203DB1AF0010F00F02D861299139857
:103CB0000E44C4E900012B992C96013107292B9160
:103CC00001F36B8008340D9907EB0108A8EB03089A
:103CD0008F1AB845A8BFB846B8F1000F0BDD2360B6
:103CE0002B9BC4F8048001334644072B2C962B935E
:103CF00001F3A5800834B8F1000FA8BFA7EB0807AF
:103D0000002F7FF77DAB102F2B9B41F34782C549D6
:103D1000DDF81890109132464FF010080E4604E07E
:103D20000834103F102F7FF7D1AE01331032072B2C
:103D3000C4E90068CDE92B32F2DD2AAA494658468B
:103D400003F0D0FC00287FF4B4AEDDE92B322DACBB
:103D5000E7E7302A00F052843023039907F8013C4A
:103D6000023856AB1B1A99424FF00002B8BF1946F1
:103D7000CDE90B2207920893074602911192FFF7B3
:103D8000FABADDF8ACE0A84810991090B8F1100F1D
:103D9000724628DD1C952046A34D069C1D931026D7
:103DA00006E0A8F11008B8F1100F00F1080017DDC7
:103DB00001321031072AC0E90056CDE92B21F0DD90
:103DC0002AAA2146584603F08DFC00287FF471AEE4
:103DD000A8F11008B8F1100FDDE92B212DA8E7DCC0
:103DE0001C9D1D9B044610982060501C08EB01068A
:103DF0000728CDE92B06C4F8048000F3A4839DF8BE
:103E00007F200834002A40F00181002B3FF4E0AA13
:103E10001346FFF7CDBA1AF0010F7FF477AE0123F6
:103E2000B8F1070FCDE92B86276063607FF7A1AE5D
:103E300006992AAA584603F055FC00287FF439AEAB
:103E4000DDE92B860DF1B40993E60D9B012B7FF77D
:103E500090AE112B41F30E827249109132464346C7
:103E60001027DDF818800E4605E009F10809103C1E
:103E7000102C40F31B8401331032072BC9E9006773
:103E8000CDE92B32F1DD2AAA4146584603F02AFC3F
:103E900000287FF40EAEDDE92B320DF1B409E6E720
:103EA00006992AAA584603F01DFC00287FF401AEAB
:103EB0002C9E2DACFFF794BA2D238DF87F30039BF9
:103EC000764268EB4808002BFFF650AC0A2E78F1DA
:103ED00000032AF0800AFFF44EAC0AF4806300224B
:103EE000CDE9074956A9DDF85890029594461C463D
:103EF00026E016EB08034D4843F10003A0FB032026
:103F000020F0030202EB90029B1AF31A47484FF08D
:103F1000CC32B646454602FB03F268F1000800FBCE
:103F20000822A3FB0063BEF10A0F13444FEA5606B2
:103F300075F10005394646EAC3764FEA53082DD39A
:103F40003A4D16EB080343F10003A5FB032020F0D4
:103F5000030202EB90029B1AF31AA3FB053268F1ED
:103F600000005B0805FB002243EAC27303EB8303F6
:103F7000A6EB430330330CF1010C01F8013C4F1E5A
:103F8000002CB6D099F800306345B2D1BCF1FF0FD8
:103F9000AFD00A2E78F1000380F0D28356AB03999C
:103FA000029DCDF85890DB1B1A469142B8BF1146CE
:103FB000DDF82090079C0893CDF834C09DF87F3041
:103FC0000291FFF7E8BB06992AAA584603F08AFB3C
:103FD00000287FF46EADDDE92B860DF1B4099EE576
:103FE00006992AAA584603F07DFB00287FF461ADAC
:103FF000DDE92B860DF1B409A0E51AF0010F3FF4BD
:10400000FFA999E40A932B78FFF7EBB898460023B1
:10401000FFF7BDB90A9B1A1D0A9B0A921B68002173
:10402000FFF745BBB4BA0008C4BA0008CDCCCCCC6D
:104030005346FFF7E7BB0A9A04320A990A920E68C0
:104040004FEAE6789A464346FFF7E6BB5046FFF74D
:1040500025BB0A9A1AF0100852F8043B41F051812E
:104060001AF0400100F03D839EB2039B8DF87F80E3
:10407000002BFFF67AAB2AF0800A002E7FF475AB96
:10408000039B0A92002B7FF4B1ABCDE90B3308936D
:1040900011930293079356AFFFF76DB91AF0100F03
:1040A00040F0D5821AF0400F40F087841AF4007F68
:1040B00000F0CD820A9A049912681170FFF7D2BB02
:1040C000DDE90E0102460B46FCF770FE06460028AD
:1040D00040F0B687B9F1610F00F04285B9F1410FA8
:1040E00000F0C486039B013300F0A784B9F1670F89
:1040F0000F9B4AF4807800F06887B9F1470F00F011
:1041000064870790DDE90E12002AC0F27A879DEDE0
:104110000E7B8DED187B00231093A9F14103252B15
:1041200000F20884DFE813F016070604060406040C
:104130009004FB04060406040604060406040604B0
:10414000060406040604060406040604060406041F
:10415000060406040604060406040604060406040F
:1041600006040604060406041607060406040604EC
:104170009004FB04B64E1AF0200100F092810A9BD5
:10418000073323F007031A46596852F8083B0A928E
:104190001AF0010200F0648153EA010200F0E881A4
:1041A00030228DF8802000228DF87F20039A8DF830
:1041B0008190002AC0F28F812AF4906242F0020AB4
:1041C00003F00F020AF00200B25C8DF857211B09C0
:1041D00043EA01730A0953EA11110DF257170BD084
:1041E00003F00F011B09715C07F8011D43EA02731C
:1041F000120953EA0201F3D1039A56AB4FF0000CB7
:10420000DB1B9A42CDE90BCCB8BF1A460893029249
:10421000CDF81CC0CDF844C000283FF4ACA8029BE8
:10422000DDE92B06023302931AF0840310968646CA
:1042300006D10599029AA1EB0208B8F1000F07DC3C
:10424000BCF1000F3FF4B4A84FF00208FFF79FB88D
:10425000022398E57F4E8EE70A928A46FFF786BAD8
:104260004AF0020A0A927B4E03F00F020220B25C6F
:104270004FF07809A9E70A9B1B688DF8F4300123F9
:10428000029308933DAFFFF751B906992AAA584601
:1042900003F028FA00287FF40CAC2C9E2DACFFF71D
:1042A00058BB039BCDF82880062B3A4628BF06232F
:1042B000CDE907730397CDE90B22674F0293119263
:1042C000FFF759B840215846FEF75AFC069B186084
:1042D0001861002801F00680069A40235361FEF71A
:1042E00043BFB8F1100F2B9B40F3C0875B48109081
:1042F00022463146069C4FF01009064606E0083279
:10430000A8F11008B8F1100F40F3A9820133103161
:10431000072BC2E90069CDE92B31F0DD2AAA21463D
:10432000584603F0DFF900287FF4C3ABDDE92B31F9
:104330002DAAE5E70D9ADDF84480CDF840A0BA1823
:10434000039222461C460C9BDDF85890DDF818A01D
:104350000B95002B31461197179E31DDB8F1000FF8
:1043600040F3108108F1FF382B98159B0130314440
:104370000728C2E900362C912B9000F3A180083267
:10438000039B99F800001F1B8742A8BF0746002F18
:104390000CDD2B98013039440728C2E900472C91E5
:1043A0002B9000F33B8199F800000832002FACBF3E
:1043B000C51B0546002D15DC04440C9B002BCDDCF1
:1043C000B8F1000FCEDC2346119F0B9DDDF840A015
:1043D000CDF8589014460D9ABA1893420E4628BF4D
:1043E00013465BE4102D2B981C4B23DD08941027FB
:1043F0002C461D4604E0103C102C02F1080216DD8C
:104400000130164B10310728C2E90037CDE92B01E6
:10441000F1DD2AAA5146584603F064F900287FF4DA
:1044200048AB103C102CDDE92B012DAAE8DC2B4613
:104430002546089C1360013029440728CDE92B014B
:10444000556000F37A8399F8000008320444B4E719
:1044500030B900081CB9000844B90008B4BA000813
:104460008DF87F20039A002A37DB53EA01022AF4F1
:10447000906A7FF4A5AE039A002A00F0EE80012A2C
:1044800033788DF85731B8BF012200230292012200
:10449000CDE90B330793089211930DF25717FEF7EE
:1044A0006ABF0A9A52F8043B0A921AF010027FF48B
:1044B0006FAE1AF0400000F035819BB2114667E6FE
:1044C0002AAA5146584603F00DF900287FF4F1AAB4
:1044D0002C992DAA54E74AF0020A03F00F020AF0C1
:1044E0000200B25C2AF4806A6FE6039B0893CDE970
:1044F0000B331193079356AFFEF73DBF2B9BB54A85
:104500002260013301360122072B2C962B93626027
:1045100000F3C9810834002940F0A9800D9A0AF0FF
:10452000010313433EF46CAF129B139A1E44C4E97B
:1045300000232B9B2C960133072B2B9300F37082C7
:1045400004F10802A4E0069910932AAA584603F041
:10455000C9F800287FF4ADAA9DF87F202C9E109BFF
:10456000002A7CD098462DAC03462B98FEF70FBF4F
:10457000039B002083428DF87F00C0F2D9802AF48B
:10458000906A78E70C9B013B09F1FF390C93EBE64D
:1045900006992AAA584603F0A5F800287FF489AAAC
:1045A0002C9E2DACFFF7C3B90822002128A8239721
:1045B000FEF7B0F8039B002BC0F210810026029595
:1045C000CDF81C80354698460EE03DA9584605F0CA
:1045D0007DFB411C284400F02185404509DC06F1A3
:1045E000040600F026850546239A925928AB002A36
:1045F000EBD10895DDF81C80029DFDE0039956AAD9
:10460000D21B91424FF00003B8BF1146CDE90B33E6
:104610000793089202911193FEF7ADBE2AAA514664
:10462000584603F05FF800287FF443AA99F8000089
:104630002C992DAABAE606992AAA584603F052F8F0
:1046400000287FF436AA2C9E2DACFEF7C1BE0A9A34
:10465000049912681160FFF705B9039B15E5002B5B
:1046600000F05B812B9813462DACFEF7A1BE129B88
:10467000139A1E44C4E900232B9B2C960133072B6D
:104680002B9300F3CD8104F108020029C0F22A84A3
:104690000D99176001330E44072BCDE92B3651607D
:1046A0003FF71FAA02F10804FEF7AABE1646984675
:1046B00008F10108109BC9F800302644B8F1070F33
:1046C000CDE92B86C9F804407FF751AAFFF7B0BBAC
:1046D0001AF400711CBF0146DBB20A925046FEF785
:1046E000E6BF1AF4007840F01B8103998DF87F80B3
:1046F00000291E46FFF639A82AF0800A002B7FF415
:1047000034A80B460A9200297FF470A8BDE41AF47D
:10471000007F16BF46F3C0184FEAE67876B24346EC
:10472000FFF77AB81AF400711CBFDBB201462FE51F
:1047300033788DF857312AF4806A0DF257175BE50C
:10474000179A1599BF1A384603F088FB99F801307B
:104750000BB109F10109204A16EB080343F10003EC
:10476000A2FB030525F0030000EB95001B1AF31ACA
:104770004FF0CC3168F1000803FB01F102FB081196
:10478000A3FB023001445B0843EAC1764FEA5108BB
:1047900016EB080343F10003A2FB031020F0030112
:1047A00001EB90015B1AF31AA3FB023168F10000E0
:1047B0005B0802FB001243EAC27303EB8303A6EB20
:1047C0004303303307F8013C4FF0010C013FFFF782
:1047D000D9BB00BF4CB90008CDCCCCCC28AB0093E2
:1047E0000023194623AA584605F096FA03460133DA
:1047F000089000F013842397089B002B5FD0632B55
:1048000040F3FE80591C5846FEF7BAF907460028C7
:1048100000F05D8507900822002128A8FDF77AFFA7
:10482000089E28AB009323AA33463946584605F024
:1048300073FA864240F04585089A0023BB5422EA69
:10484000E27202929DF87F20002A40F07083CDE949
:104850000B220392CDF828801192FEF78CBD1446EE
:104860000E460133109A22604644072BCDE92B36C1
:10487000C4F8048000F3C8800834FFF709BA2D2378
:10488000B9F1470F8DF87F3007963346039600F352
:10489000A8800322B04F0892CDE90B331193042373
:1048A0000293FEF768BD06992AAA584602F01AFF3D
:1048B00000287FF4FEA821992C9E2DAC2BE69DF8B4
:1048C0007F30CDF82880003B18BF01230293089B5E
:1048D0000393CDE90B3311930793FEF74CBD9DF87D
:1048E0007F300292089256AFFEF755BF039B0A92A3
:1048F0000C93119308930B93029356AF07934FF0C9
:1049000078099C468BE407EB0108A8EB03088F1A93
:10491000B845A8BFB846FFF7EEB92DACFEF758BDB5
:10492000DEB2039B8DF87F10002B8846BFF6A3AB49
:10493000FEF71BBF28AB019323AB00939DED180B33
:10494000039A21AB0221584603F002FC07461AF0F5
:10495000010F40F0B782289BDA1B219B0D92D81CD7
:104960000B93C0F2298203999942C0F2B8819A420E
:1049700000F3AD820B9B08931AF4806F03D00B9B5E
:10498000002B00F3A083089B23EAE373C246029343
:104990004FF06709002311930C93109B0AF002005B
:1049A000002B00F0C0804FF02D0C8DF87FC0029BD3
:1049B00001330293002303932EE40A9A04991268A8
:1049C0001180FEF74FBF3846FBF7DAFC9DF87F30C9
:1049D000089020EAE0720292002B3EF4EFADFEF761
:1049E000EBBD03225D4F089256E7069C2AAA21469A
:1049F000584602F077FEA38903F04003FEF791BC0E
:104A0000002307933DAF06E706992AAA584602F00D
:104A100069FE00287FF44DA82C9E2DACFFF738B915
:104A200006992AAA584602F05DFE00287FF441A8A4
:104A3000DDE92B3621992DAA27E60623079003935B
:104A40004AF48078FFF75EBB039B01330D9302218C
:104A50000D9E28AB019323AB0093324621AB9DED15
:104A6000180B584603F074FB29F02003462B074629
:104A70000293064400F05281DDE918010022002370
:104A8000FCF762F9002840F00F83289B9E4240F219
:104A900009834522029230215A1C28921970289BC2
:104AA000B342F9D3DB1B0D93219B0B93029B472B46
:104AB00000F00E81029B462B00F049810B9B8DF884
:104AC0009090013B002B2193C0F27D812B22092B7A
:104AD0008DF8912000F3808130228DF892200DF125
:104AE0009302303302F8013B24ABD31A14930D9B8D
:104AF000149A012B1A44089240F38B82089B129A55
:104B000013440893089A2AF4806343F4807A22EAD3
:104B1000E2720023CDE90B33119302923DE7039B30
:104B20000D93032194E79DF87FC0BCF1000F7FF443
:104B30003EAF109B0393FFF76FBB2AAA514658461E
:104B400002F0D0FD00287EF4B4AF99F800002C9953
:104B50002DAA044431E400BF0CB9000810B90008C4
:104B600047F63003ADF88030039B632B4AF0020A0E
:104B700000F30E82DDE90E12002AC0F2E38121A8C3
:104B80009DED0E0B03F0DCF9002251EC100B4FF001
:104B90007F53FBF771FE02460B46CDE90823002345
:104BA0000022FCF7D1F80346002800F0D982012347
:104BB000109621933DAF0796A84B0293039B0B944D
:104BC000591ECDE90C9A0395029EDDE90845B846C9
:104BD0008A4609E0002200230AF1FF39FCF7B4F805
:104BE000002840F04A82CA469D4B002220462946B2
:104BF000FBF742FE0D460446FCF7EEF88146FBF754
:104C0000D1FD02460B4620462946FBF77DFC16F8EF
:104C10000930BAF1FF3F4246044608F8013B0D4611
:104C2000D8D116468F4BDDF834A00022CDE90845D7
:104C3000039D0B9CCDF80C90DDF83090FCF7ACF8A0
:104C400048B9DDE90801874B0022FCF77DF8E0B1A7
:104C5000039BDB0719D5029B2896D97B18F8012CFA
:104C60009142434609D1302003F8010C289B5A1E7B
:104C7000289213F8012C8A42F6D0392A0BBF029AE7
:104C80000132927AD2B203F8012C219AA8EB0703E1
:104C90000D93B9F1610F02F1FF33219300F0B78258
:104CA00050214FF04109002B8DF89010C0F28D82F9
:104CB0002B22092B8DF8912000F38E800DF19202AA
:104CC0000FE7219B0B93F31B0D93029B472B3ED1C8
:104CD0000B9B033370DB039B0B9A934210DA0B9B05
:104CE000013BA9F10209002B8DF890902193BFF6AA
:104CF000EDAE0B9B2D22C3F101038DF89120EBE665
:104D00000D9B0B9A934200F3E2801AF0010F0B9B6C
:104D100000F02482129A134408932DE63B78302B3E
:104D200000F0C581219B1E44DDE91801002200230B
:104D3000FCF70AF80028C4D1289B9E423FF6ABAE90
:104D4000DB1B0D93219B0B93029B472BC0D00B9930
:104D5000039A0AF00103002943EA020340F3628246
:104D6000002B40F0D9810B9B08934FF066091AF491
:104D7000806F40F0AA81089B23EAE373C246029346
:104D800008E606992AAA584602F0ACFC00287EF4F0
:104D900090AE2C9E2DACFEF771BF069903932AAA04
:104DA000584602F09FFC00287EF483AE219A2C9E88
:104DB000039B2DACFEF787BF0B9BA9F10209013BBA
:104DC0008DF8909021930B9BC3F101032D22092BA9
:104DD0008DF891207FF780AE0DF1A706DFF888C02F
:104DE00032461046ACFB0312D20802EB8201A3EB61
:104DF0004101303100F8011C19466329134600F1C6
:104E0000FF32EEDC303302F8013C831EB34280F007
:104E10001F820DF1910213F8011B02F8011FB3422A
:104E2000F9D103F5AC736B44C43B1B1A24AA9B1A3B
:104E300014935CE600230D460393FEF7D4B906995C
:104E40002AAA584602F04EFC00287EF432AE219F7A
:104E50000D9B2C9EDF1B2DACFEF74DBF1CB900082F
:104E6000000030400000E03FCDCCCCCC45F6300314
:104E7000ADF88030039B632B4AF0020A00F3888070
:104E8000DDE90E12002A5DDB21A89DED0E0B03F07B
:104E900057F800224FF07F5351EC100BFBF7ECFC5E
:104EA00002460B46CDE9082300220023FBF74CFF06
:104EB00008B1012321930023AC4A10930292079377
:104EC0003DAF7BE6039BFE18472302932CE70D9B27
:104ED000129A9A180B9B0892002B40F326814FF0F0
:104EE000670944E7C1F10008103180F2E781A0486A
:104EF000109031461024064605E00832A8F110084B
:104F0000B8F1100F52DD01331031072BC2E90064F4
:104F1000CDE92B31F1DD06992AAA584602F0E2FBD1
:104F200000287EF4C6ADDDE92B312DAAE6E7029A12
:104F300003930132CDE90B330292CDF8288011930F
:104F4000FEF719BA02F1004319932D231891079621
:104F50003DAF109321A89DED180B02F0F1FF002248
:104F60004FF07F5351EC100BFBF786FC02460B46CB
:104F7000CDE9082300220023FBF7E6FE08B1012358
:104F80002193B9F1610F3FF417AE784B029315E608
:104F9000039B5846591CFDF7F3FD0746002800F017
:104FA000838107904AF48078FFF7ACB80E4601334E
:104FB000109911604644072BCDE92B36C2F80480C6
:104FC00000F30D810832FFF763BB039A002A00F05B
:104FD0001381002BC0F21D819DED0E7B8DED187BA2
:104FE000109628AB019323AB00939DED180B21ABDA
:104FF000039A0221584603F0ABF8002307460793B3
:10500000A5E402F1004319932D2318911093FFF7A3
:1050100084B81AF0010F3FF475AD6FE5069BB3F944
:105020000C300022079243F04003069A9381FEF76A
:1050300040BD039B029DDDF81C800893FFF7DCBB9D
:105040000F9B13F000432AF0800A0B9300F0AA8014
:105050002D238DF87F30B9F1470F4FF000030793F0
:10506000039340F30B810322424F089214E4002380
:105070000322CDE9073203930EE451460029DDE90E
:105080000C9A039D0B9CFFF600AE4A1C424443461B
:10509000302003F8010B9342FBD108EB010303F12D
:1050A0000108F2E5DB1B0D93219B0B9306E5DDE97F
:1050B000180100220023FBF747FE002869D0219B3E
:1050C0000B931E44FFE54FF0670916990B78FF2BF1
:1050D00000F0048100260B9A304603E001300131D4
:1050E000FF2B08D0934206DAD21A4B78002BF5D169
:1050F0000B780136F4E7CDE90B20169111960C9A46
:10510000119B17991344089A01FB0323089323EA80
:10511000E373C246029340E413460B449946129B44
:105120004B4408934FF0660921E6C3F101031A448A
:1051300022EAE273C246089202934FF0670929E41B
:10514000CDF82880D3B1039B08935A1C0292039098
:1051500011900C904FF07309FEF70DB908930BE412
:10516000054A1093029207933DAF27E530B9000836
:10517000B4BA000818B900081CB90008039B0893CA
:105180000293079B11930C9303934FF07309FEF75F
:10519000F2B80D9BC3F101032193C4E55D4A10925F
:1051A000FEF795BC9DF87F30B9F1470FCCBF5A4F41
:1051B0005A4F002B40F09A800322039308921193D8
:1051C0000C9307930292FEF7D6B8C2F10103092BA4
:1051D0004FF02D028DF891203FF7FEAD6EE5069958
:1051E0002AAA584602F07EFA00287EF462ACDDE975
:1051F0002B362DAAFFF74CBA002B2CDB9DED0E7B36
:10520000039B109301238DED187B0393E9E6702136
:1052100049E5DDE90E1202F1004319932D2318919F
:105220001093DEE6C24633B9012302934FF06609BC
:105230000893FFF7AFBB129B03F10109039B4B449B
:10524000089323EAE37302934FF06609FFF7A2BBCA
:10525000022314934BE4DDE90E1202F1004319938B
:105260002D231093012318910393BAE6294A109233
:10527000FFF7F7BA274B1093FFF71ABA0322274F0D
:105280000892FFF709BBCDE90B3307931193FEF7A3
:1052900072B80A9A6B780D4652F8041B0A9241EADA
:1052A000E1710391FDF79DBF069A938943F0400396
:1052B00093814FF0FF330493FEF736B815491091F0
:1052C00075E6069BB3F90C3043F04003ADE6069B50
:1052D0000790B3F90C3043F04003A6E60023119386
:1052E0000C930CE70C23CBF80030E2E70023039388
:1052F00011930C9307930323089304230293FEF75F
:105300003AB85146FEF721BA5046FEF785BE5346DD
:10531000FEF793BEB4BA000818B9000814B9000823
:105320002DE9F04FD7B0164604911C4683460A93E8
:1053300002F0CEFD036813931846FBF721F808220C
:105340001290002126A8FDF7E5F9BBF1000F04D06B
:10535000DBF83430002B01F0D981049B5A6EB3F98D
:105360000C30D70740F1C3859D0400F1778704997D
:1053700043F4005322F400528B814A661BB21D078E
:1053800040F18F85049A1269002A00F08A8503F0A3
:105390001A020A2A00F094859FED937B00239E4613
:1053A000CDE916EE8DED0E7BCDE92B332DAB2A9397
:1053B0001C46CDF850E0CDF854E0CDF814E0CDF81F
:1053C00034E037463D468A4BD3F8E46002F07AFD7C
:1053D00026AA0346009222A92A465846B04700282A
:1053E00000F0D583C0F2CB83229A252A034601D050
:1053F0001D44E8E7B5EB0708064640F0CC830023E0
:105400004FF0FF328DF87F309A46069301352B78A6
:10541000039201359946A9F120035A2B5CD8DFE8A5
:1054200013F054025B005B0050025B005B005B000A
:1054300033025B005B00AB01BA015B00B6011602F0
:105440005B001202D100D100D100D100D100D10007
:10545000D100D100D1005B005B005B005B005B0012
:105460005B005B00E9005B004601C602E900E90061
:10547000E9005B005B005B005B000E025B005B0011
:10548000BF015B005B005B0076015B001D035B00FE
:105490005B0017085B005B005B005B005B005B0070
:1054A0005B005B00E9005B0046013101E900E900B7
:1054B000E900BC0231012D015B00B2025B00780201
:1054C000650287022D015B0076012B01E6025B007D
:1054D0005B0087085B002B01B9F1000F00F06F83C0
:1054E0000023CDE90B3301228DF8F4908DF87F3045
:1054F00007930892039311933DAF02922C9E10964E
:105500001AF0840300F0F5809DF87F2002B32B98F9
:105510004FF00008013001220136626007280DF1CA
:105520007F02CDE92B06226000F3F2840834B8F143
:10553000000F0DD02B98013020AA023622600728D8
:105540004FF00202CDE92B06626000F3EF840834CD
:10555000802B00F09583039B089AA3EB0208B8F117
:10556000000F00F3D2831AF4807F40F03283089B4F
:1055700063601E442B9B27600133072B2C962B93D3
:1055800000F32C8408341AF0040F05D0069B029A0D
:105590009F1A002F00F3D884DDE9053202998A4270
:1055A000ACBF9B185B180593002E40F0ED830023E1
:1055B0002B93079B1BB107995846FDF7E9F92DACD2
:1055C0002F46FFE6A9F13003002215F8019B02EBFC
:1055D000820203EB4202A9F13003092BF5D90692AE
:1055E00019E700BFAFF300800000000000000000DA
:1055F000700500200A9B073323F00703B3EC027BFE
:105600008DED0E7B0A930F9B8DED1A7A23F00043EC
:105610001B93DDE91A01B24B4FF0FF32FBF7C6FBDB
:10562000002840F0BB86DDE91A01AD4B4FF0FF3298
:10563000FBF79EFB0646002840F0B086DDE90E0130
:10564000002200232AF0800AFBF788FB002841F0A3
:10565000FB839DF87F30B9F1470FCCBFA14FA24F1C
:10566000002B41F094860322CDE90B330793089277
:1056700003931193029241E72B78CAE62B784AF004
:10568000200AC6E61AF0200F40F063860A9A1AF044
:10569000100F52F8046B41F0A2871AF0400F0A92E3
:1056A00001F02E8146F3C038434636B28FE10A9BA3
:1056B000B9F1430F03F1040600F087871AF0100FC9
:1056C00040F083870A9B1B688DF8F4300123029316
:1056D00008933DAF0023CDE90B330A968DF87F3058
:1056E0002C9E0793039311931AF0840310967FF472
:1056F0000BAF069A0298A2EB0008B8F1000F00F376
:105700000D859DF87F20002A3FF425AFFFE6DDF8E8
:10571000288058F8047B00238DF87F30002F00F09C
:105720004387B9F1530F01F00C801AF010030B936B
:1057300041F00780039B002BC1F23C821A460B9973
:105740003846FAF78DFE9DF87F300790002801F06B
:105750008986079AD21B089222EAE27202920BB162
:10576000013202920B9BCDF82880039311930C9386
:1057700007934FF07309C1E60A9B53F8042B069276
:10578000002A80F28085069A0A93524206922B786C
:105790004AF0040A3DE62B238DF87F302B7838E65B
:1057A0001AF0200F4AF0100000F0F0850A9B073332
:1057B00023F007031A46596852F8083B0A92002260
:1057C0008DF87F20039A002A18DB53EA010220F4A7
:1057D000906A15D1039A9AB910F001031A46029300
:1057E00000F08B8730238DF85731039B0892CDE969
:1057F0000B33119307930DF257177FE620F4806A5D
:1058000056AF03F00702DB0843EA4173C9083032A0
:1058100053EA0106384607F8012DF2D11AF00103C8
:105820000B9340F063840399119356AAD21B9142C3
:10583000B8BF1146089202910C9307935EE62B784D
:105840004AF0080AE5E52B784AF0800AE1E52946A6
:1058500011F8019BB9F12A0F01F09486A9F13003E8
:10586000092B98BF002201F27F8411F8019B02EB03
:10587000820203EB4202A9F13003092BF5D942EA77
:10588000E27303930D46C6E5584602F021FB4368D8
:1058900015931846FAF774FD17900646584602F01D
:1058A00017FB82682B781692002E3FF4B2AD002AC7
:1058B0003FF4AFAD1278002A3FF4ABAD4AF4806AF2
:1058C000A7E52B784AF0010AA3E59DF87F202B7805
:1058D000002A7FF49EAD20228DF87F2099E500BF3D
:1058E000FFFFEF7F10B900080CB900081AF0200F75
:1058F00040F0F6840A9A1AF0100152F8043B41F085
:105900007C861AF0400001F00C809BB20A9250464F
:1059100055E70A9A1AF0200F02F1040300F0E3841D
:10592000126805991160C91751600A932F4649E51D
:105930000A9A039F52F8040B002147F630038F4266
:10594000ADF880308DF87F100346C0F2F3852AF061
:10595000800646F0020A002840F0EE85002F01F094
:1059600033800A923023012202970C908DF8573130
:105970004FF078090DF25717119008920B9084465A
:10598000079000F0BABD2B786C2B03BF6B784AF000
:10599000200A01354AF0100A3BE52B78682B03BF3B
:1059A0006B784AF4007A01354AF0400A31E51AF082
:1059B000200F4AF0100300F0CF840A9A073222F039
:1059C00007029A46536852F8086B0A929846002BD1
:1059D000C0F2CE84039A002A20DB56EA08032AF09C
:1059E000800A1BD1002A00F0A58730231DE01AF0A1
:1059F000200F00F08A8451460A9B073323F00703E7
:105A00001A46D3F8048052F8086B0A9200238DF8E6
:105A10007F30039B002B80F22A848A460A2E78F17D
:105A2000000337D206F13003DBB2039A8DF8573109
:105A3000012AB8BF012202929DF87F30012208920C
:105A40000DF25717002B01F0B585029B013302932D
:105A50000023CDE90B33079311934FE51AF0200F84
:105A60004AF01001C8D10A9B1A1D0A9B03981B68B3
:105A70004FF0000840458DF87F801E46C1F2E0815E
:105A800021F0800A002B00F057840A2E78F10003E1
:105A90000A92C7D30AF480630022CDE90759029421
:105AA000DDF8589056A994461C4626E016EB0803EC
:105AB000B24843F10003A0FB032020F0030202EBF5
:105AC00090029B1AF31AAD484FF0CC32B6464546C9
:105AD00002FB03F268F1000800FB0822A3FB00634D
:105AE000BEF10A0F13444FEA560675F10005394618
:105AF00046EAC3764FEA53082DD3A04D16EB0803B0
