:020000040800F2
:1000000000400020C11B0008850700088707000882
:1000100000000000000000000000000000000000E0
:10002000000000000000000000000000111C00089B
:10003000000000000000000087010008E11A00082D
:10004000111C0008111C0008111C0008111C0008DC
:10005000111C0008111C0008111C0008111C0008CC
:10006000111C0008111C0008111C0008111C0008BC
:10007000111C0008111C0008111C0008111C0008AC
:10008000111C0008111C0008111C0008111C00089C
:10009000111C0008111C0008111C0008111C00088C
:1000A000111C0008111C0008111C0008111C00087C
:1000B000111C0008111C0008111C0008111C00086C
:1000C000111C0008111C0008111C0008111C00085C
:1000D00035050008111C0008111C0008111C00083F
:1000E000111C0008111C0008111C0008111C00083C
:1000F000111C0008111C0008111C0008111C00082C
:10010000111C0008111C0008111C0008111C00081B
:04011000111C0008B6
:10011400EFF3108072B6704780F3108870472E4A50
:100124001368012B04D04FF0010313602B4A1060B5
:100134002B4A11602B484FF08051016070472849C9
:10014400086026494FF00000086023494FF0010081
:10015400086025482549026841EA020101602148F6
:100164004FF08051016062B6FEE71B4A1368012B11
:1001740004D04FF001031360184A1060184A11604C
:100184007047EFF3108272B61348016891B14FF0D3
:10019400000101601148016829B1EFF3098121E9E7
:1001A400F00F006801600E4909680968B1E8F00FB2
:1001B40081F3098882F310884EF0040E70471EF014
:1001C400040F0CBFEFF30880EFF3098000B501F0D2
:1001D4008FFC5DF804EB7047E40B0020EC0B00206F
:1001E400E80B002004ED00E020ED00E00000FFFF3C
:1001F400844641EA000313F003036DD1403A41D32E
:1002040051F8043B40F8043B51F8043B40F8043BEC
:1002140051F8043B40F8043B51F8043B40F8043BDC
:1002240051F8043B40F8043B51F8043B40F8043BCC
:1002340051F8043B40F8043B51F8043B40F8043BBC
:1002440051F8043B40F8043B51F8043B40F8043BAC
:1002540051F8043B40F8043B51F8043B40F8043B9C
:1002640051F8043B40F8043B51F8043B40F8043B8C
:1002740051F8043B40F8043B51F8043B40F8043B7C
:10028400403ABDD2303211D351F8043B40F8043B1C
:1002940051F8043B40F8043B51F8043B40F8043B5C
:1002A40051F8043B40F8043B103AEDD20C3205D32C
:1002B40051F8043B40F8043B043AF9D2043208D024
:1002C400D2071CBF11F8013B00F8013B01D30B8896
:1002D40003806046704700BF082A13D38B078DD074
:1002E40010F003038AD0C3F10403D21ADB071CBF46
:1002F40011F8013B00F8013B80D331F8023B20F8B0
:10030400023B7BE7043AD9D3013A11F8013B00F8E8
:10031400013BF9D20B7803704B7843708B78837070
:10032400604670470348044B834202D0034B03B139
:100334001847704708000020080000200000000053
:100344000548064B1B1AD90F01EBA301491002D033
:10035400034B03B118477047080000200800002031
:100364000000000010B5064C237843B9FFF7DAFF0C
:10037400044B13B10448AFF300800123237010BD74
:100384000800002000000000D01D000808B5054B3F
:100394001BB105490548AFF30080BDE80840FFF7ED
:1003A400CFBF00BF000000000C000020D01D0008DB
:1003B40030B5044687B010460D4600F081FE68460D
:1003C40000F00FFE012301936946022320460095A5
:1003D400049300F0E5FD07B030BD00F015BE00F059
:1003E40011BE000070B580208CB000F069FE4FF49F
:1003F400804000F06DFE00244FF4007202230126B9
:10040400052506A91B48CDE90623CDE90844CDE915
:100414000A6500F0C5FD4FF4806306A91548CDE9CF
:100424000634CDE90844CDE90A6500F0B9FD4FF47E
:10043400E133CDE9023402A94FF440230E4804937A
:10044400ADF8144000F07AFE40F225510A4800F05D
:10045400A5FE0A4B019301A800F024FD064800F014
:1004640097FE074B1C80074B1C80074B1C800CB06D
:1004740070BD00BF00340240003801402400000178
:1004840028000020260000202400002010B5044687
:100494000548802100F09DFE0028F9D0214602483D
:1004A400BDE8104000F08DBE0038014010B5441E78
:1004B40014F8010F00B910BDFFF7E8FFF8E738B5ED
:1004C40004464518AC4200D138BD14F8010BFFF7BF
:1004D400DDFFF7E72DE9F041DFF84CC0DFF84CE031
:1004E400BCF80080BEF800300E4D002607463446A6
:1004F4000139B0B2A8EB0002B04592B208D11CB1E8
:10050400AEF80030ACF8002000233B70BDE8F08169
:10051400B142F4DDEA5C07F8012B0133DBB20136AA
:100524000124E6E72A000020240000202600002001
:1005340010B5104840F2255100F052FEA8B10E4CFF
:100544000C4840F2255100F069FE23880948FF2B2E
:100554000CD800F03AFE094A09491388C8540133FB
:10056400DBB2138023880133238010BDBDE8104023
:1005740000F02BBE00380140240000202800002099
:100584002A00002010B52648A0B001F073F82548D1
:1005940001F070F8244801F06DF82448FFF786FF55
:1005A4002348FFF783FF2348FFF780FF8021684635
:1005B400FFF790FF044648B31F48FFF777FF214633
:1005C4006846FFF77CFF1D48FFF770FF21461C4873
:1005D4006A4601F04FF81B48FFF768FF1A480221EA
:1005E40000F00AFDB0B11948FFF760FF1648042176
:1005F40000F002FD80B11648FFF758FF12480821A9
:1006040000F0FAFC50B11348FFF750FF322001F01C
:100614001CFACBE71048E7E71048EDE71048F3E78A
:10062400E81D0008091E0008281E00084C1E0008CA
:100634006E1E00088E1E0008B31E00086B1E000804
:10064400BE1E0008D51E000800340240E21E000849
:10065400F51E0008081F0008EB1E0008FE1E000817
:10066400121F000808B5154880220221FFF7A0FEDA
:10067400124880220C21FFF79BFE10480E21FFF741
:10068400AEFE0F4800F0F6FF02210C48FFF7A5FE6E
:100694004FF4FA7001F0D9F904210848FFF79DFEE0
:1006A4004FF4FA7001F0D1F904480821FFF795FEE0
:1006B4004FF4FA7001F0C9F9E6E700BF00340240D4
:1006C4001D1F00081FB500F02BF91F49002000F082
:1006D40025FB00231A461D491D4800F0CFFE0524C2
:1006E4001423CDE902344FF480730193194B1A4A51
:1006F4001A4900931A48002301F0E4F8184801F05D
:100704008BF94FF400730A22CDE90132154B164AD6
:100714001649009316480394002301F0D3F81448B3
:1007240001F07AF9134800F0A5FF47F2305001F0C8
:100734008CF900F081FD01460F4800F09BFF0F4843
:10074400FFF7B4FEF1E700BF4C1E0008321F00089B
:100754002C01002048030020690600083A1F000805
:10076400B404002048010020890500083E1F000849
:1007740048040020431F0008591F0008741F000884
:100784007047FEE70369C26893429CBF81685B18A7
:10079400013B981A70472DE9F041D0E902840546DF
:1007A400A8EB04064068964220440F46144406D938
:1007B400FFF71EFDBFF35F8FEC60BDE8F0813246AA
:1007C400A4EB0804FFF714FD68682246B919EFE7A3
:1007D4002DE9F843C5680646894617464FF00008D8
:1007E4003369B46870689D4228BF1B19641BBC42FE
:1007F40003F1FF3328BF3C465B1B9C4228BF1C46C9
:10080400494622462844FFF7F3FCB3682544A04434
:10081400A1443F1BAB4208BF0025BFF35F8FF560C7
:10082400002FDDD14046BDE8F883000008B5144B25
:10083400A8220021184601F0EBF9032202611149B4
:100844004261114A8161C2614FF4806202620022F6
:1008540082624262C26201660C494166102181666D
:1008640003460267C2664267BFF35F8F084911F807
:10087400010D98540132102AF9D1BFF35F8F08BDDE
:1008840030090020881F00083005002020050020C2
:10089400EF1F0008F8B5144B182700FB07751D441B
:1008A40007FB00330E46DB6A012B14460AD0022BE9
:1008B40014D023B92846FFF765FF844208D90024E1
:1008C4002046F8BD2846FFF75DFF844228BF044652
:1008D400224631462846FFF75EFFF1E72846BDE889
:1008E400F840FFF775BF00BF30090020F8B50B4B87
:1008F4001B78532B04460D46164601D0FFF796FF8E
:10090400EFF311874FF0200181F311883246294615
:100914002046FFF7BFFF87F31188F8BD3009002098
:10092400FFF784BF826810B504464068531C8342B5
:1009340006D820688154E268A3600132E2601A4656
:10094400636893420BD121682069FFF7CFFFA36846
:10095400984215BF4FF0FF330023E360A36010BD3E
:100964002DE9F84F9946DDE90A43174606468846BD
:100974000A464FF0010ABA4212D2CA4538BFCA46E3
:1009840013F0010B01D184B90024F368002B3EDB82
:100994000125B9F1010F20D909F1FF397D43F8E7A9
:1009A4000AF1010AB2FBF7F2E5E79B0712D5B9F1A8
:1009B400000F0CBF30252025A245E6D2294630463B
:1009C400FFF7B0FFF368002B04F1FF34DDDB002CEC
:1009D400F2D1D9E72025EFE77D43B8FBF5F39F4239
:1009E400FAD9DFF84C90B8FBF5F3304619F8031048
:1009F40005FB1388FFF796FFF368002B03DBB5FBB9
:100A0400F7F3BD4205D2BBF1000F00D064B9BDE8D5
:100A1400F88F1D46E7E720213046FFF783FFF36890
:100A2400002B04F1FF34F2DB5445F4D8EFE700BFA8
:100A3400F01F00082DE9F04F9BB00AAB059300248A
:100A4400402303908846174606930990254618F8D4
:100A5400011B002900F05681252940F04B814346B3
:100A64004FF0000A184610F8011B2D2917D011D891
:100A740023291BD02B2916D00026984613F8011BD6
:100A8400A1F13000092814D80A2202FB0611A1F1B1
:100A94003006F2E73029EFD14AF0020A01E04AF0C9
:100AA400010A0346DEE74AF0040AFAE74AF0080AB4
:100AB400F7E72E292BD198F801302A2B15D04FF0C7
:100AC400000B08F10100D9464FF00A0C804610F8DB
:100AD400011BA1F1300EBEF1090F0FD80CFB0B1155
:100AE400A1F1300B4FF00109F0E73B68191DD3F871
:100AF40000B0396008F102084FF0010998F80010BD
:100B040001F0FB00682806D118F8011FF8E74FF040
:100B1400000BD946F2E7782902D908F1010896E7D3
:100B24006F2912D8632972D028D8252900F0DF80D4
:100B34005829F2D13968081D38600968CDE907548D
:100B4400CDE9006A5B461022A0E070390829E4D898
:100B540001A050F821F000BFDD0C00081F0B0008B5
:100B64001F0B0008990C00081F0B00087D0C0008DF
:100B74001F0B00081F0B0008390B00086429CCD197
:100B840039680B680293081D83EAE3713860A1EBAE
:100B9400E3714FF001090A20092944DCD94538BF23
:100BA400D94636B1029B002B02DB1AF0040F00D0A9
:100BB400013E1AF0020F02D0BBF1000F05D01AF06B
:100BC400010F02D10EB1B14532D3029B002B3FDAA3
:100BD400029BCDE907545B4202932D2105A8FFF740
:100BE400A1FEDDE90754002C2EDB0AF003010229E3
:100BF40005D1BBF1000F02D10EB1B1452FD3CDE920
:100C04000754CDE9006A02995B460A223EE03B683C
:100C1400CDE907541A1D19783A6005A8FFF782FE3A
:100C2400DDE9075452E009F10109B1FBF0F1B3E742
:100C3400202105A8CDE90754FFF774FEDDE9075428
:100C4400002C06F1FF36BDDA20461BB0BDE8F08F5C
:100C54001AF0040FC9D0CDE907542B21BEE7302187
:100C640005A8CDE90754FFF75DFEDDE90754002C24
:100C740006F1FF36C0DAE7E73968081D386009680D
:100C8400CDE90754CDE9006A5B460A2205A8FFF7BF
:100C940067FEC5E73A68111D3960166816B91E4E1D
:100CA4004FF0000916F8011B81B1B9F1000F02D011
:100CB400BBF1000F0AD005A8CDE90754FFF732FEB7
:100CC400DDE90754002C0BF1FF3BEBDA08F10108D6
:100CD400002CBFF6BCAEB7E73B681A1D19683A6032
:100CE40008230022CDE90754CDE900322BE7CDE9F2
:100CF400075492E705A8CDE90754FFF713FEDDE991
:100D04000754E5E7002C9FD025B103982A460AA989
:100D1400FFF7ECFD2C4497E7911F00080EB403B5D0
:100D240003AB01AA53F8041B0193FFF783FE02B03F
:100D34005DF804EB03B07047534AD2F8883043F4AB
:100D4400700384B0C2F88830504B1A6842F0010234
:100D54001A6059684E4A0A405A601A684D4922F08E
:100D6400847222F480321A601A6822F480221A6093
:100D74005A6822F0036222F470225A604FF46052DF
:100D8400DA6200221A631A649960D96941F08051C9
:100D9400D961D96921F08051D9613F49086840F08F
:100DA40080000860086820F01000086002928DF846
:100DB400032003921A6842F480321A601A68C2F35C
:100DC40040428DF80320039A013203929DF80320D8
:100DD4001AB9039AB2F5005FF0D11A68C2F340421F
:100DE4008DF803209DF8032042B92C4B2C4A1A603D
:100DF400254B4FF000629A6004B07047264A116890
:100E040021F007011160116841F0020111605A6874
:100E14005A605A6842F400525A605A6842F4A06216
:100E24005A605A6822F0036222F470225A601A6CE3
:100E340022F001021A645A680192019A42F4803243
:100E44000192019A42F400320192019A42F0036243
:100E540042F440220192019A5A60029A1A641A6872
:100E640042F080721A601A689201FCD55A6822F026
:100E740003025A605A6842F002025A605A6802F049
:100E84000C02082AFAD1B3E700ED00E0001002409A
:100E94000CC07FF80000BF040020024000000020C6
:100EA40000127A0070B50178012501F01F039D40FE
:100EB400C3784C09BBB10E4B4678DA68D243C2F30F
:100EC4000222C2F104039E4083780F2020FA02F22A
:100ED4001340084A33431B011144DBB281F8003349
:100EE40042F8245070BD034B203443F82450F9E7F2
:100EF40000ED00E000E100E010B502F00704A400FA
:100F040012074FF00F034CBF426A026A03FA04F35C
:100F14006FEA030301FA04F14BBF134013400B4380
:100F24000B434CBF4362036210BD30B50323046816
:100F34005500AB4024EA030401F00303AB40234310
:100F4400036021F01003013B012B08D843680124FE
:100F54009440090923EA040391401943416030BDD8
:100F640010B5C36852000324944023EA040391405B
:100F74001943C16010BD10B583680124944023EA6D
:100F8400040391401943816010BD10B5C36A520037
:100F94000324944023EA040391401943C16210BD21
:100FA40070B50C4600250126236833FA05F200D1FA
:100FB40070BD06FA05F21A4211D061692A46FFF79C
:100FC4009BFF2A466168FFF7B0FFA168FFF7C8FFDF
:100FD400E1682A46FFF7CFFF2169FFF7D6FF013505
:100FE400E2E74FF6FF7303600F220023C360436000
:100FF400426183600361704740690840003818BF4C
:1010040001207047816270474369594041617047CC
:10101400254930B54C684A68250140F20F2303EA9C
:10102400944302F480324ABF6FF4F77402331B19FD
:10103400002A35D10A6C12F0010F14BF1B4A1C4A56
:101044004C681C4D53431A4A04F00C04082C08BF86
:101054001A4602604C68C4F303142C5DE2404260FB
:101064004C68C4F302242C5D22FA04F484604C68B6
:10107400C4F3C2242C5D104D22FA04F4C460CC6A7B
:1010840004F00F042C5DB2FBF4F24261CA6A0B490E
:10109400C2F3031231F81220B3FBF2F3036130BD43
:1010A4004A6812F4003FC8E70010024000093D00FE
:1010B40000127A00302000082020000800200008D8
:1010C400024A536903435361704700BF0010024052
:1010D400024A936903439361704700BF00100240C2
:1010E40030B587B0044668460D46FFF791FF124BB2
:1010F4009C4207D003F5C0539C4203D003F58063A0
:101104009C4216D1039B192253436422AD00B3FBC6
:10111400F5F3B3FBF2F102FB11331B013233B3FBE2
:10112400F2F303F00F0343EA01139BB2238107B0E8
:1011340030BD029BE7E700BF0038014038B50446E4
:101144000D460968FFF7CCFFA389AA889BB223F454
:1011540080531343A381238AEA889BB223F4405328
:1011640013432382A3892A899BB223F4C0631343C4
:10117400A381A3896A899BB223F00C031343A3813F
:10118400A38AAA899BB223F440731343A38238BD74
:1011940083899BB243F4005383817047C1F34213A4
:1011A400012201F01F01012B02FA01F204D10C30DB
:1011B4000368134303607047022B0CBF10301430D4
:1011C400F6E7C1F30801818070478088C0F3080006
:1011D4007047038801EA0300003818BF01207047F4
:1011E400C1F3421210B5034601F01F040120012A85
:1011F40000FA04F00DD19A891B8892B210409BB278
:1012040030B1090A01228A401340181E18BF012078
:1012140010BD022A0CBF1A8A9A8AEDE7090A012333
:101224008B40DB439BB2038070470000014BC3E952
:1012340000337047D8090020014B1868704700BF7D
:10124400E009002070B5044616460A460A211D46E8
:1012540000F024FA04F11003C4E90433049B23626C
:10126400002363629DF8143023F001036372C4E920
:10127400066570BD70B50446FEF74AFFD4E9041351
:101284004B6019600F4B104D1968236A04F110026A
:10129400C4E9042219442B686162AB420CD1596839
:1012A4000A6061615A602361637A43F001036372E7
:1012B400FEF732FF002070BD5E69B142EFD11B68BA
:1012C400EBE700BFE0090020D809002038B5044648
:1012D400FEF71EFF637ADA0704D4FEF71DFF4FF012
:1012E400FF3038BDD4E9045104F1100223F00103A6
:1012F40069600D60C4E904226372FEF70DFF0020EB
:10130400EFE770B50E4604461546FEF701FF042EBE
:1013140009D8DFE806F006030C111500236A2B60D8
:1013240001E02B682362FEF7F7FE002070BD637AAC
:1013340023F002036372F6E7637A43F00203F9E7EA
:10134400637A13F0010318BF0123E8E7184B2DE972
:10135400F0411F68174EFEF7DBFE6FF000480546AC
:101364003468B44203D06369FB1A434504D3284666
:10137400BDE8F041FEF7D0BED4E9002353601A6003
:1013840014F8073C23F0010304F8073CA368C4E9FC
:1013940000440BB1E068984714F8073C9B07DFD57D
:1013A40023693B446361A4F11000FFF763FFD7E7AF
:1013B400E0090020D80900200C4A08B5136801335D
:1013C400136000F0C7FA68B1836B013B83634BB9C8
:1013D400436B836390F8303043F0080380F8303077
:1013E40000F000FABDE80840FFF7B0BFE0090020B4
:1013F40008B5FEF78DFE00F02FFBFFF717FF00F096
:101404006DF900F015F800F0A3FB00F0D3F900200B
:1014140008BD000038B5054D002455F8043B03B160
:1014240098470134042CF8D1F5E700BFE409002003
:101434001FB50D4A0D480023C2E90033C2E9023347
:1014440020211F22CDE902214FF480720192084A23
:1014540000920849084A00F035FA044805B05DF8DE
:1014640004EB00F0D9BA00BFE4090020F40A00201C
:10147400F4090020981F00081914000870B50446E8
:101484001D4616460A46022100F008F904F110032D
:101494006572C4E904332683002070BDF0B50A2ABE
:1014A40003468BB0084606D1002B04DA5B420126C2
:1014B40001A90D460EE00026FAE7B3FBF2F402FBA5
:1014C4001437092F2346FCB294BF30345734E4B2A6
:1014D40005F8014B002BF0D18D42EED0034616B136
:1014E4002D2203F8012B5C1E2A468A4207D86A1A69
:1014F400A94288BF0022002199540BB0F0BD12F814
:10150400016D04F8016FF0E72DE9FF41013906464A
:1015140000EB01080546117809B1454505D30023C0
:10152400A81B2B7004B0BDE8F081252902D0571CFC
:101534002A4646E05178782902F1020708D86F2933
:101544000FD863293AD025D82529F1D0582963D05A
:101554002A46252002F8010B904542D9AA1C69703D
:101564003FE0A1F17002082AF2D801A050F822F05D
:10157400411600085515000855150008CD1500083A
:1015840055150008F91500085515000855150008EB
:101594001D160008642901D06929D9D11C460A22E4
:1015A40054F8040B01A9FFF779FF2A46013810F813
:1015B400013F0BB142451AD1234612E053F8041BF4
:1015C4002A4602F8011B0CE0294953F8042B002A8F
:1015D40008BF0A46511E2A4611F8010F08B14245B8
:1015E40002D115463A4696E702F8010BF4E702F8F1
:1015F400013BDCE71C460A2254F8040B01A9FFF75F
:101604004DFF2A46013810F8013F002BD4D0424543
:10161400D2D002F8013BF6E71C46102254F8040B22
:1016240001A9FFF73BFF2A46013810F8013F002BC0
:10163400C2D04245C0D002F8013BF6E71C46102256
:1016440054F8040B01A9FFF729FFAB1C434504D24E
:1016540030222A7078226A701D4601382A4610F812
:10166400013F002BA8D04245A6D202F8013BF6E781
:101674009E1F00080FB407B504AB7F2153F8042B59
:1016840005480193FFF740FF034800F0F7F903B062
:101694005DF804EB04B07047600B0020002361F098
:1016A4007F0101724372C360D15C19B1C15401332B
:1016B400072BF9D10022C254704703461A4601335E
:1016C40011780029FAD1101A704702440346934254
:1016D40000D1704703F8011BF9E70000094A002311
:1016E4001380094A0133202BC2E9002202F10802C7
:1016F400F8D1064B1F221A70054A00231360054ACD
:1017040013607047F00B0020FC0B0020F20B00204C
:10171400F40B0020F80B002010B50446FEF7F8FC8B
:10172400012394F8311084F830300A4B03EBC103E1
:1017340004F1100259680A6061615A60064A236123
:10174400116894F83330BDE810400B431360FEF782
:10175400E3BC00BFFC0B0020F80B002010B50446CE
:10176400FEF7D6FCD4E9041204F110034A601160B8
:10177400C4E9043394F83120084B03EBC20153F855
:1017840032308B4206D1064A94F83310136823EAA8
:1017940001031360BDE81040FEF7BEBCFC0B002043
:1017A400F80B002020B190FAA0F0B0FA80F00130DC
:1017B4007047000008B5084B1868084BFFF7F2FFA4
:1017C400013853F83000064BA0F110021A600830BB
:1017D400BDE80840FEF7B3BCF80B0020FC0B00206A
:1017E400F40B002070B5FEF793FC174BB3F90030EF
:1017F4000646FBB9154B1868E0B1FFF7D3FF144A4E
:10180400431E52F83350134A1468A5F110018C4258
:1018140010D0114811600370104B1B680BB12046A7
:1018240098470F4B1B6805F1080104F1180033B900
:10183400FEF775FC3046BDE87040FEF76DBC094B01
:101844001860094B1960F5E7F00B0020F80B002035
:10185400FC0B0020F40B0020F20B0020E00B002016
:10186400E40B0020EC0B0020E80B002038B50B4BF8
:101874001C68FEF74DFC05462046FFF76FFF042366
:1018840084F83030636E0BB1204698472846FEF743
:1018940043FCBDE83840FFF7A5BF00BFF40B0020B0
:1018A40010B5D0E904416FF00102C26200F11002E8
:1018B40061600C60C0E90422FFF72EFFBDE8104010
:1018C400FFF790BF2DE9F74FDDE90CAB04460E4658
:1018D40091460A4601219DF838500F9F9846FFF71C
:1018E400DDFE04F11003C4E904335A46C4E9079841
:1018F400C4E909AB23215046FFF7E7FEA26A616AF7
:10190400124B043A0A44D4E9070100F037F90123E1
:1019140084F8315084F83250AB400025A06184F83B
:101924003330C4E90D77E56284F8305004F13C00AB
:10193400CDE90055064A23463146FFF783FC284685
:10194400C4E9195503B0BDE8F08F00BF7118000851
:10195400A5180008014B1868704700BFF40B00205D
:1019640038B5044640B1FEF7D3FB94F83030012B70
:10197400054604D0FEF7D0FB4FF0FF3038BD0223FC
:1019840084F8303004F13C00FFF7A0FC2046FFF758
:10199400E5FE2846FEF7C0FB0020EFE773B5019093
:1019A400FEF7B6FB0D4B1C68054604F13C062046C9
:1019B400FFF7D6FF01AA00213046FFF7A2FC30460C
:1019C400FFF758FC2846FEF7A7FBFFF70BFFE06A7A
:1019D400831C18BF002002B070BD00BFF40B0020B0
:1019E40038B5044640B1FEF793FB94F83030022B2F
:1019F400054604D0FEF790FB4FF0FF3038BD04F1EC
:101A04003C00FFF763FC2046FFF786FE2846FEF7FE
:101A140083FB0020F2E7000008B5022380F8303091
:101A2400FFF7DEFF034B1B680BB1FFF7DBFE002063
:101A340008BD00BFF40B0020002801DB03D0704771
:101A44004FF0FF3070470120704708B5FFF7F4FFEF
:101A5400BDE80840FFF7A2BF4FF0E0234BF67F320A
:101A64005A61054AF02182F8231000229A61072264
:101A74001A61FEF7B7BC00BF00ED00E070B5044684
:101A8400FFF71BFE2518AC4200D170BD23780A2B4A
:101A9400264602D10D20FEF7F9FC30780134FEF71A
:101AA400F5FCF0E708B5FEF733FB044A137801337D
:101AB400DBB21370BDE80840FEF72EBB680F0020B0
:101AC40008B5FEF725FB044A1378013BDBB213701B
:101AD400BDE80840FEF720BB680F002008B5FFF7FB
:101AE400E1FFFFF769FCBDE80840FFF7E9BF00002C
:101AF400064C074808B5FFF7BDFDA16A0548FFF786
:101B0400B9FDE16A0448FFF7B5FDFEE700ED00E02A
:101B1400A51F0008B21F0008C61F00081FB5134602
:101B2400079A03929DF8182002924FF400720192D2
:101B3400054A00920A4601460448FFF7C3FE0348DB
:101B440005B05DF804FB00BFFC0C0020FC0E002077
:101B540007B50A231422CDE90032064906484FF49A
:101B640000730022FFF7DAFF03B05DF804EBFFF720
:101B740053BF00BFC9060008DA1F0008043222F070
:101B8400070270B504460C4EA2F14400054645F820
:101B9400046BAA42FBD142E9033442F8201C4FF003
:101BA4008073002142E9071142E9051142F8043C1F
:101BB40042F8441C70BD00BFEFBEADDE0D48854643
:101BC4000D480E490E4A002302E0D458C450043391
:101BD400C4188C42F9D30B4A0B4C002301E0136068
:101BE4000432A242FBD3FFF7A7F800F05FF8FFF737
:101BF400FFFBFEE70040002000000020080000205A
:101C0400542000080800002004110020FEE7000012
:101C1400830730B546D08418844604E003F8011BDA
:101C24009D0704D09C46A4456346F7D130BD013AD4
:101C34000244A2EB0C02032A29D9CCB204EB0424FB
:101C44000F2A04EB04442FD9A2F1100C2CF00F0C32
:101C540003F11005AC44C3E90044C3E90244103362
:101C64006345F8D112F00C0F02F00F0E18D02EF0CD
:101C7400030C9C44AEF104051A4642F8044B624539
:101C8400FBD125F0030404330EF003022344002A9D
:101C9400CCD0C9B21A4403F8011B9342FBD130BD26
:101CA4007246F4E70346C6E79646E0E770B50F4B85
:101CB4000F4DAB42A3EB050607D0B610002455F830
:101CC400043B01349847A642F9D800F07FF8094D47
:101CD400094B5E1BAB424FEAA60606D0002455F81A
:101CE400043B01349847A642F9D870BD4820000847
:101CF400482000084820000850200008704700BF12
:101D0400704700BF024B13B1024800F005B870479A
:101D140000000000291D0008002301461A46184649
:101D240000F014B838B5074D074C2C1BA41005D08F
:101D3400013C55F8043D9847002CF9D1BDE83840E2
:101D440000F04AB854200008502000082DE9F84358
:101D54001B4D0646286898460F469146FFF7CEFF6E
:101D6400184B1C681CB3286865681F2D22DC4EB90B
:101D74006B1C0235636044F82570FFF7C1FF002037
:101D8400BDE8F88304EB85010123C1F88890D4F8F9
:101D94008821AB401A43022EC4F88821C1F8088177
:101DA400E6D1D4F88C211A43C4F88C21E0E7064C20
:101DB4001C60D8E7FFF7A4FF4FF0FF30E0E700BF57
:101DC40004000020700F0020740F0020F8B500BF3D
:101DD400F8BC08BC9E467047F8B500BFF8BC08BC08
:041DE4009E46704760
:101DE8004E3332473433302052542D546872656173
:101DF80064204E616E6F2053746172746564210AA9
:101E08000055415254312054657374202D2042618D
:101E18007564726174653A203131353230300A00A8
:101E280053656E6420616E792063686172616374C2
:101E3800657220746F206563686F206261636B2E22
:101E48002E2E0A004E3332473433302052542D544C
:101E58006872656164204E616E6F2053746172749C
:101E68006564210D0A00554152543120546573743C
:101E7800202D2042617564726174653A20313135D4
:101E88003230300D0A0053656E6420616E7920632C
:101E9800686172616374657220746F206563686F2E
:101EA800206261636B2E2E2E0D0A005265636569F0
:101EB8007665643A20005265636569766564202515
:101EC800642062797465733A2025730A004C45448E
:101ED800205374617475733A20004C4544313D4F6A
:101EE8004E20004C4544313D4F464620004C454469
:101EF800323D4F4E20004C4544323D4F464620006F
:101F08004C4544333D4F4E0D0A004C4544333D4F3C
:101F180046460D0A004C4544207468726561642089
:101F280073746172746564210A00756172745F72FA
:101F380078006C6564007561727400416C6C207483
:101F48006872656164732073746172746564210AD0
:101F58000053797374656D2072756E6E696E672EA5
:101F68002E2E207469636B3D25640A0053797374BF
:101F7800656D2072756E6E696E672E2E2E0D0A00C5
:101F88005465726D696E616C00284E554C4C290081
:101F98007469646C6500286E756C6C290048617200
:101FA80064204661756C74210A005343422D3E43F8
:101FB800465352203D203078253038780A00534364
:101FC800422D3E48465352203D20307825303878FF
:101FD8000A006D61696E0000000000000054545250
:101FE8002052454747455300303132333435363770
:101FF80038394142434445460100020004000600C6
:1020080008000A000C0010002000400080000001B9
:10201800000100010001000101020406080A0C1079
:10202800202020202020202000000000010203049E
:08203800010203040607080978
:08204000B4E1FF7F0100000084
:08204800091D000891030008C6
:042050006903000818
:082054000020A1076C0F002021
:0400000508001BC113
:00000001FF
