:020000040800F2
:1000000000400020992B000831120008331200082C
:1000100000000000000000000000000000000000E0
:100020000000000000000000000000003512000881
:100030000000000000000000E92B00083712000853
:10004000E92B0008E92B0008E92B0008E92B000840
:10005000E92B0008E92B0008E92B0008E92B000830
:10006000E92B0008E92B0008E92B00083D120008E5
:1000700055120008E92B0008E92B0008651200085A
:10008000E92B0008E92B0008E92B0008E92B000800
:10009000E92B0008E92B0008E92B0008E92B0008F0
:1000A000E92B0008E92B0008E92B00086112000881
:1000B000E92B000849120008E92B0008E92B000889
:1000C000E92B0008E92B0008E92B0008E92B0008C0
:1000D000D90E0008E92B0008E92B0008E92B0008DD
:1000E000E92B0008E92B0008E92B0008E92B0008A0
:1000F000E92B0008E92B0008E92B0008E92B000890
:10010000E92B0008E92B0008E92B0008E92B00087F
:04011000E92B0008CF
:10014000844641EA000313F003036DD1403A41D3E2
:1001500051F8043B40F8043B51F8043B40F8043BA1
:1001600051F8043B40F8043B51F8043B40F8043B91
:1001700051F8043B40F8043B51F8043B40F8043B81
:1001800051F8043B40F8043B51F8043B40F8043B71
:1001900051F8043B40F8043B51F8043B40F8043B61
:1001A00051F8043B40F8043B51F8043B40F8043B51
:1001B00051F8043B40F8043B51F8043B40F8043B41
:1001C00051F8043B40F8043B51F8043B40F8043B31
:1001D000403ABDD2303211D351F8043B40F8043BD1
:1001E00051F8043B40F8043B51F8043B40F8043B11
:1001F00051F8043B40F8043B103AEDD20C3205D3E1
:1002000051F8043B40F8043B043AF9D2043208D0D8
:10021000D2071CBF11F8013B00F8013B01D30B884A
:1002200003806046704700BF082A13D38B078DD028
:1002300010F003038AD0C3F10403D21ADB071CBFFA
:1002400011F8013B00F8013B80D331F8023B20F864
:10025000023B7BE7043AD9D3013A11F8013B00F89D
:10026000013BF9D20B7803704B7843708B78837025
:100270006046704700000000000000000000000021
:1002800001F0FF01102A2BDB10F0070F08D010F847
:10029000013B013A8B422DD010F0070F42B3F6D14B
:1002A000F0B441EA012141EA014122F007047FF064
:1002B00000070023F0E80256083C85EA010586EABB
:1002C000010685FA47F5A3FA87F586FA47F6A5FAF7
:1002D00087F68EB9EED1F0BC01F0FF0102F0070203
:1002E00032B110F8013B013A83EA010313B1F8D1AE
:1002F0000020704701387047002D06BF354603388F
:10030000073815F0010F07D1013015F4807F02BFC7
:10031000013015F4C03F0130F0BC0138704700BF18
:1003200000000000000000000000000000000000CD
:1003300000000000000000000000000000000000BD
:1003400030B490F800F020F007016FF0000C10F0CE
:10035000070491F820F040F048804FF000046FF05F
:100360000700D1E9002391F840F000F1080082FA7B
:100370004CF2A4FA8CF283FA4CF3A2FA8CF34BBB46
:10038000D1E9022382FA4CF200F10800A4FA8CF2BF
:1003900083FA4CF3A2FA8CF3E3B9D1E9042382FA8D
:1003A0004CF200F10800A4FA8CF283FA4CF3A2FAA2
:1003B0008CF37BB9D1E9062301F1200182FA4CF2DA
:1003C00000F10800A4FA8CF283FA4CF3A2FA8CF341
:1003D000002BC6D0002A04BF04301A4612BAB2FA63
:1003E00082F200EBD20030BC7047D1E9002304F068
:1003F0000305C4F100004FEAC50514F0040F91F89D
:1004000040F00CFA05F562EA05021CBF63EA050339
:1004100062464FF00004AAE781F0004102E000BF0D
:1004200083F0004330B54FEA41044FEA430594EAB4
:10043000050F08BF90EA020F1FBF54EA000C55EAEF
:10044000020C7FEA645C7FEA655C00F0E2804FEAC0
:100450005454D4EB5555B8BF6D420CDD2C4480EAA2
:10046000020281EA030382EA000083EA010180EAD2
:10047000020281EA0303362D88BF30BD11F0004F20
:100480004FEA01314FF4801C4CEA113102D0404256
:1004900061EB410113F0004F4FEA03334CEA133391
:1004A00002D0524263EB430394EA050F00F0A780A9
:1004B000A4F10104D5F1200E0DDB02FA0EFC22FAA4
:1004C00005F2801841F1000103FA0EF2801843FA98
:1004D00005F359410EE0A5F120050EF1200E012A89
:1004E00003FA0EFC28BF4CF0020C43FA05F3C018C7
:1004F00051EBE37101F0004507D54FF0000EDCF140
:10050000000C7EEB00006EEB0101B1F5801F1BD3E8
:10051000B1F5001F0CD349085FEA30004FEA3C0CEC
:1005200004F101044FEA445212F5800F80F09A80E2
:10053000BCF1004F08BF5FEA500C50F1000041EBE6
:10054000045141EA050130BD5FEA4C0C404141EBEA
:100550000101013C28BFB1F5801FE9D291F0000FE5
:1005600004BF01460020B1FA81F308BF2033A3F194
:100570000B03B3F120020CDA0C3208DD02F1140C8B
:10058000C2F10C0201FA0CF021FA02F10CE002F1C6
:100590001402D8BFC2F1200C01FA02F120FA0CFCBF
:1005A000DCBF41EA0C019040E41AA2BF01EB045108
:1005B000294330BD6FEA04041F3C1CDA0C340EDC06
:1005C00004F11404C4F1200220FA04F001FA02F349
:1005D00040EA030021FA04F345EA030130BDC4F107
:1005E0000C04C4F1200220FA02F001FA04F340EAFC
:1005F0000300294630BD21FA04F0294630BD94F0AD
:10060000000F83F4801306BF81F480110134013D93
:100610004EE77FEA645C18BF7FEA655C29D094EA04
:10062000050F08BF90EA020F05D054EA000C04BF82
:100630001946104630BD91EA030F1EBF002100206D
:1006400030BD5FEA545C05D14000494128BF41F00C
:10065000004130BD14F580043CBF01F5801130BD70
:1006600001F0004545F0FE4141F470014FF00000FB
:1006700030BD7FEA645C1ABF194610467FEA655CAC
:100680001CBF0B46024650EA013406BF52EA03354E
:1006900091EA030F41F4002130BD00BF90F0000F3C
:1006A00004BF0021704730B54FF4806404F1320478
:1006B0004FF000054FF0000150E700BF90F0000F31
:1006C00004BF0021704730B54FF4806404F1320458
:1006D00010F0004548BF40424FF000013EE700BF28
:1006E00042004FEAE2014FEA31014FEA02701FBFB8
:1006F00012F07F4393F07F4F81F06051704732F0EA
:100700007F4208BF704793F07F4F04BF41F4002140
:10071000704730B54FF4607401F0004521F000419E
:100720001CE700BF50EA010208BF704730B54FF028
:1007300000050AE050EA010208BF704730B511F029
:10074000004502D5404261EB41014FF4806404F161
:1007500032045FEA915C3FF4D8AE4FF003025FEAE7
:10076000DC0C18BF03325FEADC0C18BF033202EB6B
:10077000DC02C2F1200300FA03FC20FA02F001FAC5
:1007800003FE40EA0E0021FA02F11444BDE600BF68
:1007900070B54FF0FF0C4CF4E06C1CEA11541DBF17
:1007A0001CEA135594EA0C0F95EA0C0F00F0DEF8E2
:1007B0002C4481EA030621EA4C5123EA4C5350EAC7
:1007C000013518BF52EA033541F4801143F4801318
:1007D00038D0A0FB02CE4FF00005E1FB02E506F0A9
:1007E0000042E0FB03E54FF00006E1FB03569CF0FE
:1007F000000F18BF4EF0010EA4F1FF04B6F5007F04
:1008000064F5407404D25FEA4E0E6D4146EB060675
:1008100042EAC62141EA55514FEAC52040EA5E50FE
:100820004FEACE2EB4F1FD0C88BFBCF5E06F1ED8A8
:10083000BEF1004F08BF5FEA500E50F1000041EBDF
:10084000045170BD06F0004646EA010140EA02008C
:1008500081EA0301B4EB5C04C2BFD4EB0C0541EAAE
:10086000045170BD41F480114FF0000E013C00F3C3
:10087000AB8014F1360FDEBF002001F0004170BDE7
:10088000C4F10004203C35DA0C341BDC04F1140400
:10089000C4F1200500FA05F320FA04F001FA05F28C
:1008A00040EA020001F0004221F0004110EBD37059
:1008B00021FA04F642EB06015EEA430E08BF20EA85
:1008C000D37070BDC4F10C04C4F1200500FA04F328
:1008D00020FA05F001FA04F240EA020001F00041BA
:1008E00010EBD37041F100015EEA430E08BF20EA2D
:1008F000D37070BDC4F1200500FA05F24EEA020E75
:1009000020FA04F301FA05F243EA020321FA04F0A3
:1009100001F0004121FA04F220EA020000EBD3705A
:100920005EEA430E08BF20EAD37070BD94F0000F5A
:100930000FD101F00046400041EB010111F4801F8E
:1009400008BF013CF7D041EA060195F0000F18BF3F
:10095000704703F00046520043EB030313F4801F7B
:1009600008BF013DF7D043EA0603704794EA0C0F35
:100970000CEA135518BF95EA0C0F0CD050EA41064B
:1009800018BF52EA4306D1D181EA030101F00041C8
:100990004FF0000070BD50EA410606BF10461946F0
:1009A00052EA430619D094EA0C0F02D150EA0136FC
:1009B00013D195EA0C0F05D152EA03361CBF10463D
:1009C00019460AD181EA030101F0004141F0FE41DC
:1009D00041F470014FF0000070BD41F0FE4141F460
:1009E000780170BD70B54FF0FF0C4CF4E06C1CEA60
:1009F00011541DBF1CEA135594EA0C0F95EA0C0F15
:100A000000F0A7F8A4EB050481EA030E52EA0335CF
:100A10004FEA013100F088804FEA03334FF08055F0
:100A200045EA131343EA12634FEA022245EA11151D
:100A300045EA10654FEA00260EF000419D4208BFCE
:100A4000964244F1FD0404F5407402D25B084FEA7B
:100A50003202B61A65EB03055B084FEA32024FF427
:100A600080104FF4002CB6EB020E75EB030E22BF84
:100A7000B61A754640EA0C005B084FEA3202B6EB44
:100A8000020E75EB030E22BFB61A754640EA5C00F3
:100A90005B084FEA3202B6EB020E75EB030E22BF83
:100AA000B61A754640EA9C005B084FEA3202B6EB84
:100AB000020E75EB030E22BFB61A754640EADC0043
:100AC00055EA060E18D04FEA051545EA16754FEAA5
:100AD00006164FEAC30343EA52734FEAC2025FEAC3
:100AE0001C1CC0D111F4801F0BD141EA00014FF052
:100AF00000004FF0004CB6E711F4801F04BF014323
:100B00000020B4F1FD0C88BFBCF5E06F3FF6AFAE3E
:100B1000B5EB030C04BFB6EB020C5FEA500C50F1CE
:100B2000000041EB045170BD0EF0004E4EEA113151
:100B300014EB5C04C2BFD4EB0C0541EA045170BD58
:100B400041F480114FF0000E013C90E645EA060E9C
:100B50008DE60CEA135594EA0C0F08BF95EA0C0FCA
:100B60003FF43BAF94EA0C0F0AD150EA01347FF412
:100B700034AF95EA0C0F7FF425AF104619462CE7E9
:100B800095EA0C0F06D152EA03353FF4FDAE10464C
:100B9000194622E750EA410618BF52EA43067FF49D
:100BA000C5AE50EA41047FF40DAF52EA43057FF42D
:100BB000EBAE12E74FF0FF3C06E000BF4FF0010C38
:100BC00002E000BF4FF0010C4DF804CD4FEA410C9C
:100BD0007FEA6C5C4FEA430C18BF7FEA6C5C1BD069
:100BE00001B050EA410C0CBF52EA430C91EA030FEA
:100BF00002BF90EA020F0020704710F1000F91EA47
:100C0000030F58BF994208BF90422CBFD8176FEA14
:100C1000E37040F0010070474FEA410C7FEA6C5CE2
:100C200002D150EA013C07D14FEA430C7FEA6C5CE9
:100C3000D6D152EA033CD3D05DF8040B704700BF15
:100C40008446104662468C461946634600E000BF63
:100C500001B5FFF7B7FF002848BF10F1000F01BD35
:100C60004DF808EDFFF7F4FF0CBF012000205DF800
:100C700008FB00BF4DF808EDFFF7EAFF34BF012085
:100C800000205DF808FB00BF4DF808EDFFF7E0FF1E
:100C900094BF012000205DF808FB00BF4DF808ED6F
:100CA000FFF7CEFF94BF012000205DF808FB00BFD6
:100CB0004DF808EDFFF7C4FF34BF012000205DF8B8
:100CC00008FB00BF4FEA410C7FEA6C5C02D150EA9E
:100CD000013C0AD14FEA430C7FEA6C5C02D152EA34
:100CE000033C02D14FF0000070474FF00100704705
:100CF0004FEA410212F5001215D211D56FF4787344
:100D0000B3EB625212D94FEAC12343F0004343EAE6
:100D1000505311F0004F23FA02F018BF40427047C1
:100D20004FF00000704750EA013005D111F000404B
:100D300008BF6FF0004070474FF00000704700BFE1
:100D40000348044B834202D0034B03B1184770475A
:100D5000F4060020F4060020000000000548064BC1
:100D60001B1AD90F01EBA301491002D0034B03B1A9
:100D700018477047F4060020F40600200000000029
:100D800010B5064C237843B9FFF7DAFF044B13B1D3
:100D90000448AFF300800123237010BDF406002047
:100DA000000000008099000808B5054B1BB10549FB
:100DB0000548AFF30080BDE80840FFF7CFBF00BF94
:100DC00000000000F80600208099000830B50446B5
:100DD00087B010460D4600F065FE684600F0F9FD4C
:100DE000012301936946022320460095049300F0F5
:100DF000CFFD07B030BD00F0FBBD000070B5802016
:100E00008CB000F04FFE4FF4804000F053FE002401
:100E10004FF4007202230126052506A91B48CDE9DF
:100E20000623CDE90844CDE90A6500F0B1FD4FF491
:100E3000806306A91548CDE90634CDE90844CDE91B
:100E40000A6500F0A5FD4FF4E133CDE9023402A9B3
:100E50004FF440230E480493ADF8144000F0D8FF3F
:100E600040F225510A4801F003F80A4B019301A80A
:100E700000F028FC064800F0F5FF074B1C80074BEC
:100E80001C80074B1C800CB070BD00BF00340240BA
:100E90000038014024000001140700201207002040
:100EA0001007002010B504460548802100F0FBFF24
:100EB0000028F9D021460248BDE8104000F0EBBF01
:100EC0000038014010B5441E14F8010F00B910BDE0
:100ED000FFF7E8FFF8E7000010B5104840F2255191
:100EE00000F0E8FFA8B10E4C0C4840F2255100F08C
:100EF000FFFF23880948FF2B0CD800F0D0FF094AD8
:100F000009491388C8540133DBB2138023880133A5
:100F1000238010BDBDE8104000F0C1BF0038014083
:100F200010070020140700201607002030B54FF4EA
:100F300080708DB000F0B6FD012000F0C3FD06A862
:100F400000F047FD00244FF4006306A90125144872
:100F50000895CDE9063400F01BFD02A800F0ADFEB7
:100F60007F2240F2E73302A94FF08040CDE902230F
:100F700000F0BEFE29464FF0804000F007FF094B0D
:100F8000019301A800F09EFB074B4FF08040C3E99E
:100F9000104483F83C409C6400F09DFE0DB030BDD1
:100FA000003802401B00000118080020034B0022FB
:100FB00083F84B2083F83C20704700BF18080020BE
:100FC000F8B500F009F91F4B93F848600022044679
:100FD00093F84A0083F84A205EB193F8492042B959
:100FE0005A6CA21A452A04D9012283F84920032009
:100FF000F8BD93F83C20002AFAD0196C611A00223F
:10100000312983F83C201AD90E4D1E2135F8027B78
:101010000FB90132D2B2013911F0FF01F6D1142A11
:1010200094BF00250125AE4209D0142A83F8485008
:101030001C6483BF5C6483F8491001200220FFF721
:10104000B5FFD5E71808002013B560B159B1074BBB
:1010500093F83C2093F84840CDE90024044A93F8E3
:101060004B3001F0B3FE02B010BD00BF18080020E5
:101070009899000808B501214FF0804000F08BFEE0
:10108000C0B101214FF0804000F090FE0A4A92F872
:101090004B301D2B0ED809490969C1F3C02122F834
:1010A00013100133DBB21E2B82F84B3004BF012337
:1010B00082F83C3008BD00BF18080020003802400C
:1010C0007047000013B5144C012000F0EBFC2046E3
:1010D00000F022FB0921204600F004FC204600F02D
:1010E000EBFB20460E2100F0F0FB0C4B09229A602E
:1010F00040F201229A800A2100222046C3E90322FD
:101100005A611C6000F0DDFB054B019301A800F063
:10111000D9FA02B010BD00BF1C00024064080020D4
:101120000C01000170B54379082B044627D8144AF6
:1011300052F82360134A52F8235076B112483146D0
:1011400000F0C8FB48B11048314600F0C9FB01234C
:10115000237123690BB12046984785B10A48294677
:1011600000F0B8FB58B10848294600F0B9FB03234A
:10117000237163691BB12046BDE87040184770BDFC
:10118000649B0008409B0008000002400C4B4FF499
:101190007A721B68B3FBF2F3013BB3F1807F0AD292
:1011A0004FF0E022F0215361064B83F82310002317
:1011B000936107231361034B002283F823207047B8
:1011C0000000002000ED00E0024A136801331360C4
:1011D000704700BF94080020014B1868704700BF9B
:1011E00094080020044A116813685B1A834200D3F4
:1011F000704700BFF8E700BF9408002008B5FFF76C
:10120000C5FF0A4880220221FFF7E0FD802207483F
:101210000C21FFF7DBFD05480E21FFF7ECFD00F088
:101220004FF901F0EDFB01F093FCFCE700340240C4
:101230007047FEE77047FFF7C7BF00000148FFF7A0
:1012400071BF00BF7C080020014800F074B900BFE6
:10125000AC0800200148FFF765BF00BF640800200C
:10126000FFF708BFFFF72CBFF0B54FF4C0708DB08B
:1012700000F018FC41F2010000F01CFC06A800F090
:10128000A8FB0124A023002506A902262D48CDE9AC
:101290000636CDE90855CDE90A4400F079FB06A8E9
:1012A00000F097FB402706A926480A94CDE906746A
:1012B000CDE9085500F06CFB06A800F08AFB40F26F
:1012C000034306A920480A94CDE90634CDE9085520
:1012D00000F05EFB39461B4800F086FB21461A48A9
:1012E00000F082FB31461848184E00F07DFB4FF4A9
:1012F0008061154800F078FB304600F0F7FB01A84C
:1013000000F00CFC4FF49823CDE901354FF0007349
:10131000CDE9033501A907233046ADF8143000F0BC
:1013200061FC4FF48071304600F079FC304600F0EB
:10133000EFFB074B074A1E601C719A60D3600DB02B
:10134000F0BD00BF003402400038024000300140D0
:1013500098080020640800202DE9F0410D4616464B
:101360009846044678B371B36AB30379012B2CD144
:1013700012230371FFF730FF2E4407462068022135
:1013800000F068FC80B115F8011B206800F060FCDB
:10139000B542F3D12068802100F05CFC01280CD01C
:1013A00001232371002006E0FFF716FFC01B404514
:1013B000E4D303202071BDE8F081FFF70DFFC01BCF
:1013C0004045E7D3F5E70120F5E70220F3E7000009
:1013D00070B50E468CB014460546002840D0836890
:1013E000002B3DD000293BD0002A39D00279012AB8
:1013F00038D112220271C1600482186800F05CFAD0
:1014000001A800F047FA2B680C33CDE90136102310
:10141000CDE9033400248023CDE905434FF4005384
:10142000CDE90A34AB680994186801A9CDE90744ED
:1014300000F00EFAAB680C4A1868DD600226C3E9BA
:1014400004240A211E7100F03CFAAB68186800F011
:101450002EFA2868314600F0F0FB20460CB070BD33
:101460000120FBE70220F9E77D140008024B8342CC
:1014700001D100F08BBE70479808002070B5C46899
:101480000546E4B1FFF7A8FE06462068802100F07B
:10149000E1FB012804D1FFF79FFE801B6328F4D9EC
:1014A0002068022100F0CEFB286800F005FA012335
:1014B0002B7123712046BDE87040FFF7D7BF70BD88
:1014C00070B5174B174D1C68174BB4FBF3F486B07F
:1014D000042000F0F7FA02A800F0EFFB013C40F214
:1014E000E733002602A928460393ADF80840ADF87B
:1014F0000A6000F0FDFB3146284600F0EAFB0121BE
:10150000284600F053FC094B019301A800F0DAF8DB
:10151000074BBDF80C209A60C3E9005406B070BDBB
:10152000000000200008004040420F001D010101A2
:10153000AC080020704710B501210446006800F097
:101540002AFC0128014605D1206800F02FFC204626
:10155000FFF7F0FF10BD0000534AD2F8883043F483
:10156000700384B0C2F88830504B1A6842F0010210
:101570001A6059684E4A0A405A601A684D4922F06A
:10158000847222F480321A601A6822F480221A606F
:101590005A6822F0036222F470225A604FF46052BB
:1015A000DA6200221A631A649960D96941F08051A5
:1015B000D961D96921F08051D9613F49086840F06B
:1015C00080000860086820F01000086002928DF822
:1015D000032003921A6842F480321A601A68C2F338
:1015E00040428DF80320039A013203929DF80320B4
:1015F0001AB9039AB2F5005FF0D11A68C2F34042FB
:101600008DF803209DF8032042B92C4B2C4A1A6018
:10161000254B4FF000629A6004B07047264A11686B
:1016200021F007011160116841F0020111605A6850
:101630005A605A6842F400525A605A6842F4A062F2
:101640005A605A6822F0036222F470225A601A6CBF
:1016500022F001021A645A680192019A42F480321F
:101660000192019A42F400320192019A42F003621F
:1016700042F440220192019A5A60029A1A641A684E
:1016800042F080721A601A689201FCD55A6822F002
:1016900003025A605A6842F002025A605A6802F025
:1016A0000C02082AFAD1B3E700ED00E00010024076
:1016B0000CC07FF80000BF0400200240040000209E
:1016C00000127A0070B50178012501F01F039D40DA
:1016D000C3784C09BBB10E4B4678DA68D243C2F3EB
:1016E0000222C2F104039E4083780F2020FA02F206
:1016F0001340084A33431B011144DBB281F8003325
:1017000042F8245070BD034B203443F82450F9E7CD
:1017100000ED00E000E100E0036823F00103036056
:101720000023036043608360C360204B984205D16F
:101730001F4A536843F00F03536070471D4B984294
:1017400004D11B4A536843F0F003F5E71A4B984263
:1017500004D1174A536843F47063EDE7174B98427E
:1017600004D1134A536843F47043E5E7144B98429D
:1017700004D10F4A536843F47023DDE7114B9842BC
:1017800004D10B4A536843F47003D5E70E4B9842DB
:1017900004D1074A536843F07063CDE70B4B98427E
:1017A000CBD1034A536843F07043C5E708000240B9
:1017B000000002401C000240300002404400024091
:1017C000580002406C000240800002409400024039
:1017D000036823F01003036003680B430360704742
:1017E000036823F04003036003680B430360704702
:1017F000036823F08003036003680B4303607047B2
:10180000036823F44073036003680B43036070476D
:10181000036823F44063036003680B43036070476D
:10182000036823F02003036003680B4303607047E1
:10183000036823F44053036003680B43036070475D
:10184000036823F48043036003680B43036070471D
:101850000B6810B50A4683604B68C3608968FFF760
:10186000B7FFD36843601169FFF7BAFF5169FFF70B
:10187000BFFF9169FFF7C4FFD169FFF7C9FF116A84
:10188000FFF7CEFF516AFFF7D3FFBDE81040916A22
:10189000FFF7D6BF0023C0E90033C0E90233C0E937
:1018A0000433C0E90633C0E9083383627047036834
:1018B00043F0010303607047036823F001030360F2
:1018C000704703680B4303607047036823EA010312
:1018D0000360704700680840003818BF0120704757
:1018E000416070470161704710B502F00704A40021
:1018F00012074FF00F034CBF426A026A03FA04F367
:101900006FEA030301FA04F14BBF134013400B438A
:101910000B434CBF4362036210BD30B50323046820
:101920005500AB4024EA030401F00303AB4023431A
:10193000036021F01003013B012B08D84368012408
:101940009440090923EA040391401943416030BDE2
:1019500010B5C36852000324944023EA0403914065
:101960001943C16010BD10B583680124944023EA77
:10197000040391401943816010BD10B5C36A520041
:101980000324944023EA040391401943C16210BD2B
:1019900070B50C4600250126236833FA05F200D104
:1019A00070BD06FA05F21A4211D061692A46FFF7A6
:1019B0009BFF2A466168FFF7B0FFA168FFF7C8FFE9
:1019C000E1682A46FFF7CFFF2169FFF7D6FF01350F
:1019D000E2E74FF6FF7303600F220023C36043600A
:1019E0004261836003617047816170478162704723
:1019F00081627047254930B54C684A68250140F23C
:101A00000F2303EA944302F480324ABF6FF4F77461
:101A100002331B19002A35D10A6C12F0010F14BFD2
:101A20001B4A1C4A4C681C4D53431A4A04F00C04D0
:101A3000082C08BF1A4602604C68C4F303142C5DDE
:101A4000E24042604C68C4F302242C5D22FA04F4A4
:101A500084604C68C4F3C2242C5D104D22FA04F457
:101A6000C460CC6A04F00F042C5DB2FBF4F2426156
:101A7000CA6A0B49C2F3031231F81220B3FBF2F326
:101A8000036130BD4A6812F4003FC8E7001002400D
:101A900000093D0000127A00B89B0008A89B0008CE
:101AA000889B0008024A536903435361704700BF93
:101AB00000100240024A936903439361704700BFDC
:101AC00000100240024AD3690343D361704700BF4C
:101AD00000100240044BDA680243DA60DA6822EA56
:101AE0000002DA60704700BF00100240064B9842C7
:101AF00003D14FF48050FFF7EDBF044B984202D161
:101B00004FF40020F7E7704700300140003C0140EF
:101B100003889BB243F04003038070470023038097
:101B200043808380C380038143818381C3810723F2
:101B300003827047038823F480639B049B0C03801B
:101B400003889BB20B4303807047038823F0040390
:101B50001B041B0C038003889BB20B43038070475C
:101B6000038823F400631B041B0C038003889BB2CF
:101B70000B4303807047038823F002031B041B0CF4
:101B8000038003889BB20B4303807047038823F0D4
:101B900001031B041B0C038003889BB20B430380CF
:101BA0007047038823F400731B041B0C0380038815
:101BB0009BB20B4303807047038823F038031B0458
:101BC0001B0C038003889BB20B4303807047038880
:101BD00023F080031B041B0C038003889BB20B4380
:101BE000038070470A4610B50988FFF7A3FF5188A4
:101BF000FFF7ABFF9188FFF7B3FF1189FFF7C6FF2F
:101C0000D188FFF7B8FF5189FFF7CBFF9189FFF724
:101C1000D3FFD189FFF7DBFF138A038210BD03884E
:101C2000B1F5807F15BF23F480739BB21B0443F48E
:101C3000807318BF1B0C0380704783889BB20B43D3
:101C40008380704783889BB223EA010383807047B7
:101C500081817047038999430CBF012000207047A0
:101C6000036819B143F400630360704723F4006311
:101C7000FAE7036819B143F480530360704723F413
:101C80008053FAE7036819B143F4005303607047C7
:101C900023F40053FAE7036819B143F48043036067
:101CA000704723F48043FAE7036819B143F4004313
:101CB0000360704723F40043FAE700234FF6FF72F6
:101CC000038043808280C380038143818381837347
:101CD000704781847047036843F0010303607047D5
:101CE000036823F44073036003681943016070477D
:101CF000244B984210B502460C4608D00168638810
:101D000021F070010B430360E188FFF7E9FFA3882E
:101D10009385238813851C4B9A4203D003F50063F7
:101D20009A4201D1237A138601239382154B9A425A
:101D300027D0617A1046FFF793FF134B9A420ED0DB
:101D400003F500639A420AD0B2F1804F07D0A3F5A1
:101D500098339A4203D003F580639A4211D1617B94
:101D60001046FFF7A1FFB2F1804F0AD1A17AFFF729
:101D700080FFE17AFFF786FF217BBDE81040FFF787
:101D80008ABF10BD00100040002C014083899BB227
:101D90000B43838170470369828913EA010092B281
:101DA00003D01140081E18BF01207047C9430161CC
:101DB0007047000030B587B0044668460D46FFF70F
:101DC00019FE124B9C4207D003F5C0539C4203D02E
:101DD00003F580639C4216D1039B1922534364226E
:101DE000AD00B3FBF5F3B3FBF2F102FB11331B01C2
:101DF0003233B3FBF2F303F00F0343EA01139BB258
:101E0000238107B030BD029BE7E700BF00380140E7
:101E100038B504460D460968FFF7CCFFA389AA88A8
:101E20009BB223F480531343A381238AEA889BB295
:101E300023F4405313432382A3892A899BB223F4BA
:101E4000C0631343A381A3896A899BB223F00C0367
:101E50001343A381A38AAA899BB223F4407313433B
:101E6000A38238BD83899BB243F4005383817047BA
:101E7000C1F34213012201F01F01012B02FA01F20A
:101E800004D10C300368134303607047022B0CBF6E
:101E900010301430F6E7C1F3080181807047808864
:101EA000C0F308007047038801EA0300003818BF38
:101EB00001207047C1F3421210B5034601F01F0420
:101EC0000120012A00FA04F00DD19A891B8892B2F0
:101ED00010409BB230B1090A01228A401340181EFB
:101EE00018BF012010BD022A0CBF1A8A9A8AEDE79A
:101EF000090A01238B40DB439BB20380704700003B
:101F00002DE9F843141A1E465B1A9BB2A4B25C4337
:101F10001746731E013A9BB292B2BDF820808146EB
:101F20000D4600F0C9F9102C26D9154A13884345EF
:101F30000AD014494FF40073013B9BB221F8028B85
:101F4000002BF9D1A2F80080B4F5007F254628BF08
:101F50004FF4007569000B4889B200F065F9641B05
:101F6000F2D1BDE8F883404600F046F90134A4B24E
:101F7000BC42F8D30135ADB2B542F2D24C46F7E7D8
:101F800008000020B808002010B50B461446024691
:101F900000F092F92046BDE8104000F02DB92DE97F
:101FA000F04F85B0A2EB00091D46B9F1000FBDF856
:101FB0003830029304460B46A5EB010A1ADC1BD00D
:101FC000A0EB02094FF0FF320192BAF1000F16DCCC
:101FD00018D0A1EB050A4FF0FF3B0026D1454D4636
:101FE000B046B8BF55463746B2B2AA420CDD05B07E
:101FF000BDE8F08F0122E7E7CDF80490E5E74FF068
:10200000010BEAE7D346E8E7029A039399B2A0B23C
:102010004F44FFF7B9FFBD42B8BF019A039BD044BC
:10202000BCBF7F1BA4184545BCBFA8EB05085B449B
:102030000136D9E72DE9F04F87B0A2F120069DF8CF
:1020400044400293BDF8403004939DF84830059316
:102050006308019314F00E0318BF012303EB14135C
:1020600063430393421E4B1E234402EB54029BB274
:1020700092B200900F46002500F01EF9DDF80080B6
:10208000F6B2A946039BAAB2934206D9182C30D0C7
:1020900006D80C2C0AD0102C27D007B0BDE8F08F42
:1020A000202CFAD1244A02EB861202E0234A04FBD8
:1020B000062212F805B04FF0000A059B4BFA0AF20F
:1020C00002F00102E3B9CAB1029800F095F809F1F3
:1020D00001035FFA83F9019BB9FBF3F203FB129250
:1020E00012F0FF0222D191461EE0154A02EB0612C1
:1020F000DFE7144A302101FB0622DAE70498E4E71F
:1021000022B1029A39464046FFF73EFF009B08F194
:1021100001081FFA88F8A8EB0302019B9A4205D137
:102120000137DDF80080BFB20135ABE70AF1010AE3
:10213000BAF1080FC1D1F7E7C89B000848CB0008E7
:1021400058C5000888B300082DE9F04F85B0044653
:102150009DF83C80BDF838909DF840A00E461F4683
:10216000551E4FEA580B15F8012F12B905B0BDE8FE
:10217000F08F2046CDE9018ACDF800903B463146EC
:102180005C44FFF757FFA4B2EDE7000008B505482F
:102190000221FFF729FC044B01221A7300225A7313
:1021A00008BD00BF003802400C00002007B56423C2
:1021B0008DF8070001220DF107010348FFF7CCF865
:1021C00003B05DF804FB00BF9808002010B50221A1
:1021D00004460848FFF70AFC01210648FFF704FC03
:1021E0002046FFF7E3FFBDE8104002480221FFF759
:1021F000FBBB00BF0038024010B50221044609486D
:10220000FFF7F4FB01210748FFF7EEFB200AFFF779
:10221000CDFFE0B2FFF7CAFFBDE810400148022140
:10222000FFF7E2BB0038024038B504460D461248BD
:102230000221FFF7DBFB10480121FFF7D5FB2A46FF
:1022400021460E480E4DFFF7C3F8FEF7C5FF00F11B
:1022500064042B79012B03D0FEF7BEFFA04205D901
:10226000BDE8384004480221FFF7BEBB00BF00BFF5
:1022700000BF00BFEDE700BF003802409808002013
:102280006408002010B5022104460A48FFF7AEFB9F
:1022900001210848FFF7AAFB2046FFF787FF054802
:1022A0000121FFF7A1FBBDE8104002480221FFF722
:1022B0009BBB00BF00380240F8B507462A200D46F8
:1022C00016461C46FFF7DEFF781C80B2FFF794FF2E
:1022D000701C80B2FFF790FF2B20FFF7D3FFA81CE4
:1022E00080B2FFF789FFA01C80B2FFF785FFBDE831
:1022F000F8402C20FFF7C6BF08B540217B48FFF708
:1023000075FB6420FEF76EFF40217848FFF76CFBF9
:102310006420FEF767FF4FF480617548FFF766FBA6
:102320006420FEF75FFF1120FFF7ACFF7820FEF777
:1023300059FFB120FFF7A6FF0520FFF747FF3C201C
:10234000FFF744FF3C20FFF741FFB220FFF79AFF61
:102350000520FFF73BFF3C20FFF738FF3C20FFF74D
:1023600035FFB320FFF78EFF0520FFF72FFF3C203E
:10237000FFF72CFF3C20FFF729FF0520FFF726FF82
:102380003C20FFF723FF3C20FFF720FFB420FFF79E
:1023900079FF0320FFF71AFFC020FFF773FF282003
:1023A000FFF714FF0820FFF711FF0420FFF70EFFCF
:1023B000C120FFF767FFC020FFF708FFC220FFF72B
:1023C00061FF0D20FFF702FF0020FFF7FFFEC32093
:1023D000FFF758FF8D20FFF7F9FE2A20FFF7F6FEE2
:1023E000C420FFF74FFF8D20FFF7F0FEEE20FFF730
:1023F000EDFEC520FFF746FF1A20FFF7E7FE362067
:10240000FFF740FFA020FFF7E1FEE020FFF73AFFD3
:102410000420FFF7DBFE2220FFF7D8FE0720FFF79E
:10242000D5FE0A20FFF7D2FE2E20FFF7CFFE302088
:10243000FFF7CCFE2520FFF7C9FE2A20FFF7C6FED6
:102440002820FFF7C3FE2620FFF7C0FE2E20FFF74F
:10245000BDFE3A20FFF7BAFE0020FFF7B7FE0120CD
:10246000FFF7B4FE0320FFF7B1FE1320FFF7AEFE27
:10247000E120FFF707FF0420FFF7A8FE1620FFF773
:10248000A5FE0620FFF7A2FE0D20FFF79FFE2D20E0
:10249000FFF79CFE2620FFF799FE2320FFF796FE0C
:1024A0002720FFF793FE2720FFF790FE2520FFF758
:1024B0008DFE2D20FFF78AFE3B20FFF787FE0020D0
:1024C000FFF784FE0120FFF781FE0420FFF77EFE68
:1024D0001320FFF77BFE3A20FFF7D4FE0520FFF71D
:1024E00075FEBDE808402920FFF7CCBE003402404D
:1024F0000038024007B58C220021084800F0F6FCA5
:10250000064A0021012382F8893008460091802381
:10251000A022FFF7F5FC03B05DF804FBBC340020FB
:1025200030B5094A92F87830092B0AD80C245C435C
:1025300015191051012003446960287282F878301F
:1025400030BD0020FCE700BFBC34002010B50B4CB0
:1025500094F8782082B194F97930013393FBF2F149
:1025600002FB113384F87A30FEF736FE40F2011395
:10257000C4F88400A4F8883010BD00BFBC3400202B
:1025800010B50B4C94F878208AB194F97930013B5E
:10259000134493FBF2F102FB113384F87A30FEF717
:1025A0001BFE40F20113C4F88400A4F8883010BD6B
:1025B000BC34002008B5FEF703FD012806D1084809
:1025C000FEF780FCBDE80840FFF7C0BF032806D136
:1025D0000448FEF777FCBDE80840FFF7D1BF08BD0F
:1025E000B7990008D399000810B5344C94F8883096
:1025F000C3B1FEF7F1FDD4F88430C01A94F97A30F3
:1026000007EE903AB0F5967FF8EEE77A0BD384F8B0
:1026100079300023C4F880304FF48073C4ED1F7A02
:10262000A4F8883010BD07EE100ADFED256A94F992
:102630007930B8EEC77AF6EE005A87EE266AF7EEE2
:10264000006A36EE667AB0EE665A27EE076AA7EEA3
:10265000065A07EE103A94F8783006EE103AB8EEC3
:10266000C77AB8EE466A77EEC74A66EE255AB0EEEC
:10267000E44AB4EEE54AF1EE10FA08DDF5EEC04AA0
:10268000F1EE10FACCBF37EE067A77EE867A37EEA7
:10269000C76A76EEC56AA6EE057A012384F889300A
:1026A00077EEC77A84ED1F7A67EEA67A9FED057AFA
:1026B00067EE877AC4ED207AB4E700BFBC3400200F
:1026C00000009643CDCC4C3F2DE9F04FC84C2DED8A
:1026D000048B94F889308BB0002B00F04A810021E4
:1026E000C44E84F889104FF6FF7700978023A0220C
:1026F0000846FFF705FC3578ADB940F2DA38182303
:10270000A02229462846CDF80080FFF7F9FB0C23CC
:10271000CDE90083B84A02953B4606210820FFF721
:1027200013FD01233370D4ED1F8A94F87820DFF86D
:10273000C0A2B6EE009A78EE897AFDEEE77A17EE3F
:10274000903A93FBF2F102FB1133002BB8BF9B18B8
:10275000A3F10209033309939AF8783009EB0302D5
:1027600092FBF3F103FB11229342049240F2D480D6
:1027700007EE902A07EE103AF8EEE77AB8EE477ABD
:1027800077EEE87A67EE096AF4EEE76AF1EE10FA9E
:1027900040F1F48077EEC77AB0EE677ABEEEED7A5C
:1027A00017EE104A04F12603452B00F2B58004F120
:1027B0004005ADB205F108039BB2049A08939AF95B
:1027C0007A309342B0EEE78A40F0E2804334A4B21C
:1027D0004EF23C7804F11A03671C04F1190BBFB2E6
:1027E0001FFA8BFB21469BB295220B20CDF800806F
:1027F000FFF786FB5B46962239460A20CDF800801B
:10280000FFF77EFBA31C9BB204F11806B6B205933A
:102810000599CDF80080334697220920FFF770FB19
:10282000E31C9BB2069304F1170340F2DA359BB226
:102830000699CDF80080982208200793FFF760FBE7
:102840002346214694220C200095FFF7A8FB5B4607
:10285000594694220C2004F1040B00951634FFF71E
:102860009EFBA4B208221FFA8BFB10462346594652
:102870000095FFF794FB9722104623465946009592
:10288000FFF78DFB3B460B2239460A200095FFF7E8
:1028900086FB3B469522394694200095FFF77FFB47
:1028A00009221046069B05990095FFF778FB9622B2
:1028B0001046069B05990095FFF771FB33460B22E6
:1028C00031460A200095FFF76AFB334695223146D0
:1028D00094200095FFF763FB09221046079B0095A3
:1028E0002146FFF75CFB96221046079B0095214688
:1028F000FFF755FB049BCDF800800C2253431A468A
:1029000000201023CDE9013008995AF8022041F641
:10291000E7031220FFF718FC099B09F101094B4559
:102920007FF41AAF324991F87820052A21D991F91C
:1029300079404FF4F575B5FBF2F5C5F1620314FB70
:1029400003F4013A4FF2BE7394FBF2F41C34A4B2C8
:1029500000939D227E231C219B20FFF7D1FA40F299
:10296000DA32631900929BB29D2221469B20FFF729
:10297000C7FA0BB0BDEC048BBDE8F08FF1EE666AD0
:10298000F4EEE67AF1EE10FA48BF77EE877A03E7C5
:10299000049A0C235A4300211023CDE90131F7EEAC
:1029A000087AB4EEE78A4FF6FF73F1EE10FA00935F
:1029B00046F22C3141F6E7035AF80220C8BF0B4615
:1029C00012200899FFF7C0FBDFED0C7AB4EEE78A1E
:1029D000F1EE10FAA0DD05F11F039BB24EF21C725E
:1029E0000092194688221820FFF7D9FA94E700BF11
:1029F000BC340020B8340020F2990008CDCC4C3F04
:102A00001FB5FEF7FBF93D48FEF75CFA3C48002491
:102A1000FEF758FA3B48FEF755FAFEF753FBFEF770
:102A200023FCFFF769FC2146204600948023A02266
:102A3000FFF766FA1823CDE90043334A029447F6BC
:102A4000FF733C212320FFF77FFB1023CDE90043D8
:102A50002E4A02944FF6E0735A210F20FFF774FBC1
:102A60000C232B4A02947321CDE9004314204FF626
:102A7000FF73FFF769FB2748FEF724FAFEF756FAC3
:102A8000FEF794FA2448FEF71DFA2448FEF71AFAD6
:102A9000FFF730FD21462248FFF742FD214621483D
:102AA000FFF73EFD21462048FFF73AFD21461F482B
:102AB000FFF736FD21461E48FFF732FD21461D482F
:102AC000FFF72EFD21461C48FFF72AFD21461B4833
:102AD000FFF726FD21461A48FFF722FD2146194837
:102AE000FFF71EFD1848FEF7EDF9FFF7EDFD17485B
:102AF00004B0BDE81040FEF7E5B900BFF799000843
:102B0000199A0008329A0008509A0008589A00084A
:102B1000669A0008769A00088F9A00089F9A000823
:102B2000B69A0008C59A0008D39A0008DF9A0008F0
:102B3000ED9A0008F79A0008009B0008069B000821
:102B40000D9B0008149B00081C9B00082C9B000890
:102B500030B50F4D95B0FEF73FFB2B68C31AB3F5A8
:102B6000FA6F04460AD350216846FEF76DFA6846AC
:102B7000FEF7A8F90748FEF7A5F92C60FFF71AFD44
:102B8000FFF732FD15B0BDE83040FFF79DBD00BF37
:102B900048350020299B00080D4885460D480E4900
:102BA0000E4A002302E0D458C4500433C4188C42A7
:102BB000F9D30B4A0B4C002301E013600432A2420C
:102BC000FBD3FEF7C9FC00F033FAFEF717FBFEE774
:102BD0000040002000000020F4060020B8D30008C8
:102BE000F406002064380020FEE70000024A034992
:102BF000034800F0C9B800BF1C000020515B00086A
:102C0000300000200C4B4168994210B5044601D0B9
:102C100002F09EFFA168094B994202D0204602F0C3
:102C200097FFE168064B994204D02046BDE810406A
:102C300002F08EBF10BD00BF4C350020B43500201F
:102C40001C3600202DE9F843314A324C3249DFF876
:102C5000DC90DFF8DC80314F116000250423294629
:102C6000082204F15C00C4E903352D4EA560C4E9D7
:102C70000055C4E90555656600F038F904F15800BF
:102C8000C4E90749C4E90987E66200F0F9F9294671
:102C9000244B6367082204F1C400C4E91A55C4E94F
:102CA0001E552567C4F8CC50C4F8805000F01EF9BA
:102CB00004F1680304F1C000C4F88430C4E9229828
:102CC000C4E9247600F0DCF9174BC4F8DC3029465F
:102CD00004F596700822C4E93455C4E93855C4F89F
:102CE000D850C4F83451C4F8E85000F0FFF804F1AB
:102CF000D003C4E93D87C4F8F09004F59470C4F89B
:102D0000FC60C4F8EC30BDE8F84300F0B9B900BF8E
:102D1000843600204C350020ED2B0008C12E000821
:102D2000E52E000809000100120002005D2E0008D7
:102D3000812E000810B504460A4800F0A5F9636B1F
:102D400023B9094B094A1B68626323B1BDE81040EF
:102D5000044800F09BB9FFF775FFBDE8104001483B
:102D600000F094B99436002084360020052C000829
:102D7000014800F089B900BF94360020014800F0F6
:102D800085B900BF943600202DE9F84307468846F0
:102D900016464FF00009D6E90154013D10D4A3892D
:102DA000012B08D9B4F90E3001332146384602D040
:102DB000C04749EA0009013D6B1C04F16804EED1EB
:102DC0003668002EE7D14846BDE8F8830CB410B54C
:102DD000214B00291C689CB038DB4FF000034FF4F6
:102DE00002721B93ADF81420029006901FAB18D00E
:102DF00001394FF6FF7204910791ADF8162002A930
:102E00001E9A0193204600F07FFD421C01DA8B23BD
:102E10002360029B00221A701CB0BDE8104002B073
:102E200070474FF6FF7204910791ADF8162002A982
:102E30001E9A0193204600F067FD431C01DA8B23A4
:102E400023601CB0BDE8104002B070478B232360A4
:102E50004FF0FF30F5E700BF2800002010B50C460A
:102E6000B1F90E1000F0B8F8002803DB236D03441D
:102E7000236510BDA38923F48053A38110BD00BF37
:102E80002DE9F0410C46B1F90C101F46CB05054663
:102E900016460BD421F48051A1813B46B4F90E10A3
:102EA00032462846BDE8F04100F0ACB8B4F90E1047
:102EB0000223002200F07AF8B4F90C10EAE700BF10
:102EC00010B50C46B1F90E1000F070F8B4F90C30E2
:102ED000421C0EBF23F4805343F480532065A3812A
:102EE00010BD00BFB1F90E1000F04EB8830730B529
:102EF00046D08418844604E003F8011B9D0704D0E3
:102F00009C46A4456346F7D130BD013A0244A2EB8A
:102F10000C02032A29D9CCB204EB04240F2A04EBB7
:102F200004442FD9A2F1100C2CF00F0C03F1100562
:102F3000AC44C3E90044C3E9024410336345F8D10B
:102F400012F00C0F02F00F0E18D02EF0030C9C4460
:102F5000AEF104051A4642F8044B6245FBD125F058
:102F6000030404330EF003022344002ACCD0C9B278
:102F70001A4403F8011B9342FBD130BD7246F4E7BB
:102F80000346C6E79646E0E738B5074D00220446FB
:102F900008462A6006F0A4FC431C00D038BD2B680C
:102FA000002BFBD0236038BD8836002038B50D4695
:102FB000084C8446114628461A460023236065467D
:102FC00006F0B6FC431C00D038BD2368002BFBD0B4
:102FD0002B6038BD8836002038B50D46084C844635
:102FE000114628461A4600232360654606F0A8FCD1
:102FF000431C00D038BD2368002BFBD02B6038BDAC
:103000008836002038B50D46084C844611462846BF
:103010001A4600232360654606F0A8FC431C00D036
:1030200038BD2368002BFBD02B6038BD88360020CC
:1030300070B50F4B0F4DAB42A3EB050607D0B61092
:10304000002455F8043B01349847A642F9D806F00D
:1030500097FC094D094B5E1BAB424FEAA60606D012
:10306000002455F8043B01349847A642F9D870BDB6
:10307000ACD30008ACD30008ACD30008B4D300082C
:10308000704700BF704700BF704700BF704700BF68
:10309000024B13B1024800F005B870470000000071
:1030A000395E0008002301461A46184602F018BF90
:1030B0002DE9F84306460820894602F0D1FEDFF8E4
:1030C000A4800546304600F013FCD8F808305F684D
:1030D00027F00307A7F11104A4EB09042C44B4FB67
:1030E000F5F4013C05FB04F4A54208DC0021304660
:1030F00002F090FED8F808303B44984205D03046A4
:1031000000F0FCFB0020BDE8F8836142304602F08D
:1031100081FE01300FD0114AD8F808303F1B47F02C
:1031200001075F60136830461B1B136000F0E6FB6D
:103130000120BDE8F8830021304602F06BFED8F88C
:103140000820831A0F2BDADD43F001035360044B90
:1031500002491B68C01A0860D1E700BF9C360020F6
:10316000740100208001002000295BD0F8B50C46D6
:10317000074600F0BDFB54F804CC744DA4F10802DE
:103180002CF00103D118A8684E68884226F0030687
:103190000CF0010E7ED088194E60406800F00100EE
:1031A000BEF1000F2FD154F8084C121B2344946831
:1031B00005F1080C644562D0D2F80CE0C4F80CE0CC
:1031C000CEF8084000287FD043F0010050600B602B
:1031D000B3F5007F2FD2D90868685C09013101235B
:1031E00009B2A34003436B6055F83100906005EBD2
:1031F000C103083BD36045F83120C2603846BDE8C2
:10320000F84000F07BBB70B9334405F1080C8868C6
:10321000604543F0010471D0C968C16088605460A2
:10322000D350D5E770474CF00101B3F5007F44F867
:10323000041CD350CFD3B3F5206F4FEA532045D2AF
:10324000980900F1390109B200F13804C900681881
:1032500069580838884203D157E08968884204D009
:103260004C6824F003049C42F7D8C868C2E90210F5
:1032700082603846CA60BDE8F84000F03FBB88BBBA
:103280001E44D1E90213CB60996046F001035360FC
:103290009651B3E71E44BEF1000F07D154F8083C25
:1032A000D21A1E44D2E90213CB60996046F00103A2
:1032B0005360274BAA601B68B3429FD8254B384602
:1032C0001968FFF7F5FE99E73344A0E714280ED9F3
:1032D000542821D8180B00F16F0109B200F16E04D7
:1032E000C900B4E743F0010050600B6086E700F1CD
:1032F0005C0109B200F15B04C900A8E7C5E904223A
:10330000C2E902CC5460D35078E76E68A410012360
:10331000A34033436B60A9E7B0F5AA7F07D8D80B69
:1033200000F1780109B200F17704C9008FE740F29B
:103330005451884206D8980C00F17D0100F17C04BC
:10334000C90084E74FF47E717E2480E7800100206D
:1033500078010020CC3600202DE9F04F01F10B055B
:10336000162D83B0064623D8102900F2B48000F051
:10337000BFFA102518230220B84F3B44A3F10802DE
:103380005C68944200F064816368E268A16823F09D
:103390000303CA602344304691605A6842F0010238
:1033A0005A6000F0ABFA0834204603B0BDE8F08F55
:1033B00035F0070500F18F80A94200F28C8000F003
:1033C00097FAB5F5FC7FC0F0B8815FEA552E00F0A2
:1033D0008980BEF1040F00F270814FEA951E0EF154
:1033E000390003B20EF1380EDB009C4F3B44A3F1D1
:1033F000080C5C68A44507D10DE0002AE16880F262
:1034000021818C4507D00C46636823F003035A1BC7
:103410000F2AF2DD7046DFF85C823C69444500F01B
:10342000FE80636823F0030CACEB05030F2B00F365
:103430008981002BC7E9048880F27381BCF5007F85
:10344000D7F804E080F018814FEADC03013319B2A9
:103450004FEA5C1C012303FA0CF357F83120A260F9
:103460004EEA030E07EBC103083BE360C7F804E034
:1034700047F83140D46083104FF0010C0CFA03FC84
:10348000F44535D81CEA0E0F08D120F003004FEAAE
:103490004C0C1CEA0E0F00F10400F8D007EBC00A38
:1034A000D6468146DEF80C300BE0596821F0030166
:1034B0004A1B0F2A1C46DB6800F30F81002A80F2AA
:1034C00023819E45F1D109F1010919F0030F0EF195
:1034D000080EE7D161E10C2333600024204603B0DD
:1034E000BDE8F08F4FF4007340204FF03F0E7CE7B3
:1034F000BC68636823F00309A94504D3A9EB05035D
:103500000F2B00F38F80564B1B68082003F1100827
:1035100004EB0903009302F0A3FC524A1368013341
:10352000A844834605D008F1FF388044434203EAAB
:1035300008084146304602F06DFCB0F1FF3F494AB1
:10354000824600F01B8104EB0903834200F21481E0
:10355000454B186840440BF1FF3C186000F0728145
:103560001168013100F07A8104EB0902AAEB020232
:1035700002441A601AF00702CDE9002300F03281FC
:10358000C2F108029244D04408EA0C015A44521A8B
:1035900002EA0C0B5946304602F03CFC421C019BEF
:1035A00000F07981A0EB0A0000EB0B081868C7F85F
:1035B00008A048F001025844BC42CAF80420186030
:1035C00016D0B9F10F0F40F24C816168A9F10C02DD
:1035D00022F0070201F00101114361604FF0050C78
:1035E000A1180F2AC1E901CC00F25D81DAF80420AC
:1035F0001E4B1968814238BF18601D4B1968814203
:1036000038BF1860544622F00308A845A8EB05030C
:1036100001D30F2B06DC304600F070F95DE7D7F8D8
:1036200004E028E7621943F0010345F001056560F5
:103630003046BA60536000F061F90834204603B0A8
:10364000BDE8F08FA2682344D16030468A60A4E6CA
:10365000DC68A3427FF498AE0230DCE680010020F3
:10366000CC360020740100209C360020C836002093
:10367000C436002088010020BCF5206F4FEA5C2290
:1036800072D3142A00F2C18002F15C031BB25B32D8
:10369000DB00F918FB580839994203D198E09B6880
:1036A000994204D05A6822F003026245F7D8D968DB
:1036B000C4E902318C60DC60DDE6BEF1140F60D934
:1036C000BEF1540F00F2AB804FEA153E0EF16F00D1
:1036D00003B20EF16E0EDB0087E6D4F808C0304668
:1036E000661945F001056560CCF80C30C3F808C0D8
:1036F00042F00103C7E90466C6E9028873606250BC
:1037000000F0FCF80834E9E6214430464A6842F00B
:1037100001024A6054F8082FD3609A6000F0EEF876
:10372000DCE6A4443046DCF8043043F00103CCF876
:10373000043000F0E3F80834D0E6E808431C1BB27C
:10374000DB0019E6621943F0010145F001056560EF
:103750003046C7E90422C2E90288516044F80C30BF
:1037600000F0CCF80834B9E64FEA9C1202F13903B4
:103770001BB23832DB008CE7BC425CD0BC686268AC
:1037800041E70EF15C0003B20EF15B0EDB002CE6AC
:103790005AF80839534540F0A68010F0030F00F1A5
:1037A000FF30F5D17B6823EA0C037B604FEA4C0CB9
:1037B0009C453FF69DAEBCF1000F04D198E64FEA60
:1037C0004C0C09F104091CEA030FF8D0484665E6E1
:1037D00092104FF0010C0CFA02F24EEA020EC7F8FA
:1037E00004E065E70AEB080202EA0C02ABEB020216
:1037F00002EA0C0B5946304602F00CFB431C019BBD
:103800007FF4D0AEDDF800B0D0E6542A2DD84FEAD0
:103810001C3202F16F031BB26E32DB0039E7BEF5DA
:10382000AA7F2DD84FEAD53E0EF1780003B20EF1F3
:10383000770EDB00D9E52D4B186840440BF1FF3CB7
:1038400018608DE61AEA0C0F7FF48AAED7F808A04C
:10385000C84448F00102CAF80420C9E6C2F800A032
:1038600088E60123CAF80430D5E6B2F5AA7F25D848
:103870004FEADC3202F178031BB27732DB0008E753
:1038800040F254539E4524D8AB0C03F17D0003F164
:103890007C0EC300A9E5009A083A9044A8EB0A08F8
:1038A0004FF0000B82E6304604F108010093FFF769
:1038B0005BFC009BD7F808A0186897E640F25453C9
:1038C0009A420CD84FEA9C4202F17D03DB007C3225
:1038D000DFE64FF47E737F204FF07E0E85E54FF4D8
:1038E0007E737E22D5E67B6860E700BF9C360020B1
:1038F0000148FFF7C9BB00BF8C3600200148FFF725
:10390000C5BB00BF8C3600202DE9F04FD7B00C4668
:10391000069115460A93834602F078FA03681393DA
:103920001846FCF70DFD00211290082226A8FFF78B
:10393000DDFAA389190603D52369002B01F0AE80B7
:103940009FED777B00239E46CDE916EE8DED0E7B35
:10395000CDE92B332DAB2A931C46CDF850E0CDF8A2
:1039600054E0CDF810E0CDF834E02F463D466E4BE4
:10397000D3F8E46002F044FA26AA0346009222A992
:103980002A465846B047002800F09880C0F28E8042
:10399000229A252A034601D01D44E8E7B5EB070823
:1039A000064640F08F8000234FF0FF328DF87F30C5
:1039B0009A46059301352B78039201359946A9F172
:1039C00020035A2B00F2B280DFE813F04402B0006B
:1039D000B0004002B000B000B0002302B000B00060
:1039E000EE01FD01B000F9010602B00002025B0029
:1039F0005B005B005B005B005B005B005B005B00EF
:103A0000B000B000B000B000B000B000B0002501C0
:103A1000B0007C010203250125012501B000B000A2
:103A2000B000B000FE02B000B0004E02B000B00026
:103A3000B000B901B000A402B000B000C007B000EF
:103A4000B000B000B000B000B000B000B000250180
:103A5000B0007C01670125012501250122036701D2
:103A60006C00B0003B03B0002C03700345036C00F6
:103A7000B000B9016A00DD02B000B0003008B0004B
:103A80006A00A9F13003002215F8019B02EB8202C3
:103A900003EB4202A9F13003092BF5D905928EE719
:103AA0002B788AE72B784AF0200A86E70822002143
:103AB00026A8FFF71BFA01231D4458E7B5EB0708BA
:103AC000064612D0DDF8ACE02C9B0EF10102434417
:103AD000072AC4E900782C932B9215DC0834049B48
:103AE00043440493002E7FF45EAF2C9B002B41F0E7
:103AF0006883069B9B8903F04003002B41F0C58738
:103B0000049857B0BDE8F08F06992AAA584601F0EC
:103B1000F3FF0028EDD12DACE1E700BFAFF300804B
:103B2000000000000000000088050020B9F1000F2F
:103B3000DBD00023CDE90B3301228DF8F4908DF812
:103B40007F3007930892039311933DAF02922C9E0E
:103B500010961AF0840300F0E4809DF87F2002B3F1
:103B60002B984FF0000801300122013662600728CF
:103B70000DF17F02CDE92B06226000F302840834A8
:103B8000B8F1000F0DD02B98013020AA0236226028
:103B900007284FF00202CDE92B06626000F3E583AF
:103BA0000834802B00F0EC82039B089AA3EB0208F8
:103BB000B8F1000F00F329831AF4807F40F0898266
:103BC000089B63601E442B9B27600133072B2C96B8
:103BD0002B9300F3728308341AF0040F05D0059B71
:103BE000029A9F1A002F00F3DA83DDE9043202996A
:103BF0008A42ACBF9B185B180493002E40F03D83B3
:103C000000232B93079B1BB107995846FFF7ACFA8B
:103C10002DAC2F46AAE60A9B073323F00703B3EC2B
:103C2000027B8DED0E7B0A930F9B8DED1A7A23F0AC
:103C300000431B93DDE91A01B34B4FF0FF32FDF750
:103C400041F8002840F02886DDE91A01AE4B4FF01C
:103C5000FF32FDF719F80646002840F01D86DDE921
:103C60000E01002200232AF0800AFDF703F8002845
:103C700041F0F1819DF87F30B9F1470FCCBFA34FE0
:103C8000A34F002B41F0DF850322CDE90B330793CF
:103C9000089203931193029259E71AF0200F40F013
:103CA000B3850A9A1AF0100F52F8046B41F01B8783
:103CB0001AF0400F0A9201F0168146F3C0384346CD
:103CC00036B295E10A9BB9F1430F03F1040603D024
:103CD0001AF0100F00F0BB860822002128A8FFF779
:103CE00005F90A9B3DAF1A68394628AB584603F0E0
:103CF000E9FD03460133089001F0C286089B23EAE0
:103D0000E37302930023CDE90B330A968DF87F30DD
:103D10002C9E0793039311931AF0840310967FF45B
:103D20001CAF059A0298A2EB0008B8F1000F00F34F
:103D300014849DF87F20002A3FF436AF10E7DDF8A9
:103D4000288058F8047B00238DF87F30002F00F086
:103D50009486B9F1530F01F013801AF010030B93FE
:103D600041F00E80039B002BC1F219821A460B9979
:103D70003846FCF785FA9DF87F300790002801F05F
:103D8000CB85079AD21B089222EAE27202920BB10B
:103D9000013202920B9BCDF82880039311930C9370
:103DA00007934FF07309D2E60A9B53F8042B059250
:103DB000002A80F21385059A0A93524205922B78C5
:103DC0004AF0040AF9E52B238DF87F302B78F4E5CF
:103DD0002B784AF0800AF0E5294611F8019BB9F1E9
:103DE0002A0F01F04286A9F13003092B98BF002267
:103DF00001F20C8411F8019B02EB820203EB4202F8
:103E0000A9F13003092BF5D942EAE27303930D4679
:103E1000D5E5584601F0FAFF436815931846FCF7BC
:103E20008FFA17900646584601F0F0FF82682B780B
:103E30001692002E3FF4C1AD002A3FF4BEAD1278B9
:103E4000002A3FF4BAAD4AF4806AB6E52B784AF00E
:103E5000010AB2E59DF87F202B78002A7FF4ADADF2
:103E600020228DF87F20A8E51AF0200F4AF01000DC
:103E700000F0BC840A9B073323F007031A465968F5
:103E800052F8083B0A9200228DF87F20039A002AFC
:103E900018DB53EA010220F4906A15D1039A9AB90B
:103EA00010F001031A46029300F00B8730238DF8BF
:103EB0005731039B0892CDE90B33119307930DF211
:103EC000571744E620F4806A56AF03F00702DB0878
:103ED00043EA4173C908303253EA0106384607F80D
:103EE000012DF2D11AF001030B9340F01E830399C8
:103EF000119356AAD21B9142B8BF11460892029163
:103F00000C93079323E600BFFFFFEF7FC0CF0008AD
:103F1000BCCF00081AF0200F4AF0100138D10A9BDC
:103F20001A1D0A9B03981B684FF0000840458DF846
:103F30007F801E46C0F27C8521F0800A002B00F0B5
:103F40008B840A920A2E78F1000380F0B28306F186
:103F50003003DBB2039A8DF85731012AB8BF012232
:103F600002929DF87F30012208920DF25717002B24
:103F700001F07585029B013302930023CDE90B33D9
:103F800007931193E3E51AF0200F00F04E84514699
:103F90000A9B073323F007031A46D3F8048052F82C
:103FA000086B0A9200238DF87F30039B002BC0F230
:103FB000408556EA080321F0800AC3D1039B002BF9
:103FC00000F04F840026C2E72B784AF0080AF4E498
:103FD0001AF0200F4AF0100300F019840A9A0732F1
:103FE00022F007029A46536852F8086B0A929846E4
:103FF000002BC0F24D83039A002AA3DB56EA080384
:104000002AF0800A9ED1002A01F055803023A1E7D2
:104010002B78682B03BF6B784AF4007A01354AF09D
:10402000400ACAE40A9A1AF0200F02F1040300F0D1
:104030002184126804991160C91751600A932F46B0
:1040400094E42B786C2B03BF6B784AF0200A01357F
:104050004AF0100AB1E40A9A039F52F8040B0021B7
:1040600047F630038F42ADF880308DF87F1003465D
:10407000C0F2E2842AF0800646F0020A002840F0EE
:10408000DD84002F01F01E800A9230230122029766
:10409000CDE907020C908DF857310DF257171190AA
:1040A0004FF078090B90844600F0A5BC1AF0200F61
:1040B00040F0B8830A9A1AF0100152F8043B41F01C
:1040C0000F851AF0400000F0EF869BB20A9250462E
:1040D000D9E6B9F1650F40F3FA80DDE90E0100225F
:1040E0000023FCF7BDFD002800F09D812B9BB24A08
:1040F0002260013301360122072B2C962B9362603C
:1041000000F332860834219B0D9A934280F261833A
:10411000129B139A1E44C4E900232B9B2C96013357
:10412000072B2B9300F39D8408340D9B5F1E002FFB
:104130007FF752AD102F2B9B41F31C849F49DDF874
:104140001890109132464FF010080E4604E00834E3
:10415000103F102F40F3A68001331032072BC4E923
:104160000068CDE92B32F2DD2AAA4946584601F013
:10417000C3FC002840F08980DDE92B322DACE7E755
:10418000059B029AA3EB0208B8F1000F7FF70CAD74
:104190008A4B2B9A1093B8F1100F29DD2146304637
:1041A000864C2E461023069D06E0A8F11008B8F1B3
:1041B000100F01F1080118DD01321030072AC1E9A2
:1041C0000043CDE92B20F0DD2AAA2946584601F00C
:1041D00093FC002859D1A8F11008B8F1100FDDE9BF
:1041E0002B202DA94FF01003E6DC35460C46064681
:1041F0000132109B23604644072ACDE92B26C4F8E0
:10420000048000F304860834CEE46C4B2B9A1093A0
:10421000B8F1100F24DD21461023069C06E0A8F11A
:104220001008B8F1100F01F1080118DD01326348E0
:104230001036072AC1E90003CDE92B26EFDD2AAAB3
:104240002146584601F058FCF8B9A8F11008B8F119
:10425000100FDDE92B262DA94FF01003E6DC0C46EC
:104260000132109B23604644072ACDE92B26C4F86F
:10427000048000F3018208349EE406992AAA584675
:1042800001F03AFC00283FF4BBAC079B002B3FF445
:1042900030AC07995846FEF767FF069B9B8903F0F1
:1042A00040032AE416460133109A22603E44072B4D
:1042B0006760CDE92B367FF78EAC06992AAA58465F
:1042C00001F01AFC0028E0D12C9E2DAC84E42B9B3D
:1042D00003F101080D9B012B06F1010604F1080909
:1042E00040F385810123B8F1070FCDE92B862760C4
:1042F000636000F35482129B139A08F101081E4474
:10430000B8F1070FC9E90023CDE92B8600F35482E9
:1043100009F108090D9BDDE90E015C1E0022002356
:10432000FCF79EFC002840F07C8108F10108013771
:104330002644B8F1070FCDE92B86C9F80070C9F8FB
:10434000044000F3618109F10809149AC9F80420B6
:1043500008F101031644072B24AACDE92B36C9F82E
:104360000020AADC09F1080436E4069910932AAA71
:10437000584601F0C1FB002887D12C9E109B2DAC24
:104380000FE4069910932AAA584601F0B5FB0028BD
:104390007FF47BAF2C9E109B2DACFFF7F1BB084A3E
:1043A0002B9B1092102F29DDAA46DDF818904FF0B4
:1043B000100815460BE000BFFCCF000864D10008D0
:1043C00074D10008103F102F04F1080415DD0133EB
:1043D0001036072BC4E90058CDE92B36F2DD2AAAA6
:1043E0004946584601F088FB00287FF44EAF103F45
:1043F000102FDDE92B362DACE9DC55460133109A40
:104400003E44072BC4E90027CDE92B367FF7EDABFF
:1044100006992AAA584601F06FFB00287FF435AFB1
:104420002C9EFFF7E2BB2199002940F353840B9B9C
:104430000D9A9342A8BF1346002B99460ADD1E44ED
:10444000C4E900732B9B2C960133072B2B9301F3AC
:10445000848008340B9BB9F1000FA8BFA3EB0903BC
:10446000002B984600F329830B9B1AF4806F3B4482
:1044700040F04C83219A0D998A4203DB1AF0010F18
:1044800000F02D86129913980E44C4E900012B996F
:104490002C96013107292B9101F36B8008340D997B
:1044A00007EB0108A8EB03088F1AB845A8BFB84668
:1044B000B8F1000F0BDD23602B9BC4F8048001339F
:1044C0004644072B2C962B9301F3A5800834B8F1B2
:1044D000000FA8BFA7EB0807002F7FF77DAB102FB9
:1044E0002B9B41F34782C549DDF818901091324665
:1044F0004FF010080E4604E00834103F102F7FF7ED
:10450000D1AE01331032072BC4E90068CDE92B325C
:10451000F2DD2AAA4946584601F0EEFA00287FF457
:10452000B4AEDDE92B322DACE7E7302A00F052843F
:104530003023039907F8013C023856AB1B1A994205
:104540004FF00002B8BF1946CDE90B22079208933D
:10455000074602911192FFF7FABADDF8ACE0A848DD
:1045600010991090B8F1100F724628DD1C95204666
:10457000A34D069C1D93102606E0A8F11008B8F183
:10458000100F00F1080017DD01321031072AC0E9D1
:104590000056CDE92B21F0DD2AAA2146584601F02C
:1045A000ABFA00287FF471AEA8F11008B8F1100F33
:1045B000DDE92B212DA8E7DC1C9D1D9B04461098EE
:1045C0002060501C08EB01060728CDE92B06C4F833
:1045D000048000F3A4839DF87F200834002A40F073
:1045E0000181002B3FF4E0AA1346FFF7CDBA1AF081
:1045F000010F7FF477AE0123B8F1070FCDE92B86C9
:10460000276063607FF7A1AE06992AAA584601F099
:1046100073FA00287FF439AEDDE92B860DF1B40979
:1046200093E60D9B012B7FF790AE112B41F30E8289
:1046300072491091324643461027DDF818800E4625
:1046400005E009F10809103C102C40F31B840133EC
:104650001032072BC9E90067CDE92B32F1DD2AAA18
:104660004146584601F048FA00287FF40EAEDDE9D5
:104670002B320DF1B409E6E706992AAA584601F053
:104680003BFA00287FF401AE2C9E2DACFFF794BAC4
:104690002D238DF87F30039B764268EB4808002B72
:1046A000FFF650AC0A2E78F100032AF0800AFFF4DE
:1046B0004EAC0AF480630022CDE9074956A9DDF823
:1046C0005890029594461C4626E016EB08034D4888
:1046D00043F10003A0FB032020F0030202EB900251
:1046E0009B1AF31A47484FF0CC32B646454602FBB8
:1046F00003F268F1000800FB0822A3FB0063BEF18F
:104700000A0F13444FEA560675F10005394646EA8A
:10471000C3764FEA53082DD33A4D16EB080343F105
:104720000003A5FB032020F0030202EB90029B1A7A
:10473000F31AA3FB053268F100005B0805FB0022B9
:1047400043EAC27303EB8303A6EB430330330CF15C
:10475000010C01F8013C4F1E002CB6D099F8003036
:104760006345B2D1BCF1FF0FAFD00A2E78F1000340
:1047700080F0D28356AB0399029DCDF85890DB1B95
:104780001A469142B8BF1146DDF82090079C089365
:10479000CDF834C09DF87F300291FFF7E8BB069951
:1047A0002AAA584601F0A8F900287FF46EADDDE989
:1047B0002B860DF1B4099EE506992AAA584601F008
:1047C0009BF900287FF461ADDDE92B860DF1B4097A
:1047D000A0E51AF0010F3FF4FFA999E40A932B78A2
:1047E000FFF7EBB898460023FFF7BDB90A9B1A1DE7
:1047F0000A9B0A921B680021FFF745BB64D10008A1
:1048000074D10008CDCCCCCC5346FFF7E7BB0A9A55
:1048100004320A990A920E684FEAE6789A464346AD
:10482000FFF7E6BB5046FFF725BB0A9A1AF01008BF
:1048300052F8043B41F051811AF0400100F03D83F1
:104840009EB2039B8DF87F80002BFFF67AAB2AF097
:10485000800A002E7FF475AB039B0A92002B7FF435
:10486000B1ABCDE90B33089311930293079356AF85
:10487000FFF76DB91AF0100F40F0D5821AF0400F13
:1048800040F087841AF4007F00F0CD820A9A0499E0
:1048900012681170FFF7D2BBDDE90E0102460B462C
:1048A000FCF710FA0646002840F0B687B9F1610F10
:1048B00000F04285B9F1410F00F0C486039B01333B
:1048C00000F0A784B9F1670F0F9B4AF4807800F0DD
:1048D0006887B9F1470F00F064870790DDE90E1291
:1048E000002AC0F27A879DED0E7B8DED187B0023A8
:1048F0001093A9F14103252B00F20884DFE813F09F
:1049000016070604060406049004FB0406040604C5
:104910000604060406040604060406040604060447
:104920000604060406040604060406040604060437
:104930000604060406040604060406040604060427
:1049400016070604060406049004FB04B64E1AF08B
:10495000200100F092810A9B073323F007031A46D7
:10496000596852F8083B0A921AF0010200F064817B
:1049700053EA010200F0E88130228DF88020002205
:104980008DF87F20039A8DF88190002AC0F28F81E4
:104990002AF4906242F0020A03F00F020AF00200C9
:1049A000B25C8DF857211B0943EA01730A0953EAE7
:1049B00011110DF257170BD003F00F011B09715C99
:1049C00007F8011D43EA0273120953EA0201F3D109
:1049D000039A56AB4FF0000CDB1B9A42CDE90BCC8F
:1049E000B8BF1A4608930292CDF81CC0CDF844C057
:1049F00000283FF4ACA8029BDDE92B0602330293AA
:104A00001AF084031096864606D10599029AA1EB06
:104A10000208B8F1000F07DCBCF1000F3FF4B4A8A6
:104A20004FF00208FFF79FB8022398E57F4E8EE70C
:104A30000A928A46FFF786BA4AF0020A0A927B4E29
:104A400003F00F020220B25C4FF07809A9E70A9B3D
:104A50001B688DF8F4300123029308933DAFFFF7F4
:104A600051B906992AAA584601F046F800287FF461
:104A70000CAC2C9E2DACFFF758BB039BCDF82880C7
:104A8000062B3A4628BF0623CDE907730397CDE9E5
:104A90000B22674F02931192FFF759B840215846F5
:104AA000FEF75AFC069B18601861002801F006808A
:104AB000069A40235361FEF743BFB8F1100F2B9BBA
:104AC00040F3C0875B48109022463146069C4FF069
:104AD0001009064606E00832A8F11008B8F1100FD8
:104AE00040F3A98201331031072BC2E90069CDE9F7
:104AF0002B31F0DD2AAA2146584600F0FDFF0028A0
:104B00007FF4C3ABDDE92B312DAAE5E70D9ADDF883
:104B10004480CDF840A0BA18039222461C460C9B54
:104B2000DDF85890DDF818A00B95002B3146119751
:104B3000179E31DDB8F1000F40F3108108F1FF3806
:104B40002B98159B013031440728C2E900362C917F
:104B50002B9000F3A1800832039B99F800001F1BE3
:104B60008742A8BF0746002F0CDD2B98013039443F
:104B70000728C2E900472C912B9000F33B8199F85C
:104B800000000832002FACBFC51B0546002D15DC08
:104B900004440C9B002BCDDCB8F1000FCEDC234687
:104BA000119F0B9DDDF840A0CDF8589014460D9A4A
:104BB000BA1893420E4628BF13465BE4102D2B987B
:104BC0001C4B23DD089410272C461D4604E0103CA6
:104BD000102C02F1080216DD0130164B10310728A7
:104BE000C2E90037CDE92B01F1DD2AAA514658462A
:104BF00000F082FF00287FF448AB103C102CDDE968
:104C00002B012DAAE8DC2B462546089C13600130B9
:104C100029440728CDE92B01556000F37A8399F8E0
:104C2000000008320444B4E7E0CF0008CCCF00080D
:104C3000F4CF000864D100088DF87F20039A002A81
:104C400037DB53EA01022AF4906A7FF4A5AE039A97
:104C5000002A00F0EE80012A33788DF85731B8BF72
:104C60000122002302920122CDE90B33079308921F
:104C700011930DF25717FEF76ABF0A9A52F8043BD8
:104C80000A921AF010027FF46FAE1AF0400000F0A2
:104C900035819BB2114667E62AAA5146584600F074
:104CA0002BFF00287FF4F1AA2C992DAA54E74AF093
:104CB000020A03F00F020AF00200B25C2AF4806AD2
:104CC0006FE6039B0893CDE90B331193079356AF1F
:104CD000FEF73DBF2B9BB54A22600133013601220E
:104CE000072B2C962B93626000F3C98108340029AE
:104CF00040F0A9800D9A0AF0010313433EF46CAF13
:104D0000129B139A1E44C4E900232B9B2C9601335B
:104D1000072B2B9300F3708204F10802A4E006999C
:104D200010932AAA584600F0E7FE00287FF4ADAAA7
:104D30009DF87F202C9E109B002A7CD098462DAC9D
:104D400003462B98FEF70FBF039B002083428DF88C
:104D50007F00C0F2D9802AF4906A78E70C9B013B6F
:104D600009F1FF390C93EBE606992AAA584600F0A0
:104D7000C3FE00287FF489AA2C9E2DACFFF7C3B98F
:104D80000822002128A82397FEF7B0F8039B002BE8
:104D9000C0F2108100260295CDF81C803546984659
:104DA0000EE03DA9584602F08DFD411C284400F05C
:104DB0002185404509DC06F1040600F026850546FC
:104DC000239A925928AB002AEBD10895DDF81C8074
:104DD000029DFDE0039956AAD21B91424FF00003B9
:104DE000B8BF1146CDE90B33079308920291119396
:104DF000FEF7ADBE2AAA5146584600F07DFE0028B7
:104E00007FF443AA99F800002C992DAABAE60699D6
:104E10002AAA584600F070FE00287FF436AA2C9E7D
:104E20002DACFEF7C1BE0A9A049912681160FFF713
:104E300005B9039B15E5002B00F05B812B98134609
:104E40002DACFEF7A1BE129B139A1E44C4E90023A9
:104E50002B9B2C960133072B2B9300F3CD8104F170
:104E600008020029C0F22A840D99176001330E440C
:104E7000072BCDE92B3651603FF71FAA02F108043A
:104E8000FEF7AABE1646984608F10108109BC9F81D
:104E900000302644B8F1070FCDE92B86C9F804404D
:104EA0007FF751AAFFF7B0BB1AF400711CBF01468F
:104EB000DBB20A925046FEF7E6BF1AF4007840F0E3
:104EC0001B8103998DF87F8000291E46FFF639A8C3
:104ED0002AF0800A002B7FF434A80B460A9200299E
:104EE0007FF470A8BDE41AF4007F16BF46F3C01823
:104EF0004FEAE67876B24346FFF77AB81AF40071C3
:104F00001CBFDBB201462FE533788DF857312AF408
:104F1000806A0DF257175BE5179A1599BF1A384644
:104F200000F03AFF99F801300BB109F10109204A6C
:104F300016EB080343F10003A2FB030525F0030071
:104F400000EB95001B1AF31A4FF0CC3168F1000802
:104F500003FB01F102FB0811A3FB023001445B08D3
:104F600043EAC1764FEA510816EB080343F1000308
:104F7000A2FB031020F0030101EB90015B1AF31A6E
:104F8000A3FB023168F100005B0802FB001243EA58
:104F9000C27303EB8303A6EB4303303307F8013CF2
:104FA0004FF0010C013FFFF7D9BB00BFFCCF000859
:104FB000CDCCCCCC28AB00930023194623AA58466D
:104FC00002F0A6FC03460133089000F013842397F7
:104FD000089B002B5FD0632B40F3FE80591C584682
:104FE000FEF7BAF90746002800F05D850790082211
:104FF000002128A8FDF77AFF089E28AB009323AA7A
:1050000033463946584602F083FC864240F04585D7
:10501000089A0023BB5422EAE27202929DF87F2094
:10502000002A40F07083CDE90B220392CDF828804E
:105030001192FEF78CBD14460E460133109A226081
:105040004644072BCDE92B36C4F8048000F3C88012
:105050000834FFF709BA2D23B9F1470F8DF87F30D7
:1050600007963346039600F3A8800322B04F0892B8
:10507000CDE90B33119304230293FEF768BD069923
:105080002AAA584600F038FD00287FF4FEA821998E
:105090002C9E2DAC2BE69DF87F30CDF82880003B70
:1050A00018BF01230293089B0393CDE90B3311939F
:1050B0000793FEF74CBD9DF87F300292089256AFE1
:1050C000FEF755BF039B0A920C93119308930B9321
:1050D000029356AF07934FF078099C468BE407EB99
:1050E0000108A8EB03088F1AB845A8BFB846FFF718
:1050F000EEB92DACFEF758BDDEB2039B8DF87F10E4
:10510000002B8846BFF6A3ABFEF71BBF28AB01936D
:1051100023AB00939DED180B039A21AB0221584657
:1051200000F0B6FF07461AF0010F40F0B782289B47
:10513000DA1B219B0D92D81C0B93C0F22982039994
:105140009942C0F2B8819A4200F3AD820B9B08935A
:105150001AF4806F03D00B9B002B00F3A083089BF5
:1051600023EAE373C24602934FF0670900231193C9
:105170000C93109B0AF00200002B00F0C0804FF04F
:105180002D0C8DF87FC0029B013302930023039303
:105190002EE40A9A049912681180FEF74FBF384630
:1051A000FBF7CEF89DF87F30089020EAE07202927B
:1051B000002B3EF4EFADFEF7EBBD03225D4F0892EE
:1051C00056E7069C2AAA2146584600F095FCA3897A
:1051D00003F04003FEF791BC002307933DAF06E7C1
:1051E00006992AAA584600F087FC00287FF44DA8AB
:1051F0002C9E2DACFFF738B906992AAA584600F024
:105200007BFC00287FF441A8DDE92B3621992DAAEB
:1052100027E60623079003934AF48078FFF75EBBE6
:10522000039B01330D9302210D9E28AB019323AB09
:105230000093324621AB9DED180B584600F028FF35
:1052400029F02003462B07460293064400F05281C2
:10525000DDE9180100220023FBF702FD002840F0E1
:105260000F83289B9E4240F20983452202923021FF
:105270005A1C28921970289BB342F9D3DB1B0D935B
:10528000219B0B93029B472B00F00E81029B462B28
:1052900000F049810B9B8DF89090013B002B2193EE
:1052A000C0F27D812B22092B8DF8912000F38081A3
:1052B00030228DF892200DF19302303302F8013B39
:1052C00024ABD31A14930D9B149A012B1A44089201
:1052D00040F38B82089B129A13440893089A2AF48D
:1052E000806343F4807A22EAE2720023CDE90B3333
:1052F000119302923DE7039B0D93032194E79DF8E0
:105300007FC0BCF1000F7FF43EAF109B0393FFF70B
:105310006FBB2AAA5146584600F0EEFB00287EF4E7
:10532000B4AF99F800002C992DAA044431E400BFD1
:10533000BCCF0008C0CF000847F63003ADF880307E
:10534000039B632B4AF0020A00F30E82DDE90E1282
:10535000002AC0F2E38121A89DED0E0B00F08EFD26
:10536000002251EC100B4FF07F53FBF711FA02466D
:105370000B46CDE9082300230022FBF771FC03460E
:10538000002800F0D9820123109621933DAF0796A3
:10539000A84B0293039B0B94591ECDE90C9A0395DD
:1053A000029EDDE90845B8468A4609E0002200234E
:1053B0000AF1FF39FBF754FC002840F04A82CA4644
:1053C0009D4B002220462946FBF7E2F90D46044694
:1053D000FBF78EFC8146FBF771F902460B4620462F
:1053E0002946FBF71DF816F80930BAF1FF3F42468F
:1053F000044608F8013B0D46D8D116468F4BDDF820
:1054000034A00022CDE90845039D0B9CCDF80C90FB
:10541000DDF83090FBF74CFC48B9DDE90801874B1B
:105420000022FBF71DFCE0B1039BDB0719D5029BB3
:105430002896D97B18F8012C9142434609D1302097
:1054400003F8010C289B5A1E289213F8012C8A425B
:10545000F6D0392A0BBF029A0132927AD2B203F8FF
:10546000012C219AA8EB07030D93B9F1610F02F10A
:10547000FF33219300F0B78250214FF04109002BF8
:105480008DF89010C0F28D822B22092B8DF891207F
:1054900000F38E800DF192020FE7219B0B93F31B1B
:1054A0000D93029B472B3ED10B9B033370DB039B79
:1054B0000B9A934210DA0B9B013BA9F10209002BD6
:1054C0008DF890902193BFF6EDAE0B9B2D22C3F18A
:1054D00001038DF89120EBE60D9B0B9A934200F3AC
:1054E000E2801AF0010F0B9B00F02482129A134401
:1054F00008932DE63B78302B00F0C581219B1E449C
:10550000DDE9180100220023FBF7AAFB0028C4D123
:10551000289B9E423FF6ABAEDB1B0D93219B0B936A
:10552000029B472BC0D00B99039A0AF00103002974
:1055300043EA020340F36282002B40F0D9810B9BC7
:1055400008934FF066091AF4806F40F0AA81089B17
:1055500023EAE373C246029308E606992AAA58464C
:1055600000F0CAFA00287EF490AE2C9E2DACFEF717
:1055700071BF069903932AAA584600F0BDFA002885
:105580007EF483AE219A2C9E039B2DACFEF787BF41
:105590000B9BA9F10209013B8DF8909021930B9B85
:1055A000C3F101032D22092B8DF891207FF780AEE6
:1055B0000DF1A706DFF888C032461046ACFB031297
:1055C000D20802EB8201A3EB4101303100F8011C4B
:1055D00019466329134600F1FF32EEDC303302F83E
:1055E000013C831EB34280F01F820DF1910213F83B
:1055F000011B02F8011FB342F9D103F5AC736B44F0
:10560000C43B1B1A24AA9B1A14935CE600230D4684
:105610000393FEF7D4B906992AAA584600F06CFA0B
:1056200000287EF432AE219F0D9B2C9EDF1B2DACFB
:10563000FEF74DBFCCCF0008000030400000E03F37
:10564000CDCCCCCC45F63003ADF88030039B632B3A
:105650004AF0020A00F38880DDE90E12002A5DDBC1
:1056600021A89DED0E0B00F009FC00224FF07F53A6
:1056700051EC100BFBF78CF802460B46CDE90823E2
:1056800000220023FBF7ECFA08B101232193002349
:10569000AC4A1093029207933DAF7BE6039BFE1842
:1056A000472302932CE70D9B129A9A180B9B0892A2
:1056B000002B40F326814FF0670944E7C1F1000851
:1056C000103180F2E781A048109031461024064640
:1056D00005E00832A8F11008B8F1100F52DD0133CF
:1056E0001031072BC2E90064CDE92B31F1DD0699B9
:1056F0002AAA584600F000FA00287EF4C6ADDDE97B
:105700002B312DAAE6E7029A03930132CDE90B3340
:105710000292CDF828801193FEF719BA02F10043E6
:1057200019932D23189107963DAF109321A89DED55
:10573000180B00F0A3FB00224FF07F5351EC100B2D
:10574000FBF726F802460B46CDE90823002200238A
:10575000FBF786FA08B101232193B9F1610F3FF4F9
:1057600017AE784B029315E6039B5846591CFDF77C
:10577000F3FD0746002800F0838107904AF4807803
:10578000FFF7ACB80E460133109911604644072B61
:10579000CDE92B36C2F8048000F30D810832FFF703
:1057A00063BB039A002A00F01381002BC0F21D8115
:1057B0009DED0E7B8DED187B109628AB019323ABEE
:1057C00000939DED180B21AB039A0221584600F07F
:1057D0005FFC002307460793A5E402F100431993F9
:1057E0002D2318911093FFF784B81AF0010F3FF49E
:1057F00075AD6FE5069BB3F90C300022079243F0BC
:105800004003069A9381FEF740BD039B029DDDF89D
:105810001C800893FFF7DCBB0F9B13F000432AF0BA
:10582000800A0B9300F0AA802D238DF87F30B9F108
:10583000470F4FF000030793039340F30B810322BC
:10584000424F089214E400230322CDE90732039368
:105850000EE451460029DDE90C9A039D0B9CFFF6EE
:1058600000AE4A1C42444346302003F8010B9342E9
:10587000FBD108EB010303F10108F2E5DB1B0D93FB
:10588000219B0B9306E5DDE9180100220023FBF7BD
:10589000E7F9002869D0219B0B931E44FFE54FF0E8
:1058A000670916990B78FF2B00F0048100260B9AEC
:1058B000304603E001300131FF2B08D0934206DA75
:1058C000D21A4B78002BF5D10B780136F4E7CDE9ED
:1058D0000B20169111960C9A119B17991344089A54
:1058E00001FB0323089323EAE373C246029340E4D7
:1058F00013460B449946129B4B4408934FF066099C
:1059000021E6C3F101031A4422EAE273C246089277
:1059100002934FF0670929E4CDF82880D3B1039BA7
:1059200008935A1C0292039011900C904FF0730947
:10593000FEF70DB908930BE4054A10930292079302
:105940003DAF27E5E0CF000864D10008C8CF0008CC
:10595000CCCF0008039B08930293079B11930C93F1
:1059600003934FF07309FEF7F2B80D9BC3F10103E7
:105970002193C4E55D4A1092FEF795BC9DF87F30F7
:10598000B9F1470FCCBF5A4F5A4F002B40F09A80C5
:1059900003220393089211930C9307930292FEF74C
:1059A000D6B8C2F10103092B4FF02D028DF89120DA
:1059B0003FF7FEAD6EE506992AAA584600F09CF81E
:1059C00000287EF462ACDDE92B362DAAFFF74CBA35
:1059D000002B2CDB9DED0E7B039B109301238DEDA3
:1059E000187B0393E9E6702149E5DDE90E1202F127
:1059F000004319932D2318911093DEE6C24633B964
:105A0000012302934FF066090893FFF7AFBB129B87
:105A100003F10109039B4B44089323EAE3730293C8
:105A20004FF06609FFF7A2BB022314934BE4DDE9B4
:105A30000E1202F1004319932D23109301231891A4
:105A40000393BAE6294A1092FFF7F7BA274B10934F
:105A5000FFF71ABA0322274F0892FFF709BBCDE9D7
:105A60000B3307931193FEF772B80A9A6B780D46C1
:105A700052F8041B0A9241EAE1710391FDF79DBFC0
:105A8000069A938943F0400393814FF0FF330493C8
:105A9000FEF736B81549109175E6069BB3F90C3040
:105AA00043F04003ADE6069B0790B3F90C3043F09A
:105AB0004003A6E6002311930C930CE70C23CBF8CC
:105AC0000030E2E70023039311930C930793032321
:105AD000089304230293FEF73AB85146FEF721BA21
:105AE0005046FEF785BE5346FEF793BE64D10008CC
:105AF000C8CF0008C4CF00082DE9F84315469268C6
